{
  "contractName": "NftMarketAquans",
  "abi": [
    {
      "inputs": [],
      "stateMutability": "nonpayable",
      "type": "constructor"
    },
    {
      "anonymous": false,
      "inputs": [
        {
          "indexed": true,
          "internalType": "address",
          "name": "owner",
          "type": "address"
        },
        {
          "indexed": true,
          "internalType": "address",
          "name": "approved",
          "type": "address"
        },
        {
          "indexed": true,
          "internalType": "uint256",
          "name": "tokenId",
          "type": "uint256"
        }
      ],
      "name": "Approval",
      "type": "event"
    },
    {
      "anonymous": false,
      "inputs": [
        {
          "indexed": true,
          "internalType": "address",
          "name": "owner",
          "type": "address"
        },
        {
          "indexed": true,
          "internalType": "address",
          "name": "operator",
          "type": "address"
        },
        {
          "indexed": false,
          "internalType": "bool",
          "name": "approved",
          "type": "bool"
        }
      ],
      "name": "ApprovalForAll",
      "type": "event"
    },
    {
      "anonymous": false,
      "inputs": [
        {
          "indexed": false,
          "internalType": "uint256",
          "name": "tokenId",
          "type": "uint256"
        },
        {
          "indexed": false,
          "internalType": "uint256",
          "name": "price",
          "type": "uint256"
        },
        {
          "indexed": false,
          "internalType": "address",
          "name": "creator",
          "type": "address"
        },
        {
          "indexed": false,
          "internalType": "bool",
          "name": "isListed",
          "type": "bool"
        }
      ],
      "name": "NftItemCreated",
      "type": "event"
    },
    {
      "anonymous": false,
      "inputs": [
        {
          "indexed": true,
          "internalType": "address",
          "name": "previousOwner",
          "type": "address"
        },
        {
          "indexed": true,
          "internalType": "address",
          "name": "newOwner",
          "type": "address"
        }
      ],
      "name": "OwnershipTransferred",
      "type": "event"
    },
    {
      "anonymous": false,
      "inputs": [
        {
          "indexed": true,
          "internalType": "address",
          "name": "from",
          "type": "address"
        },
        {
          "indexed": true,
          "internalType": "address",
          "name": "to",
          "type": "address"
        },
        {
          "indexed": true,
          "internalType": "uint256",
          "name": "tokenId",
          "type": "uint256"
        }
      ],
      "name": "Transfer",
      "type": "event"
    },
    {
      "inputs": [
        {
          "internalType": "uint256",
          "name": "",
          "type": "uint256"
        }
      ],
      "name": "AllTokens",
      "outputs": [
        {
          "internalType": "uint64",
          "name": "listingPrice",
          "type": "uint64"
        },
        {
          "internalType": "uint16",
          "name": "startTokenId",
          "type": "uint16"
        },
        {
          "internalType": "uint16",
          "name": "endTokenId",
          "type": "uint16"
        }
      ],
      "stateMutability": "view",
      "type": "function",
      "constant": true
    },
    {
      "inputs": [
        {
          "internalType": "uint256",
          "name": "",
          "type": "uint256"
        }
      ],
      "name": "_idToNftItem",
      "outputs": [
        {
          "internalType": "uint256",
          "name": "tokenId",
          "type": "uint256"
        },
        {
          "internalType": "uint256",
          "name": "price",
          "type": "uint256"
        },
        {
          "internalType": "address",
          "name": "creator",
          "type": "address"
        },
        {
          "internalType": "bool",
          "name": "isListed",
          "type": "bool"
        }
      ],
      "stateMutability": "view",
      "type": "function",
      "constant": true
    },
    {
      "inputs": [
        {
          "internalType": "address",
          "name": "to",
          "type": "address"
        },
        {
          "internalType": "uint256",
          "name": "tokenId",
          "type": "uint256"
        }
      ],
      "name": "approve",
      "outputs": [],
      "stateMutability": "nonpayable",
      "type": "function"
    },
    {
      "inputs": [
        {
          "internalType": "address",
          "name": "owner",
          "type": "address"
        }
      ],
      "name": "balanceOf",
      "outputs": [
        {
          "internalType": "uint256",
          "name": "",
          "type": "uint256"
        }
      ],
      "stateMutability": "view",
      "type": "function",
      "constant": true
    },
    {
      "inputs": [],
      "name": "baseURI",
      "outputs": [
        {
          "internalType": "string",
          "name": "",
          "type": "string"
        }
      ],
      "stateMutability": "view",
      "type": "function",
      "constant": true
    },
    {
      "inputs": [
        {
          "internalType": "uint256",
          "name": "tokenId",
          "type": "uint256"
        }
      ],
      "name": "getApproved",
      "outputs": [
        {
          "internalType": "address",
          "name": "",
          "type": "address"
        }
      ],
      "stateMutability": "view",
      "type": "function",
      "constant": true
    },
    {
      "inputs": [
        {
          "internalType": "address",
          "name": "owner",
          "type": "address"
        },
        {
          "internalType": "address",
          "name": "operator",
          "type": "address"
        }
      ],
      "name": "isApprovedForAll",
      "outputs": [
        {
          "internalType": "bool",
          "name": "",
          "type": "bool"
        }
      ],
      "stateMutability": "view",
      "type": "function",
      "constant": true
    },
    {
      "inputs": [],
      "name": "name",
      "outputs": [
        {
          "internalType": "string",
          "name": "",
          "type": "string"
        }
      ],
      "stateMutability": "view",
      "type": "function",
      "constant": true
    },
    {
      "inputs": [],
      "name": "owner",
      "outputs": [
        {
          "internalType": "address",
          "name": "",
          "type": "address"
        }
      ],
      "stateMutability": "view",
      "type": "function",
      "constant": true
    },
    {
      "inputs": [
        {
          "internalType": "uint256",
          "name": "tokenId",
          "type": "uint256"
        }
      ],
      "name": "ownerOf",
      "outputs": [
        {
          "internalType": "address",
          "name": "",
          "type": "address"
        }
      ],
      "stateMutability": "view",
      "type": "function",
      "constant": true
    },
    {
      "inputs": [],
      "name": "renounceOwnership",
      "outputs": [],
      "stateMutability": "nonpayable",
      "type": "function"
    },
    {
      "inputs": [
        {
          "internalType": "address",
          "name": "from",
          "type": "address"
        },
        {
          "internalType": "address",
          "name": "to",
          "type": "address"
        },
        {
          "internalType": "uint256",
          "name": "tokenId",
          "type": "uint256"
        }
      ],
      "name": "safeTransferFrom",
      "outputs": [],
      "stateMutability": "nonpayable",
      "type": "function"
    },
    {
      "inputs": [
        {
          "internalType": "address",
          "name": "from",
          "type": "address"
        },
        {
          "internalType": "address",
          "name": "to",
          "type": "address"
        },
        {
          "internalType": "uint256",
          "name": "tokenId",
          "type": "uint256"
        },
        {
          "internalType": "bytes",
          "name": "data",
          "type": "bytes"
        }
      ],
      "name": "safeTransferFrom",
      "outputs": [],
      "stateMutability": "nonpayable",
      "type": "function"
    },
    {
      "inputs": [
        {
          "internalType": "address",
          "name": "operator",
          "type": "address"
        },
        {
          "internalType": "bool",
          "name": "approved",
          "type": "bool"
        }
      ],
      "name": "setApprovalForAll",
      "outputs": [],
      "stateMutability": "nonpayable",
      "type": "function"
    },
    {
      "inputs": [
        {
          "internalType": "bytes4",
          "name": "interfaceId",
          "type": "bytes4"
        }
      ],
      "name": "supportsInterface",
      "outputs": [
        {
          "internalType": "bool",
          "name": "",
          "type": "bool"
        }
      ],
      "stateMutability": "view",
      "type": "function",
      "constant": true
    },
    {
      "inputs": [],
      "name": "symbol",
      "outputs": [
        {
          "internalType": "string",
          "name": "",
          "type": "string"
        }
      ],
      "stateMutability": "view",
      "type": "function",
      "constant": true
    },
    {
      "inputs": [
        {
          "internalType": "address",
          "name": "from",
          "type": "address"
        },
        {
          "internalType": "address",
          "name": "to",
          "type": "address"
        },
        {
          "internalType": "uint256",
          "name": "tokenId",
          "type": "uint256"
        }
      ],
      "name": "transferFrom",
      "outputs": [],
      "stateMutability": "nonpayable",
      "type": "function"
    },
    {
      "inputs": [
        {
          "internalType": "address",
          "name": "newOwner",
          "type": "address"
        }
      ],
      "name": "transferOwnership",
      "outputs": [],
      "stateMutability": "nonpayable",
      "type": "function"
    },
    {
      "inputs": [
        {
          "internalType": "uint16",
          "name": "newMax",
          "type": "uint16"
        },
        {
          "internalType": "uint256",
          "name": "tokenId",
          "type": "uint256"
        }
      ],
      "name": "setMaxNfts",
      "outputs": [],
      "stateMutability": "nonpayable",
      "type": "function"
    },
    {
      "inputs": [],
      "name": "withdraw",
      "outputs": [],
      "stateMutability": "nonpayable",
      "type": "function"
    },
    {
      "inputs": [],
      "name": "listedItemsCount",
      "outputs": [
        {
          "internalType": "uint256",
          "name": "",
          "type": "uint256"
        }
      ],
      "stateMutability": "view",
      "type": "function",
      "constant": true
    },
    {
      "inputs": [],
      "name": "totalSupply",
      "outputs": [
        {
          "internalType": "uint256",
          "name": "",
          "type": "uint256"
        }
      ],
      "stateMutability": "view",
      "type": "function",
      "constant": true
    },
    {
      "inputs": [
        {
          "internalType": "string",
          "name": "_newBaseURI",
          "type": "string"
        }
      ],
      "name": "setBaseURI",
      "outputs": [],
      "stateMutability": "nonpayable",
      "type": "function"
    },
    {
      "inputs": [
        {
          "internalType": "uint256",
          "name": "index",
          "type": "uint256"
        }
      ],
      "name": "tokenByIndex",
      "outputs": [
        {
          "internalType": "uint256",
          "name": "",
          "type": "uint256"
        }
      ],
      "stateMutability": "view",
      "type": "function",
      "constant": true
    },
    {
      "inputs": [
        {
          "internalType": "address",
          "name": "owner",
          "type": "address"
        },
        {
          "internalType": "uint256",
          "name": "index",
          "type": "uint256"
        }
      ],
      "name": "tokenOfOwnerByIndex",
      "outputs": [
        {
          "internalType": "uint256",
          "name": "",
          "type": "uint256"
        }
      ],
      "stateMutability": "view",
      "type": "function",
      "constant": true
    },
    {
      "inputs": [],
      "name": "getAllNftsOnSale",
      "outputs": [
        {
          "components": [
            {
              "internalType": "uint256",
              "name": "tokenId",
              "type": "uint256"
            },
            {
              "internalType": "uint256",
              "name": "price",
              "type": "uint256"
            },
            {
              "internalType": "address",
              "name": "creator",
              "type": "address"
            },
            {
              "internalType": "bool",
              "name": "isListed",
              "type": "bool"
            }
          ],
          "internalType": "struct NftMarketAquans.NftItem[]",
          "name": "",
          "type": "tuple[]"
        }
      ],
      "stateMutability": "view",
      "type": "function",
      "constant": true
    },
    {
      "inputs": [],
      "name": "getOwnedNfts",
      "outputs": [
        {
          "components": [
            {
              "internalType": "uint256",
              "name": "tokenId",
              "type": "uint256"
            },
            {
              "internalType": "uint256",
              "name": "price",
              "type": "uint256"
            },
            {
              "internalType": "address",
              "name": "creator",
              "type": "address"
            },
            {
              "internalType": "bool",
              "name": "isListed",
              "type": "bool"
            }
          ],
          "internalType": "struct NftMarketAquans.NftItem[]",
          "name": "",
          "type": "tuple[]"
        }
      ],
      "stateMutability": "view",
      "type": "function",
      "constant": true
    },
    {
      "inputs": [
        {
          "internalType": "uint256",
          "name": "tokenType",
          "type": "uint256"
        },
        {
          "internalType": "uint8",
          "name": "amount",
          "type": "uint8"
        }
      ],
      "name": "AquansBuy",
      "outputs": [
        {
          "internalType": "uint256",
          "name": "",
          "type": "uint256"
        }
      ],
      "stateMutability": "payable",
      "type": "function",
      "payable": true
    },
    {
      "inputs": [
        {
          "internalType": "uint256",
          "name": "tokenId",
          "type": "uint256"
        }
      ],
      "name": "tokenURI",
      "outputs": [
        {
          "internalType": "string",
          "name": "",
          "type": "string"
        }
      ],
      "stateMutability": "view",
      "type": "function",
      "constant": true
    },
    {
      "inputs": [
        {
          "internalType": "uint256",
          "name": "tokenId",
          "type": "uint256"
        }
      ],
      "name": "buyNft",
      "outputs": [],
      "stateMutability": "payable",
      "type": "function",
      "payable": true
    },
    {
      "inputs": [
        {
          "internalType": "uint256",
          "name": "tokenId",
          "type": "uint256"
        }
      ],
      "name": "cancellSellNft",
      "outputs": [],
      "stateMutability": "nonpayable",
      "type": "function"
    },
    {
      "inputs": [
        {
          "internalType": "uint256",
          "name": "tokenId",
          "type": "uint256"
        },
        {
          "internalType": "uint256",
          "name": "newPrice",
          "type": "uint256"
        }
      ],
      "name": "placeNftOnSale",
      "outputs": [],
      "stateMutability": "payable",
      "type": "function",
      "payable": true
    }
  ],
  "bytecode": "0x60c06040526005608090815264173539b7b760d91b60a052600b9062000026908262000426565b503480156200003457600080fd5b506040518060400160405280600681526020016514d0d0d3919560d21b8152506040518060400160405280600581526020016414d398d19560da1b815250816000908162000083919062000426565b50600162000092828262000426565b505050620000af620000a96200032b60201b60201c565b6200032f565b600860405180606001604052806703782dace9d900006001600160401b03168152602001600061ffff168152602001600861ffff168152509080600181540180825580915050600190039060005260206000200160009091909190915060008201518160000160006101000a8154816001600160401b0302191690836001600160401b0316021790555060208201518160000160086101000a81548161ffff021916908361ffff160217905550604082015181600001600a6101000a81548161ffff021916908361ffff1602179055505050600860405180606001604052806704db7325476300006001600160401b03168152602001600861ffff168152602001601061ffff168152509080600181540180825580915050600190039060005260206000200160009091909190915060008201518160000160006101000a8154816001600160401b0302191690836001600160401b0316021790555060208201518160000160086101000a81548161ffff021916908361ffff160217905550604082015181600001600a6101000a81548161ffff021916908361ffff16021790555050506008604051806060016040528067063eb89da4ed00006001600160401b03168152602001601061ffff168152602001602061ffff168152509080600181540180825580915050600190039060005260206000200160009091909190915060008201518160000160006101000a8154816001600160401b0302191690836001600160401b0316021790555060208201518160000160086101000a81548161ffff021916908361ffff160217905550604082015181600001600a6101000a81548161ffff021916908361ffff1602179055505050620004f2565b3390565b600780546001600160a01b038381166001600160a01b0319831681179093556040519116919082907f8be0079c531659141344cd1fd0a4f28419497f9722a3daafe3b4186f6b6457e090600090a35050565b634e487b7160e01b600052604160045260246000fd5b600181811c90821680620003ac57607f821691505b602082108103620003cd57634e487b7160e01b600052602260045260246000fd5b50919050565b601f8211156200042157600081815260208120601f850160051c81016020861015620003fc5750805b601f850160051c820191505b818110156200041d5782815560010162000408565b5050505b505050565b81516001600160401b0381111562000442576200044262000381565b6200045a8162000453845462000397565b84620003d3565b602080601f831160018114620004925760008415620004795750858301515b600019600386901b1c1916600185901b1785556200041d565b600085815260208120601f198616915b82811015620004c357888601518255948401946001909101908401620004a2565b5085821015620004e25787850151600019600388901b60f8161c191681555b5050505050600190811b01905550565b612cd980620005026000396000f3fe6080604052600436106101e35760003560e01c80636c0360eb1161010257806395d89b4111610095578063ccb4918d11610064578063ccb4918d146105c7578063e7fdc7b3146105dc578063e985e9c5146105fc578063f2fde38b1461064557600080fd5b806395d89b4114610552578063a22cb46514610567578063b88d4fde14610587578063c87b56dd146105a757600080fd5b806375e05b88116100d157806375e05b881461047f5780638da5cb5b146105015780639061d0071461051f57806394c0053a1461053f57600080fd5b80636c0360eb1461042057806370a082311461043557806370cbcb4314610455578063715018a61461046a57600080fd5b8063243adbdd1161017a57806342842e0e1161014957806342842e0e146103a05780634f6ccce7146103c057806355f804b3146103e05780636352211e1461040057600080fd5b8063243adbdd146103365780632f745c591461034957806336b536be146103695780633ccfd60b1461038b57600080fd5b806318160ddd116101b657806318160ddd146102995780631c910e65146102b857806321f422e51461030357806323b872dd1461031657600080fd5b806301ffc9a7146101e857806306fdde031461021d578063081812fc1461023f578063095ea7b314610277575b600080fd5b3480156101f457600080fd5b50610208610203366004612581565b610665565b60405190151581526020015b60405180910390f35b34801561022957600080fd5b50610232610702565b60405161021491906125ee565b34801561024b57600080fd5b5061025f61025a366004612601565b610794565b6040516001600160a01b039091168152602001610214565b34801561028357600080fd5b50610297610292366004612636565b6107bb565b005b3480156102a557600080fd5b506011545b604051908152602001610214565b3480156102c457600080fd5b506102d86102d3366004612601565b6108f1565b6040805167ffffffffffffffff909416845261ffff9283166020850152911690820152606001610214565b610297610311366004612660565b61093e565b34801561032257600080fd5b50610297610331366004612682565b610a42565b610297610344366004612601565b610ac9565b34801561035557600080fd5b506102aa610364366004612636565b610bc9565b34801561037557600080fd5b5061037e610c4b565b60405161021491906126be565b34801561039757600080fd5b50610297610d9d565b3480156103ac57600080fd5b506102976103bb366004612682565b610e12565b3480156103cc57600080fd5b506102aa6103db366004612601565b610e2d565b3480156103ec57600080fd5b506102976103fb3660046127b9565b610eab565b34801561040c57600080fd5b5061025f61041b366004612601565b610ebf565b34801561042c57600080fd5b50610232610f24565b34801561044157600080fd5b506102aa610450366004612802565b610fb2565b34801561046157600080fd5b5061037e61104c565b34801561047657600080fd5b50610297611174565b34801561048b57600080fd5b506104d061049a366004612601565b600e602052600090815260409020805460018201546002909201549091906001600160a01b03811690600160a01b900460ff1684565b604051610214949392919093845260208401929092526001600160a01b031660408301521515606082015260800190565b34801561050d57600080fd5b506007546001600160a01b031661025f565b34801561052b57600080fd5b5061029761053a366004612601565b611188565b6102aa61054d36600461281d565b611211565b34801561055e57600080fd5b50610232611401565b34801561057357600080fd5b50610297610582366004612853565b611410565b34801561059357600080fd5b506102976105a2366004612884565b61141b565b3480156105b357600080fd5b506102326105c2366004612601565b6114a9565b3480156105d357600080fd5b506102aa61152c565b3480156105e857600080fd5b506102976105f7366004612900565b61153c565b34801561060857600080fd5b50610208610617366004612925565b6001600160a01b03918216600090815260056020908152604080832093909416825291909152205460ff1690565b34801561065157600080fd5b50610297610660366004612802565b61162c565b60006001600160e01b031982167f80ac58cd0000000000000000000000000000000000000000000000000000000014806106c857506001600160e01b031982167f5b5e139f00000000000000000000000000000000000000000000000000000000145b806106fc57507f01ffc9a7000000000000000000000000000000000000000000000000000000006001600160e01b03198316145b92915050565b60606000805461071190612958565b80601f016020809104026020016040519081016040528092919081815260200182805461073d90612958565b801561078a5780601f1061075f5761010080835404028352916020019161078a565b820191906000526020600020905b81548152906001019060200180831161076d57829003601f168201915b5050505050905090565b600061079f826116b9565b506000908152600460205260409020546001600160a01b031690565b60006107c682610ebf565b9050806001600160a01b0316836001600160a01b0316036108545760405162461bcd60e51b815260206004820152602160248201527f4552433732313a20617070726f76616c20746f2063757272656e74206f776e6560448201527f720000000000000000000000000000000000000000000000000000000000000060648201526084015b60405180910390fd5b336001600160a01b038216148061087057506108708133610617565b6108e25760405162461bcd60e51b815260206004820152603e60248201527f4552433732313a20617070726f76652063616c6c6572206973206e6f7420746f60448201527f6b656e206f776e6572206e6f7220617070726f76656420666f7220616c6c0000606482015260840161084b565b6108ec838361171d565b505050565b6008818154811061090157600080fd5b60009182526020909120015467ffffffffffffffff8116915061ffff6801000000000000000082048116916a010000000000000000000090041683565b3361094883610ebf565b6001600160a01b03161461099e5760405162461bcd60e51b815260206004820152601d60248201527f596f7520617265206e6f74206f776e6572206f662074686973206e6674000000604482015260640161084b565b6000828152600e6020526040902060020154600160a01b900460ff1615610a075760405162461bcd60e51b815260206004820152601760248201527f4974656d20697320616c7265616479206f6e2073616c65000000000000000000604482015260640161084b565b6000828152600e6020526040902060028101805460ff60a01b1916600160a01b179055600101819055610a3e600980546001019055565b5050565b610a4c3382611798565b610abe5760405162461bcd60e51b815260206004820152602e60248201527f4552433732313a2063616c6c6572206973206e6f7420746f6b656e206f776e6560448201527f72206e6f7220617070726f766564000000000000000000000000000000000000606482015260840161084b565b6108ec838383611817565b6000818152600e602052604081206001015490610ae583610ebf565b90506001600160a01b0381163303610b3f5760405162461bcd60e51b815260206004820152601860248201527f596f7520616c7265616479206f776e2074686973204e46540000000000000000604482015260640161084b565b813414610b8e5760405162461bcd60e51b815260206004820152601e60248201527f506c65617365207375626d6974207468652061736b696e672070726963650000604482015260640161084b565b6000838152600e60205260409020600201805460ff60a01b19169055610bb460096119fc565b610bbf813385611817565b6108ec8134611a53565b6000610bd483610fb2565b8210610c225760405162461bcd60e51b815260206004820152601360248201527f496e646578206f7574206f6620626f756e647300000000000000000000000000604482015260640161084b565b506001600160a01b03919091166000908152600f60209081526040808320938352929052205490565b60606000610c5860115490565b9050600080610c6660095490565b67ffffffffffffffff811115610c7e57610c7e61272d565b604051908082528060200260200182016040528015610cd057816020015b604080516080810182526000808252602080830182905292820181905260608201528252600019909201910181610c9c5790505b50905060005b83811015610d95576000610ce982610e2d565b6000818152600e60205260409020600281015491925090600160a01b900460ff161515600103610d805760408051608081018252825481526001830154602082015260028301546001600160a01b03811692820192909252600160a01b90910460ff16151560608201528451859087908110610d6757610d67612992565b6020908102919091010152610d7d6001866129be565b94505b50508080610d8d906129d1565b915050610cd6565b509392505050565b610da5611b6c565b4780610df35760405162461bcd60e51b815260206004820152601260248201527f4e6f2066756e647320617661696c61626c650000000000000000000000000000604482015260640161084b565b731e8dd1acb4d121d1a30b7b9bb709f2fdaf041cc2610a3e8183611a53565b6108ec8383836040518060200160405280600081525061141b565b6000610e3860115490565b8210610e865760405162461bcd60e51b815260206004820152601360248201527f496e646578206f7574206f6620626f756e647300000000000000000000000000604482015260640161084b565b60118281548110610e9957610e99612992565b90600052602060002001549050919050565b610eb3611b6c565b600c610a3e8282612a38565b6000818152600260205260408120546001600160a01b0316806106fc5760405162461bcd60e51b815260206004820152601860248201527f4552433732313a20696e76616c696420746f6b656e2049440000000000000000604482015260640161084b565b600c8054610f3190612958565b80601f0160208091040260200160405190810160405280929190818152602001828054610f5d90612958565b8015610faa5780601f10610f7f57610100808354040283529160200191610faa565b820191906000526020600020905b815481529060010190602001808311610f8d57829003601f168201915b505050505081565b60006001600160a01b0382166110305760405162461bcd60e51b815260206004820152602960248201527f4552433732313a2061646472657373207a65726f206973206e6f74206120766160448201527f6c6964206f776e65720000000000000000000000000000000000000000000000606482015260840161084b565b506001600160a01b031660009081526003602052604090205490565b6060600061105933610fb2565b905060008167ffffffffffffffff8111156110765761107661272d565b6040519080825280602002602001820160405280156110c857816020015b6040805160808101825260008082526020808301829052928201819052606082015282526000199092019101816110945790505b50905060005b8281101561116d5760006110e23383610bc9565b6000818152600e602090815260409182902082516080810184528154815260018201549281019290925260028101546001600160a01b03811693830193909352600160a01b90920460ff16151560608201528551929350909185908590811061114d5761114d612992565b602002602001018190525050508080611165906129d1565b9150506110ce565b5092915050565b61117c611b6c565b6111866000611bc6565b565b3361119282610ebf565b6001600160a01b0316146111e85760405162461bcd60e51b815260206004820152601d60248201527f596f7520617265206e6f74206f776e6572206f662074686973206e6674000000604482015260640161084b565b6000818152600e60205260409020600201805460ff60a01b1916905561120e60096119fc565b50565b6000806008848154811061122757611227612992565b6000918252602090912001805490915061124f9060ff85169067ffffffffffffffff16612af8565b67ffffffffffffffff1634146112cc5760405162461bcd60e51b8152602060048201526024808201527f5072696365206d75737420626520657175616c20746f206c697374696e67207060448201527f7269636500000000000000000000000000000000000000000000000000000000606482015260840161084b565b805461ffff6a010000000000000000000082048116916112fd9160ff87169168010000000000000000900416612b28565b61ffff16111561134f5760405162461bcd60e51b815260206004820152601160248201527f4e6674206d696e746564206973206d6178000000000000000000000000000000604482015260640161084b565b60005b8360ff168110156113a557815461137a90339068010000000000000000900461ffff16611c25565b81546113959068010000000000000000900461ffff16611c3f565b61139e816129d1565b9050611352565b50805460ff84169082906008906113cd90849068010000000000000000900461ffff16612b28565b82546101009290920a61ffff8181021990931691831602179091559154680100000000000000009004909116949350505050565b60606001805461071190612958565b610a3e338383611d6e565b6114253383611798565b6114975760405162461bcd60e51b815260206004820152602e60248201527f4552433732313a2063616c6c6572206973206e6f7420746f6b656e206f776e6560448201527f72206e6f7220617070726f766564000000000000000000000000000000000000606482015260840161084b565b6114a384848484611e3c565b50505050565b6000818152600260205260409020546060906001600160a01b03166114cd57600080fd5b60006114d7611eba565b905060008151116114f75760405180602001604052806000815250611525565b8061150184611ec9565b600b60405160200161151593929190612b43565b6040516020818303038152906040525b9392505050565b600061153760095490565b905090565b611544611b6c565b6008818154811061155757611557612992565b60009182526020909120015461ffff6a01000000000000000000009091048116908316116115ed5760405162461bcd60e51b815260206004820152603760248201527f74686520616d6f756e74206f66206e6674206d7573742062652067726561746560448201527f72207468616e20746865206578697374696e67206f6e65000000000000000000606482015260840161084b565b816008828154811061160157611601612992565b90600052602060002001600001600a6101000a81548161ffff021916908361ffff1602179055505050565b611634611b6c565b6001600160a01b0381166116b05760405162461bcd60e51b815260206004820152602660248201527f4f776e61626c653a206e6577206f776e657220697320746865207a65726f206160448201527f6464726573730000000000000000000000000000000000000000000000000000606482015260840161084b565b61120e81611bc6565b6000818152600260205260409020546001600160a01b031661120e5760405162461bcd60e51b815260206004820152601860248201527f4552433732313a20696e76616c696420746f6b656e2049440000000000000000604482015260640161084b565b6000818152600460205260409020805473ffffffffffffffffffffffffffffffffffffffff19166001600160a01b038416908117909155819061175f82610ebf565b6001600160a01b03167f8c5be1e5ebec7d5bd14f71427d1e84f3dd0314c0f7b2291e5b200ac8c7c3b92560405160405180910390a45050565b6000806117a483610ebf565b9050806001600160a01b0316846001600160a01b031614806117eb57506001600160a01b0380821660009081526005602090815260408083209388168352929052205460ff165b8061180f5750836001600160a01b031661180484610794565b6001600160a01b0316145b949350505050565b826001600160a01b031661182a82610ebf565b6001600160a01b0316146118a65760405162461bcd60e51b815260206004820152602560248201527f4552433732313a207472616e736665722066726f6d20696e636f72726563742060448201527f6f776e6572000000000000000000000000000000000000000000000000000000606482015260840161084b565b6001600160a01b0382166119215760405162461bcd60e51b8152602060048201526024808201527f4552433732313a207472616e7366657220746f20746865207a65726f2061646460448201527f7265737300000000000000000000000000000000000000000000000000000000606482015260840161084b565b61192c838383611ffe565b61193760008261171d565b6001600160a01b0383166000908152600360205260408120805460019290611960908490612be3565b90915550506001600160a01b038216600090815260036020526040812080546001929061198e9084906129be565b9091555050600081815260026020526040808220805473ffffffffffffffffffffffffffffffffffffffff19166001600160a01b0386811691821790925591518493918716917fddf252ad1be2c89b69c2b068fc378daa952ba7f163c4a11628f55a4df523b3ef91a4505050565b805480611a4b5760405162461bcd60e51b815260206004820152601b60248201527f436f756e7465723a2064656372656d656e74206f766572666c6f770000000000604482015260640161084b565b600019019055565b80471015611aa35760405162461bcd60e51b815260206004820152601d60248201527f416464726573733a20696e73756666696369656e742062616c616e6365000000604482015260640161084b565b6000826001600160a01b03168260405160006040518083038185875af1925050503d8060008114611af0576040519150601f19603f3d011682016040523d82523d6000602084013e611af5565b606091505b50509050806108ec5760405162461bcd60e51b815260206004820152603a60248201527f416464726573733a20756e61626c6520746f2073656e642076616c75652c207260448201527f6563697069656e74206d61792068617665207265766572746564000000000000606482015260840161084b565b6007546001600160a01b031633146111865760405162461bcd60e51b815260206004820181905260248201527f4f776e61626c653a2063616c6c6572206973206e6f7420746865206f776e6572604482015260640161084b565b600780546001600160a01b0383811673ffffffffffffffffffffffffffffffffffffffff19831681179093556040519116919082907f8be0079c531659141344cd1fd0a4f28419497f9722a3daafe3b4186f6b6457e090600090a35050565b610a3e8282604051806020016040528060008152506120b6565b604051806080016040528082815260200160088381548110611c6357611c63612992565b600091825260208083209091015467ffffffffffffffff16835233838201526040928301829052848252600e8152908290208351815590830151600182015590820151600290910180546060909301511515600160a01b027fffffffffffffffffffffff0000000000000000000000000000000000000000009093166001600160a01b039290921691909117919091179055600880547f470031062672bc0246e132c723a729c4676710ec663a29e86c88678032daddea91839182908110611d2d57611d2d612992565b6000918252602080832091909101546040805194855267ffffffffffffffff909116918401919091523390830152606082015260800160405180910390a150565b816001600160a01b0316836001600160a01b031603611dcf5760405162461bcd60e51b815260206004820152601960248201527f4552433732313a20617070726f766520746f2063616c6c657200000000000000604482015260640161084b565b6001600160a01b03838116600081815260056020908152604080832094871680845294825291829020805460ff191686151590811790915591519182527f17307eab39ab6107e8899845ad3d59bd9653f200f220920489ca2b5937696c31910160405180910390a3505050565b611e47848484611817565b611e5384848484612134565b6114a35760405162461bcd60e51b815260206004820152603260248201527f4552433732313a207472616e7366657220746f206e6f6e20455243373231526560448201527131b2b4bb32b91034b6b83632b6b2b73a32b960711b606482015260840161084b565b6060600c805461071190612958565b606081600003611f0c57505060408051808201909152600181527f3000000000000000000000000000000000000000000000000000000000000000602082015290565b8160005b8115611f365780611f20816129d1565b9150611f2f9050600a83612c0c565b9150611f10565b60008167ffffffffffffffff811115611f5157611f5161272d565b6040519080825280601f01601f191660200182016040528015611f7b576020820181803683370190505b5090505b841561180f57611f90600183612be3565b9150611f9d600a86612c20565b611fa89060306129be565b60f81b818381518110611fbd57611fbd612992565b60200101907effffffffffffffffffffffffffffffffffffffffffffffffffffffffffffff1916908160001a905350611ff7600a86612c0c565b9450611f7f565b6001600160a01b0383166120595761205481601180546000838152601260205260408120829055600182018355919091527f31ecc21a745e3968a04e9570e4425bc18fa8019c68028196b546d1669c200c680155565b61207c565b816001600160a01b0316836001600160a01b03161461207c5761207c8382612280565b6001600160a01b038216612093576108ec8161231d565b826001600160a01b0316826001600160a01b0316146108ec576108ec82826123cc565b6120c08383612410565b6120cd6000848484612134565b6108ec5760405162461bcd60e51b815260206004820152603260248201527f4552433732313a207472616e7366657220746f206e6f6e20455243373231526560448201527131b2b4bb32b91034b6b83632b6b2b73a32b960711b606482015260840161084b565b60006001600160a01b0384163b1561227557604051630a85bd0160e11b81526001600160a01b0385169063150b7a0290612178903390899088908890600401612c34565b6020604051808303816000875af19250505080156121b3575060408051601f3d908101601f191682019092526121b091810190612c70565b60015b61225b573d8080156121e1576040519150601f19603f3d011682016040523d82523d6000602084013e6121e6565b606091505b5080516000036122535760405162461bcd60e51b815260206004820152603260248201527f4552433732313a207472616e7366657220746f206e6f6e20455243373231526560448201527131b2b4bb32b91034b6b83632b6b2b73a32b960711b606482015260840161084b565b805181602001fd5b6001600160e01b031916630a85bd0160e11b14905061180f565b506001949350505050565b6000600161228d84610fb2565b6122979190612be3565b6000838152601060205260409020549091508082146122ea576001600160a01b0384166000908152600f602090815260408083208584528252808320548484528184208190558352601090915290208190555b5060009182526010602090815260408084208490556001600160a01b039094168352600f81528383209183525290812055565b60115460009061232f90600190612be3565b6000838152601260205260408120546011805493945090928490811061235757612357612992565b90600052602060002001549050806011838154811061237857612378612992565b60009182526020808320909101929092558281526012909152604080822084905585825281205560118054806123b0576123b0612c8d565b6001900381819060005260206000200160009055905550505050565b60006123d783610fb2565b6001600160a01b039093166000908152600f60209081526040808320868452825280832085905593825260109052919091209190915550565b6001600160a01b0382166124665760405162461bcd60e51b815260206004820181905260248201527f4552433732313a206d696e7420746f20746865207a65726f2061646472657373604482015260640161084b565b6000818152600260205260409020546001600160a01b0316156124cb5760405162461bcd60e51b815260206004820152601c60248201527f4552433732313a20746f6b656e20616c7265616479206d696e74656400000000604482015260640161084b565b6124d760008383611ffe565b6001600160a01b03821660009081526003602052604081208054600192906125009084906129be565b9091555050600081815260026020526040808220805473ffffffffffffffffffffffffffffffffffffffff19166001600160a01b03861690811790915590518392907fddf252ad1be2c89b69c2b068fc378daa952ba7f163c4a11628f55a4df523b3ef908290a45050565b6001600160e01b03198116811461120e57600080fd5b60006020828403121561259357600080fd5b81356115258161256b565b60005b838110156125b95781810151838201526020016125a1565b50506000910152565b600081518084526125da81602086016020860161259e565b601f01601f19169290920160200192915050565b60208152600061152560208301846125c2565b60006020828403121561261357600080fd5b5035919050565b80356001600160a01b038116811461263157600080fd5b919050565b6000806040838503121561264957600080fd5b6126528361261a565b946020939093013593505050565b6000806040838503121561267357600080fd5b50508035926020909101359150565b60008060006060848603121561269757600080fd5b6126a08461261a565b92506126ae6020850161261a565b9150604084013590509250925092565b602080825282518282018190526000919060409081850190868401855b82811015612720578151805185528681015187860152858101516001600160a01b031686860152606090810151151590850152608090930192908501906001016126db565b5091979650505050505050565b634e487b7160e01b600052604160045260246000fd5b600067ffffffffffffffff8084111561275e5761275e61272d565b604051601f8501601f19908116603f011681019082821181831017156127865761278661272d565b8160405280935085815286868601111561279f57600080fd5b858560208301376000602087830101525050509392505050565b6000602082840312156127cb57600080fd5b813567ffffffffffffffff8111156127e257600080fd5b8201601f810184136127f357600080fd5b61180f84823560208401612743565b60006020828403121561281457600080fd5b6115258261261a565b6000806040838503121561283057600080fd5b82359150602083013560ff8116811461284857600080fd5b809150509250929050565b6000806040838503121561286657600080fd5b61286f8361261a565b91506020830135801515811461284857600080fd5b6000806000806080858703121561289a57600080fd5b6128a38561261a565b93506128b16020860161261a565b925060408501359150606085013567ffffffffffffffff8111156128d457600080fd5b8501601f810187136128e557600080fd5b6128f487823560208401612743565b91505092959194509250565b6000806040838503121561291357600080fd5b823561ffff8116811461265257600080fd5b6000806040838503121561293857600080fd5b6129418361261a565b915061294f6020840161261a565b90509250929050565b600181811c9082168061296c57607f821691505b60208210810361298c57634e487b7160e01b600052602260045260246000fd5b50919050565b634e487b7160e01b600052603260045260246000fd5b634e487b7160e01b600052601160045260246000fd5b808201808211156106fc576106fc6129a8565b6000600182016129e3576129e36129a8565b5060010190565b601f8211156108ec57600081815260208120601f850160051c81016020861015612a115750805b601f850160051c820191505b81811015612a3057828155600101612a1d565b505050505050565b815167ffffffffffffffff811115612a5257612a5261272d565b612a6681612a608454612958565b846129ea565b602080601f831160018114612a9b5760008415612a835750858301515b600019600386901b1c1916600185901b178555612a30565b600085815260208120601f198616915b82811015612aca57888601518255948401946001909101908401612aab565b5085821015612ae85787850151600019600388901b60f8161c191681555b5050505050600190811b01905550565b600067ffffffffffffffff80831681851681830481118215151615612b1f57612b1f6129a8565b02949350505050565b61ffff81811683821601908082111561116d5761116d6129a8565b600084516020612b568285838a0161259e565b855191840191612b698184848a0161259e565b8554920191600090612b7a81612958565b60018281168015612b925760018114612ba757612bd3565b60ff1984168752821515830287019450612bd3565b896000528560002060005b84811015612bcb57815489820152908301908701612bb2565b505082870194505b50929a9950505050505050505050565b818103818111156106fc576106fc6129a8565b634e487b7160e01b600052601260045260246000fd5b600082612c1b57612c1b612bf6565b500490565b600082612c2f57612c2f612bf6565b500690565b60006001600160a01b03808716835280861660208401525083604083015260806060830152612c6660808301846125c2565b9695505050505050565b600060208284031215612c8257600080fd5b81516115258161256b565b634e487b7160e01b600052603160045260246000fdfea264697066735822122084c4edd4e77fdbac07e6535ad1314efc145663975a982c40fe253ad3e71d2c3f64736f6c63430008100033",
  "immutableReferences": {},
  "source": "// SPDX-License-Identifier: MIT\r\npragma solidity >=0.4.22 <0.9.0;\r\n\r\nimport \"@openzeppelin/contracts/token/ERC721/extensions/ERC721URIStorage.sol\";\r\nimport \"@openzeppelin/contracts/utils/Counters.sol\";\r\nimport \"@openzeppelin/contracts/utils/Address.sol\";\r\nimport \"@openzeppelin/contracts/access/Ownable.sol\";\r\n\r\ncontract NftMarketAquans is ERC721URIStorage, Ownable {\r\n    using Counters for Counters.Counter;\r\n    using Strings for uint256;\r\n    using Address for address;\r\n\r\n    struct NftItem {\r\n        uint256 tokenId;\r\n        uint256 price;\r\n        address creator;\r\n        bool isListed;\r\n    }\r\n\r\n    struct GruopNft {\r\n        uint64 listingPrice;\r\n        uint16 startTokenId;\r\n        uint16 endTokenId;\r\n    }\r\n\r\n    GruopNft[] public AllTokens;\r\n\r\n    Counters.Counter private _listedItems;\r\n    Counters.Counter private _tokenIds;\r\n\r\n    string private baseExtension = \".json\";\r\n    string public baseURI;\r\n\r\n    mapping(string => bool) private _usedTokenURIs;\r\n    mapping(uint256 => NftItem) public _idToNftItem;\r\n\r\n    mapping(address => mapping(uint256 => uint256)) private _ownedTokens;\r\n    mapping(uint256 => uint256) private _idToOwnedIndex;\r\n\r\n    uint256[] private _allNfts;\r\n\r\n    mapping(uint256 => uint256) private _idToNftIndex;\r\n\r\n    event NftItemCreated(\r\n        uint256 tokenId,\r\n        uint256 price,\r\n        address creator,\r\n        bool isListed\r\n    );\r\n\r\n    constructor() ERC721(\"SCCNFT\", \"SNcFT\") {\r\n        AllTokens.push(GruopNft(0.25 ether, 0, 8));\r\n\r\n        AllTokens.push(GruopNft(0.35 ether, 8, 16));\r\n\r\n        AllTokens.push(GruopNft(0.45 ether, 16, 32));\r\n    }\r\n\r\n    function setMaxNfts(uint16 newMax, uint256 tokenId) external onlyOwner {\r\n        require(\r\n            newMax > AllTokens[tokenId].endTokenId,\r\n            \"the amount of nft must be greater than the existing one\"\r\n        );\r\n        AllTokens[tokenId].endTokenId = newMax;\r\n    }\r\n\r\n    //    function setMaxAquansMagico(uint newMaxAquan) external onlyOwner {\r\n    //     require(newMaxAquan > maxAquanMagico, \"the amount of Aquans must be greater than the existing one\");\r\n    //     maxAquanMagico = newMaxAquan;\r\n    //    }\r\n\r\n    ///    function setMaxAquansGlorioso(uint newMaxAquan) external onlyOwner {\r\n    //     require(newMaxAquan > maxAquanGlorioso, \"the amount of Aquans must be greater than the existing one\");\r\n    //     maxAquanGlorioso = newMaxAquan;\r\n    //   }\r\n\r\n    //   function setMaxAquansLegendario(uint newMaxAquan) external onlyOwner {\r\n    //    require(newMaxAquan > maxAquanLegendario, \"the amount of Aquans must be greater than the existing one\");\r\n    //   maxAquanLegendario = newMaxAquan;\r\n    //   }\r\n\r\n    //  function setMaxAquansEpico(uint newMaxAquan) external onlyOwner {\r\n    //   require(newMaxAquan > maxAquanEpico, \"the amount of Aquans must be greater than the existing one\");\r\n    //    maxAquanEpico = newMaxAquan;\r\n    //   }\r\n\r\n    //    function setMaxAquansInmortal(uint newMaxAquan) external onlyOwner {\r\n    //        require(newMaxAquan > maxAquanInmortal, \"the amount of Aquans must be greater than the existing one\");\r\n    //        maxAquanInmortal = newMaxAquan;\r\n    //       }\r\n\r\n    //        function setMaxAquansMisticoWoman(uint newMaxAquan) external onlyOwner {\r\n    //        require(newMaxAquan > maxAquanMisticoWoman, \"the amount of AquansWoman must be greater than the existing one\");\r\n    //        maxAquanMisticoWoman = newMaxAquan;\r\n    //       }\r\n\r\n    //       function setMaxAquansMagicoWoman(uint newMaxAquan) external onlyOwner {\r\n    //         require(newMaxAquan > maxAquanMagicoWoman, \"the amount of AquansWoman must be greater than the existing one\");\r\n    //         maxAquanMagicoWoman = newMaxAquan;\r\n    //        }\r\n\r\n    //       function setMaxAquansGloriosoWoman(uint newMaxAquan) external onlyOwner {\r\n    //        require(newMaxAquan > maxAquanGloriosoWoman, \"the amount of AquansWoman must be greater than the existing one\");\r\n    //         maxAquanGloriosoWoman = newMaxAquan;\r\n    //        }\r\n\r\n    //       function setMaxAquansLegendarioWoman(uint newMaxAquan) external onlyOwner {\r\n    //        require(newMaxAquan > maxAquanLegendarioWoman, \"the amount of AquansWoman must be greater than the existing one\");\r\n    //        maxAquanLegendarioWoman = newMaxAquan;\r\n    //        }\r\n\r\n    //       function setMaxAquansEpicoWoman(uint newMaxAquan) external onlyOwner {\r\n    //         require(newMaxAquan > maxAquanEpicoWoman, \"the amount of AquansWoman must be greater than the existing one\");\r\n    //         maxAquanEpicoWoman = newMaxAquan;\r\n    //        }\r\n\r\n    //       function setMaxAquansInmortalWoman(uint newMaxAquan) external onlyOwner {\r\n    //        require(newMaxAquan > maxAquanInmortalWoman, \"the amount of AquansWoman must be greater than the existing one\");\r\n    //        maxAquanInmortalWoman = newMaxAquan;\r\n    //       }\r\n\r\n    function withdraw() external onlyOwner {\r\n        uint256 amount = address(this).balance;\r\n        require(amount > 0, \"No funds available\");\r\n        address principal = (0x1e8dd1acB4D121d1a30B7B9bb709F2FDaf041Cc2);\r\n        Address.sendValue(payable(principal), amount);\r\n    }\r\n\r\n    function listedItemsCount() public view returns (uint256) {\r\n        return _listedItems.current();\r\n    }\r\n\r\n    function totalSupply() public view returns (uint256) {\r\n        return _allNfts.length;\r\n    }\r\n\r\n    function setBaseURI(string memory _newBaseURI) public onlyOwner {\r\n        baseURI = _newBaseURI;\r\n    }\r\n\r\n    function _baseURI() internal view virtual override returns (string memory) {\r\n        return baseURI;\r\n    }\r\n\r\n    function tokenByIndex(uint256 index) public view returns (uint256) {\r\n        require(index < totalSupply(), \"Index out of bounds\");\r\n        return _allNfts[index];\r\n    }\r\n\r\n    function tokenOfOwnerByIndex(address owner, uint256 index)\r\n        public\r\n        view\r\n        returns (uint256)\r\n    {\r\n        require(index < ERC721.balanceOf(owner), \"Index out of bounds\");\r\n        return _ownedTokens[owner][index];\r\n    }\r\n\r\n    function getAllNftsOnSale() public view returns (NftItem[] memory) {\r\n        uint256 allItemsCounts = totalSupply();\r\n        uint256 currentIndex = 0;\r\n        NftItem[] memory items = new NftItem[](_listedItems.current());\r\n\r\n        for (uint256 i = 0; i < allItemsCounts; i++) {\r\n            uint256 tokenId = tokenByIndex(i);\r\n            NftItem storage item = _idToNftItem[tokenId];\r\n\r\n            if (item.isListed == true) {\r\n                items[currentIndex] = item;\r\n                currentIndex += 1;\r\n            }\r\n        }\r\n\r\n        return items;\r\n    }\r\n\r\n    function getOwnedNfts() public view returns (NftItem[] memory) {\r\n        uint256 ownedItemsCount = ERC721.balanceOf(msg.sender);\r\n        NftItem[] memory items = new NftItem[](ownedItemsCount);\r\n\r\n        for (uint256 i = 0; i < ownedItemsCount; i++) {\r\n            uint256 tokenId = tokenOfOwnerByIndex(msg.sender, i);\r\n            NftItem storage item = _idToNftItem[tokenId];\r\n            items[i] = item;\r\n        }\r\n\r\n        return items;\r\n    }\r\n\r\n    function AquansBuy(uint256 tokenType, uint8 amount)\r\n        public\r\n        payable\r\n        returns (uint256)\r\n    {\r\n        GruopNft storage group = AllTokens[tokenType];\r\n\r\n        require(\r\n            msg.value == group.listingPrice * amount,\r\n            \"Price must be equal to listing price\"\r\n        );\r\n \r\n        require(\r\n            group.startTokenId + amount <= group.endTokenId,\r\n            \"Nft minted is max\"\r\n            );\r\n\r\n        for (uint256 i = 0; i < amount; ++i) {\r\n            _safeMint(msg.sender, group.startTokenId);\r\n            _createNftItem(group.startTokenId);\r\n        }\r\n        group.startTokenId += amount;\r\n\r\n        return group.startTokenId;\r\n    }\r\n\r\n    function tokenURI(uint256 tokenId)\r\n        public\r\n        view\r\n        override\r\n        returns (string memory)\r\n    {\r\n        require(_exists(tokenId));\r\n\r\n        string memory currentBaseURI = _baseURI();\r\n        return\r\n            bytes(currentBaseURI).length > 0\r\n                ? string(\r\n                    abi.encodePacked(\r\n                        currentBaseURI,\r\n                        tokenId.toString(),\r\n                        baseExtension\r\n                    )\r\n                )\r\n                : \"\";\r\n    }\r\n\r\n    function buyNft(uint256 tokenId) public payable {\r\n        uint256 price = _idToNftItem[tokenId].price;\r\n        address owner = ERC721.ownerOf(tokenId);\r\n\r\n        require(msg.sender != owner, \"You already own this NFT\");\r\n        require(msg.value == price, \"Please submit the asking price\");\r\n\r\n        _idToNftItem[tokenId].isListed = false;\r\n        _listedItems.decrement();\r\n\r\n        _transfer(owner, msg.sender, tokenId);\r\n        Address.sendValue(payable(owner), msg.value);\r\n    }\r\n\r\n    function cancellSellNft(uint256 tokenId) public {\r\n        require(\r\n            ERC721.ownerOf(tokenId) == msg.sender,\r\n            \"You are not owner of this nft\"\r\n        );\r\n\r\n        _idToNftItem[tokenId].isListed = false;\r\n        _listedItems.decrement();\r\n    }\r\n\r\n    function placeNftOnSale(uint256 tokenId, uint256 newPrice) public payable {\r\n        require(\r\n            ERC721.ownerOf(tokenId) == msg.sender,\r\n            \"You are not owner of this nft\"\r\n        );\r\n        require(\r\n            _idToNftItem[tokenId].isListed == false,\r\n            \"Item is already on sale\"\r\n        );\r\n\r\n        _idToNftItem[tokenId].isListed = true;\r\n        _idToNftItem[tokenId].price = newPrice;\r\n        _listedItems.increment();\r\n    }\r\n\r\n    function _createNftItem(uint256 tokenId) private {\r\n        _idToNftItem[tokenId] = NftItem(\r\n            tokenId,\r\n            AllTokens[tokenId].listingPrice,\r\n            msg.sender,\r\n            false\r\n        );\r\n\r\n        emit NftItemCreated(\r\n            tokenId,\r\n            AllTokens[tokenId].listingPrice,\r\n            msg.sender,\r\n            false\r\n        );\r\n    }\r\n\r\n    function _beforeTokenTransfer(\r\n        address from,\r\n        address to,\r\n        uint256 tokenId\r\n    ) internal virtual override {\r\n        super._beforeTokenTransfer(from, to, tokenId);\r\n\r\n        // minting token\r\n        if (from == address(0)) {\r\n            _addTokenToAllTokensEnumeration(tokenId);\r\n        } else if (from != to) {\r\n            _removeTokenFromOwnerEnumeration(from, tokenId);\r\n        }\r\n        if (to == address(0)) {\r\n            _removeTokenFromAllTokensEnumeration(tokenId);\r\n        } else if (to != from) {\r\n            _addTokenToOwnerEnumaretion(to, tokenId);\r\n        }\r\n    }\r\n\r\n    function _addTokenToAllTokensEnumeration(uint256 tokenId) private {\r\n        _idToNftIndex[tokenId] = _allNfts.length;\r\n        _allNfts.push(tokenId);\r\n    }\r\n\r\n    function _addTokenToOwnerEnumaretion(address to, uint256 tokenId) private {\r\n        uint256 length = ERC721.balanceOf(to);\r\n        _ownedTokens[to][length] = tokenId;\r\n        _idToOwnedIndex[tokenId] = length;\r\n    }\r\n\r\n    function _removeTokenFromOwnerEnumeration(address from, uint256 tokenId)\r\n        private\r\n    {\r\n        uint256 lastTokenIndex = ERC721.balanceOf(from) - 1;\r\n        uint256 tokenIndex = _idToOwnedIndex[tokenId];\r\n\r\n        if (tokenIndex != lastTokenIndex) {\r\n            uint256 lastTokenId = _ownedTokens[from][lastTokenIndex];\r\n\r\n            _ownedTokens[from][tokenIndex] = lastTokenId;\r\n            _idToOwnedIndex[lastTokenId] = tokenIndex;\r\n        }\r\n\r\n        delete _idToOwnedIndex[tokenId];\r\n        delete _ownedTokens[from][lastTokenIndex];\r\n    }\r\n\r\n    function _removeTokenFromAllTokensEnumeration(uint256 tokenId) private {\r\n        uint256 lastTokenIndex = _allNfts.length - 1;\r\n        uint256 tokenIndex = _idToNftIndex[tokenId];\r\n        uint256 lastTokenId = _allNfts[lastTokenIndex];\r\n\r\n        _allNfts[tokenIndex] = lastTokenId;\r\n        _idToNftIndex[lastTokenId] = tokenIndex;\r\n\r\n        delete _idToNftIndex[tokenId];\r\n        _allNfts.pop();\r\n    }\r\n}\r\n",
  "sourcePath": "C:\\Users\\nahue\\OneDrive\\Escritorio\\marketplace\\nft-marketplace\\contracts\\NftMarketAquans.sol",
  "compiler": {
    "name": "solc",
    "version": "0.8.16+commit.07a7930e.Emscripten.clang"
  },
  "schemaVersion": "3.4.9",
  "updatedAt": "2022-09-29T08:31:37.767Z",
  "networkType": "ethereum",
  "devdoc": {
    "kind": "dev",
    "methods": {
      "approve(address,uint256)": {
        "details": "See {IERC721-approve}."
      },
      "balanceOf(address)": {
        "details": "See {IERC721-balanceOf}."
      },
      "getApproved(uint256)": {
        "details": "See {IERC721-getApproved}."
      },
      "isApprovedForAll(address,address)": {
        "details": "See {IERC721-isApprovedForAll}."
      },
      "name()": {
        "details": "See {IERC721Metadata-name}."
      },
      "owner()": {
        "details": "Returns the address of the current owner."
      },
      "ownerOf(uint256)": {
        "details": "See {IERC721-ownerOf}."
      },
      "renounceOwnership()": {
        "details": "Leaves the contract without owner. It will not be possible to call `onlyOwner` functions anymore. Can only be called by the current owner. NOTE: Renouncing ownership will leave the contract without an owner, thereby removing any functionality that is only available to the owner."
      },
      "safeTransferFrom(address,address,uint256)": {
        "details": "See {IERC721-safeTransferFrom}."
      },
      "safeTransferFrom(address,address,uint256,bytes)": {
        "details": "See {IERC721-safeTransferFrom}."
      },
      "setApprovalForAll(address,bool)": {
        "details": "See {IERC721-setApprovalForAll}."
      },
      "supportsInterface(bytes4)": {
        "details": "See {IERC165-supportsInterface}."
      },
      "symbol()": {
        "details": "See {IERC721Metadata-symbol}."
      },
      "tokenURI(uint256)": {
        "details": "See {IERC721Metadata-tokenURI}."
      },
      "transferFrom(address,address,uint256)": {
        "details": "See {IERC721-transferFrom}."
      },
      "transferOwnership(address)": {
        "details": "Transfers ownership of the contract to a new account (`newOwner`). Can only be called by the current owner."
      }
    },
    "version": 1
  },
  "userdoc": {
    "kind": "user",
    "methods": {
      "withdraw()": {
        "notice": "function setMaxAquansGlorioso(uint newMaxAquan) external onlyOwner {"
      }
    },
    "version": 1
  }
}