{
  "contractName": "NftMarket",
  "abi": [
    {
      "inputs": [],
      "stateMutability": "nonpayable",
      "type": "constructor"
    },
    {
      "anonymous": false,
      "inputs": [
        {
          "indexed": true,
          "internalType": "address",
          "name": "owner",
          "type": "address"
        },
        {
          "indexed": true,
          "internalType": "address",
          "name": "approved",
          "type": "address"
        },
        {
          "indexed": true,
          "internalType": "uint256",
          "name": "tokenId",
          "type": "uint256"
        }
      ],
      "name": "Approval",
      "type": "event"
    },
    {
      "anonymous": false,
      "inputs": [
        {
          "indexed": true,
          "internalType": "address",
          "name": "owner",
          "type": "address"
        },
        {
          "indexed": true,
          "internalType": "address",
          "name": "operator",
          "type": "address"
        },
        {
          "indexed": false,
          "internalType": "bool",
          "name": "approved",
          "type": "bool"
        }
      ],
      "name": "ApprovalForAll",
      "type": "event"
    },
    {
      "anonymous": false,
      "inputs": [
        {
          "indexed": false,
          "internalType": "uint256",
          "name": "tokenId",
          "type": "uint256"
        },
        {
          "indexed": false,
          "internalType": "uint256",
          "name": "price",
          "type": "uint256"
        },
        {
          "indexed": false,
          "internalType": "address",
          "name": "creator",
          "type": "address"
        },
        {
          "indexed": false,
          "internalType": "bool",
          "name": "isListed",
          "type": "bool"
        }
      ],
      "name": "NftItemCreated",
      "type": "event"
    },
    {
      "anonymous": false,
      "inputs": [
        {
          "indexed": true,
          "internalType": "address",
          "name": "previousOwner",
          "type": "address"
        },
        {
          "indexed": true,
          "internalType": "address",
          "name": "newOwner",
          "type": "address"
        }
      ],
      "name": "OwnershipTransferred",
      "type": "event"
    },
    {
      "anonymous": false,
      "inputs": [
        {
          "indexed": true,
          "internalType": "address",
          "name": "from",
          "type": "address"
        },
        {
          "indexed": true,
          "internalType": "address",
          "name": "to",
          "type": "address"
        },
        {
          "indexed": true,
          "internalType": "uint256",
          "name": "tokenId",
          "type": "uint256"
        }
      ],
      "name": "Transfer",
      "type": "event"
    },
    {
      "inputs": [
        {
          "internalType": "uint256",
          "name": "",
          "type": "uint256"
        }
      ],
      "name": "_GruopFoxy",
      "outputs": [
        {
          "internalType": "uint64",
          "name": "listingPriceMistico",
          "type": "uint64"
        },
        {
          "internalType": "uint16",
          "name": "startTokenId",
          "type": "uint16"
        },
        {
          "internalType": "uint16",
          "name": "endTokenId",
          "type": "uint16"
        },
        {
          "internalType": "string",
          "name": "razaNft",
          "type": "string"
        }
      ],
      "stateMutability": "view",
      "type": "function",
      "constant": true
    },
    {
      "inputs": [
        {
          "internalType": "uint256",
          "name": "",
          "type": "uint256"
        }
      ],
      "name": "_idToNftItem",
      "outputs": [
        {
          "internalType": "uint256",
          "name": "tokenId",
          "type": "uint256"
        },
        {
          "internalType": "uint256",
          "name": "price",
          "type": "uint256"
        },
        {
          "internalType": "address",
          "name": "creator",
          "type": "address"
        },
        {
          "internalType": "bool",
          "name": "isListed",
          "type": "bool"
        }
      ],
      "stateMutability": "view",
      "type": "function",
      "constant": true
    },
    {
      "inputs": [
        {
          "internalType": "address",
          "name": "to",
          "type": "address"
        },
        {
          "internalType": "uint256",
          "name": "tokenId",
          "type": "uint256"
        }
      ],
      "name": "approve",
      "outputs": [],
      "stateMutability": "nonpayable",
      "type": "function"
    },
    {
      "inputs": [
        {
          "internalType": "address",
          "name": "owner",
          "type": "address"
        }
      ],
      "name": "balanceOf",
      "outputs": [
        {
          "internalType": "uint256",
          "name": "",
          "type": "uint256"
        }
      ],
      "stateMutability": "view",
      "type": "function",
      "constant": true
    },
    {
      "inputs": [],
      "name": "baseURI",
      "outputs": [
        {
          "internalType": "string",
          "name": "",
          "type": "string"
        }
      ],
      "stateMutability": "view",
      "type": "function",
      "constant": true
    },
    {
      "inputs": [],
      "name": "foxyEpico",
      "outputs": [
        {
          "internalType": "uint64",
          "name": "listingPriceMistico",
          "type": "uint64"
        },
        {
          "internalType": "uint16",
          "name": "startTokenId",
          "type": "uint16"
        },
        {
          "internalType": "uint16",
          "name": "endTokenId",
          "type": "uint16"
        },
        {
          "internalType": "string",
          "name": "razaNft",
          "type": "string"
        }
      ],
      "stateMutability": "view",
      "type": "function",
      "constant": true
    },
    {
      "inputs": [],
      "name": "foxyEpicoWoman",
      "outputs": [
        {
          "internalType": "uint64",
          "name": "listingPriceMistico",
          "type": "uint64"
        },
        {
          "internalType": "uint16",
          "name": "startTokenId",
          "type": "uint16"
        },
        {
          "internalType": "uint16",
          "name": "endTokenId",
          "type": "uint16"
        },
        {
          "internalType": "string",
          "name": "razaNft",
          "type": "string"
        }
      ],
      "stateMutability": "view",
      "type": "function",
      "constant": true
    },
    {
      "inputs": [],
      "name": "foxyGlorioso",
      "outputs": [
        {
          "internalType": "uint64",
          "name": "listingPriceMistico",
          "type": "uint64"
        },
        {
          "internalType": "uint16",
          "name": "startTokenId",
          "type": "uint16"
        },
        {
          "internalType": "uint16",
          "name": "endTokenId",
          "type": "uint16"
        },
        {
          "internalType": "string",
          "name": "razaNft",
          "type": "string"
        }
      ],
      "stateMutability": "view",
      "type": "function",
      "constant": true
    },
    {
      "inputs": [],
      "name": "foxyGloriosoWoman",
      "outputs": [
        {
          "internalType": "uint64",
          "name": "listingPriceMistico",
          "type": "uint64"
        },
        {
          "internalType": "uint16",
          "name": "startTokenId",
          "type": "uint16"
        },
        {
          "internalType": "uint16",
          "name": "endTokenId",
          "type": "uint16"
        },
        {
          "internalType": "string",
          "name": "razaNft",
          "type": "string"
        }
      ],
      "stateMutability": "view",
      "type": "function",
      "constant": true
    },
    {
      "inputs": [],
      "name": "foxyInmortal",
      "outputs": [
        {
          "internalType": "uint64",
          "name": "listingPriceMistico",
          "type": "uint64"
        },
        {
          "internalType": "uint16",
          "name": "startTokenId",
          "type": "uint16"
        },
        {
          "internalType": "uint16",
          "name": "endTokenId",
          "type": "uint16"
        },
        {
          "internalType": "string",
          "name": "razaNft",
          "type": "string"
        }
      ],
      "stateMutability": "view",
      "type": "function",
      "constant": true
    },
    {
      "inputs": [],
      "name": "foxyInmortalWoman",
      "outputs": [
        {
          "internalType": "uint64",
          "name": "listingPriceMistico",
          "type": "uint64"
        },
        {
          "internalType": "uint16",
          "name": "startTokenId",
          "type": "uint16"
        },
        {
          "internalType": "uint16",
          "name": "endTokenId",
          "type": "uint16"
        },
        {
          "internalType": "string",
          "name": "razaNft",
          "type": "string"
        }
      ],
      "stateMutability": "view",
      "type": "function",
      "constant": true
    },
    {
      "inputs": [],
      "name": "foxyLegendario",
      "outputs": [
        {
          "internalType": "uint64",
          "name": "listingPriceMistico",
          "type": "uint64"
        },
        {
          "internalType": "uint16",
          "name": "startTokenId",
          "type": "uint16"
        },
        {
          "internalType": "uint16",
          "name": "endTokenId",
          "type": "uint16"
        },
        {
          "internalType": "string",
          "name": "razaNft",
          "type": "string"
        }
      ],
      "stateMutability": "view",
      "type": "function",
      "constant": true
    },
    {
      "inputs": [],
      "name": "foxyLegendarioWoman",
      "outputs": [
        {
          "internalType": "uint64",
          "name": "listingPriceMistico",
          "type": "uint64"
        },
        {
          "internalType": "uint16",
          "name": "startTokenId",
          "type": "uint16"
        },
        {
          "internalType": "uint16",
          "name": "endTokenId",
          "type": "uint16"
        },
        {
          "internalType": "string",
          "name": "razaNft",
          "type": "string"
        }
      ],
      "stateMutability": "view",
      "type": "function",
      "constant": true
    },
    {
      "inputs": [],
      "name": "foxyMagico",
      "outputs": [
        {
          "internalType": "uint64",
          "name": "listingPriceMistico",
          "type": "uint64"
        },
        {
          "internalType": "uint16",
          "name": "startTokenId",
          "type": "uint16"
        },
        {
          "internalType": "uint16",
          "name": "endTokenId",
          "type": "uint16"
        },
        {
          "internalType": "string",
          "name": "razaNft",
          "type": "string"
        }
      ],
      "stateMutability": "view",
      "type": "function",
      "constant": true
    },
    {
      "inputs": [],
      "name": "foxyMagicoWoman",
      "outputs": [
        {
          "internalType": "uint64",
          "name": "listingPriceMistico",
          "type": "uint64"
        },
        {
          "internalType": "uint16",
          "name": "startTokenId",
          "type": "uint16"
        },
        {
          "internalType": "uint16",
          "name": "endTokenId",
          "type": "uint16"
        },
        {
          "internalType": "string",
          "name": "razaNft",
          "type": "string"
        }
      ],
      "stateMutability": "view",
      "type": "function",
      "constant": true
    },
    {
      "inputs": [],
      "name": "foxyMistico",
      "outputs": [
        {
          "internalType": "uint64",
          "name": "listingPriceMistico",
          "type": "uint64"
        },
        {
          "internalType": "uint16",
          "name": "startTokenId",
          "type": "uint16"
        },
        {
          "internalType": "uint16",
          "name": "endTokenId",
          "type": "uint16"
        },
        {
          "internalType": "string",
          "name": "razaNft",
          "type": "string"
        }
      ],
      "stateMutability": "view",
      "type": "function",
      "constant": true
    },
    {
      "inputs": [],
      "name": "foxyMisticoWoman",
      "outputs": [
        {
          "internalType": "uint64",
          "name": "listingPriceMistico",
          "type": "uint64"
        },
        {
          "internalType": "uint16",
          "name": "startTokenId",
          "type": "uint16"
        },
        {
          "internalType": "uint16",
          "name": "endTokenId",
          "type": "uint16"
        },
        {
          "internalType": "string",
          "name": "razaNft",
          "type": "string"
        }
      ],
      "stateMutability": "view",
      "type": "function",
      "constant": true
    },
    {
      "inputs": [
        {
          "internalType": "uint256",
          "name": "tokenId",
          "type": "uint256"
        }
      ],
      "name": "getApproved",
      "outputs": [
        {
          "internalType": "address",
          "name": "",
          "type": "address"
        }
      ],
      "stateMutability": "view",
      "type": "function",
      "constant": true
    },
    {
      "inputs": [
        {
          "internalType": "address",
          "name": "owner",
          "type": "address"
        },
        {
          "internalType": "address",
          "name": "operator",
          "type": "address"
        }
      ],
      "name": "isApprovedForAll",
      "outputs": [
        {
          "internalType": "bool",
          "name": "",
          "type": "bool"
        }
      ],
      "stateMutability": "view",
      "type": "function",
      "constant": true
    },
    {
      "inputs": [],
      "name": "name",
      "outputs": [
        {
          "internalType": "string",
          "name": "",
          "type": "string"
        }
      ],
      "stateMutability": "view",
      "type": "function",
      "constant": true
    },
    {
      "inputs": [],
      "name": "owner",
      "outputs": [
        {
          "internalType": "address",
          "name": "",
          "type": "address"
        }
      ],
      "stateMutability": "view",
      "type": "function",
      "constant": true
    },
    {
      "inputs": [
        {
          "internalType": "uint256",
          "name": "tokenId",
          "type": "uint256"
        }
      ],
      "name": "ownerOf",
      "outputs": [
        {
          "internalType": "address",
          "name": "",
          "type": "address"
        }
      ],
      "stateMutability": "view",
      "type": "function",
      "constant": true
    },
    {
      "inputs": [],
      "name": "renounceOwnership",
      "outputs": [],
      "stateMutability": "nonpayable",
      "type": "function"
    },
    {
      "inputs": [
        {
          "internalType": "address",
          "name": "from",
          "type": "address"
        },
        {
          "internalType": "address",
          "name": "to",
          "type": "address"
        },
        {
          "internalType": "uint256",
          "name": "tokenId",
          "type": "uint256"
        }
      ],
      "name": "safeTransferFrom",
      "outputs": [],
      "stateMutability": "nonpayable",
      "type": "function"
    },
    {
      "inputs": [
        {
          "internalType": "address",
          "name": "from",
          "type": "address"
        },
        {
          "internalType": "address",
          "name": "to",
          "type": "address"
        },
        {
          "internalType": "uint256",
          "name": "tokenId",
          "type": "uint256"
        },
        {
          "internalType": "bytes",
          "name": "data",
          "type": "bytes"
        }
      ],
      "name": "safeTransferFrom",
      "outputs": [],
      "stateMutability": "nonpayable",
      "type": "function"
    },
    {
      "inputs": [
        {
          "internalType": "address",
          "name": "operator",
          "type": "address"
        },
        {
          "internalType": "bool",
          "name": "approved",
          "type": "bool"
        }
      ],
      "name": "setApprovalForAll",
      "outputs": [],
      "stateMutability": "nonpayable",
      "type": "function"
    },
    {
      "inputs": [
        {
          "internalType": "bytes4",
          "name": "interfaceId",
          "type": "bytes4"
        }
      ],
      "name": "supportsInterface",
      "outputs": [
        {
          "internalType": "bool",
          "name": "",
          "type": "bool"
        }
      ],
      "stateMutability": "view",
      "type": "function",
      "constant": true
    },
    {
      "inputs": [],
      "name": "symbol",
      "outputs": [
        {
          "internalType": "string",
          "name": "",
          "type": "string"
        }
      ],
      "stateMutability": "view",
      "type": "function",
      "constant": true
    },
    {
      "inputs": [
        {
          "internalType": "address",
          "name": "from",
          "type": "address"
        },
        {
          "internalType": "address",
          "name": "to",
          "type": "address"
        },
        {
          "internalType": "uint256",
          "name": "tokenId",
          "type": "uint256"
        }
      ],
      "name": "transferFrom",
      "outputs": [],
      "stateMutability": "nonpayable",
      "type": "function"
    },
    {
      "inputs": [
        {
          "internalType": "address",
          "name": "newOwner",
          "type": "address"
        }
      ],
      "name": "transferOwnership",
      "outputs": [],
      "stateMutability": "nonpayable",
      "type": "function"
    },
    {
      "inputs": [
        {
          "internalType": "uint16",
          "name": "newMaxFoxy",
          "type": "uint16"
        }
      ],
      "name": "setMaxFoxysMistico",
      "outputs": [],
      "stateMutability": "nonpayable",
      "type": "function"
    },
    {
      "inputs": [
        {
          "internalType": "uint16",
          "name": "newMaxFoxy",
          "type": "uint16"
        }
      ],
      "name": "setMaxFoxysMagico",
      "outputs": [],
      "stateMutability": "nonpayable",
      "type": "function"
    },
    {
      "inputs": [
        {
          "internalType": "uint16",
          "name": "newMaxFoxy",
          "type": "uint16"
        }
      ],
      "name": "setMaxFoxysGlorioso",
      "outputs": [],
      "stateMutability": "nonpayable",
      "type": "function"
    },
    {
      "inputs": [
        {
          "internalType": "uint16",
          "name": "newMaxFoxy",
          "type": "uint16"
        }
      ],
      "name": "setMaxFoxysLegendario",
      "outputs": [],
      "stateMutability": "nonpayable",
      "type": "function"
    },
    {
      "inputs": [
        {
          "internalType": "uint16",
          "name": "newMaxFoxy",
          "type": "uint16"
        }
      ],
      "name": "setMaxFoxysEpico",
      "outputs": [],
      "stateMutability": "nonpayable",
      "type": "function"
    },
    {
      "inputs": [
        {
          "internalType": "uint16",
          "name": "newMaxFoxy",
          "type": "uint16"
        }
      ],
      "name": "setMaxFoxysInmortal",
      "outputs": [],
      "stateMutability": "nonpayable",
      "type": "function"
    },
    {
      "inputs": [
        {
          "internalType": "uint16",
          "name": "newMaxFoxy",
          "type": "uint16"
        }
      ],
      "name": "setMaxFoxysMisticoWoman",
      "outputs": [],
      "stateMutability": "nonpayable",
      "type": "function"
    },
    {
      "inputs": [
        {
          "internalType": "uint16",
          "name": "newMaxFoxy",
          "type": "uint16"
        }
      ],
      "name": "setMaxFoxysMagicoWoman",
      "outputs": [],
      "stateMutability": "nonpayable",
      "type": "function"
    },
    {
      "inputs": [
        {
          "internalType": "uint16",
          "name": "newMaxFoxy",
          "type": "uint16"
        }
      ],
      "name": "setMaxFoxysGloriosoWoman",
      "outputs": [],
      "stateMutability": "nonpayable",
      "type": "function"
    },
    {
      "inputs": [
        {
          "internalType": "uint16",
          "name": "newMaxFoxy",
          "type": "uint16"
        }
      ],
      "name": "setMaxFoxysLegendarioWoman",
      "outputs": [],
      "stateMutability": "nonpayable",
      "type": "function"
    },
    {
      "inputs": [
        {
          "internalType": "uint16",
          "name": "newMaxFoxy",
          "type": "uint16"
        }
      ],
      "name": "setMaxFoxysEpicoWoman",
      "outputs": [],
      "stateMutability": "nonpayable",
      "type": "function"
    },
    {
      "inputs": [
        {
          "internalType": "uint16",
          "name": "newMaxFoxy",
          "type": "uint16"
        }
      ],
      "name": "setMaxFoxysInmortalWoman",
      "outputs": [],
      "stateMutability": "nonpayable",
      "type": "function"
    },
    {
      "inputs": [],
      "name": "withdraw",
      "outputs": [],
      "stateMutability": "nonpayable",
      "type": "function"
    },
    {
      "inputs": [],
      "name": "listedItemsCount",
      "outputs": [
        {
          "internalType": "uint256",
          "name": "",
          "type": "uint256"
        }
      ],
      "stateMutability": "view",
      "type": "function",
      "constant": true
    },
    {
      "inputs": [],
      "name": "totalSupply",
      "outputs": [
        {
          "internalType": "uint256",
          "name": "",
          "type": "uint256"
        }
      ],
      "stateMutability": "view",
      "type": "function",
      "constant": true
    },
    {
      "inputs": [
        {
          "internalType": "string",
          "name": "_newBaseURI",
          "type": "string"
        }
      ],
      "name": "setBaseURI",
      "outputs": [],
      "stateMutability": "nonpayable",
      "type": "function"
    },
    {
      "inputs": [
        {
          "internalType": "uint256",
          "name": "index",
          "type": "uint256"
        }
      ],
      "name": "tokenByIndex",
      "outputs": [
        {
          "internalType": "uint256",
          "name": "",
          "type": "uint256"
        }
      ],
      "stateMutability": "view",
      "type": "function",
      "constant": true
    },
    {
      "inputs": [
        {
          "internalType": "address",
          "name": "owner",
          "type": "address"
        },
        {
          "internalType": "uint256",
          "name": "index",
          "type": "uint256"
        }
      ],
      "name": "tokenOfOwnerByIndex",
      "outputs": [
        {
          "internalType": "uint256",
          "name": "",
          "type": "uint256"
        }
      ],
      "stateMutability": "view",
      "type": "function",
      "constant": true
    },
    {
      "inputs": [],
      "name": "getAllNftsOnSale",
      "outputs": [
        {
          "components": [
            {
              "internalType": "uint256",
              "name": "tokenId",
              "type": "uint256"
            },
            {
              "internalType": "uint256",
              "name": "price",
              "type": "uint256"
            },
            {
              "internalType": "address",
              "name": "creator",
              "type": "address"
            },
            {
              "internalType": "bool",
              "name": "isListed",
              "type": "bool"
            }
          ],
          "internalType": "struct NftMarket.NftItem[]",
          "name": "",
          "type": "tuple[]"
        }
      ],
      "stateMutability": "view",
      "type": "function",
      "constant": true
    },
    {
      "inputs": [],
      "name": "getOwnedNfts",
      "outputs": [
        {
          "components": [
            {
              "internalType": "uint256",
              "name": "tokenId",
              "type": "uint256"
            },
            {
              "internalType": "uint256",
              "name": "price",
              "type": "uint256"
            },
            {
              "internalType": "address",
              "name": "creator",
              "type": "address"
            },
            {
              "internalType": "bool",
              "name": "isListed",
              "type": "bool"
            }
          ],
          "internalType": "struct NftMarket.NftItem[]",
          "name": "",
          "type": "tuple[]"
        }
      ],
      "stateMutability": "view",
      "type": "function",
      "constant": true
    },
    {
      "inputs": [
        {
          "internalType": "uint256",
          "name": "amount",
          "type": "uint256"
        },
        {
          "internalType": "string",
          "name": "_raza",
          "type": "string"
        }
      ],
      "name": "foxyBuyMistico",
      "outputs": [
        {
          "internalType": "uint256",
          "name": "foxy",
          "type": "uint256"
        }
      ],
      "stateMutability": "payable",
      "type": "function",
      "payable": true
    },
    {
      "inputs": [
        {
          "internalType": "uint256",
          "name": "amount",
          "type": "uint256"
        },
        {
          "internalType": "string",
          "name": "_raza",
          "type": "string"
        }
      ],
      "name": "foxyBuyMagico",
      "outputs": [
        {
          "internalType": "uint256",
          "name": "foxy",
          "type": "uint256"
        }
      ],
      "stateMutability": "payable",
      "type": "function",
      "payable": true
    },
    {
      "inputs": [
        {
          "internalType": "uint256",
          "name": "amount",
          "type": "uint256"
        },
        {
          "internalType": "string",
          "name": "_raza",
          "type": "string"
        }
      ],
      "name": "foxyBuyGlorioso",
      "outputs": [
        {
          "internalType": "uint256",
          "name": "foxy",
          "type": "uint256"
        }
      ],
      "stateMutability": "payable",
      "type": "function",
      "payable": true
    },
    {
      "inputs": [
        {
          "internalType": "uint256",
          "name": "amount",
          "type": "uint256"
        },
        {
          "internalType": "string",
          "name": "_raza",
          "type": "string"
        }
      ],
      "name": "foxyBuyLegendario",
      "outputs": [
        {
          "internalType": "uint256",
          "name": "foxy",
          "type": "uint256"
        }
      ],
      "stateMutability": "payable",
      "type": "function",
      "payable": true
    },
    {
      "inputs": [
        {
          "internalType": "uint256",
          "name": "amount",
          "type": "uint256"
        },
        {
          "internalType": "string",
          "name": "_raza",
          "type": "string"
        }
      ],
      "name": "foxyBuyEpico",
      "outputs": [
        {
          "internalType": "uint256",
          "name": "foxy",
          "type": "uint256"
        }
      ],
      "stateMutability": "payable",
      "type": "function",
      "payable": true
    },
    {
      "inputs": [
        {
          "internalType": "uint256",
          "name": "amount",
          "type": "uint256"
        },
        {
          "internalType": "string",
          "name": "_raza",
          "type": "string"
        }
      ],
      "name": "FoxyBuyInmortal",
      "outputs": [
        {
          "internalType": "uint256",
          "name": "foxy",
          "type": "uint256"
        }
      ],
      "stateMutability": "payable",
      "type": "function",
      "payable": true
    },
    {
      "inputs": [
        {
          "internalType": "uint256",
          "name": "tokenId",
          "type": "uint256"
        }
      ],
      "name": "tokenURI",
      "outputs": [
        {
          "internalType": "string",
          "name": "",
          "type": "string"
        }
      ],
      "stateMutability": "view",
      "type": "function",
      "constant": true
    },
    {
      "inputs": [
        {
          "internalType": "uint256",
          "name": "tokenId",
          "type": "uint256"
        }
      ],
      "name": "buyNft",
      "outputs": [],
      "stateMutability": "payable",
      "type": "function",
      "payable": true
    },
    {
      "inputs": [
        {
          "internalType": "uint256",
          "name": "tokenId",
          "type": "uint256"
        }
      ],
      "name": "cancellSellNft",
      "outputs": [],
      "stateMutability": "nonpayable",
      "type": "function"
    },
    {
      "inputs": [
        {
          "internalType": "uint256",
          "name": "tokenId",
          "type": "uint256"
        },
        {
          "internalType": "uint256",
          "name": "newPrice",
          "type": "uint256"
        }
      ],
      "name": "placeNftOnSale",
      "outputs": [],
      "stateMutability": "payable",
      "type": "function",
      "payable": true
    }
  ],
  "bytecode": "0x6703782dace9d900006080908152600060a052600860c0819052610140604052600b6101009081526a666f78794d69737469636f60a81b6101205260e081905281546001600160601b0319166a08000003782dace9d9000017825560099062000069908262000a53565b5050604080516080810182526703782dace9d90000815260086020808301918252600f8385019081528451808601909552601085526f3337bc3ca6b4b9ba34b1b7abb7b6b0b760811b91850191909152606083018490528251600a8054935192516001600160401b039092166001600160501b0319909416939093176801000000000000000061ffff938416021761ffff60501b19166a0100000000000000000000929091169190910217815590925090600b9062000129908262000a53565b5050604080516080810182526704db7325476300008152600f602080830191825260178385019081528451808601909552600a855269666f78794d616769636f60b01b91850191909152606083018490528251600c8054935192516001600160401b039092166001600160501b0319909416939093176801000000000000000061ffff938416021761ffff60501b19166a0100000000000000000000929091169190910217815590925090600d90620001e3908262000a53565b5050604080516080810182526704db732547630000815260176020808301918252601f8385019081528451808601909552600f8086526e3337bc3ca6b0b3b4b1b7abb7b6b0b760891b92860192909252606084018590528351600e8054945192516001600160401b039092166001600160501b0319909516949094176801000000000000000061ffff938416021761ffff60501b19166a0100000000000000000000929091169190910217825591935091620002a0908262000a53565b5050604080516080810182526707a1fe16027700008152601f602080830191825260278385019081528451808601909552600c85526b666f7879476c6f72696f736f60a01b9185019190915260608301849052825160108054935192516001600160401b039092166001600160501b0319909416939093176801000000000000000061ffff938416021761ffff60501b19166a01000000000000000000009290911691909102178155909250906011906200035c908262000a53565b5050604080516080810182526707a1fe1602770000815260276020808301918252602e838501908152845180860190955260118552703337bc3ca3b637b934b7b9b7abb7b6b0b760791b9185019190915260608301849052825160128054935192516001600160401b039092166001600160501b0319909416939093176801000000000000000061ffff938416021761ffff60501b19166a01000000000000000000009290911691909102178155909250906013906200041d908262000a53565b505060408051608081018252670a688906bd8b00008152602e602080830191825260388385019081528451808601909552600e85526d666f78794c6567656e646172696f60901b9185019190915260608301849052825160148054935192516001600160401b039092166001600160501b0319909416939093176801000000000000000061ffff938416021761ffff60501b19166a0100000000000000000000929091169190910217815590925090601590620004db908262000a53565b505060408051608081018252670a688906bd8b0000815260386020808301918252603e8385019081528451808601909552601385527f666f78794c6567656e646172696f576f6d616e000000000000000000000000009185019190915260608301849052825160168054935192516001600160401b039092166001600160501b0319909416939093176801000000000000000061ffff938416021761ffff60501b19166a0100000000000000000000929091169190910217815590925090601790620005a8908262000a53565b505060408051608081018252670de0b6b3a76400008152603e6020808301918252604783850190815284518086019095526009855268666f7879457069636f60b81b9185019190915260608301849052825160188054935192516001600160401b039092166001600160501b0319909416939093176801000000000000000061ffff938416021761ffff60501b19166a010000000000000000000092909116919091021781559092509060199062000661908262000a53565b505060408051608081018252670de0b6b3a7640000815260476020808301918252604f8385019081528451808601909552600e85526d3337bc3ca2b834b1b7abb7b6b0b760911b91850191909152606083018490528251601a8054935192516001600160401b039092166001600160501b0319909416939093176801000000000000000061ffff938416021761ffff60501b19166a0100000000000000000000929091169190910217815590925090601b906200071f908262000a53565b505060408051608081018252671158e460913d00008152604f602080830191825260568385019081528451808601909552600c85526b199bde1e525b9b5bdc9d185b60a21b91850191909152606083018490528251601c8054935192516001600160401b039092166001600160501b0319909416939093176801000000000000000061ffff938416021761ffff60501b19166a0100000000000000000000929091169190910217815590925090601d90620007db908262000a53565b505060408051608081018252671158e460913d0000815260556020808301918252605d838501908152845180860190955260118552703337bc3ca4b736b7b93a30b62bb7b6b0b760791b91850191909152606083018490528251601e8054935192516001600160401b039092166001600160501b0319909416939093176801000000000000000061ffff938416021761ffff60501b19166a0100000000000000000000929091169190910217815590925090601f906200089c908262000a53565b5050604080518082019091526005815264173539b7b760d91b602082015260229150620008ca908262000a53565b50348015620008d857600080fd5b5060405180604001604052806006815260200165115b1993919560d21b815250604051806040016040528060048152602001631153919560e21b815250816000908162000926919062000a53565b50600162000935828262000a53565b505050620009526200094c6200095860201b60201c565b6200095c565b62000b1f565b3390565b600780546001600160a01b038381166001600160a01b0319831681179093556040519116919082907f8be0079c531659141344cd1fd0a4f28419497f9722a3daafe3b4186f6b6457e090600090a35050565b634e487b7160e01b600052604160045260246000fd5b600181811c90821680620009d957607f821691505b602082108103620009fa57634e487b7160e01b600052602260045260246000fd5b50919050565b601f82111562000a4e57600081815260208120601f850160051c8101602086101562000a295750805b601f850160051c820191505b8181101562000a4a5782815560010162000a35565b5050505b505050565b81516001600160401b0381111562000a6f5762000a6f620009ae565b62000a878162000a808454620009c4565b8462000a00565b602080601f83116001811462000abf576000841562000aa65750858301515b600019600386901b1c1916600185901b17855562000a4a565b600085815260208120601f198616915b8281101562000af05788860151825594840194600190910190840162000acf565b508582101562000b0f5787850151600019600388901b60f8161c191681555b5050505050600190811b01905550565b6149038062000b2f6000396000f3fe6080604052600436106103975760003560e01c806370a08231116101dc578063af08cc8211610102578063e985e9c5116100a0578063f1aab8bf1161006f578063f1aab8bf14610a24578063f2fde38b14610a39578063f471751414610a59578063fedcfd4314610a7957600080fd5b8063e985e9c51461099b578063eafae712146109e4578063ed46f07714610a04578063f122f3fa146109e457600080fd5b8063c2d51d5d116100dc578063c2d51d5d14610931578063c87b56dd14610946578063ccb4918d14610966578063e48a71951461097b57600080fd5b8063af08cc82146108dc578063b88d4fde146108f1578063c19eecd41461091157600080fd5b80638795e8ec1161017a5780639061d007116101495780639061d0071461087457806395d89b4114610894578063a22cb465146108a9578063aa8be81c146108c957600080fd5b80638795e8ec1461080e57806389ad17ea1461082e5780638c423bc7146108435780638da5cb5b1461085657600080fd5b806372541566116101b6578063725415661461073757806375e05b88146107575780637b52ed1a146107d95780637e3cfb7b146107ee57600080fd5b806370a08231146106ed57806370cbcb431461070d578063715018a61461072257600080fd5b8063243adbdd116102c15780634c6b3a1d1161025f57806356c1fc541161022e57806356c1fc54146106905780636352211e146106a55780636c0360eb146106c55780636de8b0bc146106da57600080fd5b80634c6b3a1d146106265780634f6ccce71461063b57806354f37ea01461065b57806355f804b31461067057600080fd5b806336b536be1161029b57806336b536be146105af5780633ccfd60b146105d15780633f6f1a1c146105e657806342842e0e1461060657600080fd5b8063243adbdd146105695780632f745c591461057c57806333d8ee251461059c57600080fd5b806318160ddd116103395780631ed7bff5116103085780631ed7bff51461050e57806321f422e514610521578063221103fc1461053457806323b872dd1461054957600080fd5b806318160ddd146104b25780631b66caf3146104d15780631c4b07c7146104e65780631d0d58ae146104fb57600080fd5b8063095ea7b311610375578063095ea7b31461042b5780630d8480161461044d578063133db57f1461046d57806314304f3b1461048d57600080fd5b806301ffc9a71461039c57806306fdde03146103d1578063081812fc146103f3575b600080fd5b3480156103a857600080fd5b506103bc6103b7366004614145565b610a99565b60405190151581526020015b60405180910390f35b3480156103dd57600080fd5b506103e6610b36565b6040516103c891906141b2565b3480156103ff57600080fd5b5061041361040e3660046141c5565b610bc8565b6040516001600160a01b0390911681526020016103c8565b34801561043757600080fd5b5061044b6104463660046141fa565b610bef565b005b34801561045957600080fd5b5061044b610468366004614224565b610d25565b34801561047957600080fd5b5061044b610488366004614224565b610dd5565b34801561049957600080fd5b506104a2610e85565b6040516103c89493929190614248565b3480156104be57600080fd5b506029545b6040519081526020016103c8565b3480156104dd57600080fd5b506104a2610f3d565b3480156104f257600080fd5b506104a2610f72565b6104c3610509366004614335565b610fa7565b6104c361051c366004614335565b61124c565b61044b61052f36600461437c565b6114e8565b34801561054057600080fd5b506104a26115ee565b34801561055557600080fd5b5061044b61056436600461439e565b611623565b61044b6105773660046141c5565b6116aa565b34801561058857600080fd5b506104c36105973660046141fa565b6117ac565b6104c36105aa366004614335565b61182e565b3480156105bb57600080fd5b506105c4611aca565b6040516103c891906143da565b3480156105dd57600080fd5b5061044b611c1c565b3480156105f257600080fd5b5061044b610601366004614224565b611c91565b34801561061257600080fd5b5061044b61062136600461439e565b611d41565b34801561063257600080fd5b506104a2611d5c565b34801561064757600080fd5b506104c36106563660046141c5565b611d91565b34801561066757600080fd5b506104a2611e0f565b34801561067c57600080fd5b5061044b61068b366004614449565b611e44565b34801561069c57600080fd5b506104a2611e58565b3480156106b157600080fd5b506104136106c03660046141c5565b611e8d565b3480156106d157600080fd5b506103e6611ef2565b6104c36106e8366004614335565b611f80565b3480156106f957600080fd5b506104c361070836600461447e565b61221c565b34801561071957600080fd5b506105c46122b6565b34801561072e57600080fd5b5061044b6123de565b34801561074357600080fd5b5061044b610752366004614224565b6123f2565b34801561076357600080fd5b506107a86107723660046141c5565b6025602052600090815260409020805460018201546002909201549091906001600160a01b03811690600160a01b900460ff1684565b6040516103c8949392919093845260208401929092526001600160a01b031660408301521515606082015260800190565b3480156107e557600080fd5b506104a26124a2565b3480156107fa57600080fd5b5061044b610809366004614224565b6124d7565b34801561081a57600080fd5b5061044b610829366004614224565b612587565b34801561083a57600080fd5b506104a2612637565b6104c3610851366004614335565b61266c565b34801561086257600080fd5b506007546001600160a01b0316610413565b34801561088057600080fd5b5061044b61088f3660046141c5565b612989565b3480156108a057600080fd5b506103e6612a14565b3480156108b557600080fd5b5061044b6108c4366004614499565b612a23565b6104c36108d7366004614335565b612a2e565b3480156108e857600080fd5b506104a2612cca565b3480156108fd57600080fd5b5061044b61090c3660046144d5565b612cff565b34801561091d57600080fd5b5061044b61092c366004614224565b612d8d565b34801561093d57600080fd5b506104a2612e3d565b34801561095257600080fd5b506103e66109613660046141c5565b612e72565b34801561097257600080fd5b506104c3612ef5565b34801561098757600080fd5b5061044b610996366004614224565b612f05565b3480156109a757600080fd5b506103bc6109b6366004614551565b6001600160a01b03918216600090815260056020908152604080832093909416825291909152205460ff1690565b3480156109f057600080fd5b5061044b6109ff366004614224565b612fb5565b348015610a1057600080fd5b506104a2610a1f3660046141c5565b613065565b348015610a3057600080fd5b506104a26130a8565b348015610a4557600080fd5b5061044b610a5436600461447e565b6130dd565b348015610a6557600080fd5b5061044b610a74366004614224565b61316a565b348015610a8557600080fd5b5061044b610a94366004614224565b61321a565b60006001600160e01b031982167f80ac58cd000000000000000000000000000000000000000000000000000000001480610afc57506001600160e01b031982167f5b5e139f00000000000000000000000000000000000000000000000000000000145b80610b3057507f01ffc9a7000000000000000000000000000000000000000000000000000000006001600160e01b03198316145b92915050565b606060008054610b4590614584565b80601f0160208091040260200160405190810160405280929190818152602001828054610b7190614584565b8015610bbe5780601f10610b9357610100808354040283529160200191610bbe565b820191906000526020600020905b815481529060010190602001808311610ba157829003601f168201915b5050505050905090565b6000610bd3826132ca565b506000908152600460205260409020546001600160a01b031690565b6000610bfa82611e8d565b9050806001600160a01b0316836001600160a01b031603610c885760405162461bcd60e51b815260206004820152602160248201527f4552433732313a20617070726f76616c20746f2063757272656e74206f776e6560448201527f720000000000000000000000000000000000000000000000000000000000000060648201526084015b60405180910390fd5b336001600160a01b0382161480610ca45750610ca481336109b6565b610d165760405162461bcd60e51b815260206004820152603e60248201527f4552433732313a20617070726f76652063616c6c6572206973206e6f7420746f60448201527f6b656e206f776e6572206e6f7220617070726f76656420666f7220616c6c00006064820152608401610c7f565b610d20838361332e565b505050565b610d2d6133a9565b60125461ffff600160501b909104811690821611610db35760405162461bcd60e51b815260206004820152603e60248201527f74686520616d6f756e74206f6620666f787973576f6d616e206d75737420626560448201527f2067726561746572207468616e20746865206578697374696e67206f6e6500006064820152608401610c7f565b6012805461ffff909216600160501b0261ffff60501b19909216919091179055565b610ddd6133a9565b60085461ffff600160501b909104811690821611610e635760405162461bcd60e51b815260206004820152603960248201527f74686520616d6f756e74206f6620666f787973206d757374206265206772656160448201527f746572207468616e20746865206578697374696e67206f6e65000000000000006064820152608401610c7f565b6008805461ffff909216600160501b0261ffff60501b19909216919091179055565b600880546009805467ffffffffffffffff83169361ffff600160401b8504811694600160501b900416929091610eba90614584565b80601f0160208091040260200160405190810160405280929190818152602001828054610ee690614584565b8015610f335780601f10610f0857610100808354040283529160200191610f33565b820191906000526020600020905b815481529060010190602001808311610f1657829003601f168201915b5050505050905084565b601280546013805467ffffffffffffffff83169361ffff600160401b8504811694600160501b900416929091610eba90614584565b601a8054601b805467ffffffffffffffff83169361ffff600160401b8504811694600160501b900416929091610eba90614584565b60008082604051602001610fbb91906145be565b60408051601f198184030181529082905280516020918201209250600091610fe6916011910161464d565b60408051601f198184030181529082905280516020918201209250600091611011916013910161464d565b6040516020818303038152906040528051906020012090508183036111365760105461ffff600160501b82048116600160401b90920416106110955760405162461bcd60e51b815260206004820152601c60248201527f4d617820466f7879476c6f72696f736f204e667473204d696e746564000000006044820152606401610c7f565b60005b8681101561111c576010546110b9903390600160401b900461ffff16613403565b6010546110d090600160401b900461ffff1661341d565b60108054600191906008906110f1908490600160401b900461ffff1661466f565b92506101000a81548161ffff021916908361ffff160217905550806111159061468a565b9050611098565b5050601054600160401b900461ffff169250610b30915050565b8083036112435760125461ffff600160501b82048116600160401b90920416106111a25760405162461bcd60e51b815260206004820181905260248201527f4d617820666f78794d69737469636f576f6d616e204e667473204d696e7465646044820152606401610c7f565b60005b86811015611229576012546111c6903390600160401b900461ffff16613403565b6012546111dd90600160401b900461ffff1661341d565b60128054600191906008906111fe908490600160401b900461ffff1661466f565b92506101000a81548161ffff021916908361ffff160217905550806112229061468a565b90506111a5565b5050601254600160401b900461ffff169250610b30915050565b50505092915050565b6000808260405160200161126091906145be565b60408051601f19818403018152908290528051602091820120925060009161128b91601d910161464d565b60408051601f1981840301815290829052805160209182012092506000916112b691601f910161464d565b6040516020818303038152906040528051906020012090508183036113db57601c5461ffff600160501b82048116600160401b909204161061133a5760405162461bcd60e51b815260206004820152601c60248201527f4d617820466f7879496e6d6f7274616c204e667473204d696e746564000000006044820152606401610c7f565b60005b868110156113c157601c5461135e903390600160401b900461ffff16613403565b601c5461137590600160401b900461ffff1661341d565b601c805460019190600890611396908490600160401b900461ffff1661466f565b92506101000a81548161ffff021916908361ffff160217905550806113ba9061468a565b905061133d565b5050601c54600160401b900461ffff169250610b30915050565b80830361124357601e5461ffff600160501b82048116600160401b90920416106114475760405162461bcd60e51b815260206004820181905260248201527f4d617820666f78794d69737469636f576f6d616e204e667473204d696e7465646044820152606401610c7f565b60005b868110156114ce57601e5461146b903390600160401b900461ffff16613403565b601e5461148290600160401b900461ffff1661341d565b601e8054600191906008906114a3908490600160401b900461ffff1661466f565b92506101000a81548161ffff021916908361ffff160217905550806114c79061468a565b905061144a565b5050601e54600160401b900461ffff169250610b30915050565b336114f283611e8d565b6001600160a01b0316146115485760405162461bcd60e51b815260206004820152601d60248201527f596f7520617265206e6f74206f776e6572206f662074686973206e66740000006044820152606401610c7f565b600082815260256020526040902060020154600160a01b900460ff16156115b15760405162461bcd60e51b815260206004820152601760248201527f4974656d20697320616c7265616479206f6e2073616c650000000000000000006044820152606401610c7f565b600082815260256020908152604090912060028101805460ff60a01b1916600160a01b1790556001018290556115ea9080546001019055565b5050565b601880546019805467ffffffffffffffff83169361ffff600160401b8504811694600160501b900416929091610eba90614584565b61162d33826134ff565b61169f5760405162461bcd60e51b815260206004820152602e60248201527f4552433732313a2063616c6c6572206973206e6f7420746f6b656e206f776e6560448201527f72206e6f7220617070726f7665640000000000000000000000000000000000006064820152608401610c7f565b610d2083838361357e565b600081815260256020526040812060010154906116c683611e8d565b90506001600160a01b03811633036117205760405162461bcd60e51b815260206004820152601860248201527f596f7520616c7265616479206f776e2074686973204e465400000000000000006044820152606401610c7f565b81341461176f5760405162461bcd60e51b815260206004820152601e60248201527f506c65617365207375626d6974207468652061736b696e6720707269636500006044820152606401610c7f565b6000838152602560209081526040909120600201805460ff60a01b1916905561179790613763565b6117a281338561357e565b610d2081346137ba565b60006117b78361221c565b82106118055760405162461bcd60e51b815260206004820152601360248201527f496e646578206f7574206f6620626f756e6473000000000000000000000000006044820152606401610c7f565b506001600160a01b03919091166000908152602760209081526040808320938352929052205490565b6000808260405160200161184291906145be565b60408051601f19818403018152908290528051602091820120925060009161186d91600d910161464d565b60408051601f19818403018152908290528051602091820120925060009161189891600f910161464d565b6040516020818303038152906040528051906020012090508183036119bd57600c5461ffff600160501b82048116600160401b909204161061191c5760405162461bcd60e51b815260206004820152601a60248201527f4d617820466f78794d616769636f204e667473204d696e7465640000000000006044820152606401610c7f565b60005b868110156119a357600c54611940903390600160401b900461ffff16613403565b600c5461195790600160401b900461ffff1661341d565b600c805460019190600890611978908490600160401b900461ffff1661466f565b92506101000a81548161ffff021916908361ffff1602179055508061199c9061468a565b905061191f565b5050600c54600160401b900461ffff169250610b30915050565b80830361124357600e5461ffff600160501b82048116600160401b9092041610611a295760405162461bcd60e51b815260206004820181905260248201527f4d617820666f78794d69737469636f576f6d616e204e667473204d696e7465646044820152606401610c7f565b60005b86811015611ab057600e54611a4d903390600160401b900461ffff16613403565b600e54611a6490600160401b900461ffff1661341d565b600e805460019190600890611a85908490600160401b900461ffff1661466f565b92506101000a81548161ffff021916908361ffff16021790555080611aa99061468a565b9050611a2c565b5050600e54600160401b900461ffff169250610b30915050565b60606000611ad760295490565b9050600080611ae560205490565b67ffffffffffffffff811115611afd57611afd614289565b604051908082528060200260200182016040528015611b4f57816020015b604080516080810182526000808252602080830182905292820181905260608201528252600019909201910181611b1b5790505b50905060005b83811015611c14576000611b6882611d91565b6000818152602560205260409020600281015491925090600160a01b900460ff161515600103611bff5760408051608081018252825481526001830154602082015260028301546001600160a01b03811692820192909252600160a01b90910460ff16151560608201528451859087908110611be657611be66146a3565b6020908102919091010152611bfc6001866146b9565b94505b50508080611c0c9061468a565b915050611b55565b509392505050565b611c246133a9565b4780611c725760405162461bcd60e51b815260206004820152601260248201527f4e6f2066756e647320617661696c61626c6500000000000000000000000000006044820152606401610c7f565b731e8dd1acb4d121d1a30b7b9bb709f2fdaf041cc26115ea81836137ba565b611c996133a9565b600c5461ffff600160501b909104811690821611611d1f5760405162461bcd60e51b815260206004820152603960248201527f74686520616d6f756e74206f6620666f787973206d757374206265206772656160448201527f746572207468616e20746865206578697374696e67206f6e65000000000000006064820152608401610c7f565b600c805461ffff909216600160501b0261ffff60501b19909216919091179055565b610d2083838360405180602001604052806000815250612cff565b600a8054600b805467ffffffffffffffff83169361ffff600160401b8504811694600160501b900416929091610eba90614584565b6000611d9c60295490565b8210611dea5760405162461bcd60e51b815260206004820152601360248201527f496e646578206f7574206f6620626f756e6473000000000000000000000000006044820152606401610c7f565b60298281548110611dfd57611dfd6146a3565b90600052602060002001549050919050565b601680546017805467ffffffffffffffff83169361ffff600160401b8504811694600160501b900416929091610eba90614584565b611e4c6133a9565b60236115ea828261471a565b600e8054600f805467ffffffffffffffff83169361ffff600160401b8504811694600160501b900416929091610eba90614584565b6000818152600260205260408120546001600160a01b031680610b305760405162461bcd60e51b815260206004820152601860248201527f4552433732313a20696e76616c696420746f6b656e20494400000000000000006044820152606401610c7f565b60238054611eff90614584565b80601f0160208091040260200160405190810160405280929190818152602001828054611f2b90614584565b8015611f785780601f10611f4d57610100808354040283529160200191611f78565b820191906000526020600020905b815481529060010190602001808311611f5b57829003601f168201915b505050505081565b60008082604051602001611f9491906145be565b60408051601f198184030181529082905280516020918201209250600091611fbf916019910161464d565b60408051601f198184030181529082905280516020918201209250600091611fea91601b910161464d565b60405160208183030381529060405280519060200120905081830361210f5760185461ffff600160501b82048116600160401b909204161061206e5760405162461bcd60e51b815260206004820152601960248201527f4d617820466f7879457069636f204e667473204d696e746564000000000000006044820152606401610c7f565b60005b868110156120f557601854612092903390600160401b900461ffff16613403565b6018546120a990600160401b900461ffff1661341d565b60188054600191906008906120ca908490600160401b900461ffff1661466f565b92506101000a81548161ffff021916908361ffff160217905550806120ee9061468a565b9050612071565b5050601854600160401b900461ffff169250610b30915050565b80830361124357601a5461ffff600160501b82048116600160401b909204161061217b5760405162461bcd60e51b815260206004820181905260248201527f4d617820666f78794d69737469636f576f6d616e204e667473204d696e7465646044820152606401610c7f565b60005b8681101561220257601a5461219f903390600160401b900461ffff16613403565b601a546121b690600160401b900461ffff1661341d565b601a8054600191906008906121d7908490600160401b900461ffff1661466f565b92506101000a81548161ffff021916908361ffff160217905550806121fb9061468a565b905061217e565b5050601a54600160401b900461ffff169250610b30915050565b60006001600160a01b03821661229a5760405162461bcd60e51b815260206004820152602960248201527f4552433732313a2061646472657373207a65726f206973206e6f74206120766160448201527f6c6964206f776e657200000000000000000000000000000000000000000000006064820152608401610c7f565b506001600160a01b031660009081526003602052604090205490565b606060006122c33361221c565b905060008167ffffffffffffffff8111156122e0576122e0614289565b60405190808252806020026020018201604052801561233257816020015b6040805160808101825260008082526020808301829052928201819052606082015282526000199092019101816122fe5790505b50905060005b828110156123d757600061234c33836117ac565b60008181526025602090815260409182902082516080810184528154815260018201549281019290925260028101546001600160a01b03811693830193909352600160a01b90920460ff1615156060820152855192935090918590859081106123b7576123b76146a3565b6020026020010181905250505080806123cf9061468a565b915050612338565b5092915050565b6123e66133a9565b6123f060006138d3565b565b6123fa6133a9565b600a5461ffff600160501b9091048116908216116124805760405162461bcd60e51b815260206004820152603e60248201527f74686520616d6f756e74206f6620666f787973576f6d616e206d75737420626560448201527f2067726561746572207468616e20746865206578697374696e67206f6e6500006064820152608401610c7f565b600a805461ffff909216600160501b0261ffff60501b19909216919091179055565b600c8054600d805467ffffffffffffffff83169361ffff600160401b8504811694600160501b900416929091610eba90614584565b6124df6133a9565b60105461ffff600160501b9091048116908216116125655760405162461bcd60e51b815260206004820152603960248201527f74686520616d6f756e74206f6620666f787973206d757374206265206772656160448201527f746572207468616e20746865206578697374696e67206f6e65000000000000006064820152608401610c7f565b6010805461ffff909216600160501b0261ffff60501b19909216919091179055565b61258f6133a9565b601a5461ffff600160501b9091048116908216116126155760405162461bcd60e51b815260206004820152603e60248201527f74686520616d6f756e74206f6620666f787973576f6d616e206d75737420626560448201527f2067726561746572207468616e20746865206578697374696e67206f6e6500006064820152608401610c7f565b601a805461ffff909216600160501b0261ffff60501b19909216919091179055565b601480546015805467ffffffffffffffff83169361ffff600160401b8504811694600160501b900416929091610eba90614584565b60085460009067ffffffffffffffff1634146126ef5760405162461bcd60e51b8152602060048201526024808201527f5072696365206d75737420626520657175616c20746f206c697374696e67207060448201527f72696365000000000000000000000000000000000000000000000000000000006064820152608401610c7f565b60008260405160200161270291906145be565b60408051601f19818403018152908290528051602091820120925060009161272d916009910161464d565b60408051601f19818403018152908290528051602091820120925060009161275891600b910161464d565b60405160208183030381529060405280519060200120905081830361287c5760085461ffff600160501b82048116600160401b90920416106127dc5760405162461bcd60e51b815260206004820152601b60248201527f4d617820466f78794d69737469636f204e667473204d696e74656400000000006044820152606401610c7f565b60005b8681101561286257600854612800903390600160401b900461ffff16613403565b60085461281790600160401b900461ffff1661341d565b60088054600191908190612837908490600160401b900461ffff1661466f565b92506101000a81548161ffff021916908361ffff1602179055508061285b9061468a565b90506127df565b5050600854600160401b900461ffff169250610b30915050565b80830361124357600a5461ffff600160501b82048116600160401b90920416106128e85760405162461bcd60e51b815260206004820181905260248201527f4d617820666f78794d69737469636f576f6d616e204e667473204d696e7465646044820152606401610c7f565b60005b8681101561296f57600a5461290c903390600160401b900461ffff16613403565b600a5461292390600160401b900461ffff1661341d565b600a805460019190600890612944908490600160401b900461ffff1661466f565b92506101000a81548161ffff021916908361ffff160217905550806129689061468a565b90506128eb565b5050600a54600160401b900461ffff169250610b30915050565b3361299382611e8d565b6001600160a01b0316146129e95760405162461bcd60e51b815260206004820152601d60248201527f596f7520617265206e6f74206f776e6572206f662074686973206e66740000006044820152606401610c7f565b6000818152602560209081526040909120600201805460ff60a01b19169055612a1190613763565b50565b606060018054610b4590614584565b6115ea338383613932565b60008082604051602001612a4291906145be565b60408051601f198184030181529082905280516020918201209250600091612a6d916015910161464d565b60408051601f198184030181529082905280516020918201209250600091612a98916017910161464d565b604051602081830303815290604052805190602001209050818303612bbd5760145461ffff600160501b82048116600160401b9092041610612b1c5760405162461bcd60e51b815260206004820152601e60248201527f4d617820466f78794c6567656e646172696f204e667473204d696e74656400006044820152606401610c7f565b60005b86811015612ba357601454612b40903390600160401b900461ffff16613403565b601454612b5790600160401b900461ffff1661341d565b6014805460019190600890612b78908490600160401b900461ffff1661466f565b92506101000a81548161ffff021916908361ffff16021790555080612b9c9061468a565b9050612b1f565b5050601454600160401b900461ffff169250610b30915050565b8083036112435760165461ffff600160501b82048116600160401b9092041610612c295760405162461bcd60e51b815260206004820181905260248201527f4d617820666f78794d69737469636f576f6d616e204e667473204d696e7465646044820152606401610c7f565b60005b86811015612cb057601654612c4d903390600160401b900461ffff16613403565b601654612c6490600160401b900461ffff1661341d565b6016805460019190600890612c85908490600160401b900461ffff1661466f565b92506101000a81548161ffff021916908361ffff16021790555080612ca99061468a565b9050612c2c565b5050601654600160401b900461ffff169250610b30915050565b601e8054601f805467ffffffffffffffff83169361ffff600160401b8504811694600160501b900416929091610eba90614584565b612d0933836134ff565b612d7b5760405162461bcd60e51b815260206004820152602e60248201527f4552433732313a2063616c6c6572206973206e6f7420746f6b656e206f776e6560448201527f72206e6f7220617070726f7665640000000000000000000000000000000000006064820152608401610c7f565b612d8784848484613a00565b50505050565b612d956133a9565b60145461ffff600160501b909104811690821611612e1b5760405162461bcd60e51b815260206004820152603960248201527f74686520616d6f756e74206f6620666f787973206d757374206265206772656160448201527f746572207468616e20746865206578697374696e67206f6e65000000000000006064820152608401610c7f565b6014805461ffff909216600160501b0261ffff60501b19909216919091179055565b601c8054601d805467ffffffffffffffff83169361ffff600160401b8504811694600160501b900416929091610eba90614584565b6000818152600260205260409020546060906001600160a01b0316612e9657600080fd5b6000612ea0613a7e565b90506000815111612ec05760405180602001604052806000815250612eee565b80612eca84613a8d565b6022604051602001612ede939291906147da565b6040516020818303038152906040525b9392505050565b6000612f0060205490565b905090565b612f0d6133a9565b601c5461ffff600160501b909104811690821611612f935760405162461bcd60e51b815260206004820152603960248201527f74686520616d6f756e74206f6620666f787973206d757374206265206772656160448201527f746572207468616e20746865206578697374696e67206f6e65000000000000006064820152608401610c7f565b601c805461ffff909216600160501b0261ffff60501b19909216919091179055565b612fbd6133a9565b601e5461ffff600160501b9091048116908216116130435760405162461bcd60e51b815260206004820152603e60248201527f74686520616d6f756e74206f6620666f787973576f6d616e206d75737420626560448201527f2067726561746572207468616e20746865206578697374696e67206f6e6500006064820152608401610c7f565b601e805461ffff909216600160501b0261ffff60501b19909216919091179055565b6026602052600090815260409020805460018201805467ffffffffffffffff83169361ffff600160401b8504811694600160501b900416929091610eba90614584565b601080546011805467ffffffffffffffff83169361ffff600160401b8504811694600160501b900416929091610eba90614584565b6130e56133a9565b6001600160a01b0381166131615760405162461bcd60e51b815260206004820152602660248201527f4f776e61626c653a206e6577206f776e657220697320746865207a65726f206160448201527f64647265737300000000000000000000000000000000000000000000000000006064820152608401610c7f565b612a11816138d3565b6131726133a9565b600e5461ffff600160501b9091048116908216116131f85760405162461bcd60e51b815260206004820152603e60248201527f74686520616d6f756e74206f6620666f787973576f6d616e206d75737420626560448201527f2067726561746572207468616e20746865206578697374696e67206f6e6500006064820152608401610c7f565b600e805461ffff909216600160501b0261ffff60501b19909216919091179055565b6132226133a9565b60185461ffff600160501b9091048116908216116132a85760405162461bcd60e51b815260206004820152603960248201527f74686520616d6f756e74206f6620666f787973206d757374206265206772656160448201527f746572207468616e20746865206578697374696e67206f6e65000000000000006064820152608401610c7f565b6018805461ffff909216600160501b0261ffff60501b19909216919091179055565b6000818152600260205260409020546001600160a01b0316612a115760405162461bcd60e51b815260206004820152601860248201527f4552433732313a20696e76616c696420746f6b656e20494400000000000000006044820152606401610c7f565b6000818152600460205260409020805473ffffffffffffffffffffffffffffffffffffffff19166001600160a01b038416908117909155819061337082611e8d565b6001600160a01b03167f8c5be1e5ebec7d5bd14f71427d1e84f3dd0314c0f7b2291e5b200ac8c7c3b92560405160405180910390a45050565b6007546001600160a01b031633146123f05760405162461bcd60e51b815260206004820181905260248201527f4f776e61626c653a2063616c6c6572206973206e6f7420746865206f776e65726044820152606401610c7f565b6115ea828260405180602001604052806000815250613bc2565b60408051608080820183528382526008805467ffffffffffffffff90811660208086019182523386880181815260006060808a018281528c8352602586528b83209a518b55955160018b015591516002909901805495511515600160a01b027fffffffffffffffffffffff0000000000000000000000000000000000000000009096166001600160a01b03909a1699909917949094179097559354875189815293169083015294810191909152918201929092527f470031062672bc0246e132c723a729c4676710ec663a29e86c88678032daddea910160405180910390a150565b60008061350b83611e8d565b9050806001600160a01b0316846001600160a01b0316148061355257506001600160a01b0380821660009081526005602090815260408083209388168352929052205460ff165b806135765750836001600160a01b031661356b84610bc8565b6001600160a01b0316145b949350505050565b826001600160a01b031661359182611e8d565b6001600160a01b03161461360d5760405162461bcd60e51b815260206004820152602560248201527f4552433732313a207472616e736665722066726f6d20696e636f72726563742060448201527f6f776e65720000000000000000000000000000000000000000000000000000006064820152608401610c7f565b6001600160a01b0382166136885760405162461bcd60e51b8152602060048201526024808201527f4552433732313a207472616e7366657220746f20746865207a65726f2061646460448201527f72657373000000000000000000000000000000000000000000000000000000006064820152608401610c7f565b613693838383613c40565b61369e60008261332e565b6001600160a01b03831660009081526003602052604081208054600192906136c7908490614817565b90915550506001600160a01b03821660009081526003602052604081208054600192906136f59084906146b9565b9091555050600081815260026020526040808220805473ffffffffffffffffffffffffffffffffffffffff19166001600160a01b0386811691821790925591518493918716917fddf252ad1be2c89b69c2b068fc378daa952ba7f163c4a11628f55a4df523b3ef91a4505050565b8054806137b25760405162461bcd60e51b815260206004820152601b60248201527f436f756e7465723a2064656372656d656e74206f766572666c6f7700000000006044820152606401610c7f565b600019019055565b8047101561380a5760405162461bcd60e51b815260206004820152601d60248201527f416464726573733a20696e73756666696369656e742062616c616e63650000006044820152606401610c7f565b6000826001600160a01b03168260405160006040518083038185875af1925050503d8060008114613857576040519150601f19603f3d011682016040523d82523d6000602084013e61385c565b606091505b5050905080610d205760405162461bcd60e51b815260206004820152603a60248201527f416464726573733a20756e61626c6520746f2073656e642076616c75652c207260448201527f6563697069656e74206d617920686176652072657665727465640000000000006064820152608401610c7f565b600780546001600160a01b0383811673ffffffffffffffffffffffffffffffffffffffff19831681179093556040519116919082907f8be0079c531659141344cd1fd0a4f28419497f9722a3daafe3b4186f6b6457e090600090a35050565b816001600160a01b0316836001600160a01b0316036139935760405162461bcd60e51b815260206004820152601960248201527f4552433732313a20617070726f766520746f2063616c6c6572000000000000006044820152606401610c7f565b6001600160a01b03838116600081815260056020908152604080832094871680845294825291829020805460ff191686151590811790915591519182527f17307eab39ab6107e8899845ad3d59bd9653f200f220920489ca2b5937696c31910160405180910390a3505050565b613a0b84848461357e565b613a1784848484613cf8565b612d875760405162461bcd60e51b815260206004820152603260248201527f4552433732313a207472616e7366657220746f206e6f6e20455243373231526560448201527131b2b4bb32b91034b6b83632b6b2b73a32b960711b6064820152608401610c7f565b606060238054610b4590614584565b606081600003613ad057505060408051808201909152600181527f3000000000000000000000000000000000000000000000000000000000000000602082015290565b8160005b8115613afa5780613ae48161468a565b9150613af39050600a83614840565b9150613ad4565b60008167ffffffffffffffff811115613b1557613b15614289565b6040519080825280601f01601f191660200182016040528015613b3f576020820181803683370190505b5090505b841561357657613b54600183614817565b9150613b61600a86614854565b613b6c9060306146b9565b60f81b818381518110613b8157613b816146a3565b60200101907effffffffffffffffffffffffffffffffffffffffffffffffffffffffffffff1916908160001a905350613bbb600a86614840565b9450613b43565b613bcc8383613e44565b613bd96000848484613cf8565b610d205760405162461bcd60e51b815260206004820152603260248201527f4552433732313a207472616e7366657220746f206e6f6e20455243373231526560448201527131b2b4bb32b91034b6b83632b6b2b73a32b960711b6064820152608401610c7f565b6001600160a01b038316613c9b57613c9681602980546000838152602a60205260408120829055600182018355919091527fcb7c14ce178f56e2e8d86ab33ebc0ae081ba8556a00cd122038841867181caac0155565b613cbe565b816001600160a01b0316836001600160a01b031614613cbe57613cbe8382613f9f565b6001600160a01b038216613cd557610d208161403c565b826001600160a01b0316826001600160a01b031614610d2057610d2082826140eb565b60006001600160a01b0384163b15613e3957604051630a85bd0160e11b81526001600160a01b0385169063150b7a0290613d3c903390899088908890600401614868565b6020604051808303816000875af1925050508015613d77575060408051601f3d908101601f19168201909252613d749181019061489a565b60015b613e1f573d808015613da5576040519150601f19603f3d011682016040523d82523d6000602084013e613daa565b606091505b508051600003613e175760405162461bcd60e51b815260206004820152603260248201527f4552433732313a207472616e7366657220746f206e6f6e20455243373231526560448201527131b2b4bb32b91034b6b83632b6b2b73a32b960711b6064820152608401610c7f565b805181602001fd5b6001600160e01b031916630a85bd0160e11b149050613576565b506001949350505050565b6001600160a01b038216613e9a5760405162461bcd60e51b815260206004820181905260248201527f4552433732313a206d696e7420746f20746865207a65726f20616464726573736044820152606401610c7f565b6000818152600260205260409020546001600160a01b031615613eff5760405162461bcd60e51b815260206004820152601c60248201527f4552433732313a20746f6b656e20616c7265616479206d696e746564000000006044820152606401610c7f565b613f0b60008383613c40565b6001600160a01b0382166000908152600360205260408120805460019290613f349084906146b9565b9091555050600081815260026020526040808220805473ffffffffffffffffffffffffffffffffffffffff19166001600160a01b03861690811790915590518392907fddf252ad1be2c89b69c2b068fc378daa952ba7f163c4a11628f55a4df523b3ef908290a45050565b60006001613fac8461221c565b613fb69190614817565b600083815260286020526040902054909150808214614009576001600160a01b03841660009081526027602090815260408083208584528252808320548484528184208190558352602890915290208190555b5060009182526028602090815260408084208490556001600160a01b039094168352602781528383209183525290812055565b60295460009061404e90600190614817565b6000838152602a602052604081205460298054939450909284908110614076576140766146a3565b906000526020600020015490508060298381548110614097576140976146a3565b6000918252602080832090910192909255828152602a909152604080822084905585825281205560298054806140cf576140cf6148b7565b6001900381819060005260206000200160009055905550505050565b60006140f68361221c565b6001600160a01b039093166000908152602760209081526040808320868452825280832085905593825260289052919091209190915550565b6001600160e01b031981168114612a1157600080fd5b60006020828403121561415757600080fd5b8135612eee8161412f565b60005b8381101561417d578181015183820152602001614165565b50506000910152565b6000815180845261419e816020860160208601614162565b601f01601f19169290920160200192915050565b602081526000612eee6020830184614186565b6000602082840312156141d757600080fd5b5035919050565b80356001600160a01b03811681146141f557600080fd5b919050565b6000806040838503121561420d57600080fd5b614216836141de565b946020939093013593505050565b60006020828403121561423657600080fd5b813561ffff81168114612eee57600080fd5b67ffffffffffffffff85168152600061ffff80861660208401528085166040840152506080606083015261427f6080830184614186565b9695505050505050565b634e487b7160e01b600052604160045260246000fd5b600067ffffffffffffffff808411156142ba576142ba614289565b604051601f8501601f19908116603f011681019082821181831017156142e2576142e2614289565b816040528093508581528686860111156142fb57600080fd5b858560208301376000602087830101525050509392505050565b600082601f83011261432657600080fd5b612eee8383356020850161429f565b6000806040838503121561434857600080fd5b82359150602083013567ffffffffffffffff81111561436657600080fd5b61437285828601614315565b9150509250929050565b6000806040838503121561438f57600080fd5b50508035926020909101359150565b6000806000606084860312156143b357600080fd5b6143bc846141de565b92506143ca602085016141de565b9150604084013590509250925092565b602080825282518282018190526000919060409081850190868401855b8281101561443c578151805185528681015187860152858101516001600160a01b031686860152606090810151151590850152608090930192908501906001016143f7565b5091979650505050505050565b60006020828403121561445b57600080fd5b813567ffffffffffffffff81111561447257600080fd5b61357684828501614315565b60006020828403121561449057600080fd5b612eee826141de565b600080604083850312156144ac57600080fd5b6144b5836141de565b9150602083013580151581146144ca57600080fd5b809150509250929050565b600080600080608085870312156144eb57600080fd5b6144f4856141de565b9350614502602086016141de565b925060408501359150606085013567ffffffffffffffff81111561452557600080fd5b8501601f8101871361453657600080fd5b6145458782356020840161429f565b91505092959194509250565b6000806040838503121561456457600080fd5b61456d836141de565b915061457b602084016141de565b90509250929050565b600181811c9082168061459857607f821691505b6020821081036145b857634e487b7160e01b600052602260045260246000fd5b50919050565b600082516145d0818460208701614162565b9190910192915050565b600081546145e781614584565b600182811680156145ff576001811461461457614643565b60ff1984168752821515830287019450614643565b8560005260208060002060005b8581101561463a5781548a820152908401908201614621565b50505082870194505b5050505092915050565b6000612eee82846145da565b634e487b7160e01b600052601160045260246000fd5b61ffff8181168382160190808211156123d7576123d7614659565b60006001820161469c5761469c614659565b5060010190565b634e487b7160e01b600052603260045260246000fd5b80820180821115610b3057610b30614659565b601f821115610d2057600081815260208120601f850160051c810160208610156146f35750805b601f850160051c820191505b81811015614712578281556001016146ff565b505050505050565b815167ffffffffffffffff81111561473457614734614289565b614748816147428454614584565b846146cc565b602080601f83116001811461477d57600084156147655750858301515b600019600386901b1c1916600185901b178555614712565b600085815260208120601f198616915b828110156147ac5788860151825594840194600190910190840161478d565b50858210156147ca5787850151600019600388901b60f8161c191681555b5050505050600190811b01905550565b600084516147ec818460208901614162565b845190830190614800818360208901614162565b61480c818301866145da565b979650505050505050565b81810381811115610b3057610b30614659565b634e487b7160e01b600052601260045260246000fd5b60008261484f5761484f61482a565b500490565b6000826148635761486361482a565b500690565b60006001600160a01b0380871683528086166020840152508360408301526080606083015261427f6080830184614186565b6000602082840312156148ac57600080fd5b8151612eee8161412f565b634e487b7160e01b600052603160045260246000fdfea2646970667358221220acf9c102363b7af53cda90a84a4f1279c894091377d1bac9ee38faf8ada3460b64736f6c63430008100033",
  "immutableReferences": {},
  "source": "// SPDX-License-Identifier: MIT\r\npragma solidity >=0.4.22 <0.9.0;\r\npragma experimental ABIEncoderV2;\r\n\r\nimport \"@openzeppelin/contracts/token/ERC721/extensions/ERC721URIStorage.sol\";\r\nimport \"@openzeppelin/contracts/utils/Counters.sol\";\r\nimport \"@openzeppelin/contracts/utils/Address.sol\";\r\nimport \"@openzeppelin/contracts/access/Ownable.sol\";\r\n\r\ncontract NftMarket is ERC721URIStorage, Ownable {\r\n    using Counters for Counters.Counter;\r\n    using Strings for uint256;\r\n    using Address for address;\r\n\r\n    struct NftItem {\r\n        uint256 tokenId;\r\n        uint256 price;\r\n        address creator;\r\n        bool isListed;\r\n    }\r\n\r\n    struct GruopFoxy {\r\n        uint64 listingPriceMistico;\r\n        uint16 startTokenId;\r\n        uint16 endTokenId;\r\n        string razaNft;\r\n    }\r\n\r\n    GruopFoxy public foxyMistico = GruopFoxy(0.25 ether, 0, 8, \"foxyMistico\");\r\n    GruopFoxy public foxyMisticoWoman =\r\n        GruopFoxy(0.25 ether, 8, 15, \"foxyMisticoWoman\");\r\n\r\n    GruopFoxy public foxyMagico = GruopFoxy(0.35 ether, 15, 23, \"foxyMagico\");\r\n    GruopFoxy public foxyMagicoWoman =\r\n        GruopFoxy(0.35 ether, 23, 31, \"foxyMagicoWoman\");\r\n\r\n    GruopFoxy public foxyGlorioso =\r\n        GruopFoxy(0.55 ether, 31, 39, \"foxyGlorioso\");\r\n    GruopFoxy public foxyGloriosoWoman =\r\n        GruopFoxy(0.55 ether, 39, 46, \"foxyGloriosoWoman\");\r\n\r\n    GruopFoxy public foxyLegendario =\r\n        GruopFoxy(0.75 ether, 46, 56, \"foxyLegendario\");\r\n    GruopFoxy public foxyLegendarioWoman =\r\n        GruopFoxy(0.75 ether, 56, 62, \"foxyLegendarioWoman\");\r\n\r\n    GruopFoxy public foxyEpico = GruopFoxy(1 ether, 62, 71, \"foxyEpico\");\r\n    GruopFoxy public foxyEpicoWoman =\r\n        GruopFoxy(1 ether, 71, 79, \"foxyEpicoWoman\");\r\n\r\n    GruopFoxy public foxyInmortal =\r\n        GruopFoxy(1.25 ether, 79, 86, \"foxyInmortal\");\r\n    GruopFoxy public foxyInmortalWoman =\r\n        GruopFoxy(1.25 ether, 85, 93, \"foxyInmortalWoman\");\r\n\r\n    Counters.Counter private _listedItems;\r\n    Counters.Counter private _tokenIds;\r\n\r\n    string private baseExtension = \".json\";\r\n    string public baseURI;\r\n\r\n    mapping(string => bool) private _usedTokenURIs;\r\n    mapping(uint256 => NftItem) public _idToNftItem;\r\n    mapping(uint256 => GruopFoxy) public _GruopFoxy;\r\n\r\n    mapping(address => mapping(uint256 => uint256)) private _ownedTokens;\r\n    mapping(uint256 => uint256) private _idToOwnedIndex;\r\n\r\n    uint256[] private _allNfts;\r\n\r\n    mapping(uint256 => uint256) private _idToNftIndex;\r\n\r\n    event NftItemCreated(\r\n        uint256 tokenId,\r\n        uint256 price,\r\n        address creator,\r\n        bool isListed\r\n    );\r\n\r\n    constructor() ERC721(\"ElfNFT\", \"ENFT\") {}\r\n\r\n    function setMaxFoxysMistico(uint16 newMaxFoxy) external onlyOwner {\r\n        require(\r\n            newMaxFoxy > foxyMistico.endTokenId,\r\n            \"the amount of foxys must be greater than the existing one\"\r\n        );\r\n        foxyMistico.endTokenId = newMaxFoxy;\r\n    }\r\n\r\n    function setMaxFoxysMagico(uint16 newMaxFoxy) external onlyOwner {\r\n        require(\r\n            newMaxFoxy > foxyMagico.endTokenId,\r\n            \"the amount of foxys must be greater than the existing one\"\r\n        );\r\n        foxyMagico.endTokenId = newMaxFoxy;\r\n    }\r\n\r\n    function setMaxFoxysGlorioso(uint16 newMaxFoxy) external onlyOwner {\r\n        require(\r\n            newMaxFoxy > foxyGlorioso.endTokenId,\r\n            \"the amount of foxys must be greater than the existing one\"\r\n        );\r\n        foxyGlorioso.endTokenId = newMaxFoxy;\r\n    }\r\n\r\n    function setMaxFoxysLegendario(uint16 newMaxFoxy) external onlyOwner {\r\n        require(\r\n            newMaxFoxy > foxyLegendario.endTokenId,\r\n            \"the amount of foxys must be greater than the existing one\"\r\n        );\r\n        foxyLegendario.endTokenId = newMaxFoxy;\r\n    }\r\n\r\n    function setMaxFoxysEpico(uint16 newMaxFoxy) external onlyOwner {\r\n        require(\r\n            newMaxFoxy > foxyEpico.endTokenId,\r\n            \"the amount of foxys must be greater than the existing one\"\r\n        );\r\n        foxyEpico.endTokenId = newMaxFoxy;\r\n    }\r\n\r\n    function setMaxFoxysInmortal(uint16 newMaxFoxy) external onlyOwner {\r\n        require(\r\n            newMaxFoxy > foxyInmortal.endTokenId,\r\n            \"the amount of foxys must be greater than the existing one\"\r\n        );\r\n        foxyInmortal.endTokenId = newMaxFoxy;\r\n    }\r\n\r\n    function setMaxFoxysMisticoWoman(uint16 newMaxFoxy) external onlyOwner {\r\n        require(\r\n            newMaxFoxy > foxyMisticoWoman.endTokenId,\r\n            \"the amount of foxysWoman must be greater than the existing one\"\r\n        );\r\n        foxyMisticoWoman.endTokenId = newMaxFoxy;\r\n    }\r\n\r\n    function setMaxFoxysMagicoWoman(uint16 newMaxFoxy) external onlyOwner {\r\n        require(\r\n            newMaxFoxy > foxyMagicoWoman.endTokenId,\r\n            \"the amount of foxysWoman must be greater than the existing one\"\r\n        );\r\n        foxyMagicoWoman.endTokenId = newMaxFoxy;\r\n    }\r\n\r\n    function setMaxFoxysGloriosoWoman(uint16 newMaxFoxy) external onlyOwner {\r\n        require(\r\n            newMaxFoxy > foxyGloriosoWoman.endTokenId,\r\n            \"the amount of foxysWoman must be greater than the existing one\"\r\n        );\r\n        foxyGloriosoWoman.endTokenId = newMaxFoxy;\r\n    }\r\n\r\n    function setMaxFoxysLegendarioWoman(uint16 newMaxFoxy) external onlyOwner {\r\n        require(\r\n            newMaxFoxy > foxyInmortalWoman.endTokenId,\r\n            \"the amount of foxysWoman must be greater than the existing one\"\r\n        );\r\n        foxyInmortalWoman.endTokenId = newMaxFoxy;\r\n    }\r\n\r\n    function setMaxFoxysEpicoWoman(uint16 newMaxFoxy) external onlyOwner {\r\n        require(\r\n            newMaxFoxy > foxyEpicoWoman.endTokenId,\r\n            \"the amount of foxysWoman must be greater than the existing one\"\r\n        );\r\n        foxyEpicoWoman.endTokenId = newMaxFoxy;\r\n    }\r\n\r\n    function setMaxFoxysInmortalWoman(uint16 newMaxFoxy) external onlyOwner {\r\n        require(\r\n            newMaxFoxy > foxyInmortalWoman.endTokenId,\r\n            \"the amount of foxysWoman must be greater than the existing one\"\r\n        );\r\n        foxyInmortalWoman.endTokenId = newMaxFoxy;\r\n    }\r\n\r\n    function withdraw() external onlyOwner {\r\n        uint256 amount = address(this).balance;\r\n        require(amount > 0, \"No funds available\");\r\n        address principal = (0x1e8dd1acB4D121d1a30B7B9bb709F2FDaf041Cc2);\r\n        Address.sendValue(payable(principal), amount);\r\n    }\r\n\r\n    function listedItemsCount() public view returns (uint256) {\r\n        return _listedItems.current();\r\n    }\r\n\r\n    function totalSupply() public view returns (uint256) {\r\n        return _allNfts.length;\r\n    }\r\n\r\n    function setBaseURI(string memory _newBaseURI) public onlyOwner {\r\n        baseURI = _newBaseURI;\r\n    }\r\n\r\n    function _baseURI() internal view virtual override returns (string memory) {\r\n        return baseURI;\r\n    }\r\n\r\n    function tokenByIndex(uint256 index) public view returns (uint256) {\r\n        require(index < totalSupply(), \"Index out of bounds\");\r\n        return _allNfts[index];\r\n    }\r\n\r\n    function tokenOfOwnerByIndex(address owner, uint256 index)\r\n        public\r\n        view\r\n        returns (uint256)\r\n    {\r\n        require(index < ERC721.balanceOf(owner), \"Index out of bounds\");\r\n        return _ownedTokens[owner][index];\r\n    }\r\n\r\n    function getAllNftsOnSale() public view returns (NftItem[] memory) {\r\n        uint256 allItemsCounts = totalSupply();\r\n        uint256 currentIndex = 0;\r\n        NftItem[] memory items = new NftItem[](_listedItems.current());\r\n\r\n        for (uint256 i = 0; i < allItemsCounts; i++) {\r\n            uint256 tokenId = tokenByIndex(i);\r\n            NftItem storage item = _idToNftItem[tokenId];\r\n\r\n            if (item.isListed == true) {\r\n                items[currentIndex] = item;\r\n                currentIndex += 1;\r\n            }\r\n        }\r\n\r\n        return items;\r\n    }\r\n\r\n    function getOwnedNfts() public view returns (NftItem[] memory) {\r\n        uint256 ownedItemsCount = ERC721.balanceOf(msg.sender);\r\n        NftItem[] memory items = new NftItem[](ownedItemsCount);\r\n\r\n        for (uint256 i = 0; i < ownedItemsCount; i++) {\r\n            uint256 tokenId = tokenOfOwnerByIndex(msg.sender, i);\r\n            NftItem storage item = _idToNftItem[tokenId];\r\n            items[i] = item;\r\n        }\r\n\r\n        return items;\r\n    }\r\n\r\n    function foxyBuyMistico(uint256 amount, string memory _raza)\r\n        public\r\n        payable\r\n        returns (uint256 foxy)\r\n    {\r\n        require(\r\n            msg.value == foxyMistico.listingPriceMistico,\r\n            \"Price must be equal to listing price\"\r\n        );\r\n\r\n        bytes32 hash_raza = keccak256(abi.encodePacked(_raza));\r\n        bytes32 hash_razaNft = keccak256(abi.encodePacked(foxyMistico.razaNft));\r\n        bytes32 hash_razaNftWoman = keccak256(\r\n            abi.encodePacked(foxyMisticoWoman.razaNft)\r\n        );\r\n\r\n        if (hash_raza == hash_razaNft) {\r\n            require(\r\n                foxyMistico.startTokenId < foxyMistico.endTokenId,\r\n                \"Max FoxyMistico Nfts Minted\"\r\n            );\r\n            for (uint256 i = 0; i < amount; ++i) {\r\n                _safeMint(msg.sender, foxyMistico.startTokenId);\r\n                _createNftItem(foxyMistico.startTokenId);\r\n                foxyMistico.startTokenId += 1;\r\n            }\r\n\r\n            return foxyMistico.startTokenId;\r\n        } else if (hash_raza == hash_razaNftWoman) {\r\n            require(\r\n                foxyMisticoWoman.startTokenId < foxyMisticoWoman.endTokenId,\r\n                \"Max foxyMisticoWoman Nfts Minted\"\r\n            );\r\n            for (uint256 i = 0; i < amount; ++i) {\r\n                _safeMint(msg.sender, foxyMisticoWoman.startTokenId);\r\n                _createNftItem(foxyMisticoWoman.startTokenId);\r\n                foxyMisticoWoman.startTokenId += 1;\r\n            }\r\n\r\n            return foxyMisticoWoman.startTokenId;\r\n        }\r\n    }\r\n\r\n    function foxyBuyMagico(uint256 amount, string memory _raza)\r\n        public\r\n        payable\r\n        returns (uint256 foxy)\r\n    {\r\n        bytes32 hash_raza = keccak256(abi.encodePacked(_raza));\r\n        bytes32 hash_razaNft = keccak256(abi.encodePacked(foxyMagico.razaNft));\r\n        bytes32 hash_razaNftWoman = keccak256(\r\n            abi.encodePacked(foxyMagicoWoman.razaNft)\r\n        );\r\n\r\n        if (hash_raza == hash_razaNft) {\r\n            require(\r\n                foxyMagico.startTokenId < foxyMagico.endTokenId,\r\n                \"Max FoxyMagico Nfts Minted\"\r\n            );\r\n            for (uint256 i = 0; i < amount; ++i) {\r\n                _safeMint(msg.sender, foxyMagico.startTokenId);\r\n                _createNftItem(foxyMagico.startTokenId);\r\n                foxyMagico.startTokenId += 1;\r\n            }\r\n\r\n            return foxyMagico.startTokenId;\r\n        } else if (hash_raza == hash_razaNftWoman) {\r\n            require(\r\n                foxyMagicoWoman.startTokenId < foxyMagicoWoman.endTokenId,\r\n                \"Max foxyMisticoWoman Nfts Minted\"\r\n            );\r\n            for (uint256 i = 0; i < amount; ++i) {\r\n                _safeMint(msg.sender, foxyMagicoWoman.startTokenId);\r\n                _createNftItem(foxyMagicoWoman.startTokenId);\r\n                foxyMagicoWoman.startTokenId += 1;\r\n            }\r\n\r\n            return foxyMagicoWoman.startTokenId;\r\n        }\r\n    }\r\n\r\n    function foxyBuyGlorioso(uint256 amount, string memory _raza)\r\n        public\r\n        payable\r\n        returns (uint256 foxy)\r\n    {\r\n        bytes32 hash_raza = keccak256(abi.encodePacked(_raza));\r\n        bytes32 hash_razaNft = keccak256(\r\n            abi.encodePacked(foxyGlorioso.razaNft)\r\n        );\r\n        bytes32 hash_razaNftWoman = keccak256(\r\n            abi.encodePacked(foxyGloriosoWoman.razaNft)\r\n        );\r\n\r\n        if (hash_raza == hash_razaNft) {\r\n            require(\r\n                foxyGlorioso.startTokenId < foxyGlorioso.endTokenId,\r\n                \"Max FoxyGlorioso Nfts Minted\"\r\n            );\r\n            for (uint256 i = 0; i < amount; ++i) {\r\n                _safeMint(msg.sender, foxyGlorioso.startTokenId);\r\n                _createNftItem(foxyGlorioso.startTokenId);\r\n                foxyGlorioso.startTokenId += 1;\r\n            }\r\n\r\n            return foxyGlorioso.startTokenId;\r\n        } else if (hash_raza == hash_razaNftWoman) {\r\n            require(\r\n                foxyGloriosoWoman.startTokenId < foxyGloriosoWoman.endTokenId,\r\n                \"Max foxyMisticoWoman Nfts Minted\"\r\n            );\r\n            for (uint256 i = 0; i < amount; ++i) {\r\n                _safeMint(msg.sender, foxyGloriosoWoman.startTokenId);\r\n                _createNftItem(foxyGloriosoWoman.startTokenId);\r\n                foxyGloriosoWoman.startTokenId += 1;\r\n            }\r\n\r\n            return foxyGloriosoWoman.startTokenId;\r\n        }\r\n    }\r\n\r\n    function foxyBuyLegendario(uint256 amount, string memory _raza)\r\n        public\r\n        payable\r\n        returns (uint256 foxy)\r\n    {\r\n        bytes32 hash_raza = keccak256(abi.encodePacked(_raza));\r\n        bytes32 hash_razaNft = keccak256(\r\n            abi.encodePacked(foxyLegendario.razaNft)\r\n        );\r\n        bytes32 hash_razaNftWoman = keccak256(\r\n            abi.encodePacked(foxyLegendarioWoman.razaNft)\r\n        );\r\n\r\n        if (hash_raza == hash_razaNft) {\r\n            require(\r\n                foxyLegendario.startTokenId < foxyLegendario.endTokenId,\r\n                \"Max FoxyLegendario Nfts Minted\"\r\n            );\r\n            for (uint256 i = 0; i < amount; ++i) {\r\n                _safeMint(msg.sender, foxyLegendario.startTokenId);\r\n                _createNftItem(foxyLegendario.startTokenId);\r\n                foxyLegendario.startTokenId += 1;\r\n            }\r\n\r\n            return foxyLegendario.startTokenId;\r\n        } else if (hash_raza == hash_razaNftWoman) {\r\n            require(\r\n                foxyLegendarioWoman.startTokenId <\r\n                    foxyLegendarioWoman.endTokenId,\r\n                \"Max foxyMisticoWoman Nfts Minted\"\r\n            );\r\n            for (uint256 i = 0; i < amount; ++i) {\r\n                _safeMint(msg.sender, foxyLegendarioWoman.startTokenId);\r\n                _createNftItem(foxyLegendarioWoman.startTokenId);\r\n                foxyLegendarioWoman.startTokenId += 1;\r\n            }\r\n\r\n            return foxyLegendarioWoman.startTokenId;\r\n        }\r\n    }\r\n\r\n    function foxyBuyEpico(uint256 amount, string memory _raza)\r\n        public\r\n        payable\r\n        returns (uint256 foxy)\r\n    {\r\n        bytes32 hash_raza = keccak256(abi.encodePacked(_raza));\r\n        bytes32 hash_razaNft = keccak256(abi.encodePacked(foxyEpico.razaNft));\r\n        bytes32 hash_razaNftWoman = keccak256(\r\n            abi.encodePacked(foxyEpicoWoman.razaNft)\r\n        );\r\n\r\n        if (hash_raza == hash_razaNft) {\r\n            require(\r\n                foxyEpico.startTokenId < foxyEpico.endTokenId,\r\n                \"Max FoxyEpico Nfts Minted\"\r\n            );\r\n            for (uint256 i = 0; i < amount; ++i) {\r\n                _safeMint(msg.sender, foxyEpico.startTokenId);\r\n                _createNftItem(foxyEpico.startTokenId);\r\n                foxyEpico.startTokenId += 1;\r\n            }\r\n\r\n            return foxyEpico.startTokenId;\r\n        } else if (hash_raza == hash_razaNftWoman) {\r\n            require(\r\n                foxyEpicoWoman.startTokenId < foxyEpicoWoman.endTokenId,\r\n                \"Max foxyMisticoWoman Nfts Minted\"\r\n            );\r\n            for (uint256 i = 0; i < amount; ++i) {\r\n                _safeMint(msg.sender, foxyEpicoWoman.startTokenId);\r\n                _createNftItem(foxyEpicoWoman.startTokenId);\r\n                foxyEpicoWoman.startTokenId += 1;\r\n            }\r\n\r\n            return foxyEpicoWoman.startTokenId;\r\n        }\r\n    }\r\n\r\n    function FoxyBuyInmortal(uint256 amount, string memory _raza)\r\n        public\r\n        payable\r\n        returns (uint256 foxy)\r\n    {\r\n        bytes32 hash_raza = keccak256(abi.encodePacked(_raza));\r\n        bytes32 hash_razaNft = keccak256(\r\n            abi.encodePacked(foxyInmortal.razaNft)\r\n        );\r\n        bytes32 hash_razaNftWoman = keccak256(\r\n            abi.encodePacked(foxyInmortalWoman.razaNft)\r\n        );\r\n\r\n        if (hash_raza == hash_razaNft) {\r\n            require(\r\n                foxyInmortal.startTokenId < foxyInmortal.endTokenId,\r\n                \"Max FoxyInmortal Nfts Minted\"\r\n            );\r\n            for (uint256 i = 0; i < amount; ++i) {\r\n                _safeMint(msg.sender, foxyInmortal.startTokenId);\r\n                _createNftItem(foxyInmortal.startTokenId);\r\n                foxyInmortal.startTokenId += 1;\r\n            }\r\n\r\n            return foxyInmortal.startTokenId;\r\n        } else if (hash_raza == hash_razaNftWoman) {\r\n            require(\r\n                foxyInmortalWoman.startTokenId < foxyInmortalWoman.endTokenId,\r\n                \"Max foxyMisticoWoman Nfts Minted\"\r\n            );\r\n            for (uint256 i = 0; i < amount; ++i) {\r\n                _safeMint(msg.sender, foxyInmortalWoman.startTokenId);\r\n                _createNftItem(foxyInmortalWoman.startTokenId);\r\n                foxyInmortalWoman.startTokenId += 1;\r\n            }\r\n\r\n            return foxyInmortalWoman.startTokenId;\r\n        }\r\n    }\r\n\r\n    function tokenURI(uint256 tokenId)\r\n        public\r\n        view\r\n        override\r\n        returns (string memory)\r\n    {\r\n        require(_exists(tokenId));\r\n\r\n        string memory currentBaseURI = _baseURI();\r\n        return\r\n            bytes(currentBaseURI).length > 0\r\n                ? string(\r\n                    abi.encodePacked(\r\n                        currentBaseURI,\r\n                        tokenId.toString(),\r\n                        baseExtension\r\n                    )\r\n                )\r\n                : \"\";\r\n    }\r\n\r\n    function buyNft(uint256 tokenId) public payable {\r\n        uint256 price = _idToNftItem[tokenId].price;\r\n        address owner = ERC721.ownerOf(tokenId);\r\n\r\n        require(msg.sender != owner, \"You already own this NFT\");\r\n        require(msg.value == price, \"Please submit the asking price\");\r\n\r\n        _idToNftItem[tokenId].isListed = false;\r\n        _listedItems.decrement();\r\n\r\n        _transfer(owner, msg.sender, tokenId);\r\n        Address.sendValue(payable(owner), msg.value);\r\n    }\r\n\r\n    function cancellSellNft(uint256 tokenId) public {\r\n        require(\r\n            ERC721.ownerOf(tokenId) == msg.sender,\r\n            \"You are not owner of this nft\"\r\n        );\r\n\r\n        _idToNftItem[tokenId].isListed = false;\r\n        _listedItems.decrement();\r\n    }\r\n\r\n    function placeNftOnSale(uint256 tokenId, uint256 newPrice) public payable {\r\n        require(\r\n            ERC721.ownerOf(tokenId) == msg.sender,\r\n            \"You are not owner of this nft\"\r\n        );\r\n        require(\r\n            _idToNftItem[tokenId].isListed == false,\r\n            \"Item is already on sale\"\r\n        );\r\n\r\n        _idToNftItem[tokenId].isListed = true;\r\n        _idToNftItem[tokenId].price = newPrice;\r\n        _listedItems.increment();\r\n    }\r\n\r\n    function _createNftItem(uint256 tokenId) private {\r\n        _idToNftItem[tokenId] = NftItem(\r\n            tokenId,\r\n            foxyMistico.listingPriceMistico,\r\n            msg.sender,\r\n            false\r\n        );\r\n\r\n        emit NftItemCreated(\r\n            tokenId,\r\n            foxyMistico.listingPriceMistico,\r\n            msg.sender,\r\n            false\r\n        );\r\n    }\r\n\r\n    function _beforeTokenTransfer(\r\n        address from,\r\n        address to,\r\n        uint256 tokenId\r\n    ) internal virtual override {\r\n        super._beforeTokenTransfer(from, to, tokenId);\r\n\r\n        // minting token\r\n        if (from == address(0)) {\r\n            _addTokenToAllTokensEnumeration(tokenId);\r\n        } else if (from != to) {\r\n            _removeTokenFromOwnerEnumeration(from, tokenId);\r\n        }\r\n        if (to == address(0)) {\r\n            _removeTokenFromAllTokensEnumeration(tokenId);\r\n        } else if (to != from) {\r\n            _addTokenToOwnerEnumaretion(to, tokenId);\r\n        }\r\n    }\r\n\r\n    function _addTokenToAllTokensEnumeration(uint256 tokenId) private {\r\n        _idToNftIndex[tokenId] = _allNfts.length;\r\n        _allNfts.push(tokenId);\r\n    }\r\n\r\n    function _addTokenToOwnerEnumaretion(address to, uint256 tokenId) private {\r\n        uint256 length = ERC721.balanceOf(to);\r\n        _ownedTokens[to][length] = tokenId;\r\n        _idToOwnedIndex[tokenId] = length;\r\n    }\r\n\r\n    function _removeTokenFromOwnerEnumeration(address from, uint256 tokenId)\r\n        private\r\n    {\r\n        uint256 lastTokenIndex = ERC721.balanceOf(from) - 1;\r\n        uint256 tokenIndex = _idToOwnedIndex[tokenId];\r\n\r\n        if (tokenIndex != lastTokenIndex) {\r\n            uint256 lastTokenId = _ownedTokens[from][lastTokenIndex];\r\n\r\n            _ownedTokens[from][tokenIndex] = lastTokenId;\r\n            _idToOwnedIndex[lastTokenId] = tokenIndex;\r\n        }\r\n\r\n        delete _idToOwnedIndex[tokenId];\r\n        delete _ownedTokens[from][lastTokenIndex];\r\n    }\r\n\r\n    function _removeTokenFromAllTokensEnumeration(uint256 tokenId) private {\r\n        uint256 lastTokenIndex = _allNfts.length - 1;\r\n        uint256 tokenIndex = _idToNftIndex[tokenId];\r\n        uint256 lastTokenId = _allNfts[lastTokenIndex];\r\n\r\n        _allNfts[tokenIndex] = lastTokenId;\r\n        _idToNftIndex[lastTokenId] = tokenIndex;\r\n\r\n        delete _idToNftIndex[tokenId];\r\n        _allNfts.pop();\r\n    }\r\n}\r\n",
  "sourcePath": "C:\\Users\\nahue\\OneDrive\\Escritorio\\marketplace\\nft-marketplace\\contracts\\NftMarket.sol",
  "compiler": {
    "name": "solc",
    "version": "0.8.16+commit.07a7930e.Emscripten.clang"
  },
  "schemaVersion": "3.4.9",
  "updatedAt": "2022-10-10T22:41:15.847Z",
  "networkType": "ethereum",
  "devdoc": {
    "kind": "dev",
    "methods": {
      "approve(address,uint256)": {
        "details": "See {IERC721-approve}."
      },
      "balanceOf(address)": {
        "details": "See {IERC721-balanceOf}."
      },
      "getApproved(uint256)": {
        "details": "See {IERC721-getApproved}."
      },
      "isApprovedForAll(address,address)": {
        "details": "See {IERC721-isApprovedForAll}."
      },
      "name()": {
        "details": "See {IERC721Metadata-name}."
      },
      "owner()": {
        "details": "Returns the address of the current owner."
      },
      "ownerOf(uint256)": {
        "details": "See {IERC721-ownerOf}."
      },
      "renounceOwnership()": {
        "details": "Leaves the contract without owner. It will not be possible to call `onlyOwner` functions anymore. Can only be called by the current owner. NOTE: Renouncing ownership will leave the contract without an owner, thereby removing any functionality that is only available to the owner."
      },
      "safeTransferFrom(address,address,uint256)": {
        "details": "See {IERC721-safeTransferFrom}."
      },
      "safeTransferFrom(address,address,uint256,bytes)": {
        "details": "See {IERC721-safeTransferFrom}."
      },
      "setApprovalForAll(address,bool)": {
        "details": "See {IERC721-setApprovalForAll}."
      },
      "supportsInterface(bytes4)": {
        "details": "See {IERC165-supportsInterface}."
      },
      "symbol()": {
        "details": "See {IERC721Metadata-symbol}."
      },
      "tokenURI(uint256)": {
        "details": "See {IERC721Metadata-tokenURI}."
      },
      "transferFrom(address,address,uint256)": {
        "details": "See {IERC721-transferFrom}."
      },
      "transferOwnership(address)": {
        "details": "Transfers ownership of the contract to a new account (`newOwner`). Can only be called by the current owner."
      }
    },
    "version": 1
  },
  "userdoc": {
    "kind": "user",
    "methods": {},
    "version": 1
  }
}