{
  "contractName": "NftMarket",
  "abi": [
    {
      "inputs": [],
      "stateMutability": "nonpayable",
      "type": "constructor"
    },
    {
      "anonymous": false,
      "inputs": [
        {
          "indexed": true,
          "internalType": "address",
          "name": "owner",
          "type": "address"
        },
        {
          "indexed": true,
          "internalType": "address",
          "name": "approved",
          "type": "address"
        },
        {
          "indexed": true,
          "internalType": "uint256",
          "name": "tokenId",
          "type": "uint256"
        }
      ],
      "name": "Approval",
      "type": "event"
    },
    {
      "anonymous": false,
      "inputs": [
        {
          "indexed": true,
          "internalType": "address",
          "name": "owner",
          "type": "address"
        },
        {
          "indexed": true,
          "internalType": "address",
          "name": "operator",
          "type": "address"
        },
        {
          "indexed": false,
          "internalType": "bool",
          "name": "approved",
          "type": "bool"
        }
      ],
      "name": "ApprovalForAll",
      "type": "event"
    },
    {
      "anonymous": false,
      "inputs": [
        {
          "indexed": false,
          "internalType": "uint256",
          "name": "tokenId",
          "type": "uint256"
        },
        {
          "indexed": false,
          "internalType": "uint256",
          "name": "price",
          "type": "uint256"
        },
        {
          "indexed": false,
          "internalType": "address",
          "name": "creator",
          "type": "address"
        },
        {
          "indexed": false,
          "internalType": "bool",
          "name": "isListed",
          "type": "bool"
        }
      ],
      "name": "NftItemCreated",
      "type": "event"
    },
    {
      "anonymous": false,
      "inputs": [
        {
          "indexed": true,
          "internalType": "address",
          "name": "previousOwner",
          "type": "address"
        },
        {
          "indexed": true,
          "internalType": "address",
          "name": "newOwner",
          "type": "address"
        }
      ],
      "name": "OwnershipTransferred",
      "type": "event"
    },
    {
      "anonymous": false,
      "inputs": [
        {
          "indexed": true,
          "internalType": "address",
          "name": "from",
          "type": "address"
        },
        {
          "indexed": true,
          "internalType": "address",
          "name": "to",
          "type": "address"
        },
        {
          "indexed": true,
          "internalType": "uint256",
          "name": "tokenId",
          "type": "uint256"
        }
      ],
      "name": "Transfer",
      "type": "event"
    },
    {
      "inputs": [
        {
          "internalType": "uint256",
          "name": "",
          "type": "uint256"
        }
      ],
      "name": "_idToNftItem",
      "outputs": [
        {
          "internalType": "uint256",
          "name": "tokenId",
          "type": "uint256"
        },
        {
          "internalType": "uint256",
          "name": "price",
          "type": "uint256"
        },
        {
          "internalType": "address",
          "name": "creator",
          "type": "address"
        },
        {
          "internalType": "bool",
          "name": "isListed",
          "type": "bool"
        }
      ],
      "stateMutability": "view",
      "type": "function",
      "constant": true
    },
    {
      "inputs": [
        {
          "internalType": "address",
          "name": "to",
          "type": "address"
        },
        {
          "internalType": "uint256",
          "name": "tokenId",
          "type": "uint256"
        }
      ],
      "name": "approve",
      "outputs": [],
      "stateMutability": "nonpayable",
      "type": "function"
    },
    {
      "inputs": [
        {
          "internalType": "address",
          "name": "owner",
          "type": "address"
        }
      ],
      "name": "balanceOf",
      "outputs": [
        {
          "internalType": "uint256",
          "name": "",
          "type": "uint256"
        }
      ],
      "stateMutability": "view",
      "type": "function",
      "constant": true
    },
    {
      "inputs": [],
      "name": "baseExtension",
      "outputs": [
        {
          "internalType": "string",
          "name": "",
          "type": "string"
        }
      ],
      "stateMutability": "view",
      "type": "function",
      "constant": true
    },
    {
      "inputs": [],
      "name": "baseURI",
      "outputs": [
        {
          "internalType": "string",
          "name": "",
          "type": "string"
        }
      ],
      "stateMutability": "view",
      "type": "function",
      "constant": true
    },
    {
      "inputs": [
        {
          "internalType": "uint256",
          "name": "tokenId",
          "type": "uint256"
        }
      ],
      "name": "getApproved",
      "outputs": [
        {
          "internalType": "address",
          "name": "",
          "type": "address"
        }
      ],
      "stateMutability": "view",
      "type": "function",
      "constant": true
    },
    {
      "inputs": [
        {
          "internalType": "address",
          "name": "owner",
          "type": "address"
        },
        {
          "internalType": "address",
          "name": "operator",
          "type": "address"
        }
      ],
      "name": "isApprovedForAll",
      "outputs": [
        {
          "internalType": "bool",
          "name": "",
          "type": "bool"
        }
      ],
      "stateMutability": "view",
      "type": "function",
      "constant": true
    },
    {
      "inputs": [],
      "name": "listingPrice",
      "outputs": [
        {
          "internalType": "uint256",
          "name": "",
          "type": "uint256"
        }
      ],
      "stateMutability": "view",
      "type": "function",
      "constant": true
    },
    {
      "inputs": [],
      "name": "maxSupply",
      "outputs": [
        {
          "internalType": "uint256",
          "name": "",
          "type": "uint256"
        }
      ],
      "stateMutability": "view",
      "type": "function",
      "constant": true
    },
    {
      "inputs": [],
      "name": "name",
      "outputs": [
        {
          "internalType": "string",
          "name": "",
          "type": "string"
        }
      ],
      "stateMutability": "view",
      "type": "function",
      "constant": true
    },
    {
      "inputs": [],
      "name": "owner",
      "outputs": [
        {
          "internalType": "address",
          "name": "",
          "type": "address"
        }
      ],
      "stateMutability": "view",
      "type": "function",
      "constant": true
    },
    {
      "inputs": [
        {
          "internalType": "uint256",
          "name": "tokenId",
          "type": "uint256"
        }
      ],
      "name": "ownerOf",
      "outputs": [
        {
          "internalType": "address",
          "name": "",
          "type": "address"
        }
      ],
      "stateMutability": "view",
      "type": "function",
      "constant": true
    },
    {
      "inputs": [],
      "name": "renounceOwnership",
      "outputs": [],
      "stateMutability": "nonpayable",
      "type": "function"
    },
    {
      "inputs": [
        {
          "internalType": "address",
          "name": "from",
          "type": "address"
        },
        {
          "internalType": "address",
          "name": "to",
          "type": "address"
        },
        {
          "internalType": "uint256",
          "name": "tokenId",
          "type": "uint256"
        }
      ],
      "name": "safeTransferFrom",
      "outputs": [],
      "stateMutability": "nonpayable",
      "type": "function"
    },
    {
      "inputs": [
        {
          "internalType": "address",
          "name": "from",
          "type": "address"
        },
        {
          "internalType": "address",
          "name": "to",
          "type": "address"
        },
        {
          "internalType": "uint256",
          "name": "tokenId",
          "type": "uint256"
        },
        {
          "internalType": "bytes",
          "name": "data",
          "type": "bytes"
        }
      ],
      "name": "safeTransferFrom",
      "outputs": [],
      "stateMutability": "nonpayable",
      "type": "function"
    },
    {
      "inputs": [
        {
          "internalType": "address",
          "name": "operator",
          "type": "address"
        },
        {
          "internalType": "bool",
          "name": "approved",
          "type": "bool"
        }
      ],
      "name": "setApprovalForAll",
      "outputs": [],
      "stateMutability": "nonpayable",
      "type": "function"
    },
    {
      "inputs": [
        {
          "internalType": "bytes4",
          "name": "interfaceId",
          "type": "bytes4"
        }
      ],
      "name": "supportsInterface",
      "outputs": [
        {
          "internalType": "bool",
          "name": "",
          "type": "bool"
        }
      ],
      "stateMutability": "view",
      "type": "function",
      "constant": true
    },
    {
      "inputs": [],
      "name": "symbol",
      "outputs": [
        {
          "internalType": "string",
          "name": "",
          "type": "string"
        }
      ],
      "stateMutability": "view",
      "type": "function",
      "constant": true
    },
    {
      "inputs": [
        {
          "internalType": "address",
          "name": "from",
          "type": "address"
        },
        {
          "internalType": "address",
          "name": "to",
          "type": "address"
        },
        {
          "internalType": "uint256",
          "name": "tokenId",
          "type": "uint256"
        }
      ],
      "name": "transferFrom",
      "outputs": [],
      "stateMutability": "nonpayable",
      "type": "function"
    },
    {
      "inputs": [
        {
          "internalType": "address",
          "name": "newOwner",
          "type": "address"
        }
      ],
      "name": "transferOwnership",
      "outputs": [],
      "stateMutability": "nonpayable",
      "type": "function"
    },
    {
      "inputs": [
        {
          "internalType": "uint256",
          "name": "newPrice",
          "type": "uint256"
        }
      ],
      "name": "setListingPrice",
      "outputs": [],
      "stateMutability": "nonpayable",
      "type": "function"
    },
    {
      "inputs": [],
      "name": "withdraw",
      "outputs": [],
      "stateMutability": "nonpayable",
      "type": "function"
    },
    {
      "inputs": [],
      "name": "getBalanceContract",
      "outputs": [
        {
          "internalType": "uint256",
          "name": "",
          "type": "uint256"
        }
      ],
      "stateMutability": "view",
      "type": "function",
      "constant": true
    },
    {
      "inputs": [],
      "name": "listedItemsCount",
      "outputs": [
        {
          "internalType": "uint256",
          "name": "",
          "type": "uint256"
        }
      ],
      "stateMutability": "view",
      "type": "function",
      "constant": true
    },
    {
      "inputs": [],
      "name": "totalSupply",
      "outputs": [
        {
          "internalType": "uint256",
          "name": "",
          "type": "uint256"
        }
      ],
      "stateMutability": "view",
      "type": "function",
      "constant": true
    },
    {
      "inputs": [
        {
          "internalType": "string",
          "name": "_newBaseURI",
          "type": "string"
        }
      ],
      "name": "setBaseURI",
      "outputs": [],
      "stateMutability": "nonpayable",
      "type": "function"
    },
    {
      "inputs": [
        {
          "internalType": "uint256",
          "name": "index",
          "type": "uint256"
        }
      ],
      "name": "tokenByIndex",
      "outputs": [
        {
          "internalType": "uint256",
          "name": "",
          "type": "uint256"
        }
      ],
      "stateMutability": "view",
      "type": "function",
      "constant": true
    },
    {
      "inputs": [
        {
          "internalType": "address",
          "name": "owner",
          "type": "address"
        },
        {
          "internalType": "uint256",
          "name": "index",
          "type": "uint256"
        }
      ],
      "name": "tokenOfOwnerByIndex",
      "outputs": [
        {
          "internalType": "uint256",
          "name": "",
          "type": "uint256"
        }
      ],
      "stateMutability": "view",
      "type": "function",
      "constant": true
    },
    {
      "inputs": [],
      "name": "getAllNftsOnSale",
      "outputs": [
        {
          "components": [
            {
              "internalType": "uint256",
              "name": "tokenId",
              "type": "uint256"
            },
            {
              "internalType": "uint256",
              "name": "price",
              "type": "uint256"
            },
            {
              "internalType": "address",
              "name": "creator",
              "type": "address"
            },
            {
              "internalType": "bool",
              "name": "isListed",
              "type": "bool"
            }
          ],
          "internalType": "struct NftMarket.NftItem[]",
          "name": "",
          "type": "tuple[]"
        }
      ],
      "stateMutability": "view",
      "type": "function",
      "constant": true
    },
    {
      "inputs": [],
      "name": "getOwnedNfts",
      "outputs": [
        {
          "components": [
            {
              "internalType": "uint256",
              "name": "tokenId",
              "type": "uint256"
            },
            {
              "internalType": "uint256",
              "name": "price",
              "type": "uint256"
            },
            {
              "internalType": "address",
              "name": "creator",
              "type": "address"
            },
            {
              "internalType": "bool",
              "name": "isListed",
              "type": "bool"
            }
          ],
          "internalType": "struct NftMarket.NftItem[]",
          "name": "",
          "type": "tuple[]"
        }
      ],
      "stateMutability": "view",
      "type": "function",
      "constant": true
    },
    {
      "inputs": [
        {
          "internalType": "uint256",
          "name": "amount",
          "type": "uint256"
        }
      ],
      "name": "mintToken",
      "outputs": [
        {
          "internalType": "uint256",
          "name": "",
          "type": "uint256"
        }
      ],
      "stateMutability": "payable",
      "type": "function",
      "payable": true
    },
    {
      "inputs": [
        {
          "internalType": "uint256",
          "name": "tokenId",
          "type": "uint256"
        }
      ],
      "name": "tokenURI",
      "outputs": [
        {
          "internalType": "string",
          "name": "",
          "type": "string"
        }
      ],
      "stateMutability": "view",
      "type": "function",
      "constant": true
    },
    {
      "inputs": [
        {
          "internalType": "uint256",
          "name": "tokenId",
          "type": "uint256"
        }
      ],
      "name": "buyNft",
      "outputs": [],
      "stateMutability": "payable",
      "type": "function",
      "payable": true
    },
    {
      "inputs": [
        {
          "internalType": "uint256",
          "name": "tokenId",
          "type": "uint256"
        }
      ],
      "name": "cancellSellNft",
      "outputs": [],
      "stateMutability": "nonpayable",
      "type": "function"
    },
    {
      "inputs": [
        {
          "internalType": "uint256",
          "name": "tokenId",
          "type": "uint256"
        },
        {
          "internalType": "uint256",
          "name": "newPrice",
          "type": "uint256"
        }
      ],
      "name": "placeNftOnSale",
      "outputs": [],
      "stateMutability": "payable",
      "type": "function",
      "payable": true
    }
  ],
  "bytecode": "0x60806040526703782dace9d9000060085560076009556040518060400160405280600581526020017f2e6a736f6e000000000000000000000000000000000000000000000000000000815250600c90816200005b91906200046a565b503480156200006957600080fd5b506040518060400160405280600681526020017f456c664e465400000000000000000000000000000000000000000000000000008152506040518060400160405280600481526020017f454e4654000000000000000000000000000000000000000000000000000000008152508160009081620000e791906200046a565b508060019081620000f991906200046a565b5050506200011c620001106200012260201b60201c565b6200012a60201b60201c565b62000551565b600033905090565b6000600760009054906101000a900473ffffffffffffffffffffffffffffffffffffffff16905081600760006101000a81548173ffffffffffffffffffffffffffffffffffffffff021916908373ffffffffffffffffffffffffffffffffffffffff1602179055508173ffffffffffffffffffffffffffffffffffffffff168173ffffffffffffffffffffffffffffffffffffffff167f8be0079c531659141344cd1fd0a4f28419497f9722a3daafe3b4186f6b6457e060405160405180910390a35050565b600081519050919050565b7f4e487b7100000000000000000000000000000000000000000000000000000000600052604160045260246000fd5b7f4e487b7100000000000000000000000000000000000000000000000000000000600052602260045260246000fd5b600060028204905060018216806200027257607f821691505b6020821081036200028857620002876200022a565b5b50919050565b60008190508160005260206000209050919050565b60006020601f8301049050919050565b600082821b905092915050565b600060088302620002f27fffffffffffffffffffffffffffffffffffffffffffffffffffffffffffffffff82620002b3565b620002fe8683620002b3565b95508019841693508086168417925050509392505050565b6000819050919050565b6000819050919050565b60006200034b620003456200033f8462000316565b62000320565b62000316565b9050919050565b6000819050919050565b62000367836200032a565b6200037f620003768262000352565b848454620002c0565b825550505050565b600090565b6200039662000387565b620003a38184846200035c565b505050565b5b81811015620003cb57620003bf6000826200038c565b600181019050620003a9565b5050565b601f8211156200041a57620003e4816200028e565b620003ef84620002a3565b81016020851015620003ff578190505b620004176200040e85620002a3565b830182620003a8565b50505b505050565b600082821c905092915050565b60006200043f600019846008026200041f565b1980831691505092915050565b60006200045a83836200042c565b9150826002028217905092915050565b6200047582620001f0565b67ffffffffffffffff811115620004915762000490620001fb565b5b6200049d825462000259565b620004aa828285620003cf565b600060209050601f831160018114620004e25760008415620004cd578287015190505b620004d985826200044c565b86555062000549565b601f198416620004f2866200028e565b60005b828110156200051c57848901518255600182019150602085019450602081019050620004f5565b868310156200053c578489015162000538601f8916826200042c565b8355505b6001600288020188555050505b505050505050565b614aac80620005616000396000f3fe6080604052600436106102045760003560e01c806370a0823111610118578063b88d4fde116100a0578063c87b56dd1161006f578063c87b56dd14610743578063ccb4918d14610780578063d5abeb01146107ab578063e985e9c5146107d6578063f2fde38b1461081357610204565b8063b88d4fde14610694578063c634d032146106bd578063c6682862146106ed578063c78f19f91461071857610204565b80637c726b69116100e75780637c726b69146105c35780638da5cb5b146105ec5780639061d0071461061757806395d89b4114610640578063a22cb4651461066b57610204565b806370a082311461050457806370cbcb4314610541578063715018a61461056c57806375e05b881461058357610204565b80632f745c591161019b5780634f6ccce71161016a5780634f6ccce71461040b57806355f804b3146104485780636352211e1461047157806366bd78fd146104ae5780636c0360eb146104d957610204565b80632f745c591461036357806336b536be146103a05780633ccfd60b146103cb57806342842e0e146103e257610204565b806318160ddd116101d757806318160ddd146102d757806321f422e51461030257806323b872dd1461031e578063243adbdd1461034757610204565b806301ffc9a71461020957806306fdde0314610246578063081812fc14610271578063095ea7b3146102ae575b600080fd5b34801561021557600080fd5b50610230600480360381019061022b9190612f99565b61083c565b60405161023d9190612fe1565b60405180910390f35b34801561025257600080fd5b5061025b61091e565b604051610268919061308c565b60405180910390f35b34801561027d57600080fd5b50610298600480360381019061029391906130e4565b6109b0565b6040516102a59190613152565b60405180910390f35b3480156102ba57600080fd5b506102d560048036038101906102d09190613199565b6109f6565b005b3480156102e357600080fd5b506102ec610b0d565b6040516102f991906131e8565b60405180910390f35b61031c60048036038101906103179190613203565b610b1a565b005b34801561032a57600080fd5b5061034560048036038101906103409190613243565b610c52565b005b610361600480360381019061035c91906130e4565b610cb2565b005b34801561036f57600080fd5b5061038a60048036038101906103859190613199565b610ddd565b60405161039791906131e8565b60405180910390f35b3480156103ac57600080fd5b506103b5610e82565b6040516103c291906133c7565b60405180910390f35b3480156103d757600080fd5b506103e061101c565b005b3480156103ee57600080fd5b5061040960048036038101906104049190613243565b611093565b005b34801561041757600080fd5b50610432600480360381019061042d91906130e4565b6110b3565b60405161043f91906131e8565b60405180910390f35b34801561045457600080fd5b5061046f600480360381019061046a919061351e565b611124565b005b34801561047d57600080fd5b50610498600480360381019061049391906130e4565b61113f565b6040516104a59190613152565b60405180910390f35b3480156104ba57600080fd5b506104c36111f0565b6040516104d091906131e8565b60405180910390f35b3480156104e557600080fd5b506104ee6111f8565b6040516104fb919061308c565b60405180910390f35b34801561051057600080fd5b5061052b60048036038101906105269190613567565b611286565b60405161053891906131e8565b60405180910390f35b34801561054d57600080fd5b5061055661133d565b60405161056391906133c7565b60405180910390f35b34801561057857600080fd5b506105816114a1565b005b34801561058f57600080fd5b506105aa60048036038101906105a591906130e4565b6114b5565b6040516105ba9493929190613594565b60405180910390f35b3480156105cf57600080fd5b506105ea60048036038101906105e591906130e4565b611512565b005b3480156105f857600080fd5b50610601611567565b60405161060e9190613152565b60405180910390f35b34801561062357600080fd5b5061063e600480360381019061063991906130e4565b611591565b005b34801561064c57600080fd5b50610655611643565b604051610662919061308c565b60405180910390f35b34801561067757600080fd5b50610692600480360381019061068d9190613605565b6116d5565b005b3480156106a057600080fd5b506106bb60048036038101906106b691906136e6565b6116eb565b005b6106d760048036038101906106d291906130e4565b61174d565b6040516106e491906131e8565b60405180910390f35b3480156106f957600080fd5b5061070261183a565b60405161070f919061308c565b60405180910390f35b34801561072457600080fd5b5061072d6118c8565b60405161073a91906131e8565b60405180910390f35b34801561074f57600080fd5b5061076a600480360381019061076591906130e4565b6118ce565b604051610777919061308c565b60405180910390f35b34801561078c57600080fd5b50610795611942565b6040516107a291906131e8565b60405180910390f35b3480156107b757600080fd5b506107c0611953565b6040516107cd91906131e8565b60405180910390f35b3480156107e257600080fd5b506107fd60048036038101906107f89190613769565b611959565b60405161080a9190612fe1565b60405180910390f35b34801561081f57600080fd5b5061083a60048036038101906108359190613567565b6119ed565b005b60007f80ac58cd000000000000000000000000000000000000000000000000000000007bffffffffffffffffffffffffffffffffffffffffffffffffffffffff1916827bffffffffffffffffffffffffffffffffffffffffffffffffffffffff1916148061090757507f5b5e139f000000000000000000000000000000000000000000000000000000007bffffffffffffffffffffffffffffffffffffffffffffffffffffffff1916827bffffffffffffffffffffffffffffffffffffffffffffffffffffffff1916145b80610917575061091682611a70565b5b9050919050565b60606000805461092d906137d8565b80601f0160208091040260200160405190810160405280929190818152602001828054610959906137d8565b80156109a65780601f1061097b576101008083540402835291602001916109a6565b820191906000526020600020905b81548152906001019060200180831161098957829003601f168201915b5050505050905090565b60006109bb82611ada565b6004600083815260200190815260200160002060009054906101000a900473ffffffffffffffffffffffffffffffffffffffff169050919050565b6000610a018261113f565b90508073ffffffffffffffffffffffffffffffffffffffff168373ffffffffffffffffffffffffffffffffffffffff1603610a71576040517f08c379a0000000000000000000000000000000000000000000000000000000008152600401610a689061387b565b60405180910390fd5b8073ffffffffffffffffffffffffffffffffffffffff16610a90611b25565b73ffffffffffffffffffffffffffffffffffffffff161480610abf5750610abe81610ab9611b25565b611959565b5b610afe576040517f08c379a0000000000000000000000000000000000000000000000000000000008152600401610af59061390d565b60405180910390fd5b610b088383611b2d565b505050565b6000601280549050905090565b3373ffffffffffffffffffffffffffffffffffffffff16610b3a8361113f565b73ffffffffffffffffffffffffffffffffffffffff1614610b90576040517f08c379a0000000000000000000000000000000000000000000000000000000008152600401610b8790613979565b60405180910390fd5b60001515600f600084815260200190815260200160002060020160149054906101000a900460ff16151514610bfa576040517f08c379a0000000000000000000000000000000000000000000000000000000008152600401610bf1906139e5565b60405180910390fd5b6001600f600084815260200190815260200160002060020160146101000a81548160ff02191690831515021790555080600f600084815260200190815260200160002060010181905550610c4e600a611be6565b5050565b610c63610c5d611b25565b82611bfc565b610ca2576040517f08c379a0000000000000000000000000000000000000000000000000000000008152600401610c9990613a77565b60405180910390fd5b610cad838383611c91565b505050565b6000600f60008381526020019081526020016000206001015490506000610cd88361113f565b90508073ffffffffffffffffffffffffffffffffffffffff163373ffffffffffffffffffffffffffffffffffffffff1603610d48576040517f08c379a0000000000000000000000000000000000000000000000000000000008152600401610d3f90613ae3565b60405180910390fd5b813414610d8a576040517f08c379a0000000000000000000000000000000000000000000000000000000008152600401610d8190613b4f565b60405180910390fd5b6000600f600085815260200190815260200160002060020160146101000a81548160ff021916908315150217905550610dc3600a611ef7565b610dce813385611c91565b610dd88134611f53565b505050565b6000610de883611286565b8210610e29576040517f08c379a0000000000000000000000000000000000000000000000000000000008152600401610e2090613bbb565b60405180910390fd5b601060008473ffffffffffffffffffffffffffffffffffffffff1673ffffffffffffffffffffffffffffffffffffffff168152602001908152602001600020600083815260200190815260200160002054905092915050565b60606000610e8e610b0d565b9050600080610e9d600a612047565b67ffffffffffffffff811115610eb657610eb56133f3565b5b604051908082528060200260200182016040528015610eef57816020015b610edc612eed565b815260200190600190039081610ed45790505b50905060005b83811015611012576000610f08826110b3565b90506000600f60008381526020019081526020016000209050600115158160020160149054906101000a900460ff16151503610ffd578060405180608001604052908160008201548152602001600182015481526020016002820160009054906101000a900473ffffffffffffffffffffffffffffffffffffffff1673ffffffffffffffffffffffffffffffffffffffff1673ffffffffffffffffffffffffffffffffffffffff1681526020016002820160149054906101000a900460ff161515151581525050848681518110610fe257610fe1613bdb565b5b6020026020010181905250600185610ffa9190613c39565b94505b5050808061100a90613c6d565b915050610ef5565b5080935050505090565b611024612055565b60004790506000811161106c576040517f08c379a000000000000000000000000000000000000000000000000000000000815260040161106390613d01565b60405180910390fd5b6000731e8dd1acb4d121d1a30b7b9bb709f2fdaf041cc2905061108f8183611f53565b5050565b6110ae838383604051806020016040528060008152506116eb565b505050565b60006110bd610b0d565b82106110fe576040517f08c379a00000000000000000000000000000000000000000000000000000000081526004016110f590613bbb565b60405180910390fd5b6012828154811061111257611111613bdb565b5b90600052602060002001549050919050565b61112c612055565b80600d908161113b9190613ecd565b5050565b6000806002600084815260200190815260200160002060009054906101000a900473ffffffffffffffffffffffffffffffffffffffff169050600073ffffffffffffffffffffffffffffffffffffffff168173ffffffffffffffffffffffffffffffffffffffff16036111e7576040517f08c379a00000000000000000000000000000000000000000000000000000000081526004016111de90613feb565b60405180910390fd5b80915050919050565b600047905090565b600d8054611205906137d8565b80601f0160208091040260200160405190810160405280929190818152602001828054611231906137d8565b801561127e5780601f106112535761010080835404028352916020019161127e565b820191906000526020600020905b81548152906001019060200180831161126157829003601f168201915b505050505081565b60008073ffffffffffffffffffffffffffffffffffffffff168273ffffffffffffffffffffffffffffffffffffffff16036112f6576040517f08c379a00000000000000000000000000000000000000000000000000000000081526004016112ed9061407d565b60405180910390fd5b600360008373ffffffffffffffffffffffffffffffffffffffff1673ffffffffffffffffffffffffffffffffffffffff168152602001908152602001600020549050919050565b6060600061134a33611286565b905060008167ffffffffffffffff811115611368576113676133f3565b5b6040519080825280602002602001820160405280156113a157816020015b61138e612eed565b8152602001906001900390816113865790505b50905060005b828110156114985760006113bb3383610ddd565b90506000600f600083815260200190815260200160002090508060405180608001604052908160008201548152602001600182015481526020016002820160009054906101000a900473ffffffffffffffffffffffffffffffffffffffff1673ffffffffffffffffffffffffffffffffffffffff1673ffffffffffffffffffffffffffffffffffffffff1681526020016002820160149054906101000a900460ff16151515158152505084848151811061147857611477613bdb565b5b60200260200101819052505050808061149090613c6d565b9150506113a7565b50809250505090565b6114a9612055565b6114b360006120d3565b565b600f6020528060005260406000206000915090508060000154908060010154908060020160009054906101000a900473ffffffffffffffffffffffffffffffffffffffff16908060020160149054906101000a900460ff16905084565b61151a612055565b6000811161155d576040517f08c379a0000000000000000000000000000000000000000000000000000000008152600401611554906140e9565b60405180910390fd5b8060088190555050565b6000600760009054906101000a900473ffffffffffffffffffffffffffffffffffffffff16905090565b3373ffffffffffffffffffffffffffffffffffffffff166115b18261113f565b73ffffffffffffffffffffffffffffffffffffffff1614611607576040517f08c379a00000000000000000000000000000000000000000000000000000000081526004016115fe90613979565b60405180910390fd5b6000600f600083815260200190815260200160002060020160146101000a81548160ff021916908315150217905550611640600a611ef7565b50565b606060018054611652906137d8565b80601f016020809104026020016040519081016040528092919081815260200182805461167e906137d8565b80156116cb5780601f106116a0576101008083540402835291602001916116cb565b820191906000526020600020905b8154815290600101906020018083116116ae57829003601f168201915b5050505050905090565b6116e76116e0611b25565b8383612199565b5050565b6116fc6116f6611b25565b83611bfc565b61173b576040517f08c379a000000000000000000000000000000000000000000000000000000000815260040161173290613a77565b60405180910390fd5b61174784848484612305565b50505050565b60006008543414611793576040517f08c379a000000000000000000000000000000000000000000000000000000000815260040161178a9061417b565b60405180910390fd5b600061179f600b612047565b905060095481106117e5576040517f08c379a00000000000000000000000000000000000000000000000000000000081526004016117dc906141e7565b60405180910390fd5b60005b8381101561183057611803336117fe600b612047565b612361565b61180d600b611be6565b61181f61181a600b612047565b61237f565b8061182990613c6d565b90506117e8565b5080915050919050565b600c8054611847906137d8565b80601f0160208091040260200160405190810160405280929190818152602001828054611873906137d8565b80156118c05780601f10611895576101008083540402835291602001916118c0565b820191906000526020600020905b8154815290600101906020018083116118a357829003601f168201915b505050505081565b60085481565b60606118d98261248f565b6118e257600080fd5b60006118ec6124fb565b9050600081511161190c576040518060200160405280600081525061193a565b806119168461258d565b600c60405160200161192a939291906142c6565b6040516020818303038152906040525b915050919050565b600061194e600a612047565b905090565b60095481565b6000600560008473ffffffffffffffffffffffffffffffffffffffff1673ffffffffffffffffffffffffffffffffffffffff16815260200190815260200160002060008373ffffffffffffffffffffffffffffffffffffffff1673ffffffffffffffffffffffffffffffffffffffff16815260200190815260200160002060009054906101000a900460ff16905092915050565b6119f5612055565b600073ffffffffffffffffffffffffffffffffffffffff168173ffffffffffffffffffffffffffffffffffffffff1603611a64576040517f08c379a0000000000000000000000000000000000000000000000000000000008152600401611a5b90614369565b60405180910390fd5b611a6d816120d3565b50565b60007f01ffc9a7000000000000000000000000000000000000000000000000000000007bffffffffffffffffffffffffffffffffffffffffffffffffffffffff1916827bffffffffffffffffffffffffffffffffffffffffffffffffffffffff1916149050919050565b611ae38161248f565b611b22576040517f08c379a0000000000000000000000000000000000000000000000000000000008152600401611b1990613feb565b60405180910390fd5b50565b600033905090565b816004600083815260200190815260200160002060006101000a81548173ffffffffffffffffffffffffffffffffffffffff021916908373ffffffffffffffffffffffffffffffffffffffff160217905550808273ffffffffffffffffffffffffffffffffffffffff16611ba08361113f565b73ffffffffffffffffffffffffffffffffffffffff167f8c5be1e5ebec7d5bd14f71427d1e84f3dd0314c0f7b2291e5b200ac8c7c3b92560405160405180910390a45050565b6001816000016000828254019250508190555050565b600080611c088361113f565b90508073ffffffffffffffffffffffffffffffffffffffff168473ffffffffffffffffffffffffffffffffffffffff161480611c4a5750611c498185611959565b5b80611c8857508373ffffffffffffffffffffffffffffffffffffffff16611c70846109b0565b73ffffffffffffffffffffffffffffffffffffffff16145b91505092915050565b8273ffffffffffffffffffffffffffffffffffffffff16611cb18261113f565b73ffffffffffffffffffffffffffffffffffffffff1614611d07576040517f08c379a0000000000000000000000000000000000000000000000000000000008152600401611cfe906143fb565b60405180910390fd5b600073ffffffffffffffffffffffffffffffffffffffff168273ffffffffffffffffffffffffffffffffffffffff1603611d76576040517f08c379a0000000000000000000000000000000000000000000000000000000008152600401611d6d9061448d565b60405180910390fd5b611d818383836126ed565b611d8c600082611b2d565b6001600360008573ffffffffffffffffffffffffffffffffffffffff1673ffffffffffffffffffffffffffffffffffffffff1681526020019081526020016000206000828254611ddc91906144ad565b925050819055506001600360008473ffffffffffffffffffffffffffffffffffffffff1673ffffffffffffffffffffffffffffffffffffffff1681526020019081526020016000206000828254611e339190613c39565b92505081905550816002600083815260200190815260200160002060006101000a81548173ffffffffffffffffffffffffffffffffffffffff021916908373ffffffffffffffffffffffffffffffffffffffff160217905550808273ffffffffffffffffffffffffffffffffffffffff168473ffffffffffffffffffffffffffffffffffffffff167fddf252ad1be2c89b69c2b068fc378daa952ba7f163c4a11628f55a4df523b3ef60405160405180910390a4611ef28383836127ff565b505050565b60008160000154905060008111611f43576040517f08c379a0000000000000000000000000000000000000000000000000000000008152600401611f3a9061452d565b60405180910390fd5b6001810382600001819055505050565b80471015611f96576040517f08c379a0000000000000000000000000000000000000000000000000000000008152600401611f8d90614599565b60405180910390fd5b60008273ffffffffffffffffffffffffffffffffffffffff1682604051611fbc906145ea565b60006040518083038185875af1925050503d8060008114611ff9576040519150601f19603f3d011682016040523d82523d6000602084013e611ffe565b606091505b5050905080612042576040517f08c379a000000000000000000000000000000000000000000000000000000000815260040161203990614671565b60405180910390fd5b505050565b600081600001549050919050565b61205d611b25565b73ffffffffffffffffffffffffffffffffffffffff1661207b611567565b73ffffffffffffffffffffffffffffffffffffffff16146120d1576040517f08c379a00000000000000000000000000000000000000000000000000000000081526004016120c8906146dd565b60405180910390fd5b565b6000600760009054906101000a900473ffffffffffffffffffffffffffffffffffffffff16905081600760006101000a81548173ffffffffffffffffffffffffffffffffffffffff021916908373ffffffffffffffffffffffffffffffffffffffff1602179055508173ffffffffffffffffffffffffffffffffffffffff168173ffffffffffffffffffffffffffffffffffffffff167f8be0079c531659141344cd1fd0a4f28419497f9722a3daafe3b4186f6b6457e060405160405180910390a35050565b8173ffffffffffffffffffffffffffffffffffffffff168373ffffffffffffffffffffffffffffffffffffffff1603612207576040517f08c379a00000000000000000000000000000000000000000000000000000000081526004016121fe90614749565b60405180910390fd5b80600560008573ffffffffffffffffffffffffffffffffffffffff1673ffffffffffffffffffffffffffffffffffffffff16815260200190815260200160002060008473ffffffffffffffffffffffffffffffffffffffff1673ffffffffffffffffffffffffffffffffffffffff16815260200190815260200160002060006101000a81548160ff0219169083151502179055508173ffffffffffffffffffffffffffffffffffffffff168373ffffffffffffffffffffffffffffffffffffffff167f17307eab39ab6107e8899845ad3d59bd9653f200f220920489ca2b5937696c31836040516122f89190612fe1565b60405180910390a3505050565b612310848484611c91565b61231c84848484612804565b61235b576040517f08c379a0000000000000000000000000000000000000000000000000000000008152600401612352906147db565b60405180910390fd5b50505050565b61237b82826040518060200160405280600081525061298b565b5050565b604051806080016040528082815260200160085481526020013373ffffffffffffffffffffffffffffffffffffffff16815260200160001515815250600f6000838152602001908152602001600020600082015181600001556020820151816001015560408201518160020160006101000a81548173ffffffffffffffffffffffffffffffffffffffff021916908373ffffffffffffffffffffffffffffffffffffffff16021790555060608201518160020160146101000a81548160ff0219169083151502179055509050507f470031062672bc0246e132c723a729c4676710ec663a29e86c88678032daddea816008543360006040516124849493929190613594565b60405180910390a150565b60008073ffffffffffffffffffffffffffffffffffffffff166002600084815260200190815260200160002060009054906101000a900473ffffffffffffffffffffffffffffffffffffffff1673ffffffffffffffffffffffffffffffffffffffff1614159050919050565b6060600d805461250a906137d8565b80601f0160208091040260200160405190810160405280929190818152602001828054612536906137d8565b80156125835780601f1061255857610100808354040283529160200191612583565b820191906000526020600020905b81548152906001019060200180831161256657829003601f168201915b5050505050905090565b6060600082036125d4576040518060400160405280600181526020017f300000000000000000000000000000000000000000000000000000000000000081525090506126e8565b600082905060005b600082146126065780806125ef90613c6d565b915050600a826125ff919061482a565b91506125dc565b60008167ffffffffffffffff811115612622576126216133f3565b5b6040519080825280601f01601f1916602001820160405280156126545781602001600182028036833780820191505090505b5090505b600085146126e15760018261266d91906144ad565b9150600a8561267c919061485b565b60306126889190613c39565b60f81b81838151811061269e5761269d613bdb565b5b60200101907effffffffffffffffffffffffffffffffffffffffffffffffffffffffffffff1916908160001a905350600a856126da919061482a565b9450612658565b8093505050505b919050565b6126f88383836129e6565b600073ffffffffffffffffffffffffffffffffffffffff168373ffffffffffffffffffffffffffffffffffffffff160361273a57612735816129eb565b612779565b8173ffffffffffffffffffffffffffffffffffffffff168373ffffffffffffffffffffffffffffffffffffffff1614612778576127778382612a34565b5b5b600073ffffffffffffffffffffffffffffffffffffffff168273ffffffffffffffffffffffffffffffffffffffff16036127bb576127b681612ba1565b6127fa565b8273ffffffffffffffffffffffffffffffffffffffff168273ffffffffffffffffffffffffffffffffffffffff16146127f9576127f88282612c72565b5b5b505050565b505050565b60006128258473ffffffffffffffffffffffffffffffffffffffff16612cf1565b1561297e578373ffffffffffffffffffffffffffffffffffffffff1663150b7a0261284e611b25565b8786866040518563ffffffff1660e01b815260040161287094939291906148e1565b6020604051808303816000875af19250505080156128ac57506040513d601f19601f820116820180604052508101906128a99190614942565b60015b61292e573d80600081146128dc576040519150601f19603f3d011682016040523d82523d6000602084013e6128e1565b606091505b506000815103612926576040517f08c379a000000000000000000000000000000000000000000000000000000000815260040161291d906147db565b60405180910390fd5b805181602001fd5b63150b7a0260e01b7bffffffffffffffffffffffffffffffffffffffffffffffffffffffff1916817bffffffffffffffffffffffffffffffffffffffffffffffffffffffff191614915050612983565b600190505b949350505050565b6129958383612d14565b6129a26000848484612804565b6129e1576040517f08c379a00000000000000000000000000000000000000000000000000000000081526004016129d8906147db565b60405180910390fd5b505050565b505050565b6012805490506013600083815260200190815260200160002081905550601281908060018154018082558091505060019003906000526020600020016000909190919091505550565b60006001612a4184611286565b612a4b91906144ad565b9050600060116000848152602001908152602001600020549050818114612b30576000601060008673ffffffffffffffffffffffffffffffffffffffff1673ffffffffffffffffffffffffffffffffffffffff168152602001908152602001600020600084815260200190815260200160002054905080601060008773ffffffffffffffffffffffffffffffffffffffff1673ffffffffffffffffffffffffffffffffffffffff168152602001908152602001600020600084815260200190815260200160002081905550816011600083815260200190815260200160002081905550505b6011600084815260200190815260200160002060009055601060008573ffffffffffffffffffffffffffffffffffffffff1673ffffffffffffffffffffffffffffffffffffffff16815260200190815260200160002060008381526020019081526020016000206000905550505050565b60006001601280549050612bb591906144ad565b9050600060136000848152602001908152602001600020549050600060128381548110612be557612be4613bdb565b5b906000526020600020015490508060128381548110612c0757612c06613bdb565b5b906000526020600020018190555081601360008381526020019081526020016000208190555060136000858152602001908152602001600020600090556012805480612c5657612c5561496f565b5b6001900381819060005260206000200160009055905550505050565b6000612c7d83611286565b905081601060008573ffffffffffffffffffffffffffffffffffffffff1673ffffffffffffffffffffffffffffffffffffffff168152602001908152602001600020600083815260200190815260200160002081905550806011600084815260200190815260200160002081905550505050565b6000808273ffffffffffffffffffffffffffffffffffffffff163b119050919050565b600073ffffffffffffffffffffffffffffffffffffffff168273ffffffffffffffffffffffffffffffffffffffff1603612d83576040517f08c379a0000000000000000000000000000000000000000000000000000000008152600401612d7a906149ea565b60405180910390fd5b612d8c8161248f565b15612dcc576040517f08c379a0000000000000000000000000000000000000000000000000000000008152600401612dc390614a56565b60405180910390fd5b612dd8600083836126ed565b6001600360008473ffffffffffffffffffffffffffffffffffffffff1673ffffffffffffffffffffffffffffffffffffffff1681526020019081526020016000206000828254612e289190613c39565b92505081905550816002600083815260200190815260200160002060006101000a81548173ffffffffffffffffffffffffffffffffffffffff021916908373ffffffffffffffffffffffffffffffffffffffff160217905550808273ffffffffffffffffffffffffffffffffffffffff16600073ffffffffffffffffffffffffffffffffffffffff167fddf252ad1be2c89b69c2b068fc378daa952ba7f163c4a11628f55a4df523b3ef60405160405180910390a4612ee9600083836127ff565b5050565b60405180608001604052806000815260200160008152602001600073ffffffffffffffffffffffffffffffffffffffff1681526020016000151581525090565b6000604051905090565b600080fd5b600080fd5b60007fffffffff0000000000000000000000000000000000000000000000000000000082169050919050565b612f7681612f41565b8114612f8157600080fd5b50565b600081359050612f9381612f6d565b92915050565b600060208284031215612faf57612fae612f37565b5b6000612fbd84828501612f84565b91505092915050565b60008115159050919050565b612fdb81612fc6565b82525050565b6000602082019050612ff66000830184612fd2565b92915050565b600081519050919050565b600082825260208201905092915050565b60005b8381101561303657808201518184015260208101905061301b565b60008484015250505050565b6000601f19601f8301169050919050565b600061305e82612ffc565b6130688185613007565b9350613078818560208601613018565b61308181613042565b840191505092915050565b600060208201905081810360008301526130a68184613053565b905092915050565b6000819050919050565b6130c1816130ae565b81146130cc57600080fd5b50565b6000813590506130de816130b8565b92915050565b6000602082840312156130fa576130f9612f37565b5b6000613108848285016130cf565b91505092915050565b600073ffffffffffffffffffffffffffffffffffffffff82169050919050565b600061313c82613111565b9050919050565b61314c81613131565b82525050565b60006020820190506131676000830184613143565b92915050565b61317681613131565b811461318157600080fd5b50565b6000813590506131938161316d565b92915050565b600080604083850312156131b0576131af612f37565b5b60006131be85828601613184565b92505060206131cf858286016130cf565b9150509250929050565b6131e2816130ae565b82525050565b60006020820190506131fd60008301846131d9565b92915050565b6000806040838503121561321a57613219612f37565b5b6000613228858286016130cf565b9250506020613239858286016130cf565b9150509250929050565b60008060006060848603121561325c5761325b612f37565b5b600061326a86828701613184565b935050602061327b86828701613184565b925050604061328c868287016130cf565b9150509250925092565b600081519050919050565b600082825260208201905092915050565b6000819050602082019050919050565b6132cb816130ae565b82525050565b6132da81613131565b82525050565b6132e981612fc6565b82525050565b60808201600082015161330560008501826132c2565b50602082015161331860208501826132c2565b50604082015161332b60408501826132d1565b50606082015161333e60608501826132e0565b50505050565b600061335083836132ef565b60808301905092915050565b6000602082019050919050565b600061337482613296565b61337e81856132a1565b9350613389836132b2565b8060005b838110156133ba5781516133a18882613344565b97506133ac8361335c565b92505060018101905061338d565b5085935050505092915050565b600060208201905081810360008301526133e18184613369565b905092915050565b600080fd5b600080fd5b7f4e487b7100000000000000000000000000000000000000000000000000000000600052604160045260246000fd5b61342b82613042565b810181811067ffffffffffffffff8211171561344a576134496133f3565b5b80604052505050565b600061345d612f2d565b90506134698282613422565b919050565b600067ffffffffffffffff821115613489576134886133f3565b5b61349282613042565b9050602081019050919050565b82818337600083830152505050565b60006134c16134bc8461346e565b613453565b9050828152602081018484840111156134dd576134dc6133ee565b5b6134e884828561349f565b509392505050565b600082601f830112613505576135046133e9565b5b81356135158482602086016134ae565b91505092915050565b60006020828403121561353457613533612f37565b5b600082013567ffffffffffffffff81111561355257613551612f3c565b5b61355e848285016134f0565b91505092915050565b60006020828403121561357d5761357c612f37565b5b600061358b84828501613184565b91505092915050565b60006080820190506135a960008301876131d9565b6135b660208301866131d9565b6135c36040830185613143565b6135d06060830184612fd2565b95945050505050565b6135e281612fc6565b81146135ed57600080fd5b50565b6000813590506135ff816135d9565b92915050565b6000806040838503121561361c5761361b612f37565b5b600061362a85828601613184565b925050602061363b858286016135f0565b9150509250929050565b600067ffffffffffffffff8211156136605761365f6133f3565b5b61366982613042565b9050602081019050919050565b600061368961368484613645565b613453565b9050828152602081018484840111156136a5576136a46133ee565b5b6136b084828561349f565b509392505050565b600082601f8301126136cd576136cc6133e9565b5b81356136dd848260208601613676565b91505092915050565b60008060008060808587031215613700576136ff612f37565b5b600061370e87828801613184565b945050602061371f87828801613184565b9350506040613730878288016130cf565b925050606085013567ffffffffffffffff81111561375157613750612f3c565b5b61375d878288016136b8565b91505092959194509250565b600080604083850312156137805761377f612f37565b5b600061378e85828601613184565b925050602061379f85828601613184565b9150509250929050565b7f4e487b7100000000000000000000000000000000000000000000000000000000600052602260045260246000fd5b600060028204905060018216806137f057607f821691505b602082108103613803576138026137a9565b5b50919050565b7f4552433732313a20617070726f76616c20746f2063757272656e74206f776e6560008201527f7200000000000000000000000000000000000000000000000000000000000000602082015250565b6000613865602183613007565b915061387082613809565b604082019050919050565b6000602082019050818103600083015261389481613858565b9050919050565b7f4552433732313a20617070726f76652063616c6c6572206973206e6f7420746f60008201527f6b656e206f776e6572206e6f7220617070726f76656420666f7220616c6c0000602082015250565b60006138f7603e83613007565b91506139028261389b565b604082019050919050565b60006020820190508181036000830152613926816138ea565b9050919050565b7f596f7520617265206e6f74206f776e6572206f662074686973206e6674000000600082015250565b6000613963601d83613007565b915061396e8261392d565b602082019050919050565b6000602082019050818103600083015261399281613956565b9050919050565b7f4974656d20697320616c7265616479206f6e2073616c65000000000000000000600082015250565b60006139cf601783613007565b91506139da82613999565b602082019050919050565b600060208201905081810360008301526139fe816139c2565b9050919050565b7f4552433732313a2063616c6c6572206973206e6f7420746f6b656e206f776e6560008201527f72206e6f7220617070726f766564000000000000000000000000000000000000602082015250565b6000613a61602e83613007565b9150613a6c82613a05565b604082019050919050565b60006020820190508181036000830152613a9081613a54565b9050919050565b7f596f7520616c7265616479206f776e2074686973204e46540000000000000000600082015250565b6000613acd601883613007565b9150613ad882613a97565b602082019050919050565b60006020820190508181036000830152613afc81613ac0565b9050919050565b7f506c65617365207375626d6974207468652061736b696e672070726963650000600082015250565b6000613b39601e83613007565b9150613b4482613b03565b602082019050919050565b60006020820190508181036000830152613b6881613b2c565b9050919050565b7f496e646578206f7574206f6620626f756e647300000000000000000000000000600082015250565b6000613ba5601383613007565b9150613bb082613b6f565b602082019050919050565b60006020820190508181036000830152613bd481613b98565b9050919050565b7f4e487b7100000000000000000000000000000000000000000000000000000000600052603260045260246000fd5b7f4e487b7100000000000000000000000000000000000000000000000000000000600052601160045260246000fd5b6000613c44826130ae565b9150613c4f836130ae565b9250828201905080821115613c6757613c66613c0a565b5b92915050565b6000613c78826130ae565b91507fffffffffffffffffffffffffffffffffffffffffffffffffffffffffffffffff8203613caa57613ca9613c0a565b5b600182019050919050565b7f4e6f2066756e647320617661696c61626c650000000000000000000000000000600082015250565b6000613ceb601283613007565b9150613cf682613cb5565b602082019050919050565b60006020820190508181036000830152613d1a81613cde565b9050919050565b60008190508160005260206000209050919050565b60006020601f8301049050919050565b600082821b905092915050565b600060088302613d837fffffffffffffffffffffffffffffffffffffffffffffffffffffffffffffffff82613d46565b613d8d8683613d46565b95508019841693508086168417925050509392505050565b6000819050919050565b6000613dca613dc5613dc0846130ae565b613da5565b6130ae565b9050919050565b6000819050919050565b613de483613daf565b613df8613df082613dd1565b848454613d53565b825550505050565b600090565b613e0d613e00565b613e18818484613ddb565b505050565b5b81811015613e3c57613e31600082613e05565b600181019050613e1e565b5050565b601f821115613e8157613e5281613d21565b613e5b84613d36565b81016020851015613e6a578190505b613e7e613e7685613d36565b830182613e1d565b50505b505050565b600082821c905092915050565b6000613ea460001984600802613e86565b1980831691505092915050565b6000613ebd8383613e93565b9150826002028217905092915050565b613ed682612ffc565b67ffffffffffffffff811115613eef57613eee6133f3565b5b613ef982546137d8565b613f04828285613e40565b600060209050601f831160018114613f375760008415613f25578287015190505b613f2f8582613eb1565b865550613f97565b601f198416613f4586613d21565b60005b82811015613f6d57848901518255600182019150602085019450602081019050613f48565b86831015613f8a5784890151613f86601f891682613e93565b8355505b6001600288020188555050505b505050505050565b7f4552433732313a20696e76616c696420746f6b656e2049440000000000000000600082015250565b6000613fd5601883613007565b9150613fe082613f9f565b602082019050919050565b6000602082019050818103600083015261400481613fc8565b9050919050565b7f4552433732313a2061646472657373207a65726f206973206e6f74206120766160008201527f6c6964206f776e65720000000000000000000000000000000000000000000000602082015250565b6000614067602983613007565b91506140728261400b565b604082019050919050565b600060208201905081810360008301526140968161405a565b9050919050565b7f5072696365206d757374206265206174206c6561737420312077656900000000600082015250565b60006140d3601c83613007565b91506140de8261409d565b602082019050919050565b60006020820190508181036000830152614102816140c6565b9050919050565b7f5072696365206d75737420626520657175616c20746f206c697374696e67207060008201527f7269636500000000000000000000000000000000000000000000000000000000602082015250565b6000614165602483613007565b915061417082614109565b604082019050919050565b6000602082019050818103600083015261419481614158565b9050919050565b7f4d6178204e667473204d696e7465640000000000000000000000000000000000600082015250565b60006141d1600f83613007565b91506141dc8261419b565b602082019050919050565b60006020820190508181036000830152614200816141c4565b9050919050565b600081905092915050565b600061421d82612ffc565b6142278185614207565b9350614237818560208601613018565b80840191505092915050565b60008154614250816137d8565b61425a8186614207565b94506001821660008114614275576001811461428a576142bd565b60ff19831686528115158202860193506142bd565b61429385613d21565b60005b838110156142b557815481890152600182019150602081019050614296565b838801955050505b50505092915050565b60006142d28286614212565b91506142de8285614212565b91506142ea8284614243565b9150819050949350505050565b7f4f776e61626c653a206e6577206f776e657220697320746865207a65726f206160008201527f6464726573730000000000000000000000000000000000000000000000000000602082015250565b6000614353602683613007565b915061435e826142f7565b604082019050919050565b6000602082019050818103600083015261438281614346565b9050919050565b7f4552433732313a207472616e736665722066726f6d20696e636f72726563742060008201527f6f776e6572000000000000000000000000000000000000000000000000000000602082015250565b60006143e5602583613007565b91506143f082614389565b604082019050919050565b60006020820190508181036000830152614414816143d8565b9050919050565b7f4552433732313a207472616e7366657220746f20746865207a65726f2061646460008201527f7265737300000000000000000000000000000000000000000000000000000000602082015250565b6000614477602483613007565b91506144828261441b565b604082019050919050565b600060208201905081810360008301526144a68161446a565b9050919050565b60006144b8826130ae565b91506144c3836130ae565b92508282039050818111156144db576144da613c0a565b5b92915050565b7f436f756e7465723a2064656372656d656e74206f766572666c6f770000000000600082015250565b6000614517601b83613007565b9150614522826144e1565b602082019050919050565b600060208201905081810360008301526145468161450a565b9050919050565b7f416464726573733a20696e73756666696369656e742062616c616e6365000000600082015250565b6000614583601d83613007565b915061458e8261454d565b602082019050919050565b600060208201905081810360008301526145b281614576565b9050919050565b600081905092915050565b50565b60006145d46000836145b9565b91506145df826145c4565b600082019050919050565b60006145f5826145c7565b9150819050919050565b7f416464726573733a20756e61626c6520746f2073656e642076616c75652c207260008201527f6563697069656e74206d61792068617665207265766572746564000000000000602082015250565b600061465b603a83613007565b9150614666826145ff565b604082019050919050565b6000602082019050818103600083015261468a8161464e565b9050919050565b7f4f776e61626c653a2063616c6c6572206973206e6f7420746865206f776e6572600082015250565b60006146c7602083613007565b91506146d282614691565b602082019050919050565b600060208201905081810360008301526146f6816146ba565b9050919050565b7f4552433732313a20617070726f766520746f2063616c6c657200000000000000600082015250565b6000614733601983613007565b915061473e826146fd565b602082019050919050565b6000602082019050818103600083015261476281614726565b9050919050565b7f4552433732313a207472616e7366657220746f206e6f6e20455243373231526560008201527f63656976657220696d706c656d656e7465720000000000000000000000000000602082015250565b60006147c5603283613007565b91506147d082614769565b604082019050919050565b600060208201905081810360008301526147f4816147b8565b9050919050565b7f4e487b7100000000000000000000000000000000000000000000000000000000600052601260045260246000fd5b6000614835826130ae565b9150614840836130ae565b9250826148505761484f6147fb565b5b828204905092915050565b6000614866826130ae565b9150614871836130ae565b925082614881576148806147fb565b5b828206905092915050565b600081519050919050565b600082825260208201905092915050565b60006148b38261488c565b6148bd8185614897565b93506148cd818560208601613018565b6148d681613042565b840191505092915050565b60006080820190506148f66000830187613143565b6149036020830186613143565b61491060408301856131d9565b818103606083015261492281846148a8565b905095945050505050565b60008151905061493c81612f6d565b92915050565b60006020828403121561495857614957612f37565b5b60006149668482850161492d565b91505092915050565b7f4e487b7100000000000000000000000000000000000000000000000000000000600052603160045260246000fd5b7f4552433732313a206d696e7420746f20746865207a65726f2061646472657373600082015250565b60006149d4602083613007565b91506149df8261499e565b602082019050919050565b60006020820190508181036000830152614a03816149c7565b9050919050565b7f4552433732313a20746f6b656e20616c7265616479206d696e74656400000000600082015250565b6000614a40601c83613007565b9150614a4b82614a0a565b602082019050919050565b60006020820190508181036000830152614a6f81614a33565b905091905056fea2646970667358221220c601301e477205b4a134beca1489f3c1b4d9125fd0203da8325ca84808bf04a464736f6c63430008100033",
  "immutableReferences": {},
  "source": "// SPDX-License-Identifier: MIT\r\npragma solidity >=0.4.22 <0.9.0;\r\n\r\nimport \"@openzeppelin/contracts/token/ERC721/extensions/ERC721URIStorage.sol\";\r\nimport \"@openzeppelin/contracts/utils/Counters.sol\";\r\nimport \"@openzeppelin/contracts/utils/Address.sol\";\r\nimport \"@openzeppelin/contracts/access/Ownable.sol\";\r\n\r\ncontract NftMarket is ERC721URIStorage, Ownable {\r\n    using Counters for Counters.Counter;\r\n    using Strings for uint256;\r\n    using Address for address;\r\n\r\n    struct NftItem {\r\n        uint256 tokenId;\r\n        uint256 price;\r\n        address creator;\r\n        bool isListed;\r\n    }\r\n\r\n    uint256 public listingPrice = 0.25 ether;\r\n    uint256 public maxSupply = 7;\r\n\r\n    Counters.Counter private _listedItems;\r\n    Counters.Counter private _tokenIds;\r\n\r\n\r\n    string public baseExtension = \".json\";\r\n    string public baseURI;\r\n\r\n    mapping(string => bool) private _usedTokenURIs;\r\n    mapping(uint256 => NftItem) public _idToNftItem;\r\n\r\n    mapping(address => mapping(uint256 => uint256)) private _ownedTokens;\r\n    mapping(uint256 => uint256) private _idToOwnedIndex;\r\n\r\n    uint256[] private _allNfts;\r\n\r\n    mapping(uint256 => uint256) private _idToNftIndex;\r\n\r\n    event NftItemCreated(\r\n        uint256 tokenId,\r\n        uint256 price,\r\n        address creator,\r\n        bool isListed\r\n    );\r\n\r\n    constructor() ERC721(\"ElfNFT\", \"ENFT\") {\r\n       \r\n    }\r\n\r\n     function setListingPrice(uint newPrice) external onlyOwner {\r\n     require(newPrice > 0, \"Price must be at least 1 wei\");\r\n     listingPrice = newPrice;\r\n    }\r\n\r\n    function withdraw() external onlyOwner{\r\n     uint256 amount = address(this).balance;\r\n     require(amount > 0, \"No funds available\");\r\n     address principal = (0x1e8dd1acB4D121d1a30B7B9bb709F2FDaf041Cc2);\r\n     Address.sendValue(payable(principal), amount);\r\n     \r\n    }\r\n\r\n    function getBalanceContract() public view returns(uint) {\r\n        return address(this).balance;\r\n    }\r\n\r\n   \r\n\r\n    function listedItemsCount() public view returns (uint256) {\r\n        return _listedItems.current();\r\n    }\r\n\r\n //   function tokenURIExists(string memory tokenURI) public view returns (bool) {\r\n //       return _usedTokenURIs[tokenURI] == true;\r\n //   }\r\n\r\n    function totalSupply() public view returns (uint256) {\r\n        return _allNfts.length;\r\n    }\r\n    \r\n\r\n    function setBaseURI(string memory _newBaseURI) public onlyOwner {\r\n        baseURI = _newBaseURI;\r\n     }\r\n\r\n     function _baseURI() internal view virtual override returns (string memory) {\r\n        return baseURI;\r\n    }\r\n\r\n    function tokenByIndex(uint256 index) public view returns (uint256) {\r\n        require(index < totalSupply(), \"Index out of bounds\");\r\n        return _allNfts[index];\r\n    }\r\n\r\n    function tokenOfOwnerByIndex(address owner, uint256 index)\r\n        public\r\n        view\r\n        returns (uint256)\r\n    {\r\n        require(index < ERC721.balanceOf(owner), \"Index out of bounds\");\r\n        return _ownedTokens[owner][index];\r\n    }\r\n\r\n    function getAllNftsOnSale() public view returns (NftItem[] memory) {\r\n        uint256 allItemsCounts = totalSupply();\r\n        uint256 currentIndex = 0;\r\n        NftItem[] memory items = new NftItem[](_listedItems.current());\r\n\r\n        for (uint256 i = 0; i < allItemsCounts; i++) {\r\n            uint256 tokenId = tokenByIndex(i);\r\n            NftItem storage item = _idToNftItem[tokenId];\r\n\r\n            if (item.isListed == true) {\r\n                items[currentIndex] = item;\r\n                currentIndex += 1;\r\n            }\r\n        }\r\n\r\n        return items;\r\n    }\r\n\r\n    function getOwnedNfts() public view returns (NftItem[] memory) {\r\n        uint256 ownedItemsCount = ERC721.balanceOf(msg.sender);\r\n        NftItem[] memory items = new NftItem[](ownedItemsCount);\r\n\r\n        for (uint256 i = 0; i < ownedItemsCount; i++) {\r\n            uint256 tokenId = tokenOfOwnerByIndex(msg.sender, i);\r\n            NftItem storage item = _idToNftItem[tokenId];\r\n            items[i] = item;\r\n        }\r\n\r\n        return items;\r\n    }\r\n\r\n     \r\n\r\n    function mintToken(uint amount)\r\n        public\r\n        payable\r\n        returns (uint256)\r\n    {\r\n        \r\n        require(\r\n            msg.value == listingPrice,\r\n            \"Price must be equal to listing price\"\r\n        );\r\n        \r\n        uint256 newTokenId = _tokenIds.current();\r\n\r\n        require(newTokenId < maxSupply, \"Max Nfts Minted\");     \r\n         for( uint i = 0; i < amount; ++i ){\r\n        _safeMint(msg.sender, _tokenIds.current());\r\n        _tokenIds.increment();\r\n        _createNftItem(_tokenIds.current());\r\n     }      \r\n           \r\n        return newTokenId;\r\n    }\r\n\r\n    function tokenURI(uint256 tokenId)\r\n        public\r\n        view\r\n        override\r\n        returns (string memory)\r\n    {\r\n        require(\r\n            _exists(tokenId)\r\n            );\r\n\r\n           string memory currentBaseURI = _baseURI();\r\n         return\r\n            bytes(currentBaseURI).length > 0\r\n                ? string(\r\n                    abi.encodePacked(\r\n                        currentBaseURI, \r\n                        tokenId.toString(), \r\n                        baseExtension \r\n                    ) \r\n                )\r\n                : \"\";\r\n\r\n    }\r\n\r\n    function buyNft(uint256 tokenId) public payable {\r\n        uint256 price = _idToNftItem[tokenId].price;\r\n        address owner = ERC721.ownerOf(tokenId);\r\n\r\n        require(msg.sender != owner, \"You already own this NFT\");\r\n        require(msg.value == price, \"Please submit the asking price\");\r\n\r\n        _idToNftItem[tokenId].isListed = false;\r\n        _listedItems.decrement();\r\n\r\n        _transfer(owner, msg.sender, tokenId);\r\n        Address.sendValue(payable(owner), msg.value);\r\n        \r\n    }\r\n\r\n     function cancellSellNft(uint256 tokenId) public  {\r\n        \r\n    require(ERC721.ownerOf(tokenId) == msg.sender, \"You are not owner of this nft\");\r\n        \r\n    _idToNftItem[tokenId].isListed = false;\r\n    _listedItems.decrement();\r\n     \r\n    }\r\n\r\n    function placeNftOnSale(uint tokenId, uint newPrice) public payable {\r\n    require(ERC721.ownerOf(tokenId) == msg.sender, \"You are not owner of this nft\");\r\n    require(_idToNftItem[tokenId].isListed == false, \"Item is already on sale\");\r\n    \r\n\r\n    _idToNftItem[tokenId].isListed = true;\r\n    _idToNftItem[tokenId].price = newPrice;\r\n    _listedItems.increment();\r\n  }\r\n\r\n    function _createNftItem(uint256 tokenId) private {\r\n\r\n        _idToNftItem[tokenId] = NftItem(tokenId, listingPrice, msg.sender, false);\r\n\r\n        emit NftItemCreated(tokenId, listingPrice, msg.sender, false);\r\n    }\r\n\r\n    function _beforeTokenTransfer(\r\n        address from,\r\n        address to,\r\n        uint256 tokenId\r\n    ) internal virtual override {\r\n        super._beforeTokenTransfer(from, to, tokenId);\r\n\r\n        // minting token\r\n        if (from == address(0)) {\r\n            _addTokenToAllTokensEnumeration(tokenId);\r\n        } else if (from != to) {\r\n            _removeTokenFromOwnerEnumeration(from, tokenId);\r\n        }\r\n        if (to == address(0)) {\r\n            _removeTokenFromAllTokensEnumeration(tokenId);\r\n        } else if (to != from) {\r\n            _addTokenToOwnerEnumaretion(to, tokenId);\r\n        }\r\n    }\r\n\r\n    function _addTokenToAllTokensEnumeration(uint256 tokenId) private {\r\n        _idToNftIndex[tokenId] = _allNfts.length;\r\n        _allNfts.push(tokenId);\r\n    }\r\n\r\n    function _addTokenToOwnerEnumaretion(address to, uint256 tokenId) private {\r\n        uint256 length = ERC721.balanceOf(to);\r\n        _ownedTokens[to][length] = tokenId;\r\n        _idToOwnedIndex[tokenId] = length;\r\n    }\r\n\r\n    function _removeTokenFromOwnerEnumeration(address from, uint256 tokenId)\r\n        private\r\n    {\r\n        uint256 lastTokenIndex = ERC721.balanceOf(from) - 1;\r\n        uint256 tokenIndex = _idToOwnedIndex[tokenId];\r\n\r\n        if (tokenIndex != lastTokenIndex) {\r\n            uint256 lastTokenId = _ownedTokens[from][lastTokenIndex];\r\n\r\n            _ownedTokens[from][tokenIndex] = lastTokenId;\r\n            _idToOwnedIndex[lastTokenId] = tokenIndex;\r\n        }\r\n\r\n        delete _idToOwnedIndex[tokenId];\r\n        delete _ownedTokens[from][lastTokenIndex];\r\n    }\r\n\r\n    function _removeTokenFromAllTokensEnumeration(uint tokenId) private {\r\n    uint lastTokenIndex = _allNfts.length - 1;\r\n    uint tokenIndex = _idToNftIndex[tokenId];\r\n    uint lastTokenId = _allNfts[lastTokenIndex];\r\n\r\n    _allNfts[tokenIndex] = lastTokenId;\r\n    _idToNftIndex[lastTokenId] = tokenIndex;\r\n\r\n    delete _idToNftIndex[tokenId];\r\n    _allNfts.pop();\r\n  }\r\n\r\n}\r\n",
  "sourcePath": "C:\\Users\\nahue\\OneDrive\\Escritorio\\marketplace\\nft-marketplace\\contracts\\NftMarket.sol",
  "compiler": {
    "name": "solc",
    "version": "0.8.16+commit.07a7930e.Emscripten.clang"
  },
  "schemaVersion": "3.4.9",
  "updatedAt": "2022-09-09T23:30:26.299Z",
  "networkType": "ethereum",
  "devdoc": {
    "kind": "dev",
    "methods": {
      "approve(address,uint256)": {
        "details": "See {IERC721-approve}."
      },
      "balanceOf(address)": {
        "details": "See {IERC721-balanceOf}."
      },
      "getApproved(uint256)": {
        "details": "See {IERC721-getApproved}."
      },
      "isApprovedForAll(address,address)": {
        "details": "See {IERC721-isApprovedForAll}."
      },
      "name()": {
        "details": "See {IERC721Metadata-name}."
      },
      "owner()": {
        "details": "Returns the address of the current owner."
      },
      "ownerOf(uint256)": {
        "details": "See {IERC721-ownerOf}."
      },
      "renounceOwnership()": {
        "details": "Leaves the contract without owner. It will not be possible to call `onlyOwner` functions anymore. Can only be called by the current owner. NOTE: Renouncing ownership will leave the contract without an owner, thereby removing any functionality that is only available to the owner."
      },
      "safeTransferFrom(address,address,uint256)": {
        "details": "See {IERC721-safeTransferFrom}."
      },
      "safeTransferFrom(address,address,uint256,bytes)": {
        "details": "See {IERC721-safeTransferFrom}."
      },
      "setApprovalForAll(address,bool)": {
        "details": "See {IERC721-setApprovalForAll}."
      },
      "supportsInterface(bytes4)": {
        "details": "See {IERC165-supportsInterface}."
      },
      "symbol()": {
        "details": "See {IERC721Metadata-symbol}."
      },
      "tokenURI(uint256)": {
        "details": "See {IERC721Metadata-tokenURI}."
      },
      "transferFrom(address,address,uint256)": {
        "details": "See {IERC721-transferFrom}."
      },
      "transferOwnership(address)": {
        "details": "Transfers ownership of the contract to a new account (`newOwner`). Can only be called by the current owner."
      }
    },
    "version": 1
  },
  "userdoc": {
    "kind": "user",
    "methods": {},
    "version": 1
  }
}