{
  "contractName": "NftMarket",
  "abi": [
    {
      "inputs": [],
      "stateMutability": "nonpayable",
      "type": "constructor"
    },
    {
      "anonymous": false,
      "inputs": [
        {
          "indexed": true,
          "internalType": "address",
          "name": "owner",
          "type": "address"
        },
        {
          "indexed": true,
          "internalType": "address",
          "name": "approved",
          "type": "address"
        },
        {
          "indexed": true,
          "internalType": "uint256",
          "name": "tokenId",
          "type": "uint256"
        }
      ],
      "name": "Approval",
      "type": "event"
    },
    {
      "anonymous": false,
      "inputs": [
        {
          "indexed": true,
          "internalType": "address",
          "name": "owner",
          "type": "address"
        },
        {
          "indexed": true,
          "internalType": "address",
          "name": "operator",
          "type": "address"
        },
        {
          "indexed": false,
          "internalType": "bool",
          "name": "approved",
          "type": "bool"
        }
      ],
      "name": "ApprovalForAll",
      "type": "event"
    },
    {
      "anonymous": false,
      "inputs": [
        {
          "indexed": false,
          "internalType": "uint256",
          "name": "tokenId",
          "type": "uint256"
        },
        {
          "indexed": false,
          "internalType": "uint256",
          "name": "price",
          "type": "uint256"
        },
        {
          "indexed": false,
          "internalType": "address",
          "name": "creator",
          "type": "address"
        },
        {
          "indexed": false,
          "internalType": "bool",
          "name": "isListed",
          "type": "bool"
        }
      ],
      "name": "NftItemCreated",
      "type": "event"
    },
    {
      "anonymous": false,
      "inputs": [
        {
          "indexed": true,
          "internalType": "address",
          "name": "previousOwner",
          "type": "address"
        },
        {
          "indexed": true,
          "internalType": "address",
          "name": "newOwner",
          "type": "address"
        }
      ],
      "name": "OwnershipTransferred",
      "type": "event"
    },
    {
      "anonymous": false,
      "inputs": [
        {
          "indexed": true,
          "internalType": "address",
          "name": "from",
          "type": "address"
        },
        {
          "indexed": true,
          "internalType": "address",
          "name": "to",
          "type": "address"
        },
        {
          "indexed": true,
          "internalType": "uint256",
          "name": "tokenId",
          "type": "uint256"
        }
      ],
      "name": "Transfer",
      "type": "event"
    },
    {
      "inputs": [
        {
          "internalType": "uint256",
          "name": "",
          "type": "uint256"
        }
      ],
      "name": "_idToNftItem",
      "outputs": [
        {
          "internalType": "uint256",
          "name": "tokenId",
          "type": "uint256"
        },
        {
          "internalType": "uint256",
          "name": "price",
          "type": "uint256"
        },
        {
          "internalType": "address",
          "name": "creator",
          "type": "address"
        },
        {
          "internalType": "bool",
          "name": "isListed",
          "type": "bool"
        }
      ],
      "stateMutability": "view",
      "type": "function",
      "constant": true
    },
    {
      "inputs": [
        {
          "internalType": "address",
          "name": "to",
          "type": "address"
        },
        {
          "internalType": "uint256",
          "name": "tokenId",
          "type": "uint256"
        }
      ],
      "name": "approve",
      "outputs": [],
      "stateMutability": "nonpayable",
      "type": "function"
    },
    {
      "inputs": [
        {
          "internalType": "address",
          "name": "owner",
          "type": "address"
        }
      ],
      "name": "balanceOf",
      "outputs": [
        {
          "internalType": "uint256",
          "name": "",
          "type": "uint256"
        }
      ],
      "stateMutability": "view",
      "type": "function",
      "constant": true
    },
    {
      "inputs": [
        {
          "internalType": "uint256",
          "name": "tokenId",
          "type": "uint256"
        }
      ],
      "name": "getApproved",
      "outputs": [
        {
          "internalType": "address",
          "name": "",
          "type": "address"
        }
      ],
      "stateMutability": "view",
      "type": "function",
      "constant": true
    },
    {
      "inputs": [
        {
          "internalType": "address",
          "name": "owner",
          "type": "address"
        },
        {
          "internalType": "address",
          "name": "operator",
          "type": "address"
        }
      ],
      "name": "isApprovedForAll",
      "outputs": [
        {
          "internalType": "bool",
          "name": "",
          "type": "bool"
        }
      ],
      "stateMutability": "view",
      "type": "function",
      "constant": true
    },
    {
      "inputs": [],
      "name": "listingPrice",
      "outputs": [
        {
          "internalType": "uint256",
          "name": "",
          "type": "uint256"
        }
      ],
      "stateMutability": "view",
      "type": "function",
      "constant": true
    },
    {
      "inputs": [],
      "name": "name",
      "outputs": [
        {
          "internalType": "string",
          "name": "",
          "type": "string"
        }
      ],
      "stateMutability": "view",
      "type": "function",
      "constant": true
    },
    {
      "inputs": [],
      "name": "owner",
      "outputs": [
        {
          "internalType": "address",
          "name": "",
          "type": "address"
        }
      ],
      "stateMutability": "view",
      "type": "function",
      "constant": true
    },
    {
      "inputs": [
        {
          "internalType": "uint256",
          "name": "tokenId",
          "type": "uint256"
        }
      ],
      "name": "ownerOf",
      "outputs": [
        {
          "internalType": "address",
          "name": "",
          "type": "address"
        }
      ],
      "stateMutability": "view",
      "type": "function",
      "constant": true
    },
    {
      "inputs": [],
      "name": "renounceOwnership",
      "outputs": [],
      "stateMutability": "nonpayable",
      "type": "function"
    },
    {
      "inputs": [
        {
          "internalType": "address",
          "name": "from",
          "type": "address"
        },
        {
          "internalType": "address",
          "name": "to",
          "type": "address"
        },
        {
          "internalType": "uint256",
          "name": "tokenId",
          "type": "uint256"
        }
      ],
      "name": "safeTransferFrom",
      "outputs": [],
      "stateMutability": "nonpayable",
      "type": "function"
    },
    {
      "inputs": [
        {
          "internalType": "address",
          "name": "from",
          "type": "address"
        },
        {
          "internalType": "address",
          "name": "to",
          "type": "address"
        },
        {
          "internalType": "uint256",
          "name": "tokenId",
          "type": "uint256"
        },
        {
          "internalType": "bytes",
          "name": "data",
          "type": "bytes"
        }
      ],
      "name": "safeTransferFrom",
      "outputs": [],
      "stateMutability": "nonpayable",
      "type": "function"
    },
    {
      "inputs": [
        {
          "internalType": "address",
          "name": "operator",
          "type": "address"
        },
        {
          "internalType": "bool",
          "name": "approved",
          "type": "bool"
        }
      ],
      "name": "setApprovalForAll",
      "outputs": [],
      "stateMutability": "nonpayable",
      "type": "function"
    },
    {
      "inputs": [
        {
          "internalType": "bytes4",
          "name": "interfaceId",
          "type": "bytes4"
        }
      ],
      "name": "supportsInterface",
      "outputs": [
        {
          "internalType": "bool",
          "name": "",
          "type": "bool"
        }
      ],
      "stateMutability": "view",
      "type": "function",
      "constant": true
    },
    {
      "inputs": [],
      "name": "symbol",
      "outputs": [
        {
          "internalType": "string",
          "name": "",
          "type": "string"
        }
      ],
      "stateMutability": "view",
      "type": "function",
      "constant": true
    },
    {
      "inputs": [
        {
          "internalType": "address",
          "name": "from",
          "type": "address"
        },
        {
          "internalType": "address",
          "name": "to",
          "type": "address"
        },
        {
          "internalType": "uint256",
          "name": "tokenId",
          "type": "uint256"
        }
      ],
      "name": "transferFrom",
      "outputs": [],
      "stateMutability": "nonpayable",
      "type": "function"
    },
    {
      "inputs": [
        {
          "internalType": "address",
          "name": "newOwner",
          "type": "address"
        }
      ],
      "name": "transferOwnership",
      "outputs": [],
      "stateMutability": "nonpayable",
      "type": "function"
    },
    {
      "inputs": [
        {
          "internalType": "uint256",
          "name": "newMaxFoxy",
          "type": "uint256"
        }
      ],
      "name": "setMaxFoxys",
      "outputs": [],
      "stateMutability": "nonpayable",
      "type": "function"
    },
    {
      "inputs": [
        {
          "internalType": "uint256",
          "name": "newMaxAquan",
          "type": "uint256"
        }
      ],
      "name": "setMaxAquans",
      "outputs": [],
      "stateMutability": "nonpayable",
      "type": "function"
    },
    {
      "inputs": [
        {
          "internalType": "uint256",
          "name": "newMaxAlufis",
          "type": "uint256"
        }
      ],
      "name": "setMaxAlufis",
      "outputs": [],
      "stateMutability": "nonpayable",
      "type": "function"
    },
    {
      "inputs": [
        {
          "internalType": "uint256",
          "name": "newMaxFluffys",
          "type": "uint256"
        }
      ],
      "name": "setMaxFluffys",
      "outputs": [],
      "stateMutability": "nonpayable",
      "type": "function"
    },
    {
      "inputs": [
        {
          "internalType": "uint256",
          "name": "newMaxGolems",
          "type": "uint256"
        }
      ],
      "name": "setMaxGolems",
      "outputs": [],
      "stateMutability": "nonpayable",
      "type": "function"
    },
    {
      "inputs": [
        {
          "internalType": "uint256",
          "name": "newMaxElfos",
          "type": "uint256"
        }
      ],
      "name": "setMaxElfos",
      "outputs": [],
      "stateMutability": "nonpayable",
      "type": "function"
    },
    {
      "inputs": [
        {
          "internalType": "uint256",
          "name": "newPrice",
          "type": "uint256"
        }
      ],
      "name": "setListingPrice",
      "outputs": [],
      "stateMutability": "nonpayable",
      "type": "function"
    },
    {
      "inputs": [],
      "name": "withdraw",
      "outputs": [],
      "stateMutability": "nonpayable",
      "type": "function"
    },
    {
      "inputs": [],
      "name": "getBalanceContract",
      "outputs": [
        {
          "internalType": "uint256",
          "name": "",
          "type": "uint256"
        }
      ],
      "stateMutability": "view",
      "type": "function",
      "constant": true
    },
    {
      "inputs": [],
      "name": "listedItemsCount",
      "outputs": [
        {
          "internalType": "uint256",
          "name": "",
          "type": "uint256"
        }
      ],
      "stateMutability": "view",
      "type": "function",
      "constant": true
    },
    {
      "inputs": [],
      "name": "totalSupply",
      "outputs": [
        {
          "internalType": "uint256",
          "name": "",
          "type": "uint256"
        }
      ],
      "stateMutability": "view",
      "type": "function",
      "constant": true
    },
    {
      "inputs": [
        {
          "internalType": "string",
          "name": "_newBaseURI",
          "type": "string"
        }
      ],
      "name": "setBaseURI",
      "outputs": [],
      "stateMutability": "nonpayable",
      "type": "function"
    },
    {
      "inputs": [
        {
          "internalType": "uint256",
          "name": "index",
          "type": "uint256"
        }
      ],
      "name": "tokenByIndex",
      "outputs": [
        {
          "internalType": "uint256",
          "name": "",
          "type": "uint256"
        }
      ],
      "stateMutability": "view",
      "type": "function",
      "constant": true
    },
    {
      "inputs": [
        {
          "internalType": "address",
          "name": "owner",
          "type": "address"
        },
        {
          "internalType": "uint256",
          "name": "index",
          "type": "uint256"
        }
      ],
      "name": "tokenOfOwnerByIndex",
      "outputs": [
        {
          "internalType": "uint256",
          "name": "",
          "type": "uint256"
        }
      ],
      "stateMutability": "view",
      "type": "function",
      "constant": true
    },
    {
      "inputs": [],
      "name": "getAllNftsOnSale",
      "outputs": [
        {
          "components": [
            {
              "internalType": "uint256",
              "name": "tokenId",
              "type": "uint256"
            },
            {
              "internalType": "uint256",
              "name": "price",
              "type": "uint256"
            },
            {
              "internalType": "address",
              "name": "creator",
              "type": "address"
            },
            {
              "internalType": "bool",
              "name": "isListed",
              "type": "bool"
            }
          ],
          "internalType": "struct NftMarket.NftItem[]",
          "name": "",
          "type": "tuple[]"
        }
      ],
      "stateMutability": "view",
      "type": "function",
      "constant": true
    },
    {
      "inputs": [],
      "name": "getOwnedNfts",
      "outputs": [
        {
          "components": [
            {
              "internalType": "uint256",
              "name": "tokenId",
              "type": "uint256"
            },
            {
              "internalType": "uint256",
              "name": "price",
              "type": "uint256"
            },
            {
              "internalType": "address",
              "name": "creator",
              "type": "address"
            },
            {
              "internalType": "bool",
              "name": "isListed",
              "type": "bool"
            }
          ],
          "internalType": "struct NftMarket.NftItem[]",
          "name": "",
          "type": "tuple[]"
        }
      ],
      "stateMutability": "view",
      "type": "function",
      "constant": true
    },
    {
      "inputs": [
        {
          "internalType": "uint256",
          "name": "amount",
          "type": "uint256"
        }
      ],
      "name": "foxyBuy",
      "outputs": [
        {
          "internalType": "uint256",
          "name": "",
          "type": "uint256"
        }
      ],
      "stateMutability": "payable",
      "type": "function",
      "payable": true
    },
    {
      "inputs": [
        {
          "internalType": "uint256",
          "name": "amount",
          "type": "uint256"
        }
      ],
      "name": "alufiBuy",
      "outputs": [
        {
          "internalType": "uint256",
          "name": "",
          "type": "uint256"
        }
      ],
      "stateMutability": "payable",
      "type": "function",
      "payable": true
    },
    {
      "inputs": [
        {
          "internalType": "uint256",
          "name": "amount",
          "type": "uint256"
        }
      ],
      "name": "aquanBuy",
      "outputs": [
        {
          "internalType": "uint256",
          "name": "",
          "type": "uint256"
        }
      ],
      "stateMutability": "payable",
      "type": "function",
      "payable": true
    },
    {
      "inputs": [
        {
          "internalType": "uint256",
          "name": "amount",
          "type": "uint256"
        }
      ],
      "name": "fluffyBuy",
      "outputs": [
        {
          "internalType": "uint256",
          "name": "",
          "type": "uint256"
        }
      ],
      "stateMutability": "payable",
      "type": "function",
      "payable": true
    },
    {
      "inputs": [
        {
          "internalType": "uint256",
          "name": "amount",
          "type": "uint256"
        }
      ],
      "name": "golemBuy",
      "outputs": [
        {
          "internalType": "uint256",
          "name": "",
          "type": "uint256"
        }
      ],
      "stateMutability": "payable",
      "type": "function",
      "payable": true
    },
    {
      "inputs": [
        {
          "internalType": "uint256",
          "name": "amount",
          "type": "uint256"
        }
      ],
      "name": "elfoBuy",
      "outputs": [
        {
          "internalType": "uint256",
          "name": "",
          "type": "uint256"
        }
      ],
      "stateMutability": "payable",
      "type": "function",
      "payable": true
    },
    {
      "inputs": [
        {
          "internalType": "uint256",
          "name": "tokenId",
          "type": "uint256"
        }
      ],
      "name": "tokenURI",
      "outputs": [
        {
          "internalType": "string",
          "name": "",
          "type": "string"
        }
      ],
      "stateMutability": "view",
      "type": "function",
      "constant": true
    },
    {
      "inputs": [
        {
          "internalType": "uint256",
          "name": "tokenId",
          "type": "uint256"
        }
      ],
      "name": "buyNft",
      "outputs": [],
      "stateMutability": "payable",
      "type": "function",
      "payable": true
    },
    {
      "inputs": [
        {
          "internalType": "uint256",
          "name": "tokenId",
          "type": "uint256"
        }
      ],
      "name": "cancellSellNft",
      "outputs": [],
      "stateMutability": "nonpayable",
      "type": "function"
    },
    {
      "inputs": [
        {
          "internalType": "uint256",
          "name": "tokenId",
          "type": "uint256"
        },
        {
          "internalType": "uint256",
          "name": "newPrice",
          "type": "uint256"
        }
      ],
      "name": "placeNftOnSale",
      "outputs": [],
      "stateMutability": "payable",
      "type": "function",
      "payable": true
    }
  ],
  "bytecode": "0x60806040526703782dace9d9000060085560006009556008600a556010600b556018600c556007600d55600f600e556017600f55601f601055612710601155612ee06012556040518060400160405280600581526020017f2e6a736f6e000000000000000000000000000000000000000000000000000000815250601590816200008a919062000499565b503480156200009857600080fd5b506040518060400160405280600681526020017f456c664e465400000000000000000000000000000000000000000000000000008152506040518060400160405280600481526020017f454e465400000000000000000000000000000000000000000000000000000000815250816000908162000116919062000499565b50806001908162000128919062000499565b5050506200014b6200013f6200015160201b60201c565b6200015960201b60201c565b62000580565b600033905090565b6000600760009054906101000a900473ffffffffffffffffffffffffffffffffffffffff16905081600760006101000a81548173ffffffffffffffffffffffffffffffffffffffff021916908373ffffffffffffffffffffffffffffffffffffffff1602179055508173ffffffffffffffffffffffffffffffffffffffff168173ffffffffffffffffffffffffffffffffffffffff167f8be0079c531659141344cd1fd0a4f28419497f9722a3daafe3b4186f6b6457e060405160405180910390a35050565b600081519050919050565b7f4e487b7100000000000000000000000000000000000000000000000000000000600052604160045260246000fd5b7f4e487b7100000000000000000000000000000000000000000000000000000000600052602260045260246000fd5b60006002820490506001821680620002a157607f821691505b602082108103620002b757620002b662000259565b5b50919050565b60008190508160005260206000209050919050565b60006020601f8301049050919050565b600082821b905092915050565b600060088302620003217fffffffffffffffffffffffffffffffffffffffffffffffffffffffffffffffff82620002e2565b6200032d8683620002e2565b95508019841693508086168417925050509392505050565b6000819050919050565b6000819050919050565b60006200037a620003746200036e8462000345565b6200034f565b62000345565b9050919050565b6000819050919050565b620003968362000359565b620003ae620003a58262000381565b848454620002ef565b825550505050565b600090565b620003c5620003b6565b620003d28184846200038b565b505050565b5b81811015620003fa57620003ee600082620003bb565b600181019050620003d8565b5050565b601f82111562000449576200041381620002bd565b6200041e84620002d2565b810160208510156200042e578190505b620004466200043d85620002d2565b830182620003d7565b50505b505050565b600082821c905092915050565b60006200046e600019846008026200044e565b1980831691505092915050565b60006200048983836200045b565b9150826002028217905092915050565b620004a4826200021f565b67ffffffffffffffff811115620004c057620004bf6200022a565b5b620004cc825462000288565b620004d9828285620003fe565b600060209050601f831160018114620005115760008415620004fc578287015190505b6200050885826200047b565b86555062000578565b601f1984166200052186620002bd565b60005b828110156200054b5784890151825560018201915060208501945060208101905062000524565b868310156200056b578489015162000567601f8916826200045b565b8355505b6001600288020188555050505b505050505050565b61575080620005906000396000f3fe60806040526004361061025c5760003560e01c806366bd78fd116101445780639de457bb116100b6578063ccb4918d1161007a578063ccb4918d146108df578063dc5b2cfc1461090a578063e7cbc9f014610933578063e985e9c514610963578063f201ed2b146109a0578063f2fde38b146109d05761025c565b80639de457bb146107f5578063a22cb46514610825578063b88d4fde1461084e578063c78f19f914610877578063c87b56dd146108a25761025c565b806375e05b881161010857806375e05b88146106dd5780637c726b691461071d5780638d88ec02146107465780638da5cb5b146107765780639061d007146107a157806395d89b41146107ca5761025c565b806366bd78fd1461060a57806370a082311461063557806370cbcb4314610672578063715018a61461069d5780637445010c146106b45761025c565b8063243adbdd116101dd5780633ff712f0116101a15780633ff712f0146104e557806342842e0e1461050e5780634f6ccce71461053757806355f804b314610574578063599442251461059d5780636352211e146105cd5761025c565b8063243adbdd1461042157806324b252951461043d5780632f745c591461046657806336b536be146104a35780633ccfd60b146104ce5761025c565b806318160ddd1161022457806318160ddd146103585780631e6e2dd31461038357806321f422e5146103b357806323b872dd146103cf57806323e25605146103f85761025c565b806301ffc9a71461026157806306fdde031461029e578063081812fc146102c9578063095ea7b31461030657806316b9403b1461032f575b600080fd5b34801561026d57600080fd5b50610288600480360381019061028391906136b5565b6109f9565b60405161029591906136fd565b60405180910390f35b3480156102aa57600080fd5b506102b3610adb565b6040516102c091906137a8565b60405180910390f35b3480156102d557600080fd5b506102f060048036038101906102eb9190613800565b610b6d565b6040516102fd919061386e565b60405180910390f35b34801561031257600080fd5b5061032d600480360381019061032891906138b5565b610bb3565b005b34801561033b57600080fd5b5061035660048036038101906103519190613800565b610cca565b005b34801561036457600080fd5b5061036d610d20565b60405161037a9190613904565b60405180910390f35b61039d60048036038101906103989190613800565b610d2d565b6040516103aa9190613904565b60405180910390f35b6103cd60048036038101906103c8919061391f565b610e11565b005b3480156103db57600080fd5b506103f660048036038101906103f1919061395f565b610f49565b005b34801561040457600080fd5b5061041f600480360381019061041a9190613800565b610fa9565b005b61043b60048036038101906104369190613800565b610fff565b005b34801561044957600080fd5b50610464600480360381019061045f9190613800565b61112a565b005b34801561047257600080fd5b5061048d600480360381019061048891906138b5565b611180565b60405161049a9190613904565b60405180910390f35b3480156104af57600080fd5b506104b8611225565b6040516104c59190613ae3565b60405180910390f35b3480156104da57600080fd5b506104e36113bf565b005b3480156104f157600080fd5b5061050c60048036038101906105079190613800565b611436565b005b34801561051a57600080fd5b506105356004803603810190610530919061395f565b61148c565b005b34801561054357600080fd5b5061055e60048036038101906105599190613800565b6114ac565b60405161056b9190613904565b60405180910390f35b34801561058057600080fd5b5061059b60048036038101906105969190613c3a565b61151d565b005b6105b760048036038101906105b29190613800565b611538565b6040516105c49190613904565b60405180910390f35b3480156105d957600080fd5b506105f460048036038101906105ef9190613800565b61161c565b604051610601919061386e565b60405180910390f35b34801561061657600080fd5b5061061f6116cd565b60405161062c9190613904565b60405180910390f35b34801561064157600080fd5b5061065c60048036038101906106579190613c83565b6116d5565b6040516106699190613904565b60405180910390f35b34801561067e57600080fd5b5061068761178c565b6040516106949190613ae3565b60405180910390f35b3480156106a957600080fd5b506106b26118f0565b005b3480156106c057600080fd5b506106db60048036038101906106d69190613800565b611904565b005b3480156106e957600080fd5b5061070460048036038101906106ff9190613800565b61195a565b6040516107149493929190613cb0565b60405180910390f35b34801561072957600080fd5b50610744600480360381019061073f9190613800565b6119b7565b005b610760600480360381019061075b9190613800565b611a0c565b60405161076d9190613904565b60405180910390f35b34801561078257600080fd5b5061078b611af0565b604051610798919061386e565b60405180910390f35b3480156107ad57600080fd5b506107c860048036038101906107c39190613800565b611b1a565b005b3480156107d657600080fd5b506107df611bcc565b6040516107ec91906137a8565b60405180910390f35b61080f600480360381019061080a9190613800565b611c5e565b60405161081c9190613904565b60405180910390f35b34801561083157600080fd5b5061084c60048036038101906108479190613d21565b611d4b565b005b34801561085a57600080fd5b5061087560048036038101906108709190613e02565b611d61565b005b34801561088357600080fd5b5061088c611dc3565b6040516108999190613904565b60405180910390f35b3480156108ae57600080fd5b506108c960048036038101906108c49190613800565b611dc9565b6040516108d691906137a8565b60405180910390f35b3480156108eb57600080fd5b506108f4611e3d565b6040516109019190613904565b60405180910390f35b34801561091657600080fd5b50610931600480360381019061092c9190613800565b611e4e565b005b61094d60048036038101906109489190613800565b611ea4565b60405161095a9190613904565b60405180910390f35b34801561096f57600080fd5b5061098a60048036038101906109859190613e85565b611f91565b60405161099791906136fd565b60405180910390f35b6109ba60048036038101906109b59190613800565b612025565b6040516109c79190613904565b60405180910390f35b3480156109dc57600080fd5b506109f760048036038101906109f29190613c83565b612109565b005b60007f80ac58cd000000000000000000000000000000000000000000000000000000007bffffffffffffffffffffffffffffffffffffffffffffffffffffffff1916827bffffffffffffffffffffffffffffffffffffffffffffffffffffffff19161480610ac457507f5b5e139f000000000000000000000000000000000000000000000000000000007bffffffffffffffffffffffffffffffffffffffffffffffffffffffff1916827bffffffffffffffffffffffffffffffffffffffffffffffffffffffff1916145b80610ad45750610ad38261218c565b5b9050919050565b606060008054610aea90613ef4565b80601f0160208091040260200160405190810160405280929190818152602001828054610b1690613ef4565b8015610b635780601f10610b3857610100808354040283529160200191610b63565b820191906000526020600020905b815481529060010190602001808311610b4657829003601f168201915b5050505050905090565b6000610b78826121f6565b6004600083815260200190815260200160002060009054906101000a900473ffffffffffffffffffffffffffffffffffffffff169050919050565b6000610bbe8261161c565b90508073ffffffffffffffffffffffffffffffffffffffff168373ffffffffffffffffffffffffffffffffffffffff1603610c2e576040517f08c379a0000000000000000000000000000000000000000000000000000000008152600401610c2590613f97565b60405180910390fd5b8073ffffffffffffffffffffffffffffffffffffffff16610c4d612241565b73ffffffffffffffffffffffffffffffffffffffff161480610c7c5750610c7b81610c76612241565b611f91565b5b610cbb576040517f08c379a0000000000000000000000000000000000000000000000000000000008152600401610cb290614029565b60405180910390fd5b610cc58383612249565b505050565b610cd2612302565b6010548111610d16576040517f08c379a0000000000000000000000000000000000000000000000000000000008152600401610d0d906140bb565b60405180910390fd5b8060108190555050565b6000601b80549050905090565b60006008543414610d73576040517f08c379a0000000000000000000000000000000000000000000000000000000008152600401610d6a9061414d565b60405180910390fd5b601054600c5410610db9576040517f08c379a0000000000000000000000000000000000000000000000000000000008152600401610db0906141b9565b60405180910390fd5b60005b82811015610e0657610dd033600c54612380565b610ddb600c5461239e565b6001600c6000828254610dee9190614208565b9250508190555080610dff9061423c565b9050610dbc565b50600c549050919050565b3373ffffffffffffffffffffffffffffffffffffffff16610e318361161c565b73ffffffffffffffffffffffffffffffffffffffff1614610e87576040517f08c379a0000000000000000000000000000000000000000000000000000000008152600401610e7e906142d0565b60405180910390fd5b600015156018600084815260200190815260200160002060020160149054906101000a900460ff16151514610ef1576040517f08c379a0000000000000000000000000000000000000000000000000000000008152600401610ee89061433c565b60405180910390fd5b60016018600084815260200190815260200160002060020160146101000a81548160ff021916908315150217905550806018600084815260200190815260200160002060010181905550610f4560136124ae565b5050565b610f5a610f54612241565b826124c4565b610f99576040517f08c379a0000000000000000000000000000000000000000000000000000000008152600401610f90906143ce565b60405180910390fd5b610fa4838383612559565b505050565b610fb1612302565b600f548111610ff5576040517f08c379a0000000000000000000000000000000000000000000000000000000008152600401610fec90614460565b60405180910390fd5b80600f8190555050565b60006018600083815260200190815260200160002060010154905060006110258361161c565b90508073ffffffffffffffffffffffffffffffffffffffff163373ffffffffffffffffffffffffffffffffffffffff1603611095576040517f08c379a000000000000000000000000000000000000000000000000000000000815260040161108c906144cc565b60405180910390fd5b8134146110d7576040517f08c379a00000000000000000000000000000000000000000000000000000000081526004016110ce90614538565b60405180910390fd5b60006018600085815260200190815260200160002060020160146101000a81548160ff02191690831515021790555061111060136127bf565b61111b813385612559565b611125813461281b565b505050565b611132612302565b600e548111611176576040517f08c379a000000000000000000000000000000000000000000000000000000000815260040161116d906145ca565b60405180910390fd5b80600e8190555050565b600061118b836116d5565b82106111cc576040517f08c379a00000000000000000000000000000000000000000000000000000000081526004016111c390614636565b60405180910390fd5b601960008473ffffffffffffffffffffffffffffffffffffffff1673ffffffffffffffffffffffffffffffffffffffff168152602001908152602001600020600083815260200190815260200160002054905092915050565b60606000611231610d20565b9050600080611240601361290f565b67ffffffffffffffff81111561125957611258613b0f565b5b60405190808252806020026020018201604052801561129257816020015b61127f613609565b8152602001906001900390816112775790505b50905060005b838110156113b55760006112ab826114ac565b90506000601860008381526020019081526020016000209050600115158160020160149054906101000a900460ff161515036113a0578060405180608001604052908160008201548152602001600182015481526020016002820160009054906101000a900473ffffffffffffffffffffffffffffffffffffffff1673ffffffffffffffffffffffffffffffffffffffff1673ffffffffffffffffffffffffffffffffffffffff1681526020016002820160149054906101000a900460ff16151515158152505084868151811061138557611384614656565b5b602002602001018190525060018561139d9190614208565b94505b505080806113ad9061423c565b915050611298565b5080935050505090565b6113c7612302565b60004790506000811161140f576040517f08c379a0000000000000000000000000000000000000000000000000000000008152600401611406906146d1565b60405180910390fd5b6000731e8dd1acb4d121d1a30b7b9bb709f2fdaf041cc29050611432818361281b565b5050565b61143e612302565b6011548111611482576040517f08c379a000000000000000000000000000000000000000000000000000000000815260040161147990614763565b60405180910390fd5b8060118190555050565b6114a783838360405180602001604052806000815250611d61565b505050565b60006114b6610d20565b82106114f7576040517f08c379a00000000000000000000000000000000000000000000000000000000081526004016114ee90614636565b60405180910390fd5b601b828154811061150b5761150a614656565b5b90600052602060002001549050919050565b611525612302565b8060169081611534919061492f565b5050565b6000600854341461157e576040517f08c379a00000000000000000000000000000000000000000000000000000000081526004016115759061414d565b60405180910390fd5b600f54600b54106115c4576040517f08c379a00000000000000000000000000000000000000000000000000000000081526004016115bb90614a4d565b60405180910390fd5b60005b82811015611611576115db33600b54612380565b6115e6600b5461239e565b6001600b60008282546115f99190614208565b925050819055508061160a9061423c565b90506115c7565b50600b549050919050565b6000806002600084815260200190815260200160002060009054906101000a900473ffffffffffffffffffffffffffffffffffffffff169050600073ffffffffffffffffffffffffffffffffffffffff168173ffffffffffffffffffffffffffffffffffffffff16036116c4576040517f08c379a00000000000000000000000000000000000000000000000000000000081526004016116bb90614ab9565b60405180910390fd5b80915050919050565b600047905090565b60008073ffffffffffffffffffffffffffffffffffffffff168273ffffffffffffffffffffffffffffffffffffffff1603611745576040517f08c379a000000000000000000000000000000000000000000000000000000000815260040161173c90614b4b565b60405180910390fd5b600360008373ffffffffffffffffffffffffffffffffffffffff1673ffffffffffffffffffffffffffffffffffffffff168152602001908152602001600020549050919050565b60606000611799336116d5565b905060008167ffffffffffffffff8111156117b7576117b6613b0f565b5b6040519080825280602002602001820160405280156117f057816020015b6117dd613609565b8152602001906001900390816117d55790505b50905060005b828110156118e757600061180a3383611180565b905060006018600083815260200190815260200160002090508060405180608001604052908160008201548152602001600182015481526020016002820160009054906101000a900473ffffffffffffffffffffffffffffffffffffffff1673ffffffffffffffffffffffffffffffffffffffff1673ffffffffffffffffffffffffffffffffffffffff1681526020016002820160149054906101000a900460ff1615151515815250508484815181106118c7576118c6614656565b5b6020026020010181905250505080806118df9061423c565b9150506117f6565b50809250505090565b6118f8612302565b611902600061291d565b565b61190c612302565b6012548111611950576040517f08c379a000000000000000000000000000000000000000000000000000000000815260040161194790614bdd565b60405180910390fd5b8060128190555050565b60186020528060005260406000206000915090508060000154908060010154908060020160009054906101000a900473ffffffffffffffffffffffffffffffffffffffff16908060020160149054906101000a900460ff16905084565b6119bf612302565b60008111611a02576040517f08c379a00000000000000000000000000000000000000000000000000000000081526004016119f990614c49565b60405180910390fd5b8060088190555050565b60006008543414611a52576040517f08c379a0000000000000000000000000000000000000000000000000000000008152600401611a499061414d565b60405180910390fd5b600e54600a5410611a98576040517f08c379a0000000000000000000000000000000000000000000000000000000008152600401611a8f90614cb5565b60405180910390fd5b60005b82811015611ae557611aaf33600a54612380565b611aba600a5461239e565b6001600a6000828254611acd9190614208565b9250508190555080611ade9061423c565b9050611a9b565b50600a549050919050565b6000600760009054906101000a900473ffffffffffffffffffffffffffffffffffffffff16905090565b3373ffffffffffffffffffffffffffffffffffffffff16611b3a8261161c565b73ffffffffffffffffffffffffffffffffffffffff1614611b90576040517f08c379a0000000000000000000000000000000000000000000000000000000008152600401611b87906142d0565b60405180910390fd5b60006018600083815260200190815260200160002060020160146101000a81548160ff021916908315150217905550611bc960136127bf565b50565b606060018054611bdb90613ef4565b80601f0160208091040260200160405190810160405280929190818152602001828054611c0790613ef4565b8015611c545780601f10611c2957610100808354040283529160200191611c54565b820191906000526020600020905b815481529060010190602001808311611c3757829003601f168201915b5050505050905090565b60006008543414611ca4576040517f08c379a0000000000000000000000000000000000000000000000000000000008152600401611c9b9061414d565b60405180910390fd5b6000611cb0601461290f565b9050600d548110611cf6576040517f08c379a0000000000000000000000000000000000000000000000000000000008152600401611ced90614d21565b60405180910390fd5b60005b83811015611d4157611d1433611d0f601461290f565b612380565b611d26611d21601461290f565b61239e565b611d3060146124ae565b80611d3a9061423c565b9050611cf9565b5080915050919050565b611d5d611d56612241565b83836129e3565b5050565b611d72611d6c612241565b836124c4565b611db1576040517f08c379a0000000000000000000000000000000000000000000000000000000008152600401611da8906143ce565b60405180910390fd5b611dbd84848484612b4f565b50505050565b60085481565b6060611dd482612bab565b611ddd57600080fd5b6000611de7612c17565b90506000815111611e075760405180602001604052806000815250611e35565b80611e1184612ca9565b6015604051602001611e2593929190614e00565b6040516020818303038152906040525b915050919050565b6000611e49601361290f565b905090565b611e56612302565b600d548111611e9a576040517f08c379a0000000000000000000000000000000000000000000000000000000008152600401611e9190614ea3565b60405180910390fd5b80600d8190555050565b60006008543414611eea576040517f08c379a0000000000000000000000000000000000000000000000000000000008152600401611ee19061414d565b60405180910390fd5b6000611ef6601461290f565b9050600d548110611f3c576040517f08c379a0000000000000000000000000000000000000000000000000000000008152600401611f3390614f0f565b60405180910390fd5b60005b83811015611f8757611f5a33611f55601461290f565b612380565b611f6c611f67601461290f565b61239e565b611f7660146124ae565b80611f809061423c565b9050611f3f565b5080915050919050565b6000600560008473ffffffffffffffffffffffffffffffffffffffff1673ffffffffffffffffffffffffffffffffffffffff16815260200190815260200160002060008373ffffffffffffffffffffffffffffffffffffffff1673ffffffffffffffffffffffffffffffffffffffff16815260200190815260200160002060009054906101000a900460ff16905092915050565b6000600854341461206b576040517f08c379a00000000000000000000000000000000000000000000000000000000081526004016120629061414d565b60405180910390fd5b600d54600954106120b1576040517f08c379a00000000000000000000000000000000000000000000000000000000081526004016120a890614f7b565b60405180910390fd5b60005b828110156120fe576120c833600954612380565b6120d360095461239e565b6001600960008282546120e69190614208565b92505081905550806120f79061423c565b90506120b4565b506009549050919050565b612111612302565b600073ffffffffffffffffffffffffffffffffffffffff168173ffffffffffffffffffffffffffffffffffffffff1603612180576040517f08c379a00000000000000000000000000000000000000000000000000000000081526004016121779061500d565b60405180910390fd5b6121898161291d565b50565b60007f01ffc9a7000000000000000000000000000000000000000000000000000000007bffffffffffffffffffffffffffffffffffffffffffffffffffffffff1916827bffffffffffffffffffffffffffffffffffffffffffffffffffffffff1916149050919050565b6121ff81612bab565b61223e576040517f08c379a000000000000000000000000000000000000000000000000000000000815260040161223590614ab9565b60405180910390fd5b50565b600033905090565b816004600083815260200190815260200160002060006101000a81548173ffffffffffffffffffffffffffffffffffffffff021916908373ffffffffffffffffffffffffffffffffffffffff160217905550808273ffffffffffffffffffffffffffffffffffffffff166122bc8361161c565b73ffffffffffffffffffffffffffffffffffffffff167f8c5be1e5ebec7d5bd14f71427d1e84f3dd0314c0f7b2291e5b200ac8c7c3b92560405160405180910390a45050565b61230a612241565b73ffffffffffffffffffffffffffffffffffffffff16612328611af0565b73ffffffffffffffffffffffffffffffffffffffff161461237e576040517f08c379a000000000000000000000000000000000000000000000000000000000815260040161237590615079565b60405180910390fd5b565b61239a828260405180602001604052806000815250612e09565b5050565b604051806080016040528082815260200160085481526020013373ffffffffffffffffffffffffffffffffffffffff1681526020016000151581525060186000838152602001908152602001600020600082015181600001556020820151816001015560408201518160020160006101000a81548173ffffffffffffffffffffffffffffffffffffffff021916908373ffffffffffffffffffffffffffffffffffffffff16021790555060608201518160020160146101000a81548160ff0219169083151502179055509050507f470031062672bc0246e132c723a729c4676710ec663a29e86c88678032daddea816008543360006040516124a39493929190613cb0565b60405180910390a150565b6001816000016000828254019250508190555050565b6000806124d08361161c565b90508073ffffffffffffffffffffffffffffffffffffffff168473ffffffffffffffffffffffffffffffffffffffff16148061251257506125118185611f91565b5b8061255057508373ffffffffffffffffffffffffffffffffffffffff1661253884610b6d565b73ffffffffffffffffffffffffffffffffffffffff16145b91505092915050565b8273ffffffffffffffffffffffffffffffffffffffff166125798261161c565b73ffffffffffffffffffffffffffffffffffffffff16146125cf576040517f08c379a00000000000000000000000000000000000000000000000000000000081526004016125c69061510b565b60405180910390fd5b600073ffffffffffffffffffffffffffffffffffffffff168273ffffffffffffffffffffffffffffffffffffffff160361263e576040517f08c379a00000000000000000000000000000000000000000000000000000000081526004016126359061519d565b60405180910390fd5b612649838383612e64565b612654600082612249565b6001600360008573ffffffffffffffffffffffffffffffffffffffff1673ffffffffffffffffffffffffffffffffffffffff16815260200190815260200160002060008282546126a491906151bd565b925050819055506001600360008473ffffffffffffffffffffffffffffffffffffffff1673ffffffffffffffffffffffffffffffffffffffff16815260200190815260200160002060008282546126fb9190614208565b92505081905550816002600083815260200190815260200160002060006101000a81548173ffffffffffffffffffffffffffffffffffffffff021916908373ffffffffffffffffffffffffffffffffffffffff160217905550808273ffffffffffffffffffffffffffffffffffffffff168473ffffffffffffffffffffffffffffffffffffffff167fddf252ad1be2c89b69c2b068fc378daa952ba7f163c4a11628f55a4df523b3ef60405160405180910390a46127ba838383612f76565b505050565b6000816000015490506000811161280b576040517f08c379a00000000000000000000000000000000000000000000000000000000081526004016128029061523d565b60405180910390fd5b6001810382600001819055505050565b8047101561285e576040517f08c379a0000000000000000000000000000000000000000000000000000000008152600401612855906152a9565b60405180910390fd5b60008273ffffffffffffffffffffffffffffffffffffffff1682604051612884906152fa565b60006040518083038185875af1925050503d80600081146128c1576040519150601f19603f3d011682016040523d82523d6000602084013e6128c6565b606091505b505090508061290a576040517f08c379a000000000000000000000000000000000000000000000000000000000815260040161290190615381565b60405180910390fd5b505050565b600081600001549050919050565b6000600760009054906101000a900473ffffffffffffffffffffffffffffffffffffffff16905081600760006101000a81548173ffffffffffffffffffffffffffffffffffffffff021916908373ffffffffffffffffffffffffffffffffffffffff1602179055508173ffffffffffffffffffffffffffffffffffffffff168173ffffffffffffffffffffffffffffffffffffffff167f8be0079c531659141344cd1fd0a4f28419497f9722a3daafe3b4186f6b6457e060405160405180910390a35050565b8173ffffffffffffffffffffffffffffffffffffffff168373ffffffffffffffffffffffffffffffffffffffff1603612a51576040517f08c379a0000000000000000000000000000000000000000000000000000000008152600401612a48906153ed565b60405180910390fd5b80600560008573ffffffffffffffffffffffffffffffffffffffff1673ffffffffffffffffffffffffffffffffffffffff16815260200190815260200160002060008473ffffffffffffffffffffffffffffffffffffffff1673ffffffffffffffffffffffffffffffffffffffff16815260200190815260200160002060006101000a81548160ff0219169083151502179055508173ffffffffffffffffffffffffffffffffffffffff168373ffffffffffffffffffffffffffffffffffffffff167f17307eab39ab6107e8899845ad3d59bd9653f200f220920489ca2b5937696c3183604051612b4291906136fd565b60405180910390a3505050565b612b5a848484612559565b612b6684848484612f7b565b612ba5576040517f08c379a0000000000000000000000000000000000000000000000000000000008152600401612b9c9061547f565b60405180910390fd5b50505050565b60008073ffffffffffffffffffffffffffffffffffffffff166002600084815260200190815260200160002060009054906101000a900473ffffffffffffffffffffffffffffffffffffffff1673ffffffffffffffffffffffffffffffffffffffff1614159050919050565b606060168054612c2690613ef4565b80601f0160208091040260200160405190810160405280929190818152602001828054612c5290613ef4565b8015612c9f5780601f10612c7457610100808354040283529160200191612c9f565b820191906000526020600020905b815481529060010190602001808311612c8257829003601f168201915b5050505050905090565b606060008203612cf0576040518060400160405280600181526020017f30000000000000000000000000000000000000000000000000000000000000008152509050612e04565b600082905060005b60008214612d22578080612d0b9061423c565b915050600a82612d1b91906154ce565b9150612cf8565b60008167ffffffffffffffff811115612d3e57612d3d613b0f565b5b6040519080825280601f01601f191660200182016040528015612d705781602001600182028036833780820191505090505b5090505b60008514612dfd57600182612d8991906151bd565b9150600a85612d9891906154ff565b6030612da49190614208565b60f81b818381518110612dba57612db9614656565b5b60200101907effffffffffffffffffffffffffffffffffffffffffffffffffffffffffffff1916908160001a905350600a85612df691906154ce565b9450612d74565b8093505050505b919050565b612e138383613102565b612e206000848484612f7b565b612e5f576040517f08c379a0000000000000000000000000000000000000000000000000000000008152600401612e569061547f565b60405180910390fd5b505050565b612e6f8383836132db565b600073ffffffffffffffffffffffffffffffffffffffff168373ffffffffffffffffffffffffffffffffffffffff1603612eb157612eac816132e0565b612ef0565b8173ffffffffffffffffffffffffffffffffffffffff168373ffffffffffffffffffffffffffffffffffffffff1614612eef57612eee8382613329565b5b5b600073ffffffffffffffffffffffffffffffffffffffff168273ffffffffffffffffffffffffffffffffffffffff1603612f3257612f2d81613496565b612f71565b8273ffffffffffffffffffffffffffffffffffffffff168273ffffffffffffffffffffffffffffffffffffffff1614612f7057612f6f8282613567565b5b5b505050565b505050565b6000612f9c8473ffffffffffffffffffffffffffffffffffffffff166135e6565b156130f5578373ffffffffffffffffffffffffffffffffffffffff1663150b7a02612fc5612241565b8786866040518563ffffffff1660e01b8152600401612fe79493929190615585565b6020604051808303816000875af192505050801561302357506040513d601f19601f8201168201806040525081019061302091906155e6565b60015b6130a5573d8060008114613053576040519150601f19603f3d011682016040523d82523d6000602084013e613058565b606091505b50600081510361309d576040517f08c379a00000000000000000000000000000000000000000000000000000000081526004016130949061547f565b60405180910390fd5b805181602001fd5b63150b7a0260e01b7bffffffffffffffffffffffffffffffffffffffffffffffffffffffff1916817bffffffffffffffffffffffffffffffffffffffffffffffffffffffff1916149150506130fa565b600190505b949350505050565b600073ffffffffffffffffffffffffffffffffffffffff168273ffffffffffffffffffffffffffffffffffffffff1603613171576040517f08c379a00000000000000000000000000000000000000000000000000000000081526004016131689061565f565b60405180910390fd5b61317a81612bab565b156131ba576040517f08c379a00000000000000000000000000000000000000000000000000000000081526004016131b1906156cb565b60405180910390fd5b6131c660008383612e64565b6001600360008473ffffffffffffffffffffffffffffffffffffffff1673ffffffffffffffffffffffffffffffffffffffff16815260200190815260200160002060008282546132169190614208565b92505081905550816002600083815260200190815260200160002060006101000a81548173ffffffffffffffffffffffffffffffffffffffff021916908373ffffffffffffffffffffffffffffffffffffffff160217905550808273ffffffffffffffffffffffffffffffffffffffff16600073ffffffffffffffffffffffffffffffffffffffff167fddf252ad1be2c89b69c2b068fc378daa952ba7f163c4a11628f55a4df523b3ef60405160405180910390a46132d760008383612f76565b5050565b505050565b601b80549050601c600083815260200190815260200160002081905550601b81908060018154018082558091505060019003906000526020600020016000909190919091505550565b60006001613336846116d5565b61334091906151bd565b90506000601a6000848152602001908152602001600020549050818114613425576000601960008673ffffffffffffffffffffffffffffffffffffffff1673ffffffffffffffffffffffffffffffffffffffff168152602001908152602001600020600084815260200190815260200160002054905080601960008773ffffffffffffffffffffffffffffffffffffffff1673ffffffffffffffffffffffffffffffffffffffff16815260200190815260200160002060008481526020019081526020016000208190555081601a600083815260200190815260200160002081905550505b601a600084815260200190815260200160002060009055601960008573ffffffffffffffffffffffffffffffffffffffff1673ffffffffffffffffffffffffffffffffffffffff16815260200190815260200160002060008381526020019081526020016000206000905550505050565b60006001601b805490506134aa91906151bd565b90506000601c60008481526020019081526020016000205490506000601b83815481106134da576134d9614656565b5b9060005260206000200154905080601b83815481106134fc576134fb614656565b5b906000526020600020018190555081601c600083815260200190815260200160002081905550601c600085815260200190815260200160002060009055601b80548061354b5761354a6156eb565b5b6001900381819060005260206000200160009055905550505050565b6000613572836116d5565b905081601960008573ffffffffffffffffffffffffffffffffffffffff1673ffffffffffffffffffffffffffffffffffffffff16815260200190815260200160002060008381526020019081526020016000208190555080601a600084815260200190815260200160002081905550505050565b6000808273ffffffffffffffffffffffffffffffffffffffff163b119050919050565b60405180608001604052806000815260200160008152602001600073ffffffffffffffffffffffffffffffffffffffff1681526020016000151581525090565b6000604051905090565b600080fd5b600080fd5b60007fffffffff0000000000000000000000000000000000000000000000000000000082169050919050565b6136928161365d565b811461369d57600080fd5b50565b6000813590506136af81613689565b92915050565b6000602082840312156136cb576136ca613653565b5b60006136d9848285016136a0565b91505092915050565b60008115159050919050565b6136f7816136e2565b82525050565b600060208201905061371260008301846136ee565b92915050565b600081519050919050565b600082825260208201905092915050565b60005b83811015613752578082015181840152602081019050613737565b60008484015250505050565b6000601f19601f8301169050919050565b600061377a82613718565b6137848185613723565b9350613794818560208601613734565b61379d8161375e565b840191505092915050565b600060208201905081810360008301526137c2818461376f565b905092915050565b6000819050919050565b6137dd816137ca565b81146137e857600080fd5b50565b6000813590506137fa816137d4565b92915050565b60006020828403121561381657613815613653565b5b6000613824848285016137eb565b91505092915050565b600073ffffffffffffffffffffffffffffffffffffffff82169050919050565b60006138588261382d565b9050919050565b6138688161384d565b82525050565b6000602082019050613883600083018461385f565b92915050565b6138928161384d565b811461389d57600080fd5b50565b6000813590506138af81613889565b92915050565b600080604083850312156138cc576138cb613653565b5b60006138da858286016138a0565b92505060206138eb858286016137eb565b9150509250929050565b6138fe816137ca565b82525050565b600060208201905061391960008301846138f5565b92915050565b6000806040838503121561393657613935613653565b5b6000613944858286016137eb565b9250506020613955858286016137eb565b9150509250929050565b60008060006060848603121561397857613977613653565b5b6000613986868287016138a0565b9350506020613997868287016138a0565b92505060406139a8868287016137eb565b9150509250925092565b600081519050919050565b600082825260208201905092915050565b6000819050602082019050919050565b6139e7816137ca565b82525050565b6139f68161384d565b82525050565b613a05816136e2565b82525050565b608082016000820151613a2160008501826139de565b506020820151613a3460208501826139de565b506040820151613a4760408501826139ed565b506060820151613a5a60608501826139fc565b50505050565b6000613a6c8383613a0b565b60808301905092915050565b6000602082019050919050565b6000613a90826139b2565b613a9a81856139bd565b9350613aa5836139ce565b8060005b83811015613ad6578151613abd8882613a60565b9750613ac883613a78565b925050600181019050613aa9565b5085935050505092915050565b60006020820190508181036000830152613afd8184613a85565b905092915050565b600080fd5b600080fd5b7f4e487b7100000000000000000000000000000000000000000000000000000000600052604160045260246000fd5b613b478261375e565b810181811067ffffffffffffffff82111715613b6657613b65613b0f565b5b80604052505050565b6000613b79613649565b9050613b858282613b3e565b919050565b600067ffffffffffffffff821115613ba557613ba4613b0f565b5b613bae8261375e565b9050602081019050919050565b82818337600083830152505050565b6000613bdd613bd884613b8a565b613b6f565b905082815260208101848484011115613bf957613bf8613b0a565b5b613c04848285613bbb565b509392505050565b600082601f830112613c2157613c20613b05565b5b8135613c31848260208601613bca565b91505092915050565b600060208284031215613c5057613c4f613653565b5b600082013567ffffffffffffffff811115613c6e57613c6d613658565b5b613c7a84828501613c0c565b91505092915050565b600060208284031215613c9957613c98613653565b5b6000613ca7848285016138a0565b91505092915050565b6000608082019050613cc560008301876138f5565b613cd260208301866138f5565b613cdf604083018561385f565b613cec60608301846136ee565b95945050505050565b613cfe816136e2565b8114613d0957600080fd5b50565b600081359050613d1b81613cf5565b92915050565b60008060408385031215613d3857613d37613653565b5b6000613d46858286016138a0565b9250506020613d5785828601613d0c565b9150509250929050565b600067ffffffffffffffff821115613d7c57613d7b613b0f565b5b613d858261375e565b9050602081019050919050565b6000613da5613da084613d61565b613b6f565b905082815260208101848484011115613dc157613dc0613b0a565b5b613dcc848285613bbb565b509392505050565b600082601f830112613de957613de8613b05565b5b8135613df9848260208601613d92565b91505092915050565b60008060008060808587031215613e1c57613e1b613653565b5b6000613e2a878288016138a0565b9450506020613e3b878288016138a0565b9350506040613e4c878288016137eb565b925050606085013567ffffffffffffffff811115613e6d57613e6c613658565b5b613e7987828801613dd4565b91505092959194509250565b60008060408385031215613e9c57613e9b613653565b5b6000613eaa858286016138a0565b9250506020613ebb858286016138a0565b9150509250929050565b7f4e487b7100000000000000000000000000000000000000000000000000000000600052602260045260246000fd5b60006002820490506001821680613f0c57607f821691505b602082108103613f1f57613f1e613ec5565b5b50919050565b7f4552433732313a20617070726f76616c20746f2063757272656e74206f776e6560008201527f7200000000000000000000000000000000000000000000000000000000000000602082015250565b6000613f81602183613723565b9150613f8c82613f25565b604082019050919050565b60006020820190508181036000830152613fb081613f74565b9050919050565b7f4552433732313a20617070726f76652063616c6c6572206973206e6f7420746f60008201527f6b656e206f776e6572206e6f7220617070726f76656420666f7220616c6c0000602082015250565b6000614013603e83613723565b915061401e82613fb7565b604082019050919050565b6000602082019050818103600083015261404281614006565b9050919050565b7f74686520616d6f756e74206f6620666c7566666c7973206d757374206265206760008201527f726561746572207468616e20746865206578697374696e67206f6e6500000000602082015250565b60006140a5603c83613723565b91506140b082614049565b604082019050919050565b600060208201905081810360008301526140d481614098565b9050919050565b7f5072696365206d75737420626520657175616c20746f206c697374696e67207060008201527f7269636500000000000000000000000000000000000000000000000000000000602082015250565b6000614137602483613723565b9150614142826140db565b604082019050919050565b600060208201905081810360008301526141668161412a565b9050919050565b7f4d617820466c75666679204e667473204d696e74656400000000000000000000600082015250565b60006141a3601683613723565b91506141ae8261416d565b602082019050919050565b600060208201905081810360008301526141d281614196565b9050919050565b7f4e487b7100000000000000000000000000000000000000000000000000000000600052601160045260246000fd5b6000614213826137ca565b915061421e836137ca565b9250828201905080821115614236576142356141d9565b5b92915050565b6000614247826137ca565b91507fffffffffffffffffffffffffffffffffffffffffffffffffffffffffffffffff8203614279576142786141d9565b5b600182019050919050565b7f596f7520617265206e6f74206f776e6572206f662074686973206e6674000000600082015250565b60006142ba601d83613723565b91506142c582614284565b602082019050919050565b600060208201905081810360008301526142e9816142ad565b9050919050565b7f4974656d20697320616c7265616479206f6e2073616c65000000000000000000600082015250565b6000614326601783613723565b9150614331826142f0565b602082019050919050565b6000602082019050818103600083015261435581614319565b9050919050565b7f4552433732313a2063616c6c6572206973206e6f7420746f6b656e206f776e6560008201527f72206e6f7220617070726f766564000000000000000000000000000000000000602082015250565b60006143b8602e83613723565b91506143c38261435c565b604082019050919050565b600060208201905081810360008301526143e7816143ab565b9050919050565b7f74686520616d6f756e74206f6620617175616e73206d7573742062652067726560008201527f61746572207468616e20746865206578697374696e67206f6e65000000000000602082015250565b600061444a603a83613723565b9150614455826143ee565b604082019050919050565b600060208201905081810360008301526144798161443d565b9050919050565b7f596f7520616c7265616479206f776e2074686973204e46540000000000000000600082015250565b60006144b6601883613723565b91506144c182614480565b602082019050919050565b600060208201905081810360008301526144e5816144a9565b9050919050565b7f506c65617365207375626d6974207468652061736b696e672070726963650000600082015250565b6000614522601e83613723565b915061452d826144ec565b602082019050919050565b6000602082019050818103600083015261455181614515565b9050919050565b7f74686520616d6f756e74206f6620616c75666973206d7573742062652067726560008201527f61746572207468616e20746865206578697374696e67206f6e65000000000000602082015250565b60006145b4603a83613723565b91506145bf82614558565b604082019050919050565b600060208201905081810360008301526145e3816145a7565b9050919050565b7f496e646578206f7574206f6620626f756e647300000000000000000000000000600082015250565b6000614620601383613723565b915061462b826145ea565b602082019050919050565b6000602082019050818103600083015261464f81614613565b9050919050565b7f4e487b7100000000000000000000000000000000000000000000000000000000600052603260045260246000fd5b7f4e6f2066756e647320617661696c61626c650000000000000000000000000000600082015250565b60006146bb601283613723565b91506146c682614685565b602082019050919050565b600060208201905081810360008301526146ea816146ae565b9050919050565b7f74686520616d6f756e74206f6620676f6c656d73206d7573742062652067726560008201527f61746572207468616e20746865206578697374696e67206f6e65000000000000602082015250565b600061474d603a83613723565b9150614758826146f1565b604082019050919050565b6000602082019050818103600083015261477c81614740565b9050919050565b60008190508160005260206000209050919050565b60006020601f8301049050919050565b600082821b905092915050565b6000600883026147e57fffffffffffffffffffffffffffffffffffffffffffffffffffffffffffffffff826147a8565b6147ef86836147a8565b95508019841693508086168417925050509392505050565b6000819050919050565b600061482c614827614822846137ca565b614807565b6137ca565b9050919050565b6000819050919050565b61484683614811565b61485a61485282614833565b8484546147b5565b825550505050565b600090565b61486f614862565b61487a81848461483d565b505050565b5b8181101561489e57614893600082614867565b600181019050614880565b5050565b601f8211156148e3576148b481614783565b6148bd84614798565b810160208510156148cc578190505b6148e06148d885614798565b83018261487f565b50505b505050565b600082821c905092915050565b6000614906600019846008026148e8565b1980831691505092915050565b600061491f83836148f5565b9150826002028217905092915050565b61493882613718565b67ffffffffffffffff81111561495157614950613b0f565b5b61495b8254613ef4565b6149668282856148a2565b600060209050601f8311600181146149995760008415614987578287015190505b6149918582614913565b8655506149f9565b601f1984166149a786614783565b60005b828110156149cf578489015182556001820191506020850194506020810190506149aa565b868310156149ec57848901516149e8601f8916826148f5565b8355505b6001600288020188555050505b505050505050565b7f4d61782041717561204e667473204d696e746564000000000000000000000000600082015250565b6000614a37601483613723565b9150614a4282614a01565b602082019050919050565b60006020820190508181036000830152614a6681614a2a565b9050919050565b7f4552433732313a20696e76616c696420746f6b656e2049440000000000000000600082015250565b6000614aa3601883613723565b9150614aae82614a6d565b602082019050919050565b60006020820190508181036000830152614ad281614a96565b9050919050565b7f4552433732313a2061646472657373207a65726f206973206e6f74206120766160008201527f6c6964206f776e65720000000000000000000000000000000000000000000000602082015250565b6000614b35602983613723565b9150614b4082614ad9565b604082019050919050565b60006020820190508181036000830152614b6481614b28565b9050919050565b7f74686520616d6f756e74206f6620656c666f73206d757374206265206772656160008201527f746572207468616e20746865206578697374696e67206f6e6500000000000000602082015250565b6000614bc7603983613723565b9150614bd282614b6b565b604082019050919050565b60006020820190508181036000830152614bf681614bba565b9050919050565b7f5072696365206d757374206265206174206c6561737420312077656900000000600082015250565b6000614c33601c83613723565b9150614c3e82614bfd565b602082019050919050565b60006020820190508181036000830152614c6281614c26565b9050919050565b7f4d617820416c75666973204e667473204d696e74656400000000000000000000600082015250565b6000614c9f601683613723565b9150614caa82614c69565b602082019050919050565b60006020820190508181036000830152614cce81614c92565b9050919050565b7f4d617820456c666f73204e667473204d696e7465640000000000000000000000600082015250565b6000614d0b601583613723565b9150614d1682614cd5565b602082019050919050565b60006020820190508181036000830152614d3a81614cfe565b9050919050565b600081905092915050565b6000614d5782613718565b614d618185614d41565b9350614d71818560208601613734565b80840191505092915050565b60008154614d8a81613ef4565b614d948186614d41565b94506001821660008114614daf5760018114614dc457614df7565b60ff1983168652811515820286019350614df7565b614dcd85614783565b60005b83811015614def57815481890152600182019150602081019050614dd0565b838801955050505b50505092915050565b6000614e0c8286614d4c565b9150614e188285614d4c565b9150614e248284614d7d565b9150819050949350505050565b7f74686520616d6f756e74206f6620666f787973206d757374206265206772656160008201527f746572207468616e20746865206578697374696e67206f6e6500000000000000602082015250565b6000614e8d603983613723565b9150614e9882614e31565b604082019050919050565b60006020820190508181036000830152614ebc81614e80565b9050919050565b7f4d617820476f6c656d73204e667473204d696e74656400000000000000000000600082015250565b6000614ef9601683613723565b9150614f0482614ec3565b602082019050919050565b60006020820190508181036000830152614f2881614eec565b9050919050565b7f4d617820466f787973204e667473204d696e7465640000000000000000000000600082015250565b6000614f65601583613723565b9150614f7082614f2f565b602082019050919050565b60006020820190508181036000830152614f9481614f58565b9050919050565b7f4f776e61626c653a206e6577206f776e657220697320746865207a65726f206160008201527f6464726573730000000000000000000000000000000000000000000000000000602082015250565b6000614ff7602683613723565b915061500282614f9b565b604082019050919050565b6000602082019050818103600083015261502681614fea565b9050919050565b7f4f776e61626c653a2063616c6c6572206973206e6f7420746865206f776e6572600082015250565b6000615063602083613723565b915061506e8261502d565b602082019050919050565b6000602082019050818103600083015261509281615056565b9050919050565b7f4552433732313a207472616e736665722066726f6d20696e636f72726563742060008201527f6f776e6572000000000000000000000000000000000000000000000000000000602082015250565b60006150f5602583613723565b915061510082615099565b604082019050919050565b60006020820190508181036000830152615124816150e8565b9050919050565b7f4552433732313a207472616e7366657220746f20746865207a65726f2061646460008201527f7265737300000000000000000000000000000000000000000000000000000000602082015250565b6000615187602483613723565b91506151928261512b565b604082019050919050565b600060208201905081810360008301526151b68161517a565b9050919050565b60006151c8826137ca565b91506151d3836137ca565b92508282039050818111156151eb576151ea6141d9565b5b92915050565b7f436f756e7465723a2064656372656d656e74206f766572666c6f770000000000600082015250565b6000615227601b83613723565b9150615232826151f1565b602082019050919050565b600060208201905081810360008301526152568161521a565b9050919050565b7f416464726573733a20696e73756666696369656e742062616c616e6365000000600082015250565b6000615293601d83613723565b915061529e8261525d565b602082019050919050565b600060208201905081810360008301526152c281615286565b9050919050565b600081905092915050565b50565b60006152e46000836152c9565b91506152ef826152d4565b600082019050919050565b6000615305826152d7565b9150819050919050565b7f416464726573733a20756e61626c6520746f2073656e642076616c75652c207260008201527f6563697069656e74206d61792068617665207265766572746564000000000000602082015250565b600061536b603a83613723565b91506153768261530f565b604082019050919050565b6000602082019050818103600083015261539a8161535e565b9050919050565b7f4552433732313a20617070726f766520746f2063616c6c657200000000000000600082015250565b60006153d7601983613723565b91506153e2826153a1565b602082019050919050565b60006020820190508181036000830152615406816153ca565b9050919050565b7f4552433732313a207472616e7366657220746f206e6f6e20455243373231526560008201527f63656976657220696d706c656d656e7465720000000000000000000000000000602082015250565b6000615469603283613723565b91506154748261540d565b604082019050919050565b600060208201905081810360008301526154988161545c565b9050919050565b7f4e487b7100000000000000000000000000000000000000000000000000000000600052601260045260246000fd5b60006154d9826137ca565b91506154e4836137ca565b9250826154f4576154f361549f565b5b828204905092915050565b600061550a826137ca565b9150615515836137ca565b9250826155255761552461549f565b5b828206905092915050565b600081519050919050565b600082825260208201905092915050565b600061555782615530565b615561818561553b565b9350615571818560208601613734565b61557a8161375e565b840191505092915050565b600060808201905061559a600083018761385f565b6155a7602083018661385f565b6155b460408301856138f5565b81810360608301526155c6818461554c565b905095945050505050565b6000815190506155e081613689565b92915050565b6000602082840312156155fc576155fb613653565b5b600061560a848285016155d1565b91505092915050565b7f4552433732313a206d696e7420746f20746865207a65726f2061646472657373600082015250565b6000615649602083613723565b915061565482615613565b602082019050919050565b600060208201905081810360008301526156788161563c565b9050919050565b7f4552433732313a20746f6b656e20616c7265616479206d696e74656400000000600082015250565b60006156b5601c83613723565b91506156c08261567f565b602082019050919050565b600060208201905081810360008301526156e4816156a8565b9050919050565b7f4e487b7100000000000000000000000000000000000000000000000000000000600052603160045260246000fdfea2646970667358221220a34a00f7b1927d66409728d71388181db0ee0b8a6edf6e8b62b1dac4b90e0d2f64736f6c63430008100033",
  "immutableReferences": {},
  "source": "// SPDX-License-Identifier: MIT\r\npragma solidity >=0.4.22 <0.9.0;\r\n\r\nimport \"@openzeppelin/contracts/token/ERC721/extensions/ERC721URIStorage.sol\";\r\nimport \"@openzeppelin/contracts/utils/Counters.sol\";\r\nimport \"@openzeppelin/contracts/utils/Address.sol\";\r\nimport \"@openzeppelin/contracts/access/Ownable.sol\";\r\n\r\ncontract NftMarket is ERC721URIStorage, Ownable {\r\n    using Counters for Counters.Counter;\r\n    using Strings for uint256;\r\n    using Address for address;\r\n\r\n    struct NftItem {\r\n        uint256 tokenId;\r\n        uint256 price;\r\n        address creator;\r\n        bool isListed;\r\n    }\r\n\r\n    uint256 public listingPrice = 0.25 ether;\r\n    uint256 private TokenIdFoxy = 0;\r\n    uint256 private TokenIdAlufi = 8;\r\n    uint256 private TokenIdAqua = 16;\r\n    uint256 private TokenIdFluffy = 24;\r\n    \r\n    uint256 private maxFoxy = 7;\r\n    uint256 private maxAlufi = 15;\r\n    uint256 private maxAquans = 23;\r\n    uint256 private maxFluffys= 31;\r\n    uint256 private maxGolems= 10000;\r\n    uint256 private maxElfos= 12000;\r\n\r\n    \r\n    Counters.Counter private _listedItems;\r\n    Counters.Counter private _tokenIds;\r\n\r\n\r\n    string private baseExtension = \".json\";\r\n    string private baseURI;\r\n\r\n    mapping(string => bool) private _usedTokenURIs;\r\n    mapping(uint256 => NftItem) public _idToNftItem;\r\n\r\n    mapping(address => mapping(uint256 => uint256)) private _ownedTokens;\r\n    mapping(uint256 => uint256) private _idToOwnedIndex;\r\n\r\n    uint256[] private _allNfts;\r\n\r\n    mapping(uint256 => uint256) private _idToNftIndex;\r\n\r\n    event NftItemCreated(\r\n        uint256 tokenId,\r\n        uint256 price,\r\n        address creator,\r\n        bool isListed\r\n    );\r\n\r\n    constructor() ERC721(\"ElfNFT\", \"ENFT\") {\r\n       \r\n    }\r\n\r\n     function setMaxFoxys(uint newMaxFoxy) external onlyOwner {\r\n     require(newMaxFoxy > maxFoxy, \"the amount of foxys must be greater than the existing one\");\r\n     maxFoxy = newMaxFoxy;\r\n    }\r\n\r\n      function setMaxAquans(uint newMaxAquan) external onlyOwner {\r\n     require(newMaxAquan > maxAquans, \"the amount of aquans must be greater than the existing one\");\r\n     maxAquans = newMaxAquan;\r\n    }\r\n\r\n      function setMaxAlufis(uint newMaxAlufis) external onlyOwner {\r\n     require(newMaxAlufis > maxAlufi, \"the amount of alufis must be greater than the existing one\");\r\n     maxAlufi = newMaxAlufis;\r\n    }\r\n\r\n    function setMaxFluffys(uint newMaxFluffys) external onlyOwner {\r\n     require(newMaxFluffys > maxFluffys, \"the amount of flufflys must be greater than the existing one\");\r\n     maxFluffys = newMaxFluffys;\r\n    }\r\n\r\n    function setMaxGolems(uint newMaxGolems) external onlyOwner {\r\n     require(newMaxGolems > maxGolems, \"the amount of golems must be greater than the existing one\");\r\n     maxGolems = newMaxGolems;\r\n    }\r\n\r\n    function setMaxElfos(uint newMaxElfos) external onlyOwner {\r\n     require(newMaxElfos > maxElfos, \"the amount of elfos must be greater than the existing one\");\r\n     maxElfos = newMaxElfos;\r\n    }\r\n\r\n    function setListingPrice(uint newPrice) external onlyOwner {\r\n     require(newPrice > 0, \"Price must be at least 1 wei\");\r\n     listingPrice = newPrice;\r\n    }\r\n\r\n    function withdraw() external onlyOwner{\r\n     uint256 amount = address(this).balance;\r\n     require(amount > 0, \"No funds available\");\r\n     address principal = (0x1e8dd1acB4D121d1a30B7B9bb709F2FDaf041Cc2);\r\n     Address.sendValue(payable(principal), amount);\r\n     \r\n    }\r\n\r\n    function getBalanceContract() public view returns(uint) {\r\n        return address(this).balance;\r\n    }\r\n\r\n    function listedItemsCount() public view returns (uint256) {\r\n        return _listedItems.current();\r\n    }\r\n\r\n    function totalSupply() public view returns (uint256) {\r\n        return _allNfts.length;\r\n    }\r\n    \r\n\r\n    function setBaseURI(string memory _newBaseURI) public onlyOwner {\r\n        baseURI = _newBaseURI;\r\n     }\r\n\r\n     function _baseURI() internal view virtual override returns (string memory) {\r\n        return baseURI;\r\n    }\r\n\r\n    function tokenByIndex(uint256 index) public view returns (uint256) {\r\n        require(index < totalSupply(), \"Index out of bounds\");\r\n        return _allNfts[index];\r\n    }\r\n\r\n    function tokenOfOwnerByIndex(address owner, uint256 index)\r\n        public\r\n        view\r\n        returns (uint256)\r\n    {\r\n        require(index < ERC721.balanceOf(owner), \"Index out of bounds\");\r\n        return _ownedTokens[owner][index];\r\n    }\r\n\r\n    function getAllNftsOnSale() public view returns (NftItem[] memory) {\r\n        uint256 allItemsCounts = totalSupply();\r\n        uint256 currentIndex = 0;\r\n        NftItem[] memory items = new NftItem[](_listedItems.current());\r\n\r\n        for (uint256 i = 0; i < allItemsCounts; i++) {\r\n            uint256 tokenId = tokenByIndex(i);\r\n            NftItem storage item = _idToNftItem[tokenId];\r\n\r\n            if (item.isListed == true) {\r\n                items[currentIndex] = item;\r\n                currentIndex += 1;\r\n            }\r\n        }\r\n\r\n        return items;\r\n    }\r\n\r\n    function getOwnedNfts() public view returns (NftItem[] memory) {\r\n        uint256 ownedItemsCount = ERC721.balanceOf(msg.sender);\r\n        NftItem[] memory items = new NftItem[](ownedItemsCount);\r\n\r\n        for (uint256 i = 0; i < ownedItemsCount; i++) {\r\n            uint256 tokenId = tokenOfOwnerByIndex(msg.sender, i);\r\n            NftItem storage item = _idToNftItem[tokenId];\r\n            items[i] = item;\r\n        }\r\n\r\n        return items;\r\n    }\r\n\r\n     \r\n\r\n    function foxyBuy(uint amount)\r\n        public\r\n        payable\r\n        returns (uint256)\r\n    {\r\n        \r\n        require(\r\n            msg.value == listingPrice,\r\n            \"Price must be equal to listing price\"\r\n        );\r\n\r\n        require(TokenIdFoxy < maxFoxy, \"Max Foxys Nfts Minted\");     \r\n         for( uint i = 0; i < amount; ++i ){\r\n        _safeMint(msg.sender, TokenIdFoxy);\r\n        _createNftItem(TokenIdFoxy);\r\n         TokenIdFoxy += 1;\r\n     }      \r\n           \r\n        return TokenIdFoxy;\r\n    }\r\n\r\n    function alufiBuy(uint amount)\r\n        public\r\n        payable\r\n        returns (uint256)\r\n    {\r\n        \r\n        require(\r\n            msg.value == listingPrice,\r\n            \"Price must be equal to listing price\"\r\n        );       \r\n\r\n        require(TokenIdAlufi < maxAlufi, \"Max Alufis Nfts Minted\");     \r\n         for( uint i = 0; i < amount; ++i ){\r\n        _safeMint(msg.sender, TokenIdAlufi);\r\n        _createNftItem(TokenIdAlufi);\r\n        TokenIdAlufi += 1;\r\n     }      \r\n           \r\n        return TokenIdAlufi;\r\n    }\r\n\r\n    function aquanBuy(uint amount)\r\n        public\r\n        payable\r\n        returns (uint256)\r\n    {\r\n        \r\n        require(\r\n            msg.value == listingPrice,\r\n            \"Price must be equal to listing price\"\r\n        );       \r\n\r\n        require(TokenIdAqua < maxAquans, \"Max Aqua Nfts Minted\");     \r\n         for( uint i = 0; i < amount; ++i ){\r\n        _safeMint(msg.sender, TokenIdAqua);\r\n        _createNftItem(TokenIdAqua);\r\n        TokenIdAqua += 1;\r\n     }      \r\n           \r\n        return TokenIdAqua;\r\n    }\r\n\r\n    function fluffyBuy(uint amount)\r\n        public\r\n        payable\r\n        returns (uint256)\r\n    {\r\n        \r\n        require(\r\n            msg.value == listingPrice,\r\n            \"Price must be equal to listing price\"\r\n        );       \r\n\r\n        require(TokenIdFluffy < maxFluffys, \"Max Fluffy Nfts Minted\");     \r\n         for( uint i = 0; i < amount; ++i ){\r\n        _safeMint(msg.sender, TokenIdFluffy);\r\n        _createNftItem(TokenIdFluffy);\r\n        TokenIdFluffy += 1;\r\n     }      \r\n           \r\n        return TokenIdFluffy;\r\n    }\r\n\r\n        function golemBuy(uint amount)\r\n            public\r\n            payable\r\n            returns (uint256)\r\n        {\r\n            \r\n            require(\r\n                msg.value == listingPrice,\r\n                \"Price must be equal to listing price\"\r\n            );          \r\n\r\n         uint256 newTokenId = _tokenIds.current();\r\n\r\n        require(newTokenId < maxFoxy, \"Max Golems Nfts Minted\");     \r\n         for( uint i = 0; i < amount; ++i ){\r\n        _safeMint(msg.sender, _tokenIds.current());\r\n        _createNftItem(_tokenIds.current());\r\n        _tokenIds.increment();\r\n        }      \r\n            \r\n            return newTokenId;\r\n        }\r\n\r\n        function elfoBuy(uint amount)\r\n            public\r\n            payable\r\n            returns (uint256)\r\n        {\r\n            \r\n            require(\r\n                msg.value == listingPrice,\r\n                \"Price must be equal to listing price\"\r\n            );\r\n                \r\n            uint256 newTokenId = _tokenIds.current();\r\n\r\n            require(newTokenId < maxFoxy, \"Max Elfos Nfts Minted\");     \r\n            for( uint i = 0; i < amount; ++i ){\r\n            _safeMint(msg.sender, _tokenIds.current());\r\n            _createNftItem(_tokenIds.current());\r\n            _tokenIds.increment();\r\n        }      \r\n            \r\n            return newTokenId;\r\n        }\r\n\r\n    function tokenURI(uint256 tokenId)\r\n        public\r\n        view\r\n        override\r\n        returns (string memory)\r\n    {\r\n        require(\r\n            _exists(tokenId)\r\n            );\r\n\r\n           string memory currentBaseURI = _baseURI();\r\n         return\r\n            bytes(currentBaseURI).length > 0\r\n                ? string(\r\n                    abi.encodePacked(\r\n                        currentBaseURI, \r\n                        tokenId.toString(), \r\n                        baseExtension \r\n                    ) \r\n                )\r\n                : \"\";\r\n\r\n    }\r\n\r\n    function buyNft(uint256 tokenId) public payable {\r\n        uint256 price = _idToNftItem[tokenId].price;\r\n        address owner = ERC721.ownerOf(tokenId);\r\n\r\n        require(msg.sender != owner, \"You already own this NFT\");\r\n        require(msg.value == price, \"Please submit the asking price\");\r\n\r\n        _idToNftItem[tokenId].isListed = false;\r\n        _listedItems.decrement();\r\n\r\n        _transfer(owner, msg.sender, tokenId);\r\n        Address.sendValue(payable(owner), msg.value);\r\n        \r\n    }\r\n\r\n     function cancellSellNft(uint256 tokenId) public  {\r\n        \r\n    require(ERC721.ownerOf(tokenId) == msg.sender, \"You are not owner of this nft\");\r\n        \r\n    _idToNftItem[tokenId].isListed = false;\r\n    _listedItems.decrement();\r\n     \r\n    }\r\n\r\n    function placeNftOnSale(uint tokenId, uint newPrice) public payable {\r\n    require(ERC721.ownerOf(tokenId) == msg.sender, \"You are not owner of this nft\");\r\n    require(_idToNftItem[tokenId].isListed == false, \"Item is already on sale\");\r\n    \r\n\r\n    _idToNftItem[tokenId].isListed = true;\r\n    _idToNftItem[tokenId].price = newPrice;\r\n    _listedItems.increment();\r\n  }\r\n\r\n    function _createNftItem(uint256 tokenId) private {\r\n\r\n        _idToNftItem[tokenId] = NftItem(tokenId, listingPrice, msg.sender, false);\r\n\r\n        emit NftItemCreated(tokenId, listingPrice, msg.sender, false);\r\n    }\r\n\r\n    function _beforeTokenTransfer(\r\n        address from,\r\n        address to,\r\n        uint256 tokenId\r\n    ) internal virtual override {\r\n        super._beforeTokenTransfer(from, to, tokenId);\r\n\r\n        // minting token\r\n        if (from == address(0)) {\r\n            _addTokenToAllTokensEnumeration(tokenId);\r\n        } else if (from != to) {\r\n            _removeTokenFromOwnerEnumeration(from, tokenId);\r\n        }\r\n        if (to == address(0)) {\r\n            _removeTokenFromAllTokensEnumeration(tokenId);\r\n        } else if (to != from) {\r\n            _addTokenToOwnerEnumaretion(to, tokenId);\r\n        }\r\n    }\r\n\r\n    function _addTokenToAllTokensEnumeration(uint256 tokenId) private {\r\n        _idToNftIndex[tokenId] = _allNfts.length;\r\n        _allNfts.push(tokenId);\r\n    }\r\n\r\n    function _addTokenToOwnerEnumaretion(address to, uint256 tokenId) private {\r\n        uint256 length = ERC721.balanceOf(to);\r\n        _ownedTokens[to][length] = tokenId;\r\n        _idToOwnedIndex[tokenId] = length;\r\n    }\r\n\r\n    function _removeTokenFromOwnerEnumeration(address from, uint256 tokenId)\r\n        private\r\n    {\r\n        uint256 lastTokenIndex = ERC721.balanceOf(from) - 1;\r\n        uint256 tokenIndex = _idToOwnedIndex[tokenId];\r\n\r\n        if (tokenIndex != lastTokenIndex) {\r\n            uint256 lastTokenId = _ownedTokens[from][lastTokenIndex];\r\n\r\n            _ownedTokens[from][tokenIndex] = lastTokenId;\r\n            _idToOwnedIndex[lastTokenId] = tokenIndex;\r\n        }\r\n\r\n        delete _idToOwnedIndex[tokenId];\r\n        delete _ownedTokens[from][lastTokenIndex];\r\n    }\r\n\r\n    function _removeTokenFromAllTokensEnumeration(uint tokenId) private {\r\n    uint lastTokenIndex = _allNfts.length - 1;\r\n    uint tokenIndex = _idToNftIndex[tokenId];\r\n    uint lastTokenId = _allNfts[lastTokenIndex];\r\n\r\n    _allNfts[tokenIndex] = lastTokenId;\r\n    _idToNftIndex[lastTokenId] = tokenIndex;\r\n\r\n    delete _idToNftIndex[tokenId];\r\n    _allNfts.pop();\r\n  }\r\n\r\n}\r\n",
  "sourcePath": "C:\\Users\\nahue\\OneDrive\\Escritorio\\marketplace\\nft-marketplace\\contracts\\NftMarket.sol",
  "compiler": {
    "name": "solc",
    "version": "0.8.16+commit.07a7930e.Emscripten.clang"
  },
  "schemaVersion": "3.4.9",
  "updatedAt": "2022-09-14T00:05:49.544Z",
  "networkType": "ethereum",
  "devdoc": {
    "kind": "dev",
    "methods": {
      "approve(address,uint256)": {
        "details": "See {IERC721-approve}."
      },
      "balanceOf(address)": {
        "details": "See {IERC721-balanceOf}."
      },
      "getApproved(uint256)": {
        "details": "See {IERC721-getApproved}."
      },
      "isApprovedForAll(address,address)": {
        "details": "See {IERC721-isApprovedForAll}."
      },
      "name()": {
        "details": "See {IERC721Metadata-name}."
      },
      "owner()": {
        "details": "Returns the address of the current owner."
      },
      "ownerOf(uint256)": {
        "details": "See {IERC721-ownerOf}."
      },
      "renounceOwnership()": {
        "details": "Leaves the contract without owner. It will not be possible to call `onlyOwner` functions anymore. Can only be called by the current owner. NOTE: Renouncing ownership will leave the contract without an owner, thereby removing any functionality that is only available to the owner."
      },
      "safeTransferFrom(address,address,uint256)": {
        "details": "See {IERC721-safeTransferFrom}."
      },
      "safeTransferFrom(address,address,uint256,bytes)": {
        "details": "See {IERC721-safeTransferFrom}."
      },
      "setApprovalForAll(address,bool)": {
        "details": "See {IERC721-setApprovalForAll}."
      },
      "supportsInterface(bytes4)": {
        "details": "See {IERC165-supportsInterface}."
      },
      "symbol()": {
        "details": "See {IERC721Metadata-symbol}."
      },
      "tokenURI(uint256)": {
        "details": "See {IERC721Metadata-tokenURI}."
      },
      "transferFrom(address,address,uint256)": {
        "details": "See {IERC721-transferFrom}."
      },
      "transferOwnership(address)": {
        "details": "Transfers ownership of the contract to a new account (`newOwner`). Can only be called by the current owner."
      }
    },
    "version": 1
  },
  "userdoc": {
    "kind": "user",
    "methods": {},
    "version": 1
  }
}