{
  "contractName": "NftMarketSeconds",
  "abi": [
    {
      "inputs": [],
      "stateMutability": "nonpayable",
      "type": "constructor"
    },
    {
      "anonymous": false,
      "inputs": [
        {
          "indexed": true,
          "internalType": "address",
          "name": "owner",
          "type": "address"
        },
        {
          "indexed": true,
          "internalType": "address",
          "name": "approved",
          "type": "address"
        },
        {
          "indexed": true,
          "internalType": "uint256",
          "name": "tokenId",
          "type": "uint256"
        }
      ],
      "name": "Approval",
      "type": "event"
    },
    {
      "anonymous": false,
      "inputs": [
        {
          "indexed": true,
          "internalType": "address",
          "name": "owner",
          "type": "address"
        },
        {
          "indexed": true,
          "internalType": "address",
          "name": "operator",
          "type": "address"
        },
        {
          "indexed": false,
          "internalType": "bool",
          "name": "approved",
          "type": "bool"
        }
      ],
      "name": "ApprovalForAll",
      "type": "event"
    },
    {
      "anonymous": false,
      "inputs": [
        {
          "indexed": false,
          "internalType": "uint256",
          "name": "tokenId",
          "type": "uint256"
        },
        {
          "indexed": false,
          "internalType": "uint256",
          "name": "price",
          "type": "uint256"
        },
        {
          "indexed": false,
          "internalType": "address",
          "name": "creator",
          "type": "address"
        },
        {
          "indexed": false,
          "internalType": "bool",
          "name": "isListed",
          "type": "bool"
        }
      ],
      "name": "NftItemCreated",
      "type": "event"
    },
    {
      "anonymous": false,
      "inputs": [
        {
          "indexed": true,
          "internalType": "address",
          "name": "previousOwner",
          "type": "address"
        },
        {
          "indexed": true,
          "internalType": "address",
          "name": "newOwner",
          "type": "address"
        }
      ],
      "name": "OwnershipTransferred",
      "type": "event"
    },
    {
      "anonymous": false,
      "inputs": [
        {
          "indexed": true,
          "internalType": "address",
          "name": "from",
          "type": "address"
        },
        {
          "indexed": true,
          "internalType": "address",
          "name": "to",
          "type": "address"
        },
        {
          "indexed": true,
          "internalType": "uint256",
          "name": "tokenId",
          "type": "uint256"
        }
      ],
      "name": "Transfer",
      "type": "event"
    },
    {
      "inputs": [
        {
          "internalType": "uint256",
          "name": "",
          "type": "uint256"
        }
      ],
      "name": "_idToNftItem",
      "outputs": [
        {
          "internalType": "uint256",
          "name": "tokenId",
          "type": "uint256"
        },
        {
          "internalType": "uint256",
          "name": "price",
          "type": "uint256"
        },
        {
          "internalType": "address",
          "name": "creator",
          "type": "address"
        },
        {
          "internalType": "bool",
          "name": "isListed",
          "type": "bool"
        }
      ],
      "stateMutability": "view",
      "type": "function",
      "constant": true
    },
    {
      "inputs": [
        {
          "internalType": "address",
          "name": "to",
          "type": "address"
        },
        {
          "internalType": "uint256",
          "name": "tokenId",
          "type": "uint256"
        }
      ],
      "name": "approve",
      "outputs": [],
      "stateMutability": "nonpayable",
      "type": "function"
    },
    {
      "inputs": [
        {
          "internalType": "address",
          "name": "owner",
          "type": "address"
        }
      ],
      "name": "balanceOf",
      "outputs": [
        {
          "internalType": "uint256",
          "name": "",
          "type": "uint256"
        }
      ],
      "stateMutability": "view",
      "type": "function",
      "constant": true
    },
    {
      "inputs": [
        {
          "internalType": "uint256",
          "name": "tokenId",
          "type": "uint256"
        }
      ],
      "name": "getApproved",
      "outputs": [
        {
          "internalType": "address",
          "name": "",
          "type": "address"
        }
      ],
      "stateMutability": "view",
      "type": "function",
      "constant": true
    },
    {
      "inputs": [
        {
          "internalType": "address",
          "name": "owner",
          "type": "address"
        },
        {
          "internalType": "address",
          "name": "operator",
          "type": "address"
        }
      ],
      "name": "isApprovedForAll",
      "outputs": [
        {
          "internalType": "bool",
          "name": "",
          "type": "bool"
        }
      ],
      "stateMutability": "view",
      "type": "function",
      "constant": true
    },
    {
      "inputs": [],
      "name": "name",
      "outputs": [
        {
          "internalType": "string",
          "name": "",
          "type": "string"
        }
      ],
      "stateMutability": "view",
      "type": "function",
      "constant": true
    },
    {
      "inputs": [],
      "name": "owner",
      "outputs": [
        {
          "internalType": "address",
          "name": "",
          "type": "address"
        }
      ],
      "stateMutability": "view",
      "type": "function",
      "constant": true
    },
    {
      "inputs": [
        {
          "internalType": "uint256",
          "name": "tokenId",
          "type": "uint256"
        }
      ],
      "name": "ownerOf",
      "outputs": [
        {
          "internalType": "address",
          "name": "",
          "type": "address"
        }
      ],
      "stateMutability": "view",
      "type": "function",
      "constant": true
    },
    {
      "inputs": [],
      "name": "renounceOwnership",
      "outputs": [],
      "stateMutability": "nonpayable",
      "type": "function"
    },
    {
      "inputs": [
        {
          "internalType": "address",
          "name": "from",
          "type": "address"
        },
        {
          "internalType": "address",
          "name": "to",
          "type": "address"
        },
        {
          "internalType": "uint256",
          "name": "tokenId",
          "type": "uint256"
        }
      ],
      "name": "safeTransferFrom",
      "outputs": [],
      "stateMutability": "nonpayable",
      "type": "function"
    },
    {
      "inputs": [
        {
          "internalType": "address",
          "name": "from",
          "type": "address"
        },
        {
          "internalType": "address",
          "name": "to",
          "type": "address"
        },
        {
          "internalType": "uint256",
          "name": "tokenId",
          "type": "uint256"
        },
        {
          "internalType": "bytes",
          "name": "data",
          "type": "bytes"
        }
      ],
      "name": "safeTransferFrom",
      "outputs": [],
      "stateMutability": "nonpayable",
      "type": "function"
    },
    {
      "inputs": [
        {
          "internalType": "address",
          "name": "operator",
          "type": "address"
        },
        {
          "internalType": "bool",
          "name": "approved",
          "type": "bool"
        }
      ],
      "name": "setApprovalForAll",
      "outputs": [],
      "stateMutability": "nonpayable",
      "type": "function"
    },
    {
      "inputs": [
        {
          "internalType": "bytes4",
          "name": "interfaceId",
          "type": "bytes4"
        }
      ],
      "name": "supportsInterface",
      "outputs": [
        {
          "internalType": "bool",
          "name": "",
          "type": "bool"
        }
      ],
      "stateMutability": "view",
      "type": "function",
      "constant": true
    },
    {
      "inputs": [],
      "name": "symbol",
      "outputs": [
        {
          "internalType": "string",
          "name": "",
          "type": "string"
        }
      ],
      "stateMutability": "view",
      "type": "function",
      "constant": true
    },
    {
      "inputs": [
        {
          "internalType": "address",
          "name": "from",
          "type": "address"
        },
        {
          "internalType": "address",
          "name": "to",
          "type": "address"
        },
        {
          "internalType": "uint256",
          "name": "tokenId",
          "type": "uint256"
        }
      ],
      "name": "transferFrom",
      "outputs": [],
      "stateMutability": "nonpayable",
      "type": "function"
    },
    {
      "inputs": [
        {
          "internalType": "address",
          "name": "newOwner",
          "type": "address"
        }
      ],
      "name": "transferOwnership",
      "outputs": [],
      "stateMutability": "nonpayable",
      "type": "function"
    },
    {
      "inputs": [
        {
          "internalType": "uint256",
          "name": "newMaxAlufis",
          "type": "uint256"
        }
      ],
      "name": "setMaxAlufisMistico",
      "outputs": [],
      "stateMutability": "nonpayable",
      "type": "function"
    },
    {
      "inputs": [
        {
          "internalType": "uint256",
          "name": "newMaxAlufi",
          "type": "uint256"
        }
      ],
      "name": "setMaxAlufisMagico",
      "outputs": [],
      "stateMutability": "nonpayable",
      "type": "function"
    },
    {
      "inputs": [
        {
          "internalType": "uint256",
          "name": "newMaxAlufi",
          "type": "uint256"
        }
      ],
      "name": "setMaxAlufisGlorioso",
      "outputs": [],
      "stateMutability": "nonpayable",
      "type": "function"
    },
    {
      "inputs": [
        {
          "internalType": "uint256",
          "name": "newMaxAlufi",
          "type": "uint256"
        }
      ],
      "name": "setMaxAlufisLegendario",
      "outputs": [],
      "stateMutability": "nonpayable",
      "type": "function"
    },
    {
      "inputs": [
        {
          "internalType": "uint256",
          "name": "newMaxAlufi",
          "type": "uint256"
        }
      ],
      "name": "setMaxAlufisEpico",
      "outputs": [],
      "stateMutability": "nonpayable",
      "type": "function"
    },
    {
      "inputs": [
        {
          "internalType": "uint256",
          "name": "newMaxAlufi",
          "type": "uint256"
        }
      ],
      "name": "setMaxAlufisInmortal",
      "outputs": [],
      "stateMutability": "nonpayable",
      "type": "function"
    },
    {
      "inputs": [
        {
          "internalType": "uint256",
          "name": "newMaxAlufi",
          "type": "uint256"
        }
      ],
      "name": "setMaxAlufisMisticoWoman",
      "outputs": [],
      "stateMutability": "nonpayable",
      "type": "function"
    },
    {
      "inputs": [
        {
          "internalType": "uint256",
          "name": "newMaxAlufi",
          "type": "uint256"
        }
      ],
      "name": "setMaxAlufisMagicoWoman",
      "outputs": [],
      "stateMutability": "nonpayable",
      "type": "function"
    },
    {
      "inputs": [
        {
          "internalType": "uint256",
          "name": "newMaxAlufi",
          "type": "uint256"
        }
      ],
      "name": "setMaxAlufisGloriosoWoman",
      "outputs": [],
      "stateMutability": "nonpayable",
      "type": "function"
    },
    {
      "inputs": [
        {
          "internalType": "uint256",
          "name": "newMaxAlufi",
          "type": "uint256"
        }
      ],
      "name": "setMaxAlufisLegendarioWoman",
      "outputs": [],
      "stateMutability": "nonpayable",
      "type": "function"
    },
    {
      "inputs": [
        {
          "internalType": "uint256",
          "name": "newMaxAlufi",
          "type": "uint256"
        }
      ],
      "name": "setMaxAlufisEpicoWoman",
      "outputs": [],
      "stateMutability": "nonpayable",
      "type": "function"
    },
    {
      "inputs": [
        {
          "internalType": "uint256",
          "name": "newMaxAlufi",
          "type": "uint256"
        }
      ],
      "name": "setMaxAlufisInmortalWoman",
      "outputs": [],
      "stateMutability": "nonpayable",
      "type": "function"
    },
    {
      "inputs": [],
      "name": "withdraw",
      "outputs": [],
      "stateMutability": "nonpayable",
      "type": "function"
    },
    {
      "inputs": [],
      "name": "listedItemsCount",
      "outputs": [
        {
          "internalType": "uint256",
          "name": "",
          "type": "uint256"
        }
      ],
      "stateMutability": "view",
      "type": "function",
      "constant": true
    },
    {
      "inputs": [],
      "name": "totalSupply",
      "outputs": [
        {
          "internalType": "uint256",
          "name": "",
          "type": "uint256"
        }
      ],
      "stateMutability": "view",
      "type": "function",
      "constant": true
    },
    {
      "inputs": [
        {
          "internalType": "string",
          "name": "_newBaseURI",
          "type": "string"
        }
      ],
      "name": "setBaseURI",
      "outputs": [],
      "stateMutability": "nonpayable",
      "type": "function"
    },
    {
      "inputs": [
        {
          "internalType": "uint256",
          "name": "index",
          "type": "uint256"
        }
      ],
      "name": "tokenByIndex",
      "outputs": [
        {
          "internalType": "uint256",
          "name": "",
          "type": "uint256"
        }
      ],
      "stateMutability": "view",
      "type": "function",
      "constant": true
    },
    {
      "inputs": [
        {
          "internalType": "address",
          "name": "owner",
          "type": "address"
        },
        {
          "internalType": "uint256",
          "name": "index",
          "type": "uint256"
        }
      ],
      "name": "tokenOfOwnerByIndex",
      "outputs": [
        {
          "internalType": "uint256",
          "name": "",
          "type": "uint256"
        }
      ],
      "stateMutability": "view",
      "type": "function",
      "constant": true
    },
    {
      "inputs": [],
      "name": "getAllNftsOnSale",
      "outputs": [
        {
          "components": [
            {
              "internalType": "uint256",
              "name": "tokenId",
              "type": "uint256"
            },
            {
              "internalType": "uint256",
              "name": "price",
              "type": "uint256"
            },
            {
              "internalType": "address",
              "name": "creator",
              "type": "address"
            },
            {
              "internalType": "bool",
              "name": "isListed",
              "type": "bool"
            }
          ],
          "internalType": "struct NftMarketSeconds.NftItem[]",
          "name": "",
          "type": "tuple[]"
        }
      ],
      "stateMutability": "view",
      "type": "function",
      "constant": true
    },
    {
      "inputs": [],
      "name": "getOwnedNfts",
      "outputs": [
        {
          "components": [
            {
              "internalType": "uint256",
              "name": "tokenId",
              "type": "uint256"
            },
            {
              "internalType": "uint256",
              "name": "price",
              "type": "uint256"
            },
            {
              "internalType": "address",
              "name": "creator",
              "type": "address"
            },
            {
              "internalType": "bool",
              "name": "isListed",
              "type": "bool"
            }
          ],
          "internalType": "struct NftMarketSeconds.NftItem[]",
          "name": "",
          "type": "tuple[]"
        }
      ],
      "stateMutability": "view",
      "type": "function",
      "constant": true
    },
    {
      "inputs": [
        {
          "internalType": "uint256",
          "name": "amount",
          "type": "uint256"
        }
      ],
      "name": "AlufisBuyMistico",
      "outputs": [
        {
          "internalType": "uint256",
          "name": "",
          "type": "uint256"
        }
      ],
      "stateMutability": "payable",
      "type": "function",
      "payable": true
    },
    {
      "inputs": [
        {
          "internalType": "uint256",
          "name": "amount",
          "type": "uint256"
        }
      ],
      "name": "AlufisBuyMagico",
      "outputs": [
        {
          "internalType": "uint256",
          "name": "",
          "type": "uint256"
        }
      ],
      "stateMutability": "payable",
      "type": "function",
      "payable": true
    },
    {
      "inputs": [
        {
          "internalType": "uint256",
          "name": "amount",
          "type": "uint256"
        }
      ],
      "name": "AlufisBuyGlorioso",
      "outputs": [
        {
          "internalType": "uint256",
          "name": "",
          "type": "uint256"
        }
      ],
      "stateMutability": "payable",
      "type": "function",
      "payable": true
    },
    {
      "inputs": [
        {
          "internalType": "uint256",
          "name": "amount",
          "type": "uint256"
        }
      ],
      "name": "AlufisBuyLegendario",
      "outputs": [
        {
          "internalType": "uint256",
          "name": "",
          "type": "uint256"
        }
      ],
      "stateMutability": "payable",
      "type": "function",
      "payable": true
    },
    {
      "inputs": [
        {
          "internalType": "uint256",
          "name": "amount",
          "type": "uint256"
        }
      ],
      "name": "AlufisBuyEpico",
      "outputs": [
        {
          "internalType": "uint256",
          "name": "",
          "type": "uint256"
        }
      ],
      "stateMutability": "payable",
      "type": "function",
      "payable": true
    },
    {
      "inputs": [
        {
          "internalType": "uint256",
          "name": "amount",
          "type": "uint256"
        }
      ],
      "name": "AlufisBuyInmortal",
      "outputs": [
        {
          "internalType": "uint256",
          "name": "",
          "type": "uint256"
        }
      ],
      "stateMutability": "payable",
      "type": "function",
      "payable": true
    },
    {
      "inputs": [
        {
          "internalType": "uint256",
          "name": "amount",
          "type": "uint256"
        }
      ],
      "name": "AlufisBuyMisticoWoman",
      "outputs": [
        {
          "internalType": "uint256",
          "name": "",
          "type": "uint256"
        }
      ],
      "stateMutability": "payable",
      "type": "function",
      "payable": true
    },
    {
      "inputs": [
        {
          "internalType": "uint256",
          "name": "amount",
          "type": "uint256"
        }
      ],
      "name": "AlufisBuyMagicoWoman",
      "outputs": [
        {
          "internalType": "uint256",
          "name": "",
          "type": "uint256"
        }
      ],
      "stateMutability": "payable",
      "type": "function",
      "payable": true
    },
    {
      "inputs": [
        {
          "internalType": "uint256",
          "name": "amount",
          "type": "uint256"
        }
      ],
      "name": "AlufisBuyGloriosoWoman",
      "outputs": [
        {
          "internalType": "uint256",
          "name": "",
          "type": "uint256"
        }
      ],
      "stateMutability": "payable",
      "type": "function",
      "payable": true
    },
    {
      "inputs": [
        {
          "internalType": "uint256",
          "name": "amount",
          "type": "uint256"
        }
      ],
      "name": "AlufisBuyLegendarioWoman",
      "outputs": [
        {
          "internalType": "uint256",
          "name": "",
          "type": "uint256"
        }
      ],
      "stateMutability": "payable",
      "type": "function",
      "payable": true
    },
    {
      "inputs": [
        {
          "internalType": "uint256",
          "name": "amount",
          "type": "uint256"
        }
      ],
      "name": "AlufisBuyEpicoWoman",
      "outputs": [
        {
          "internalType": "uint256",
          "name": "",
          "type": "uint256"
        }
      ],
      "stateMutability": "payable",
      "type": "function",
      "payable": true
    },
    {
      "inputs": [
        {
          "internalType": "uint256",
          "name": "amount",
          "type": "uint256"
        }
      ],
      "name": "AlufisBuyInmortalWoman",
      "outputs": [
        {
          "internalType": "uint256",
          "name": "",
          "type": "uint256"
        }
      ],
      "stateMutability": "payable",
      "type": "function",
      "payable": true
    },
    {
      "inputs": [
        {
          "internalType": "uint256",
          "name": "tokenId",
          "type": "uint256"
        }
      ],
      "name": "tokenURI",
      "outputs": [
        {
          "internalType": "string",
          "name": "",
          "type": "string"
        }
      ],
      "stateMutability": "view",
      "type": "function",
      "constant": true
    },
    {
      "inputs": [
        {
          "internalType": "uint256",
          "name": "tokenId",
          "type": "uint256"
        }
      ],
      "name": "buyNft",
      "outputs": [],
      "stateMutability": "payable",
      "type": "function",
      "payable": true
    },
    {
      "inputs": [
        {
          "internalType": "uint256",
          "name": "tokenId",
          "type": "uint256"
        }
      ],
      "name": "cancellSellNft",
      "outputs": [],
      "stateMutability": "nonpayable",
      "type": "function"
    },
    {
      "inputs": [
        {
          "internalType": "uint256",
          "name": "tokenId",
          "type": "uint256"
        },
        {
          "internalType": "uint256",
          "name": "newPrice",
          "type": "uint256"
        }
      ],
      "name": "placeNftOnSale",
      "outputs": [],
      "stateMutability": "payable",
      "type": "function",
      "payable": true
    }
  ],
  "bytecode": "0x60806040526703782dace9d900006008556704db7325476300006009556707a1fe1602770000600a55670a688906bd8b0000600b55670de0b6b3a7640000600c55671158e460913d0000600d556000600e556008600f5560706010556078601155608060125560886013556090601455609860155560a060165560a860175560b060185560b86019556007601a55600f601b55612710601c55612710601d55612710601e55612710601f55600f602055601f602155612ee0602255612ee0602355612ee0602455612ee060255560405180604001604052806005815260200164173539b7b760d91b81525060289081620000fa919062000282565b503480156200010857600080fd5b506040518060400160405280600581526020016414d0d3919560da1b8152506040518060400160405280600481526020016314d3919560e21b815250816000908162000155919062000282565b50600162000164828262000282565b505050620001816200017b6200018760201b60201c565b6200018b565b6200034e565b3390565b600780546001600160a01b038381166001600160a01b0319831681179093556040519116919082907f8be0079c531659141344cd1fd0a4f28419497f9722a3daafe3b4186f6b6457e090600090a35050565b634e487b7160e01b600052604160045260246000fd5b600181811c908216806200020857607f821691505b6020821081036200022957634e487b7160e01b600052602260045260246000fd5b50919050565b601f8211156200027d57600081815260208120601f850160051c81016020861015620002585750805b601f850160051c820191505b81811015620002795782815560010162000264565b5050505b505050565b81516001600160401b038111156200029e576200029e620001dd565b620002b681620002af8454620001f3565b846200022f565b602080601f831160018114620002ee5760008415620002d55750858301515b600019600386901b1c1916600185901b17855562000279565b600085815260208120601f198616915b828110156200031f57888601518255948401946001909101908401620002fe565b50858210156200033e5787850151600019600388901b60f8161c191681555b5050505050600190811b01905550565b613d25806200035e6000396000f3fe60806040526004361061033f5760003560e01c806368e5261a116101b05780639061d007116100ec578063c87b56dd11610095578063ea8247d51161006f578063ea8247d514610930578063f2fde38b14610943578063f360fc2914610963578063ff0134111461097657600080fd5b8063c87b56dd146108b2578063ccb4918d146108d2578063e985e9c5146108e757600080fd5b8063a22cb465116100c6578063a22cb4651461085f578063b88d4fde1461087f578063c0e486ac1461089f57600080fd5b80639061d0071461081757806395d89b411461083757806398e4120a1461084c57600080fd5b80637228fcb211610159578063830e7b2111610133578063830e7b2114610799578063863f853c146107b95780638d286fad146107d95780638da5cb5b146107f957600080fd5b80637228fcb2146106e457806375e05b88146107045780637a168d0b1461078657600080fd5b806370a082311161018a57806370a082311461069a57806370cbcb43146106ba578063715018a6146106cf57600080fd5b806368e5261a146106545780636908282f146106675780636c37801d1461067a57600080fd5b806336b536be1161027f5780634f3578891161022857806355f804b31161020257806355f804b3146105e1578063566a4dc7146106015780635e1d0b87146106145780636352211e1461063457600080fd5b80634f3578891461058e5780634f6ccce7146105a1578063540d16ba146105c157600080fd5b80633eeac338116102595780633eeac3381461053b57806342842e0e1461055b57806346e6bc4f1461057b57600080fd5b806336b536be146104f15780633aa8cbdf146105135780633ccfd60b1461052657600080fd5b80630e4d5519116102ec57806323b872dd116102c657806323b872dd1461047e578063243adbdd1461049e57806329630932146104b15780632f745c59146104d157600080fd5b80630e4d55191461043657806318160ddd1461045657806321f422e51461046b57600080fd5b8063081812fc1161031d578063081812fc146103bc578063095ea7b3146103f45780630c8dd9841461041657600080fd5b806301ffc9a71461034457806306fdde0314610379578063077015b81461039b575b600080fd5b34801561035057600080fd5b5061036461035f366004613648565b610996565b60405190151581526020015b60405180910390f35b34801561038557600080fd5b5061038e610a33565b60405161037091906136b5565b6103ae6103a93660046136c8565b610ac5565b604051908152602001610370565b3480156103c857600080fd5b506103dc6103d73660046136c8565b610bbf565b6040516001600160a01b039091168152602001610370565b34801561040057600080fd5b5061041461040f3660046136fd565b610be6565b005b34801561042257600080fd5b506104146104313660046136c8565b610d17565b34801561044257600080fd5b506104146104513660046136c8565b610d9b565b34801561046257600080fd5b50602e546103ae565b610414610479366004613727565b610e1f565b34801561048a57600080fd5b50610414610499366004613749565b610f23565b6104146104ac3660046136c8565b610faa565b3480156104bd57600080fd5b506104146104cc3660046136c8565b6110aa565b3480156104dd57600080fd5b506103ae6104ec3660046136fd565b61112e565b3480156104fd57600080fd5b506105066111b0565b6040516103709190613785565b6103ae6105213660046136c8565b611302565b34801561053257600080fd5b506104146113f7565b34801561054757600080fd5b506104146105563660046136c8565b61146c565b34801561056757600080fd5b50610414610576366004613749565b6114f0565b6103ae6105893660046136c8565b61150b565b6103ae61059c3660046136c8565b611600565b3480156105ad57600080fd5b506103ae6105bc3660046136c8565b6116f5565b3480156105cd57600080fd5b506104146105dc3660046136c8565b611773565b3480156105ed57600080fd5b506104146105fc366004613880565b6117f7565b6103ae61060f3660046136c8565b61180b565b34801561062057600080fd5b5061041461062f3660046136c8565b611900565b34801561064057600080fd5b506103dc61064f3660046136c8565b611984565b6103ae6106623660046136c8565b6119e9565b6103ae6106753660046136c8565b611ade565b34801561068657600080fd5b506104146106953660046136c8565b611bd3565b3480156106a657600080fd5b506103ae6106b53660046138c9565b611c57565b3480156106c657600080fd5b50610506611cf1565b3480156106db57600080fd5b50610414611e19565b3480156106f057600080fd5b506104146106ff3660046136c8565b611e2d565b34801561071057600080fd5b5061075561071f3660046136c8565b602b602052600090815260409020805460018201546002909201549091906001600160a01b03811690600160a01b900460ff1684565b604051610370949392919093845260208401929092526001600160a01b031660408301521515606082015260800190565b6103ae6107943660046136c8565b611eb1565b3480156107a557600080fd5b506104146107b43660046136c8565b611fa6565b3480156107c557600080fd5b506104146107d43660046136c8565b61202a565b3480156107e557600080fd5b506104146107f43660046136c8565b6120ae565b34801561080557600080fd5b506007546001600160a01b03166103dc565b34801561082357600080fd5b506104146108323660046136c8565b612132565b34801561084357600080fd5b5061038e6121bb565b6103ae61085a3660046136c8565b6121ca565b34801561086b57600080fd5b5061041461087a3660046138e4565b6122bf565b34801561088b57600080fd5b5061041461089a366004613920565b6122ca565b6103ae6108ad3660046136c8565b612358565b3480156108be57600080fd5b5061038e6108cd3660046136c8565b61244d565b3480156108de57600080fd5b506103ae6124d0565b3480156108f357600080fd5b5061036461090236600461399c565b6001600160a01b03918216600090815260056020908152604080832093909416825291909152205460ff1690565b6103ae61093e3660046136c8565b6124e0565b34801561094f57600080fd5b5061041461095e3660046138c9565b6125d5565b6103ae6109713660046136c8565b612662565b34801561098257600080fd5b506104146109913660046136c8565b612757565b60006001600160e01b031982167f80ac58cd0000000000000000000000000000000000000000000000000000000014806109f957506001600160e01b031982167f5b5e139f00000000000000000000000000000000000000000000000000000000145b80610a2d57507f01ffc9a7000000000000000000000000000000000000000000000000000000006001600160e01b03198316145b92915050565b606060008054610a42906139cf565b80601f0160208091040260200160405190810160405280929190818152602001828054610a6e906139cf565b8015610abb5780601f10610a9057610100808354040283529160200191610abb565b820191906000526020600020905b815481529060010190602001808311610a9e57829003601f168201915b5050505050905090565b6000600b543414610b175760405162461bcd60e51b815260206004820152602480820152600080516020613cd08339815191526044820152637269636560e01b60648201526084015b60405180910390fd5b601d5460115410610b6a5760405162461bcd60e51b815260206004820181905260248201527f4d617820416c756669734c6567656e646172696f204e667473204d696e7465646044820152606401610b0e565b60005b82811015610bb557610b81336011546127db565b610b8c6011546127f5565b600160116000828254610b9f9190613a1f565b90915550610bae905081613a32565b9050610b6d565b5050601154919050565b6000610bca826128c9565b506000908152600460205260409020546001600160a01b031690565b6000610bf182611984565b9050806001600160a01b0316836001600160a01b031603610c7a5760405162461bcd60e51b815260206004820152602160248201527f4552433732313a20617070726f76616c20746f2063757272656e74206f776e6560448201527f72000000000000000000000000000000000000000000000000000000000000006064820152608401610b0e565b336001600160a01b0382161480610c965750610c968133610902565b610d085760405162461bcd60e51b815260206004820152603e60248201527f4552433732313a20617070726f76652063616c6c6572206973206e6f7420746f60448201527f6b656e206f776e6572206e6f7220617070726f76656420666f7220616c6c00006064820152608401610b0e565b610d12838361292d565b505050565b610d1f6129a8565b6023548111610d965760405162461bcd60e51b815260206004820152603f60248201527f74686520616d6f756e74206f6620416c75666973576f6d616e206d757374206260448201527f652067726561746572207468616e20746865206578697374696e67206f6e65006064820152608401610b0e565b602355565b610da36129a8565b6025548111610e1a5760405162461bcd60e51b815260206004820152603f60248201527f74686520616d6f756e74206f6620416c75666973576f6d616e206d757374206260448201527f652067726561746572207468616e20746865206578697374696e67206f6e65006064820152608401610b0e565b602555565b33610e2983611984565b6001600160a01b031614610e7f5760405162461bcd60e51b815260206004820152601d60248201527f596f7520617265206e6f74206f776e6572206f662074686973206e66740000006044820152606401610b0e565b6000828152602b6020526040902060020154600160a01b900460ff1615610ee85760405162461bcd60e51b815260206004820152601760248201527f4974656d20697320616c7265616479206f6e2073616c650000000000000000006044820152606401610b0e565b6000828152602b6020526040902060028101805460ff60a01b1916600160a01b179055600101819055610f1f602680546001019055565b5050565b610f2d3382612a02565b610f9f5760405162461bcd60e51b815260206004820152602e60248201527f4552433732313a2063616c6c6572206973206e6f7420746f6b656e206f776e6560448201527f72206e6f7220617070726f7665640000000000000000000000000000000000006064820152608401610b0e565b610d12838383612a81565b6000818152602b602052604081206001015490610fc683611984565b90506001600160a01b03811633036110205760405162461bcd60e51b815260206004820152601860248201527f596f7520616c7265616479206f776e2074686973204e465400000000000000006044820152606401610b0e565b81341461106f5760405162461bcd60e51b815260206004820152601e60248201527f506c65617365207375626d6974207468652061736b696e6720707269636500006044820152606401610b0e565b6000838152602b60205260409020600201805460ff60a01b191690556110956026612c66565b6110a0813385612a81565b610d128134612cbd565b6110b26129a8565b60225481116111295760405162461bcd60e51b815260206004820152603f60248201527f74686520616d6f756e74206f6620416c75666973576f6d616e206d757374206260448201527f652067726561746572207468616e20746865206578697374696e67206f6e65006064820152608401610b0e565b602255565b600061113983611c57565b82106111875760405162461bcd60e51b815260206004820152601360248201527f496e646578206f7574206f6620626f756e6473000000000000000000000000006044820152606401610b0e565b506001600160a01b03919091166000908152602c60209081526040808320938352929052205490565b606060006111bd602e5490565b90506000806111cb60265490565b67ffffffffffffffff8111156111e3576111e36137f4565b60405190808252806020026020018201604052801561123557816020015b6040805160808101825260008082526020808301829052928201819052606082015282526000199092019101816112015790505b50905060005b838110156112fa57600061124e826116f5565b6000818152602b60205260409020600281015491925090600160a01b900460ff1615156001036112e55760408051608081018252825481526001830154602082015260028301546001600160a01b03811692820192909252600160a01b90910460ff161515606082015284518590879081106112cc576112cc613a4b565b60209081029190910101526112e2600186613a1f565b94505b505080806112f290613a32565b91505061123b565b509392505050565b6000600854341461134f5760405162461bcd60e51b815260206004820152602480820152600080516020613cd08339815191526044820152637269636560e01b6064820152608401610b0e565b601a54600e54106113a25760405162461bcd60e51b815260206004820152601d60248201527f4d617820416c756669734d69737469636f204e667473204d696e7465640000006044820152606401610b0e565b60005b828110156113ed576113b933600e546127db565b6113c4600e546127f5565b6001600e60008282546113d79190613a1f565b909155506113e6905081613a32565b90506113a5565b5050600e54919050565b6113ff6129a8565b478061144d5760405162461bcd60e51b815260206004820152601260248201527f4e6f2066756e647320617661696c61626c6500000000000000000000000000006044820152606401610b0e565b731e8dd1acb4d121d1a30b7b9bb709f2fdaf041cc2610f1f8183612cbd565b6114746129a8565b60245481116114eb5760405162461bcd60e51b815260206004820152603f60248201527f74686520616d6f756e74206f6620416c75666973576f6d616e206d757374206260448201527f652067726561746572207468616e20746865206578697374696e67206f6e65006064820152608401610b0e565b602455565b610d12838383604051806020016040528060008152506122ca565b6000600b5434146115585760405162461bcd60e51b815260206004820152602480820152600080516020613cd08339815191526044820152637269636560e01b6064820152608401610b0e565b602354601754106115ab5760405162461bcd60e51b815260206004820181905260248201527f4d617820416c756669734c6567656e646172696f204e667473204d696e7465646044820152606401610b0e565b60005b828110156115f6576115c2336017546127db565b6115cd6017546127f5565b6001601760008282546115e09190613a1f565b909155506115ef905081613a32565b90506115ae565b5050601754919050565b6000600c54341461164d5760405162461bcd60e51b815260206004820152602480820152600080516020613cd08339815191526044820152637269636560e01b6064820152608401610b0e565b602454601854106116a05760405162461bcd60e51b815260206004820152601b60248201527f4d617820416c75666973457069636f204e667473204d696e74656400000000006044820152606401610b0e565b60005b828110156116eb576116b7336018546127db565b6116c26018546127f5565b6001601760008282546116d59190613a1f565b909155506116e4905081613a32565b90506116a3565b5050601854919050565b6000611700602e5490565b821061174e5760405162461bcd60e51b815260206004820152601360248201527f496e646578206f7574206f6620626f756e6473000000000000000000000000006044820152606401610b0e565b602e828154811061176157611761613a4b565b90600052602060002001549050919050565b61177b6129a8565b601f5481116117f25760405162461bcd60e51b815260206004820152603a60248201527f74686520616d6f756e74206f6620416c75666973206d7573742062652067726560448201527f61746572207468616e20746865206578697374696e67206f6e650000000000006064820152608401610b0e565b601f55565b6117ff6129a8565b6029610f1f8282613aaf565b600060085434146118585760405162461bcd60e51b815260206004820152602480820152600080516020613cd08339815191526044820152637269636560e01b6064820152608401610b0e565b602054601454106118ab5760405162461bcd60e51b815260206004820152601d60248201527f4d617820416c756669734d69737469636f204e667473204d696e7465640000006044820152606401610b0e565b60005b828110156118f6576118c2336014546127db565b6118cd6014546127f5565b6001601460008282546118e09190613a1f565b909155506118ef905081613a32565b90506118ae565b5050601454919050565b6119086129a8565b602154811161197f5760405162461bcd60e51b815260206004820152603f60248201527f74686520616d6f756e74206f6620416c75666973576f6d616e206d757374206260448201527f652067726561746572207468616e20746865206578697374696e67206f6e65006064820152608401610b0e565b602155565b6000818152600260205260408120546001600160a01b031680610a2d5760405162461bcd60e51b815260206004820152601860248201527f4552433732313a20696e76616c696420746f6b656e20494400000000000000006044820152606401610b0e565b60006009543414611a365760405162461bcd60e51b815260206004820152602480820152600080516020613cd08339815191526044820152637269636560e01b6064820152608401610b0e565b60215460155410611a895760405162461bcd60e51b815260206004820152601c60248201527f4d617820416c756669734d616769636f204e667473204d696e746564000000006044820152606401610b0e565b60005b82811015611ad457611aa0336015546127db565b611aab6015546127f5565b600160156000828254611abe9190613a1f565b90915550611acd905081613a32565b9050611a8c565b5050601554919050565b60006009543414611b2b5760405162461bcd60e51b815260206004820152602480820152600080516020613cd08339815191526044820152637269636560e01b6064820152608401610b0e565b601b54600f5410611b7e5760405162461bcd60e51b815260206004820152601c60248201527f4d617820416c756669734d616769636f204e667473204d696e746564000000006044820152606401610b0e565b60005b82811015611bc957611b9533600f546127db565b611ba0600f546127f5565b6001600f6000828254611bb39190613a1f565b90915550611bc2905081613a32565b9050611b81565b5050600f54919050565b611bdb6129a8565b6020548111611c525760405162461bcd60e51b815260206004820152603f60248201527f74686520616d6f756e74206f6620416c75666973576f6d616e206d757374206260448201527f652067726561746572207468616e20746865206578697374696e67206f6e65006064820152608401610b0e565b602055565b60006001600160a01b038216611cd55760405162461bcd60e51b815260206004820152602960248201527f4552433732313a2061646472657373207a65726f206973206e6f74206120766160448201527f6c6964206f776e657200000000000000000000000000000000000000000000006064820152608401610b0e565b506001600160a01b031660009081526003602052604090205490565b60606000611cfe33611c57565b905060008167ffffffffffffffff811115611d1b57611d1b6137f4565b604051908082528060200260200182016040528015611d6d57816020015b604080516080810182526000808252602080830182905292820181905260608201528252600019909201910181611d395790505b50905060005b82811015611e12576000611d87338361112e565b6000818152602b602090815260409182902082516080810184528154815260018201549281019290925260028101546001600160a01b03811693830193909352600160a01b90920460ff161515606082015285519293509091859085908110611df257611df2613a4b565b602002602001018190525050508080611e0a90613a32565b915050611d73565b5092915050565b611e216129a8565b611e2b6000612dd6565b565b611e356129a8565b601e548111611eac5760405162461bcd60e51b815260206004820152603a60248201527f74686520616d6f756e74206f6620416c75666973206d7573742062652067726560448201527f61746572207468616e20746865206578697374696e67206f6e650000000000006064820152608401610b0e565b601e55565b6000600c543414611efe5760405162461bcd60e51b815260206004820152602480820152600080516020613cd08339815191526044820152637269636560e01b6064820152608401610b0e565b601e5460125410611f515760405162461bcd60e51b815260206004820152601b60248201527f4d617820416c75666973457069636f204e667473204d696e74656400000000006044820152606401610b0e565b60005b82811015611f9c57611f68336012546127db565b611f736012546127f5565b600160116000828254611f869190613a1f565b90915550611f95905081613a32565b9050611f54565b5050601254919050565b611fae6129a8565b601d5481116120255760405162461bcd60e51b815260206004820152603a60248201527f74686520616d6f756e74206f6620416c75666973206d7573742062652067726560448201527f61746572207468616e20746865206578697374696e67206f6e650000000000006064820152608401610b0e565b601d55565b6120326129a8565b601b5481116120a95760405162461bcd60e51b815260206004820152603a60248201527f74686520616d6f756e74206f6620416c75666973206d7573742062652067726560448201527f61746572207468616e20746865206578697374696e67206f6e650000000000006064820152608401610b0e565b601b55565b6120b66129a8565b601c54811161212d5760405162461bcd60e51b815260206004820152603a60248201527f74686520616d6f756e74206f6620416c75666973206d7573742062652067726560448201527f61746572207468616e20746865206578697374696e67206f6e650000000000006064820152608401610b0e565b601c55565b3361213c82611984565b6001600160a01b0316146121925760405162461bcd60e51b815260206004820152601d60248201527f596f7520617265206e6f74206f776e6572206f662074686973206e66740000006044820152606401610b0e565b6000818152602b60205260409020600201805460ff60a01b191690556121b86026612c66565b50565b606060018054610a42906139cf565b6000600d5434146122175760405162461bcd60e51b815260206004820152602480820152600080516020613cd08339815191526044820152637269636560e01b6064820152608401610b0e565b601f546013541061226a5760405162461bcd60e51b815260206004820152601e60248201527f4d617820416c75666973496e6d6f7274616c204e667473204d696e74656400006044820152606401610b0e565b60005b828110156122b557612281336013546127db565b61228c6013546127f5565b60016013600082825461229f9190613a1f565b909155506122ae905081613a32565b905061226d565b5050601354919050565b610f1f338383612e35565b6122d43383612a02565b6123465760405162461bcd60e51b815260206004820152602e60248201527f4552433732313a2063616c6c6572206973206e6f7420746f6b656e206f776e6560448201527f72206e6f7220617070726f7665640000000000000000000000000000000000006064820152608401610b0e565b61235284848484612f03565b50505050565b6000600a5434146123a55760405162461bcd60e51b815260206004820152602480820152600080516020613cd08339815191526044820152637269636560e01b6064820152608401610b0e565b601c54601054106123f85760405162461bcd60e51b815260206004820152601e60248201527f4d617820416c75666973476c6f72696f736f204e667473204d696e74656400006044820152606401610b0e565b60005b828110156124435761240f336010546127db565b61241a6010546127f5565b60016010600082825461242d9190613a1f565b9091555061243c905081613a32565b90506123fb565b5050601054919050565b6000818152600260205260409020546060906001600160a01b031661247157600080fd5b600061247b612f81565b9050600081511161249b57604051806020016040528060008152506124c9565b806124a584612f90565b60286040516020016124b993929190613b6f565b6040516020818303038152906040525b9392505050565b60006124db60265490565b905090565b6000600a54341461252d5760405162461bcd60e51b815260206004820152602480820152600080516020613cd08339815191526044820152637269636560e01b6064820152608401610b0e565b602254601654106125805760405162461bcd60e51b815260206004820152601e60248201527f4d617820416c75666973476c6f72696f736f204e667473204d696e74656400006044820152606401610b0e565b60005b828110156125cb57612597336016546127db565b6125a26016546127f5565b6001601660008282546125b59190613a1f565b909155506125c4905081613a32565b9050612583565b5050601654919050565b6125dd6129a8565b6001600160a01b0381166126595760405162461bcd60e51b815260206004820152602660248201527f4f776e61626c653a206e6577206f776e657220697320746865207a65726f206160448201527f64647265737300000000000000000000000000000000000000000000000000006064820152608401610b0e565b6121b881612dd6565b6000600d5434146126af5760405162461bcd60e51b815260206004820152602480820152600080516020613cd08339815191526044820152637269636560e01b6064820152608401610b0e565b602554601954106127025760405162461bcd60e51b815260206004820152601e60248201527f4d617820416c75666973496e6d6f7274616c204e667473204d696e74656400006044820152606401610b0e565b60005b8281101561274d57612719336019546127db565b6127246019546127f5565b6001601960008282546127379190613a1f565b90915550612746905081613a32565b9050612705565b5050601954919050565b61275f6129a8565b601a5481116127d65760405162461bcd60e51b815260206004820152603a60248201527f74686520616d6f756e74206f6620416c75666973206d7573742062652067726560448201527f61746572207468616e20746865206578697374696e67206f6e650000000000006064820152608401610b0e565b601a55565b610f1f8282604051806020016040528060008152506130c5565b604080516080808201835283825260088054602080850191825233858701818152600060608089018281528b8352602b86528a832099518a55955160018a015591516002909801805495511515600160a01b027fffffffffffffffffffffff0000000000000000000000000000000000000000009096166001600160a01b039099169890981794909417909655925486518881529182015294850191909152918301919091527f470031062672bc0246e132c723a729c4676710ec663a29e86c88678032daddea910160405180910390a150565b6000818152600260205260409020546001600160a01b03166121b85760405162461bcd60e51b815260206004820152601860248201527f4552433732313a20696e76616c696420746f6b656e20494400000000000000006044820152606401610b0e565b6000818152600460205260409020805473ffffffffffffffffffffffffffffffffffffffff19166001600160a01b038416908117909155819061296f82611984565b6001600160a01b03167f8c5be1e5ebec7d5bd14f71427d1e84f3dd0314c0f7b2291e5b200ac8c7c3b92560405160405180910390a45050565b6007546001600160a01b03163314611e2b5760405162461bcd60e51b815260206004820181905260248201527f4f776e61626c653a2063616c6c6572206973206e6f7420746865206f776e65726044820152606401610b0e565b600080612a0e83611984565b9050806001600160a01b0316846001600160a01b03161480612a5557506001600160a01b0380821660009081526005602090815260408083209388168352929052205460ff165b80612a795750836001600160a01b0316612a6e84610bbf565b6001600160a01b0316145b949350505050565b826001600160a01b0316612a9482611984565b6001600160a01b031614612b105760405162461bcd60e51b815260206004820152602560248201527f4552433732313a207472616e736665722066726f6d20696e636f72726563742060448201527f6f776e65720000000000000000000000000000000000000000000000000000006064820152608401610b0e565b6001600160a01b038216612b8b5760405162461bcd60e51b8152602060048201526024808201527f4552433732313a207472616e7366657220746f20746865207a65726f2061646460448201527f72657373000000000000000000000000000000000000000000000000000000006064820152608401610b0e565b612b96838383613143565b612ba160008261292d565b6001600160a01b0383166000908152600360205260408120805460019290612bca908490613c0f565b90915550506001600160a01b0382166000908152600360205260408120805460019290612bf8908490613a1f565b9091555050600081815260026020526040808220805473ffffffffffffffffffffffffffffffffffffffff19166001600160a01b0386811691821790925591518493918716917fddf252ad1be2c89b69c2b068fc378daa952ba7f163c4a11628f55a4df523b3ef91a4505050565b805480612cb55760405162461bcd60e51b815260206004820152601b60248201527f436f756e7465723a2064656372656d656e74206f766572666c6f7700000000006044820152606401610b0e565b600019019055565b80471015612d0d5760405162461bcd60e51b815260206004820152601d60248201527f416464726573733a20696e73756666696369656e742062616c616e63650000006044820152606401610b0e565b6000826001600160a01b03168260405160006040518083038185875af1925050503d8060008114612d5a576040519150601f19603f3d011682016040523d82523d6000602084013e612d5f565b606091505b5050905080610d125760405162461bcd60e51b815260206004820152603a60248201527f416464726573733a20756e61626c6520746f2073656e642076616c75652c207260448201527f6563697069656e74206d617920686176652072657665727465640000000000006064820152608401610b0e565b600780546001600160a01b0383811673ffffffffffffffffffffffffffffffffffffffff19831681179093556040519116919082907f8be0079c531659141344cd1fd0a4f28419497f9722a3daafe3b4186f6b6457e090600090a35050565b816001600160a01b0316836001600160a01b031603612e965760405162461bcd60e51b815260206004820152601960248201527f4552433732313a20617070726f766520746f2063616c6c6572000000000000006044820152606401610b0e565b6001600160a01b03838116600081815260056020908152604080832094871680845294825291829020805460ff191686151590811790915591519182527f17307eab39ab6107e8899845ad3d59bd9653f200f220920489ca2b5937696c31910160405180910390a3505050565b612f0e848484612a81565b612f1a848484846131fb565b6123525760405162461bcd60e51b815260206004820152603260248201527f4552433732313a207472616e7366657220746f206e6f6e20455243373231526560448201527131b2b4bb32b91034b6b83632b6b2b73a32b960711b6064820152608401610b0e565b606060298054610a42906139cf565b606081600003612fd357505060408051808201909152600181527f3000000000000000000000000000000000000000000000000000000000000000602082015290565b8160005b8115612ffd5780612fe781613a32565b9150612ff69050600a83613c38565b9150612fd7565b60008167ffffffffffffffff811115613018576130186137f4565b6040519080825280601f01601f191660200182016040528015613042576020820181803683370190505b5090505b8415612a7957613057600183613c0f565b9150613064600a86613c4c565b61306f906030613a1f565b60f81b81838151811061308457613084613a4b565b60200101907effffffffffffffffffffffffffffffffffffffffffffffffffffffffffffff1916908160001a9053506130be600a86613c38565b9450613046565b6130cf8383613347565b6130dc60008484846131fb565b610d125760405162461bcd60e51b815260206004820152603260248201527f4552433732313a207472616e7366657220746f206e6f6e20455243373231526560448201527131b2b4bb32b91034b6b83632b6b2b73a32b960711b6064820152608401610b0e565b6001600160a01b03831661319e5761319981602e80546000838152602f60205260408120829055600182018355919091527f37fa166cbdbfbb1561ccd9ea985ec0218b5e68502e230525f544285b2bdf3d7e0155565b6131c1565b816001600160a01b0316836001600160a01b0316146131c1576131c183826134a2565b6001600160a01b0382166131d857610d128161353f565b826001600160a01b0316826001600160a01b031614610d1257610d1282826135ee565b60006001600160a01b0384163b1561333c57604051630a85bd0160e11b81526001600160a01b0385169063150b7a029061323f903390899088908890600401613c60565b6020604051808303816000875af192505050801561327a575060408051601f3d908101601f1916820190925261327791810190613c9c565b60015b613322573d8080156132a8576040519150601f19603f3d011682016040523d82523d6000602084013e6132ad565b606091505b50805160000361331a5760405162461bcd60e51b815260206004820152603260248201527f4552433732313a207472616e7366657220746f206e6f6e20455243373231526560448201527131b2b4bb32b91034b6b83632b6b2b73a32b960711b6064820152608401610b0e565b805181602001fd5b6001600160e01b031916630a85bd0160e11b149050612a79565b506001949350505050565b6001600160a01b03821661339d5760405162461bcd60e51b815260206004820181905260248201527f4552433732313a206d696e7420746f20746865207a65726f20616464726573736044820152606401610b0e565b6000818152600260205260409020546001600160a01b0316156134025760405162461bcd60e51b815260206004820152601c60248201527f4552433732313a20746f6b656e20616c7265616479206d696e746564000000006044820152606401610b0e565b61340e60008383613143565b6001600160a01b0382166000908152600360205260408120805460019290613437908490613a1f565b9091555050600081815260026020526040808220805473ffffffffffffffffffffffffffffffffffffffff19166001600160a01b03861690811790915590518392907fddf252ad1be2c89b69c2b068fc378daa952ba7f163c4a11628f55a4df523b3ef908290a45050565b600060016134af84611c57565b6134b99190613c0f565b6000838152602d602052604090205490915080821461350c576001600160a01b0384166000908152602c602090815260408083208584528252808320548484528184208190558352602d90915290208190555b506000918252602d602090815260408084208490556001600160a01b039094168352602c81528383209183525290812055565b602e5460009061355190600190613c0f565b6000838152602f6020526040812054602e805493945090928490811061357957613579613a4b565b9060005260206000200154905080602e838154811061359a5761359a613a4b565b6000918252602080832090910192909255828152602f9091526040808220849055858252812055602e8054806135d2576135d2613cb9565b6001900381819060005260206000200160009055905550505050565b60006135f983611c57565b6001600160a01b039093166000908152602c602090815260408083208684528252808320859055938252602d9052919091209190915550565b6001600160e01b0319811681146121b857600080fd5b60006020828403121561365a57600080fd5b81356124c981613632565b60005b83811015613680578181015183820152602001613668565b50506000910152565b600081518084526136a1816020860160208601613665565b601f01601f19169290920160200192915050565b6020815260006124c96020830184613689565b6000602082840312156136da57600080fd5b5035919050565b80356001600160a01b03811681146136f857600080fd5b919050565b6000806040838503121561371057600080fd5b613719836136e1565b946020939093013593505050565b6000806040838503121561373a57600080fd5b50508035926020909101359150565b60008060006060848603121561375e57600080fd5b613767846136e1565b9250613775602085016136e1565b9150604084013590509250925092565b602080825282518282018190526000919060409081850190868401855b828110156137e7578151805185528681015187860152858101516001600160a01b031686860152606090810151151590850152608090930192908501906001016137a2565b5091979650505050505050565b634e487b7160e01b600052604160045260246000fd5b600067ffffffffffffffff80841115613825576138256137f4565b604051601f8501601f19908116603f0116810190828211818310171561384d5761384d6137f4565b8160405280935085815286868601111561386657600080fd5b858560208301376000602087830101525050509392505050565b60006020828403121561389257600080fd5b813567ffffffffffffffff8111156138a957600080fd5b8201601f810184136138ba57600080fd5b612a798482356020840161380a565b6000602082840312156138db57600080fd5b6124c9826136e1565b600080604083850312156138f757600080fd5b613900836136e1565b91506020830135801515811461391557600080fd5b809150509250929050565b6000806000806080858703121561393657600080fd5b61393f856136e1565b935061394d602086016136e1565b925060408501359150606085013567ffffffffffffffff81111561397057600080fd5b8501601f8101871361398157600080fd5b6139908782356020840161380a565b91505092959194509250565b600080604083850312156139af57600080fd5b6139b8836136e1565b91506139c6602084016136e1565b90509250929050565b600181811c908216806139e357607f821691505b602082108103613a0357634e487b7160e01b600052602260045260246000fd5b50919050565b634e487b7160e01b600052601160045260246000fd5b80820180821115610a2d57610a2d613a09565b600060018201613a4457613a44613a09565b5060010190565b634e487b7160e01b600052603260045260246000fd5b601f821115610d1257600081815260208120601f850160051c81016020861015613a885750805b601f850160051c820191505b81811015613aa757828155600101613a94565b505050505050565b815167ffffffffffffffff811115613ac957613ac96137f4565b613add81613ad784546139cf565b84613a61565b602080601f831160018114613b125760008415613afa5750858301515b600019600386901b1c1916600185901b178555613aa7565b600085815260208120601f198616915b82811015613b4157888601518255948401946001909101908401613b22565b5085821015613b5f5787850151600019600388901b60f8161c191681555b5050505050600190811b01905550565b600084516020613b828285838a01613665565b855191840191613b958184848a01613665565b8554920191600090613ba6816139cf565b60018281168015613bbe5760018114613bd357613bff565b60ff1984168752821515830287019450613bff565b896000528560002060005b84811015613bf757815489820152908301908701613bde565b505082870194505b50929a9950505050505050505050565b81810381811115610a2d57610a2d613a09565b634e487b7160e01b600052601260045260246000fd5b600082613c4757613c47613c22565b500490565b600082613c5b57613c5b613c22565b500690565b60006001600160a01b03808716835280861660208401525083604083015260806060830152613c926080830184613689565b9695505050505050565b600060208284031215613cae57600080fd5b81516124c981613632565b634e487b7160e01b600052603160045260246000fdfe5072696365206d75737420626520657175616c20746f206c697374696e672070a26469706673582212207eb13e76947aa8281e64ef8388827805ad2ad639bbe40516bc5508018ec4697464736f6c63430008100033",
  "immutableReferences": {},
  "source": "// SPDX-License-Identifier: MIT\r\npragma solidity >=0.4.22 <0.9.0;\r\n\r\nimport \"@openzeppelin/contracts/token/ERC721/extensions/ERC721URIStorage.sol\";\r\nimport \"@openzeppelin/contracts/utils/Counters.sol\";\r\nimport \"@openzeppelin/contracts/utils/Address.sol\";\r\nimport \"@openzeppelin/contracts/access/Ownable.sol\";\r\n\r\ncontract NftMarketSeconds is ERC721URIStorage, Ownable {\r\n    using Counters for Counters.Counter;\r\n    using Strings for uint256;\r\n    using Address for address;\r\n\r\n    struct NftItem {\r\n        uint256 tokenId;\r\n        uint256 price;\r\n        address creator;\r\n        bool isListed;\r\n    }\r\n\r\n    uint256 private listingPriceMistico = 0.25 ether;\r\n    uint256 private listingPriceMagico = 0.35 ether;\r\n    uint256 private listingPriceGlorioso = 0.55 ether;\r\n    uint256 private listingPriceLegendario = 0.75 ether;\r\n    uint256 private listingPriceEpico = 1.00 ether;\r\n    uint256 private listingPriceInmortal = 1.25 ether;\r\n     //hombres\r\n    uint256 private TokenIdAlufisMistico = 0; //96\r\n    uint256 private TokenIdAlufisMagico = 8; //104\r\n    uint256 private TokenIdAlufisGlorioso = 112;\r\n    uint256 private TokenIdAlufisLegendario = 120;\r\n    uint256 private TokenIdAlufisEpico = 128;\r\n    uint256 private TokenIdAlufisInmortal = 136;\r\n    //mujeres\r\n    uint256 private TokenIdAlufisMisticoWoman = 144;\r\n    uint256 private TokenIdAlufisMagicoWoman = 152;\r\n    uint256 private TokenIdAlufisGloriosoWoman = 160;\r\n    uint256 private TokenIdAlufisLegendarioWoman = 168;\r\n    uint256 private TokenIdAlufisEpicoWoman = 176;\r\n    uint256 private TokenIdAlufisInmortalWoman = 184;\r\n\r\n    uint256 private maxAlufiMistico = 7;\r\n    uint256 private maxAlufiMagico = 15;\r\n    uint256 private maxAlufiGlorioso= 10000;\r\n    uint256 private maxAlufiLegendario= 10000;\r\n    uint256 private maxAlufiEpico= 10000;\r\n    uint256 private maxAlufiInmortal= 10000;\r\n    uint256 private maxAlufiMisticoWoman = 15;\r\n    uint256 private maxAlufiMagicoWoman= 31;\r\n    uint256 private maxAlufiGloriosoWoman= 12000;\r\n    uint256 private maxAlufiLegendarioWoman= 12000;\r\n    uint256 private maxAlufiEpicoWoman= 12000;\r\n    uint256 private maxAlufiInmortalWoman= 12000;\r\n\r\n\r\n    Counters.Counter private _listedItems;\r\n    Counters.Counter private _tokenIds;\r\n\r\n\r\n    string private baseExtension = \".json\";\r\n    string private baseURI;\r\n\r\n    mapping(string => bool) private _usedTokenURIs;\r\n    mapping(uint256 => NftItem) public _idToNftItem;\r\n\r\n    mapping(address => mapping(uint256 => uint256)) private _ownedTokens;\r\n    mapping(uint256 => uint256) private _idToOwnedIndex;\r\n\r\n    uint256[] private _allNfts;\r\n\r\n    mapping(uint256 => uint256) private _idToNftIndex;\r\n\r\n    event NftItemCreated(\r\n        uint256 tokenId,\r\n        uint256 price,\r\n        address creator,\r\n        bool isListed\r\n    );\r\n\r\n    constructor() ERC721(\"SCNFT\", \"SNFT\") {\r\n       \r\n    }\r\n\r\n    function setMaxAlufisMistico(uint newMaxAlufis) external onlyOwner {\r\n     require(newMaxAlufis > maxAlufiMistico, \"the amount of Alufis must be greater than the existing one\");\r\n     maxAlufiMistico = newMaxAlufis;\r\n    }\r\n\r\n    function setMaxAlufisMagico(uint newMaxAlufi) external onlyOwner {\r\n     require(newMaxAlufi > maxAlufiMagico, \"the amount of Alufis must be greater than the existing one\");\r\n     maxAlufiMagico = newMaxAlufi;\r\n    }\r\n\r\n    function setMaxAlufisGlorioso(uint newMaxAlufi) external onlyOwner {\r\n     require(newMaxAlufi > maxAlufiGlorioso, \"the amount of Alufis must be greater than the existing one\");\r\n     maxAlufiGlorioso = newMaxAlufi;\r\n    }\r\n\r\n    function setMaxAlufisLegendario(uint newMaxAlufi) external onlyOwner {\r\n     require(newMaxAlufi > maxAlufiLegendario, \"the amount of Alufis must be greater than the existing one\");\r\n     maxAlufiLegendario = newMaxAlufi;\r\n    }\r\n\r\n    function setMaxAlufisEpico(uint newMaxAlufi) external onlyOwner {\r\n     require(newMaxAlufi > maxAlufiEpico, \"the amount of Alufis must be greater than the existing one\");\r\n     maxAlufiEpico = newMaxAlufi;\r\n    }\r\n\r\n    function setMaxAlufisInmortal(uint newMaxAlufi) external onlyOwner {\r\n     require(newMaxAlufi > maxAlufiInmortal, \"the amount of Alufis must be greater than the existing one\");\r\n     maxAlufiInmortal = newMaxAlufi;\r\n    }\r\n\r\n    function setMaxAlufisMisticoWoman(uint newMaxAlufi) external onlyOwner {\r\n     require(newMaxAlufi > maxAlufiMisticoWoman, \"the amount of AlufisWoman must be greater than the existing one\");\r\n     maxAlufiMisticoWoman = newMaxAlufi;\r\n    }\r\n\r\n    function setMaxAlufisMagicoWoman(uint newMaxAlufi) external onlyOwner {\r\n     require(newMaxAlufi > maxAlufiMagicoWoman, \"the amount of AlufisWoman must be greater than the existing one\");\r\n     maxAlufiMagicoWoman = newMaxAlufi;\r\n    }\r\n\r\n    function setMaxAlufisGloriosoWoman(uint newMaxAlufi) external onlyOwner {\r\n     require(newMaxAlufi > maxAlufiGloriosoWoman, \"the amount of AlufisWoman must be greater than the existing one\");\r\n     maxAlufiGloriosoWoman = newMaxAlufi;\r\n    }\r\n\r\n    function setMaxAlufisLegendarioWoman(uint newMaxAlufi) external onlyOwner {\r\n     require(newMaxAlufi > maxAlufiLegendarioWoman, \"the amount of AlufisWoman must be greater than the existing one\");\r\n     maxAlufiLegendarioWoman = newMaxAlufi;\r\n    }\r\n\r\n    function setMaxAlufisEpicoWoman(uint newMaxAlufi) external onlyOwner {\r\n     require(newMaxAlufi > maxAlufiEpicoWoman, \"the amount of AlufisWoman must be greater than the existing one\");\r\n     maxAlufiEpicoWoman = newMaxAlufi;\r\n    }\r\n\r\n    function setMaxAlufisInmortalWoman(uint newMaxAlufi) external onlyOwner {\r\n     require(newMaxAlufi > maxAlufiInmortalWoman, \"the amount of AlufisWoman must be greater than the existing one\");\r\n     maxAlufiInmortalWoman = newMaxAlufi;\r\n    }\r\n\r\n    function withdraw() external onlyOwner{\r\n     uint256 amount = address(this).balance;\r\n     require(amount > 0, \"No funds available\");\r\n     address principal = (0x1e8dd1acB4D121d1a30B7B9bb709F2FDaf041Cc2);\r\n     Address.sendValue(payable(principal), amount);\r\n     \r\n    }\r\n\r\n    function listedItemsCount() public view returns (uint256) {\r\n     return _listedItems.current();\r\n    }\r\n\r\n    function totalSupply() public view returns (uint256) {\r\n        return _allNfts.length;\r\n    }\r\n    \r\n\r\n    function setBaseURI(string memory _newBaseURI) public onlyOwner {\r\n        baseURI = _newBaseURI;\r\n     }\r\n\r\n     function _baseURI() internal view virtual override returns (string memory) {\r\n        return baseURI;\r\n    }\r\n\r\n    function tokenByIndex(uint256 index) public view returns (uint256) {\r\n        require(index < totalSupply(), \"Index out of bounds\");\r\n        return _allNfts[index];\r\n    }\r\n\r\n    function tokenOfOwnerByIndex(address owner, uint256 index)\r\n        public\r\n        view\r\n        returns (uint256)\r\n    {\r\n        require(index < ERC721.balanceOf(owner), \"Index out of bounds\");\r\n        return _ownedTokens[owner][index];\r\n    }\r\n\r\n    function getAllNftsOnSale() public view returns (NftItem[] memory) {\r\n        uint256 allItemsCounts = totalSupply();\r\n        uint256 currentIndex = 0;\r\n        NftItem[] memory items = new NftItem[](_listedItems.current());\r\n\r\n        for (uint256 i = 0; i < allItemsCounts; i++) {\r\n            uint256 tokenId = tokenByIndex(i);\r\n            NftItem storage item = _idToNftItem[tokenId];\r\n\r\n            if (item.isListed == true) {\r\n                items[currentIndex] = item;\r\n                currentIndex += 1;\r\n            }\r\n        }\r\n\r\n        return items;\r\n    }\r\n\r\n    function getOwnedNfts() public view returns (NftItem[] memory) {\r\n        uint256 ownedItemsCount = ERC721.balanceOf(msg.sender);\r\n        NftItem[] memory items = new NftItem[](ownedItemsCount);\r\n\r\n        for (uint256 i = 0; i < ownedItemsCount; i++) {\r\n            uint256 tokenId = tokenOfOwnerByIndex(msg.sender, i);\r\n            NftItem storage item = _idToNftItem[tokenId];\r\n            items[i] = item;\r\n        }\r\n\r\n        return items;\r\n    }\r\n  \r\n\r\n    function AlufisBuyMistico(uint amount)\r\n        public\r\n        payable\r\n        returns (uint256)\r\n    {\r\n        \r\n        require(\r\n            msg.value == listingPriceMistico,\r\n            \"Price must be equal to listing price\"\r\n        );\r\n\r\n        require(TokenIdAlufisMistico < maxAlufiMistico, \"Max AlufisMistico Nfts Minted\");     \r\n         for( uint i = 0; i < amount; ++i ){\r\n        _safeMint(msg.sender, TokenIdAlufisMistico);\r\n        _createNftItem(TokenIdAlufisMistico);\r\n         TokenIdAlufisMistico += 1;\r\n     }      \r\n           \r\n        return TokenIdAlufisMistico;\r\n    }\r\n\r\n    function AlufisBuyMagico(uint amount)\r\n        public\r\n        payable\r\n        returns (uint256)\r\n    {\r\n        \r\n        require(\r\n            msg.value == listingPriceMagico,\r\n            \"Price must be equal to listing price\"\r\n        );       \r\n\r\n        require(TokenIdAlufisMagico < maxAlufiMagico, \"Max AlufisMagico Nfts Minted\");     \r\n         for( uint i = 0; i < amount; ++i ){\r\n        _safeMint(msg.sender, TokenIdAlufisMagico);\r\n        _createNftItem(TokenIdAlufisMagico);\r\n        TokenIdAlufisMagico += 1;\r\n     }      \r\n           \r\n        return TokenIdAlufisMagico;\r\n    }\r\n\r\n    function AlufisBuyGlorioso(uint amount)\r\n        public\r\n        payable\r\n        returns (uint256)\r\n    {\r\n        \r\n        require(\r\n            msg.value == listingPriceGlorioso,\r\n            \"Price must be equal to listing price\"\r\n        );       \r\n\r\n        require(TokenIdAlufisGlorioso < maxAlufiGlorioso, \"Max AlufisGlorioso Nfts Minted\");     \r\n         for( uint i = 0; i < amount; ++i ){\r\n        _safeMint(msg.sender, TokenIdAlufisGlorioso);\r\n        _createNftItem(TokenIdAlufisGlorioso);\r\n        TokenIdAlufisGlorioso += 1;\r\n     }      \r\n           \r\n        return TokenIdAlufisGlorioso;\r\n    }\r\n\r\n    function AlufisBuyLegendario (uint amount)\r\n        public\r\n        payable\r\n        returns (uint256)\r\n    {\r\n        \r\n        require(\r\n            msg.value == listingPriceLegendario,\r\n            \"Price must be equal to listing price\"\r\n        );       \r\n\r\n        require(TokenIdAlufisLegendario < maxAlufiLegendario, \"Max AlufisLegendario Nfts Minted\");     \r\n         for( uint i = 0; i < amount; ++i ){\r\n        _safeMint(msg.sender, TokenIdAlufisLegendario);\r\n        _createNftItem(TokenIdAlufisLegendario);\r\n        TokenIdAlufisLegendario += 1;\r\n     }      \r\n           \r\n        return TokenIdAlufisLegendario;\r\n    }\r\n\r\n        function AlufisBuyEpico(uint amount)\r\n            public\r\n            payable\r\n            returns (uint256)\r\n        {\r\n            \r\n            require(\r\n                msg.value == listingPriceEpico,\r\n                \"Price must be equal to listing price\"\r\n            );          \r\n\r\n        \r\n\r\n        require(TokenIdAlufisEpico < maxAlufiEpico, \"Max AlufisEpico Nfts Minted\");     \r\n         for( uint i = 0; i < amount; ++i ){\r\n        _safeMint(msg.sender, TokenIdAlufisEpico);\r\n        _createNftItem(TokenIdAlufisEpico);\r\n        TokenIdAlufisLegendario += 1;\r\n        }      \r\n            \r\n            return TokenIdAlufisEpico;\r\n        }\r\n\r\n        function AlufisBuyInmortal(uint amount)\r\n            public\r\n            payable\r\n            returns (uint256)\r\n        {\r\n            \r\n            require(\r\n                msg.value == listingPriceInmortal,\r\n                \"Price must be equal to listing price\"\r\n            );\r\n                     \r\n        require(TokenIdAlufisInmortal < maxAlufiInmortal, \"Max AlufisInmortal Nfts Minted\");     \r\n         for( uint i = 0; i < amount; ++i ){\r\n        _safeMint(msg.sender, TokenIdAlufisInmortal);\r\n        _createNftItem(TokenIdAlufisInmortal);\r\n        TokenIdAlufisInmortal += 1;\r\n        }      \r\n            \r\n            return TokenIdAlufisInmortal;\r\n        }\r\n\r\n\r\nfunction AlufisBuyMisticoWoman(uint amount)\r\n        public\r\n        payable\r\n        returns (uint256)\r\n    {\r\n        \r\n        require(\r\n            msg.value == listingPriceMistico,\r\n            \"Price must be equal to listing price\"\r\n        );\r\n\r\n        require(TokenIdAlufisMisticoWoman < maxAlufiMisticoWoman, \"Max AlufisMistico Nfts Minted\");     \r\n         for( uint i = 0; i < amount; ++i ){\r\n        _safeMint(msg.sender, TokenIdAlufisMisticoWoman);\r\n        _createNftItem(TokenIdAlufisMisticoWoman);\r\n         TokenIdAlufisMisticoWoman += 1;\r\n     }      \r\n           \r\n        return TokenIdAlufisMisticoWoman;\r\n    }\r\n\r\n    function AlufisBuyMagicoWoman(uint amount)\r\n        public\r\n        payable\r\n        returns (uint256)\r\n    {\r\n        \r\n        require(\r\n            msg.value == listingPriceMagico,\r\n            \"Price must be equal to listing price\"\r\n        );       \r\n\r\n        require(TokenIdAlufisMagicoWoman < maxAlufiMagicoWoman, \"Max AlufisMagico Nfts Minted\");     \r\n         for( uint i = 0; i < amount; ++i ){\r\n        _safeMint(msg.sender, TokenIdAlufisMagicoWoman);\r\n        _createNftItem(TokenIdAlufisMagicoWoman);\r\n        TokenIdAlufisMagicoWoman += 1;\r\n     }      \r\n           \r\n        return TokenIdAlufisMagicoWoman;\r\n    }\r\n\r\n    function AlufisBuyGloriosoWoman(uint amount)\r\n        public\r\n        payable\r\n        returns (uint256)\r\n    {\r\n        \r\n        require(\r\n            msg.value == listingPriceGlorioso,\r\n            \"Price must be equal to listing price\"\r\n        );       \r\n\r\n        require(TokenIdAlufisGloriosoWoman < maxAlufiGloriosoWoman, \"Max AlufisGlorioso Nfts Minted\");     \r\n         for( uint i = 0; i < amount; ++i ){\r\n        _safeMint(msg.sender, TokenIdAlufisGloriosoWoman);\r\n        _createNftItem(TokenIdAlufisGloriosoWoman);\r\n        TokenIdAlufisGloriosoWoman += 1;\r\n     }      \r\n           \r\n        return TokenIdAlufisGloriosoWoman;\r\n    }\r\n\r\n       function AlufisBuyLegendarioWoman (uint amount)\r\n        public\r\n        payable\r\n        returns (uint256)\r\n    {\r\n        \r\n        require(\r\n            msg.value == listingPriceLegendario,\r\n            \"Price must be equal to listing price\"\r\n        );       \r\n\r\n        require(TokenIdAlufisLegendarioWoman < maxAlufiLegendarioWoman, \"Max AlufisLegendario Nfts Minted\");     \r\n         for( uint i = 0; i < amount; ++i ){\r\n        _safeMint(msg.sender, TokenIdAlufisLegendarioWoman);\r\n        _createNftItem(TokenIdAlufisLegendarioWoman);\r\n        TokenIdAlufisLegendarioWoman += 1;\r\n     }      \r\n           \r\n        return TokenIdAlufisLegendarioWoman;\r\n    }\r\n\r\n        function AlufisBuyEpicoWoman(uint amount)\r\n            public\r\n            payable\r\n            returns (uint256)\r\n        {\r\n            \r\n            require(\r\n                msg.value == listingPriceEpico,\r\n                \"Price must be equal to listing price\"\r\n            );          \r\n\r\n        \r\n\r\n        require(TokenIdAlufisEpicoWoman < maxAlufiEpicoWoman, \"Max AlufisEpico Nfts Minted\");     \r\n         for( uint i = 0; i < amount; ++i ){\r\n        _safeMint(msg.sender, TokenIdAlufisEpicoWoman);\r\n        _createNftItem(TokenIdAlufisEpicoWoman);\r\n        TokenIdAlufisLegendarioWoman += 1;\r\n        }      \r\n            \r\n            return TokenIdAlufisEpicoWoman;\r\n        }\r\n\r\n        function AlufisBuyInmortalWoman(uint amount)\r\n            public\r\n            payable\r\n            returns (uint256)\r\n        {\r\n            \r\n      require(\r\n                msg.value == listingPriceInmortal,\r\n                \"Price must be equal to listing price\"\r\n          );\r\n             \r\n        require(TokenIdAlufisInmortalWoman < maxAlufiInmortalWoman, \"Max AlufisInmortal Nfts Minted\");     \r\n         for( uint i = 0; i < amount; ++i ){\r\n        _safeMint(msg.sender, TokenIdAlufisInmortalWoman);\r\n        _createNftItem(TokenIdAlufisInmortalWoman);\r\n        TokenIdAlufisInmortalWoman += 1;\r\n        }      \r\n            \r\n         return TokenIdAlufisInmortalWoman;\r\n        }\r\n\r\n    function tokenURI(uint256 tokenId)\r\n        public\r\n        view\r\n        override\r\n        returns (string memory)\r\n    {\r\n        require(\r\n            _exists(tokenId)\r\n            );\r\n\r\n           string memory currentBaseURI = _baseURI();\r\n         return\r\n            bytes(currentBaseURI).length > 0\r\n                ? string(\r\n                    abi.encodePacked(\r\n                        currentBaseURI, \r\n                        tokenId.toString(), \r\n                        baseExtension \r\n                    ) \r\n                )\r\n                : \"\";\r\n\r\n    }\r\n\r\n    function buyNft(uint256 tokenId) public payable {\r\n        uint256 price = _idToNftItem[tokenId].price;\r\n        address owner = ERC721.ownerOf(tokenId);\r\n\r\n        require(msg.sender != owner, \"You already own this NFT\");\r\n        require(msg.value == price, \"Please submit the asking price\");\r\n\r\n        _idToNftItem[tokenId].isListed = false;\r\n        _listedItems.decrement();\r\n\r\n        _transfer(owner, msg.sender, tokenId);\r\n        Address.sendValue(payable(owner), msg.value);\r\n        \r\n    }\r\n\r\n     function cancellSellNft(uint256 tokenId) public  {\r\n        \r\n    require(ERC721.ownerOf(tokenId) == msg.sender, \"You are not owner of this nft\");\r\n        \r\n    _idToNftItem[tokenId].isListed = false;\r\n    _listedItems.decrement();\r\n     \r\n    }\r\n\r\n    function placeNftOnSale(uint tokenId, uint newPrice) public payable {\r\n    require(ERC721.ownerOf(tokenId) == msg.sender, \"You are not owner of this nft\");\r\n    require(_idToNftItem[tokenId].isListed == false, \"Item is already on sale\");\r\n    \r\n\r\n    _idToNftItem[tokenId].isListed = true;\r\n    _idToNftItem[tokenId].price = newPrice;\r\n    _listedItems.increment();\r\n  }\r\n\r\n    function _createNftItem(uint256 tokenId) private {\r\n\r\n        _idToNftItem[tokenId] = NftItem(tokenId, listingPriceMistico, msg.sender, false);\r\n\r\n        emit NftItemCreated(tokenId, listingPriceMistico, msg.sender, false);\r\n    }\r\n\r\n    function _beforeTokenTransfer(\r\n        address from,\r\n        address to,\r\n        uint256 tokenId\r\n    ) internal virtual override {\r\n        super._beforeTokenTransfer(from, to, tokenId);\r\n\r\n        // minting token\r\n        if (from == address(0)) {\r\n            _addTokenToAllTokensEnumeration(tokenId);\r\n        } else if (from != to) {\r\n            _removeTokenFromOwnerEnumeration(from, tokenId);\r\n        }\r\n        if (to == address(0)) {\r\n            _removeTokenFromAllTokensEnumeration(tokenId);\r\n        } else if (to != from) {\r\n            _addTokenToOwnerEnumaretion(to, tokenId);\r\n        }\r\n    }\r\n\r\n    function _addTokenToAllTokensEnumeration(uint256 tokenId) private {\r\n        _idToNftIndex[tokenId] = _allNfts.length;\r\n        _allNfts.push(tokenId);\r\n    }\r\n\r\n    function _addTokenToOwnerEnumaretion(address to, uint256 tokenId) private {\r\n        uint256 length = ERC721.balanceOf(to);\r\n        _ownedTokens[to][length] = tokenId;\r\n        _idToOwnedIndex[tokenId] = length;\r\n    }\r\n\r\n    function _removeTokenFromOwnerEnumeration(address from, uint256 tokenId)\r\n        private\r\n    {\r\n        uint256 lastTokenIndex = ERC721.balanceOf(from) - 1;\r\n        uint256 tokenIndex = _idToOwnedIndex[tokenId];\r\n\r\n        if (tokenIndex != lastTokenIndex) {\r\n            uint256 lastTokenId = _ownedTokens[from][lastTokenIndex];\r\n\r\n            _ownedTokens[from][tokenIndex] = lastTokenId;\r\n            _idToOwnedIndex[lastTokenId] = tokenIndex;\r\n        }\r\n\r\n        delete _idToOwnedIndex[tokenId];\r\n        delete _ownedTokens[from][lastTokenIndex];\r\n    }\r\n\r\n    function _removeTokenFromAllTokensEnumeration(uint tokenId) private {\r\n    uint lastTokenIndex = _allNfts.length - 1;\r\n    uint tokenIndex = _idToNftIndex[tokenId];\r\n    uint lastTokenId = _allNfts[lastTokenIndex];\r\n\r\n    _allNfts[tokenIndex] = lastTokenId;\r\n    _idToNftIndex[lastTokenId] = tokenIndex;\r\n\r\n    delete _idToNftIndex[tokenId];\r\n    _allNfts.pop();\r\n  }\r\n\r\n}\r\n",
  "sourcePath": "C:\\Users\\nahue\\OneDrive\\Escritorio\\marketplace\\nft-marketplace\\contracts\\NftMarketSeconds.sol",
  "compiler": {
    "name": "solc",
    "version": "0.8.16+commit.07a7930e.Emscripten.clang"
  },
  "schemaVersion": "3.4.9",
  "updatedAt": "2022-09-20T02:40:37.956Z",
  "networkType": "ethereum",
  "devdoc": {
    "kind": "dev",
    "methods": {
      "approve(address,uint256)": {
        "details": "See {IERC721-approve}."
      },
      "balanceOf(address)": {
        "details": "See {IERC721-balanceOf}."
      },
      "getApproved(uint256)": {
        "details": "See {IERC721-getApproved}."
      },
      "isApprovedForAll(address,address)": {
        "details": "See {IERC721-isApprovedForAll}."
      },
      "name()": {
        "details": "See {IERC721Metadata-name}."
      },
      "owner()": {
        "details": "Returns the address of the current owner."
      },
      "ownerOf(uint256)": {
        "details": "See {IERC721-ownerOf}."
      },
      "renounceOwnership()": {
        "details": "Leaves the contract without owner. It will not be possible to call `onlyOwner` functions anymore. Can only be called by the current owner. NOTE: Renouncing ownership will leave the contract without an owner, thereby removing any functionality that is only available to the owner."
      },
      "safeTransferFrom(address,address,uint256)": {
        "details": "See {IERC721-safeTransferFrom}."
      },
      "safeTransferFrom(address,address,uint256,bytes)": {
        "details": "See {IERC721-safeTransferFrom}."
      },
      "setApprovalForAll(address,bool)": {
        "details": "See {IERC721-setApprovalForAll}."
      },
      "supportsInterface(bytes4)": {
        "details": "See {IERC165-supportsInterface}."
      },
      "symbol()": {
        "details": "See {IERC721Metadata-symbol}."
      },
      "tokenURI(uint256)": {
        "details": "See {IERC721Metadata-tokenURI}."
      },
      "transferFrom(address,address,uint256)": {
        "details": "See {IERC721-transferFrom}."
      },
      "transferOwnership(address)": {
        "details": "Transfers ownership of the contract to a new account (`newOwner`). Can only be called by the current owner."
      }
    },
    "version": 1
  },
  "userdoc": {
    "kind": "user",
    "methods": {},
    "version": 1
  }
}