{
  "contractName": "NftMarket",
  "abi": [
    {
      "inputs": [],
      "stateMutability": "nonpayable",
      "type": "constructor"
    },
    {
      "anonymous": false,
      "inputs": [
        {
          "indexed": true,
          "internalType": "address",
          "name": "owner",
          "type": "address"
        },
        {
          "indexed": true,
          "internalType": "address",
          "name": "approved",
          "type": "address"
        },
        {
          "indexed": true,
          "internalType": "uint256",
          "name": "tokenId",
          "type": "uint256"
        }
      ],
      "name": "Approval",
      "type": "event"
    },
    {
      "anonymous": false,
      "inputs": [
        {
          "indexed": true,
          "internalType": "address",
          "name": "owner",
          "type": "address"
        },
        {
          "indexed": true,
          "internalType": "address",
          "name": "operator",
          "type": "address"
        },
        {
          "indexed": false,
          "internalType": "bool",
          "name": "approved",
          "type": "bool"
        }
      ],
      "name": "ApprovalForAll",
      "type": "event"
    },
    {
      "anonymous": false,
      "inputs": [
        {
          "indexed": false,
          "internalType": "uint256",
          "name": "tokenId",
          "type": "uint256"
        },
        {
          "indexed": false,
          "internalType": "uint256",
          "name": "price",
          "type": "uint256"
        },
        {
          "indexed": false,
          "internalType": "address",
          "name": "creator",
          "type": "address"
        },
        {
          "indexed": false,
          "internalType": "bool",
          "name": "isListed",
          "type": "bool"
        }
      ],
      "name": "NftItemCreated",
      "type": "event"
    },
    {
      "anonymous": false,
      "inputs": [
        {
          "indexed": true,
          "internalType": "address",
          "name": "previousOwner",
          "type": "address"
        },
        {
          "indexed": true,
          "internalType": "address",
          "name": "newOwner",
          "type": "address"
        }
      ],
      "name": "OwnershipTransferred",
      "type": "event"
    },
    {
      "anonymous": false,
      "inputs": [
        {
          "indexed": true,
          "internalType": "address",
          "name": "from",
          "type": "address"
        },
        {
          "indexed": true,
          "internalType": "address",
          "name": "to",
          "type": "address"
        },
        {
          "indexed": true,
          "internalType": "uint256",
          "name": "tokenId",
          "type": "uint256"
        }
      ],
      "name": "Transfer",
      "type": "event"
    },
    {
      "inputs": [
        {
          "internalType": "address",
          "name": "to",
          "type": "address"
        },
        {
          "internalType": "uint256",
          "name": "tokenId",
          "type": "uint256"
        }
      ],
      "name": "approve",
      "outputs": [],
      "stateMutability": "nonpayable",
      "type": "function"
    },
    {
      "inputs": [
        {
          "internalType": "address",
          "name": "owner",
          "type": "address"
        }
      ],
      "name": "balanceOf",
      "outputs": [
        {
          "internalType": "uint256",
          "name": "",
          "type": "uint256"
        }
      ],
      "stateMutability": "view",
      "type": "function"
    },
    {
      "inputs": [],
      "name": "baseExtension",
      "outputs": [
        {
          "internalType": "string",
          "name": "",
          "type": "string"
        }
      ],
      "stateMutability": "view",
      "type": "function"
    },
    {
      "inputs": [],
      "name": "baseURI",
      "outputs": [
        {
          "internalType": "string",
          "name": "",
          "type": "string"
        }
      ],
      "stateMutability": "view",
      "type": "function"
    },
    {
      "inputs": [
        {
          "internalType": "uint256",
          "name": "tokenId",
          "type": "uint256"
        }
      ],
      "name": "getApproved",
      "outputs": [
        {
          "internalType": "address",
          "name": "",
          "type": "address"
        }
      ],
      "stateMutability": "view",
      "type": "function"
    },
    {
      "inputs": [
        {
          "internalType": "address",
          "name": "owner",
          "type": "address"
        },
        {
          "internalType": "address",
          "name": "operator",
          "type": "address"
        }
      ],
      "name": "isApprovedForAll",
      "outputs": [
        {
          "internalType": "bool",
          "name": "",
          "type": "bool"
        }
      ],
      "stateMutability": "view",
      "type": "function"
    },
    {
      "inputs": [],
      "name": "listingPrice",
      "outputs": [
        {
          "internalType": "uint256",
          "name": "",
          "type": "uint256"
        }
      ],
      "stateMutability": "view",
      "type": "function"
    },
    {
      "inputs": [],
      "name": "maxSupply",
      "outputs": [
        {
          "internalType": "uint256",
          "name": "",
          "type": "uint256"
        }
      ],
      "stateMutability": "view",
      "type": "function"
    },
    {
      "inputs": [],
      "name": "name",
      "outputs": [
        {
          "internalType": "string",
          "name": "",
          "type": "string"
        }
      ],
      "stateMutability": "view",
      "type": "function"
    },
    {
      "inputs": [],
      "name": "owner",
      "outputs": [
        {
          "internalType": "address",
          "name": "",
          "type": "address"
        }
      ],
      "stateMutability": "view",
      "type": "function"
    },
    {
      "inputs": [
        {
          "internalType": "uint256",
          "name": "tokenId",
          "type": "uint256"
        }
      ],
      "name": "ownerOf",
      "outputs": [
        {
          "internalType": "address",
          "name": "",
          "type": "address"
        }
      ],
      "stateMutability": "view",
      "type": "function"
    },
    {
      "inputs": [],
      "name": "renounceOwnership",
      "outputs": [],
      "stateMutability": "nonpayable",
      "type": "function"
    },
    {
      "inputs": [
        {
          "internalType": "address",
          "name": "from",
          "type": "address"
        },
        {
          "internalType": "address",
          "name": "to",
          "type": "address"
        },
        {
          "internalType": "uint256",
          "name": "tokenId",
          "type": "uint256"
        }
      ],
      "name": "safeTransferFrom",
      "outputs": [],
      "stateMutability": "nonpayable",
      "type": "function"
    },
    {
      "inputs": [
        {
          "internalType": "address",
          "name": "from",
          "type": "address"
        },
        {
          "internalType": "address",
          "name": "to",
          "type": "address"
        },
        {
          "internalType": "uint256",
          "name": "tokenId",
          "type": "uint256"
        },
        {
          "internalType": "bytes",
          "name": "data",
          "type": "bytes"
        }
      ],
      "name": "safeTransferFrom",
      "outputs": [],
      "stateMutability": "nonpayable",
      "type": "function"
    },
    {
      "inputs": [
        {
          "internalType": "address",
          "name": "operator",
          "type": "address"
        },
        {
          "internalType": "bool",
          "name": "approved",
          "type": "bool"
        }
      ],
      "name": "setApprovalForAll",
      "outputs": [],
      "stateMutability": "nonpayable",
      "type": "function"
    },
    {
      "inputs": [
        {
          "internalType": "bytes4",
          "name": "interfaceId",
          "type": "bytes4"
        }
      ],
      "name": "supportsInterface",
      "outputs": [
        {
          "internalType": "bool",
          "name": "",
          "type": "bool"
        }
      ],
      "stateMutability": "view",
      "type": "function"
    },
    {
      "inputs": [],
      "name": "symbol",
      "outputs": [
        {
          "internalType": "string",
          "name": "",
          "type": "string"
        }
      ],
      "stateMutability": "view",
      "type": "function"
    },
    {
      "inputs": [
        {
          "internalType": "address",
          "name": "from",
          "type": "address"
        },
        {
          "internalType": "address",
          "name": "to",
          "type": "address"
        },
        {
          "internalType": "uint256",
          "name": "tokenId",
          "type": "uint256"
        }
      ],
      "name": "transferFrom",
      "outputs": [],
      "stateMutability": "nonpayable",
      "type": "function"
    },
    {
      "inputs": [
        {
          "internalType": "address",
          "name": "newOwner",
          "type": "address"
        }
      ],
      "name": "transferOwnership",
      "outputs": [],
      "stateMutability": "nonpayable",
      "type": "function"
    },
    {
      "inputs": [
        {
          "internalType": "uint256",
          "name": "newPrice",
          "type": "uint256"
        }
      ],
      "name": "setListingPrice",
      "outputs": [],
      "stateMutability": "nonpayable",
      "type": "function"
    },
    {
      "inputs": [
        {
          "internalType": "uint256",
          "name": "tokenId",
          "type": "uint256"
        }
      ],
      "name": "getNftItem",
      "outputs": [
        {
          "components": [
            {
              "internalType": "uint256",
              "name": "tokenId",
              "type": "uint256"
            },
            {
              "internalType": "uint256",
              "name": "price",
              "type": "uint256"
            },
            {
              "internalType": "address",
              "name": "creator",
              "type": "address"
            },
            {
              "internalType": "bool",
              "name": "isListed",
              "type": "bool"
            }
          ],
          "internalType": "struct NftMarket.NftItem",
          "name": "",
          "type": "tuple"
        }
      ],
      "stateMutability": "view",
      "type": "function"
    },
    {
      "inputs": [],
      "name": "listedItemsCount",
      "outputs": [
        {
          "internalType": "uint256",
          "name": "",
          "type": "uint256"
        }
      ],
      "stateMutability": "view",
      "type": "function"
    },
    {
      "inputs": [],
      "name": "totalSupply",
      "outputs": [
        {
          "internalType": "uint256",
          "name": "",
          "type": "uint256"
        }
      ],
      "stateMutability": "view",
      "type": "function"
    },
    {
      "inputs": [
        {
          "internalType": "string",
          "name": "_newBaseURI",
          "type": "string"
        }
      ],
      "name": "setBaseURI",
      "outputs": [],
      "stateMutability": "nonpayable",
      "type": "function"
    },
    {
      "inputs": [
        {
          "internalType": "uint256",
          "name": "index",
          "type": "uint256"
        }
      ],
      "name": "tokenByIndex",
      "outputs": [
        {
          "internalType": "uint256",
          "name": "",
          "type": "uint256"
        }
      ],
      "stateMutability": "view",
      "type": "function"
    },
    {
      "inputs": [
        {
          "internalType": "address",
          "name": "owner",
          "type": "address"
        },
        {
          "internalType": "uint256",
          "name": "index",
          "type": "uint256"
        }
      ],
      "name": "tokenOfOwnerByIndex",
      "outputs": [
        {
          "internalType": "uint256",
          "name": "",
          "type": "uint256"
        }
      ],
      "stateMutability": "view",
      "type": "function"
    },
    {
      "inputs": [],
      "name": "getAllNftsOnSale",
      "outputs": [
        {
          "components": [
            {
              "internalType": "uint256",
              "name": "tokenId",
              "type": "uint256"
            },
            {
              "internalType": "uint256",
              "name": "price",
              "type": "uint256"
            },
            {
              "internalType": "address",
              "name": "creator",
              "type": "address"
            },
            {
              "internalType": "bool",
              "name": "isListed",
              "type": "bool"
            }
          ],
          "internalType": "struct NftMarket.NftItem[]",
          "name": "",
          "type": "tuple[]"
        }
      ],
      "stateMutability": "view",
      "type": "function"
    },
    {
      "inputs": [],
      "name": "getOwnedNfts",
      "outputs": [
        {
          "components": [
            {
              "internalType": "uint256",
              "name": "tokenId",
              "type": "uint256"
            },
            {
              "internalType": "uint256",
              "name": "price",
              "type": "uint256"
            },
            {
              "internalType": "address",
              "name": "creator",
              "type": "address"
            },
            {
              "internalType": "bool",
              "name": "isListed",
              "type": "bool"
            }
          ],
          "internalType": "struct NftMarket.NftItem[]",
          "name": "",
          "type": "tuple[]"
        }
      ],
      "stateMutability": "view",
      "type": "function"
    },
    {
      "inputs": [
        {
          "internalType": "uint256",
          "name": "price",
          "type": "uint256"
        }
      ],
      "name": "mintToken",
      "outputs": [
        {
          "internalType": "uint256",
          "name": "",
          "type": "uint256"
        }
      ],
      "stateMutability": "payable",
      "type": "function"
    },
    {
      "inputs": [
        {
          "internalType": "uint256",
          "name": "tokenId",
          "type": "uint256"
        }
      ],
      "name": "tokenURI",
      "outputs": [
        {
          "internalType": "string",
          "name": "",
          "type": "string"
        }
      ],
      "stateMutability": "view",
      "type": "function"
    },
    {
      "inputs": [
        {
          "internalType": "uint256",
          "name": "tokenId",
          "type": "uint256"
        }
      ],
      "name": "buyNft",
      "outputs": [],
      "stateMutability": "payable",
      "type": "function"
    },
    {
      "inputs": [
        {
          "internalType": "uint256",
          "name": "tokenId",
          "type": "uint256"
        },
        {
          "internalType": "uint256",
          "name": "newPrice",
          "type": "uint256"
        }
      ],
      "name": "placeNftOnSale",
      "outputs": [],
      "stateMutability": "payable",
      "type": "function"
    }
  ],
  "bytecode": "0x60806040526658d15e176280006008556040518060400160405280600581526020017f2e6a736f6e000000000000000000000000000000000000000000000000000000815250600b908162000055919062000464565b503480156200006357600080fd5b506040518060400160405280600681526020017f456c664e465400000000000000000000000000000000000000000000000000008152506040518060400160405280600481526020017f454e4654000000000000000000000000000000000000000000000000000000008152508160009081620000e1919062000464565b508060019081620000f3919062000464565b505050620001166200010a6200011c60201b60201c565b6200012460201b60201c565b6200054b565b600033905090565b6000600760009054906101000a900473ffffffffffffffffffffffffffffffffffffffff16905081600760006101000a81548173ffffffffffffffffffffffffffffffffffffffff021916908373ffffffffffffffffffffffffffffffffffffffff1602179055508173ffffffffffffffffffffffffffffffffffffffff168173ffffffffffffffffffffffffffffffffffffffff167f8be0079c531659141344cd1fd0a4f28419497f9722a3daafe3b4186f6b6457e060405160405180910390a35050565b600081519050919050565b7f4e487b7100000000000000000000000000000000000000000000000000000000600052604160045260246000fd5b7f4e487b7100000000000000000000000000000000000000000000000000000000600052602260045260246000fd5b600060028204905060018216806200026c57607f821691505b60208210810362000282576200028162000224565b5b50919050565b60008190508160005260206000209050919050565b60006020601f8301049050919050565b600082821b905092915050565b600060088302620002ec7fffffffffffffffffffffffffffffffffffffffffffffffffffffffffffffffff82620002ad565b620002f88683620002ad565b95508019841693508086168417925050509392505050565b6000819050919050565b6000819050919050565b6000620003456200033f620003398462000310565b6200031a565b62000310565b9050919050565b6000819050919050565b620003618362000324565b6200037962000370826200034c565b848454620002ba565b825550505050565b600090565b6200039062000381565b6200039d81848462000356565b505050565b5b81811015620003c557620003b960008262000386565b600181019050620003a3565b5050565b601f8211156200041457620003de8162000288565b620003e9846200029d565b81016020851015620003f9578190505b6200041162000408856200029d565b830182620003a2565b50505b505050565b600082821c905092915050565b6000620004396000198460080262000419565b1980831691505092915050565b600062000454838362000426565b9150826002028217905092915050565b6200046f82620001ea565b67ffffffffffffffff8111156200048b576200048a620001f5565b5b62000497825462000253565b620004a4828285620003c9565b600060209050601f831160018114620004dc5760008415620004c7578287015190505b620004d3858262000446565b86555062000543565b601f198416620004ec8662000288565b60005b828110156200051657848901518255600182019150602085019450602081019050620004ef565b8683101562000536578489015162000532601f89168262000426565b8355505b6001600288020188555050505b505050505050565b6146fa806200055b6000396000f3fe6080604052600436106101e35760003560e01c806370a0823111610102578063c634d03211610095578063ccb4918d11610064578063ccb4918d146106f1578063d5abeb011461071c578063e985e9c514610747578063f2fde38b14610784576101e3565b8063c634d0321461062e578063c66828621461065e578063c78f19f914610689578063c87b56dd146106b4576101e3565b80638da5cb5b116100d15780638da5cb5b1461058657806395d89b41146105b1578063a22cb465146105dc578063b88d4fde14610605576101e3565b806370a08231146104de57806370cbcb431461051b578063715018a6146105465780637c726b691461055d576101e3565b80632f745c591161017a57806355f804b31161014957806355f804b3146104105780636352211e146104395780636c0360eb146104765780636f1a0af5146104a1576101e3565b80632f745c591461034257806336b536be1461037f57806342842e0e146103aa5780634f6ccce7146103d3576101e3565b806318160ddd116101b657806318160ddd146102b657806321f422e5146102e157806323b872dd146102fd578063243adbdd14610326576101e3565b806301ffc9a7146101e857806306fdde0314610225578063081812fc14610250578063095ea7b31461028d575b600080fd5b3480156101f457600080fd5b5061020f600480360381019061020a9190612d93565b6107ad565b60405161021c9190612ddb565b60405180910390f35b34801561023157600080fd5b5061023a61088f565b6040516102479190612e86565b60405180910390f35b34801561025c57600080fd5b5061027760048036038101906102729190612ede565b610921565b6040516102849190612f4c565b60405180910390f35b34801561029957600080fd5b506102b460048036038101906102af9190612f93565b610967565b005b3480156102c257600080fd5b506102cb610a7e565b6040516102d89190612fe2565b60405180910390f35b6102fb60048036038101906102f69190612ffd565b610a8b565b005b34801561030957600080fd5b50610324600480360381019061031f919061303d565b610c07565b005b610340600480360381019061033b9190612ede565b610c67565b005b34801561034e57600080fd5b5061036960048036038101906103649190612f93565b610dcf565b6040516103769190612fe2565b60405180910390f35b34801561038b57600080fd5b50610394610e74565b6040516103a191906131c1565b60405180910390f35b3480156103b657600080fd5b506103d160048036038101906103cc919061303d565b61100e565b005b3480156103df57600080fd5b506103fa60048036038101906103f59190612ede565b61102e565b6040516104079190612fe2565b60405180910390f35b34801561041c57600080fd5b5061043760048036038101906104329190613318565b61109f565b005b34801561044557600080fd5b50610460600480360381019061045b9190612ede565b6110ba565b60405161046d9190612f4c565b60405180910390f35b34801561048257600080fd5b5061048b61116b565b6040516104989190612e86565b60405180910390f35b3480156104ad57600080fd5b506104c860048036038101906104c39190612ede565b6111f9565b6040516104d591906133b6565b60405180910390f35b3480156104ea57600080fd5b50610505600480360381019061050091906133d1565b6112ab565b6040516105129190612fe2565b60405180910390f35b34801561052757600080fd5b50610530611362565b60405161053d91906131c1565b60405180910390f35b34801561055257600080fd5b5061055b6114c6565b005b34801561056957600080fd5b50610584600480360381019061057f9190612ede565b6114da565b005b34801561059257600080fd5b5061059b61152f565b6040516105a89190612f4c565b60405180910390f35b3480156105bd57600080fd5b506105c6611559565b6040516105d39190612e86565b60405180910390f35b3480156105e857600080fd5b5061060360048036038101906105fe919061342a565b6115eb565b005b34801561061157600080fd5b5061062c6004803603810190610627919061350b565b611601565b005b61064860048036038101906106439190612ede565b611663565b6040516106559190612fe2565b60405180910390f35b34801561066a57600080fd5b506106736116e8565b6040516106809190612e86565b60405180910390f35b34801561069557600080fd5b5061069e611776565b6040516106ab9190612fe2565b60405180910390f35b3480156106c057600080fd5b506106db60048036038101906106d69190612ede565b61177c565b6040516106e89190612e86565b60405180910390f35b3480156106fd57600080fd5b506107066117f0565b6040516107139190612fe2565b60405180910390f35b34801561072857600080fd5b50610731611801565b60405161073e9190612fe2565b60405180910390f35b34801561075357600080fd5b5061076e6004803603810190610769919061358e565b611807565b60405161077b9190612ddb565b60405180910390f35b34801561079057600080fd5b506107ab60048036038101906107a691906133d1565b61189b565b005b60007f80ac58cd000000000000000000000000000000000000000000000000000000007bffffffffffffffffffffffffffffffffffffffffffffffffffffffff1916827bffffffffffffffffffffffffffffffffffffffffffffffffffffffff1916148061087857507f5b5e139f000000000000000000000000000000000000000000000000000000007bffffffffffffffffffffffffffffffffffffffffffffffffffffffff1916827bffffffffffffffffffffffffffffffffffffffffffffffffffffffff1916145b8061088857506108878261191e565b5b9050919050565b60606000805461089e906135fd565b80601f01602080910402602001604051908101604052809291908181526020018280546108ca906135fd565b80156109175780601f106108ec57610100808354040283529160200191610917565b820191906000526020600020905b8154815290600101906020018083116108fa57829003601f168201915b5050505050905090565b600061092c82611988565b6004600083815260200190815260200160002060009054906101000a900473ffffffffffffffffffffffffffffffffffffffff169050919050565b6000610972826110ba565b90508073ffffffffffffffffffffffffffffffffffffffff168373ffffffffffffffffffffffffffffffffffffffff16036109e2576040517f08c379a00000000000000000000000000000000000000000000000000000000081526004016109d9906136a0565b60405180910390fd5b8073ffffffffffffffffffffffffffffffffffffffff16610a016119d3565b73ffffffffffffffffffffffffffffffffffffffff161480610a305750610a2f81610a2a6119d3565b611807565b5b610a6f576040517f08c379a0000000000000000000000000000000000000000000000000000000008152600401610a6690613732565b60405180910390fd5b610a7983836119db565b505050565b6000601280549050905090565b3373ffffffffffffffffffffffffffffffffffffffff16610aab836110ba565b73ffffffffffffffffffffffffffffffffffffffff1614610b01576040517f08c379a0000000000000000000000000000000000000000000000000000000008152600401610af89061379e565b60405180910390fd5b60001515600f600084815260200190815260200160002060020160149054906101000a900460ff16151514610b6b576040517f08c379a0000000000000000000000000000000000000000000000000000000008152600401610b629061380a565b60405180910390fd5b6008543414610baf576040517f08c379a0000000000000000000000000000000000000000000000000000000008152600401610ba69061389c565b60405180910390fd5b6001600f600084815260200190815260200160002060020160146101000a81548160ff02191690831515021790555080600f600084815260200190815260200160002060010181905550610c036009611a94565b5050565b610c18610c126119d3565b82611aaa565b610c57576040517f08c379a0000000000000000000000000000000000000000000000000000000008152600401610c4e9061392e565b60405180910390fd5b610c62838383611b3f565b505050565b6000600f60008381526020019081526020016000206001015490506000610c8d836110ba565b90508073ffffffffffffffffffffffffffffffffffffffff163373ffffffffffffffffffffffffffffffffffffffff1603610cfd576040517f08c379a0000000000000000000000000000000000000000000000000000000008152600401610cf49061399a565b60405180910390fd5b813414610d3f576040517f08c379a0000000000000000000000000000000000000000000000000000000008152600401610d3690613a06565b60405180910390fd5b6000600f600085815260200190815260200160002060020160146101000a81548160ff021916908315150217905550610d786009611da5565b610d83813385611b3f565b8073ffffffffffffffffffffffffffffffffffffffff166108fc349081150290604051600060405180830381858888f19350505050158015610dc9573d6000803e3d6000fd5b50505050565b6000610dda836112ab565b8210610e1b576040517f08c379a0000000000000000000000000000000000000000000000000000000008152600401610e1290613a72565b60405180910390fd5b601060008473ffffffffffffffffffffffffffffffffffffffff1673ffffffffffffffffffffffffffffffffffffffff168152602001908152602001600020600083815260200190815260200160002054905092915050565b60606000610e80610a7e565b9050600080610e8f6009611e01565b67ffffffffffffffff811115610ea857610ea76131ed565b5b604051908082528060200260200182016040528015610ee157816020015b610ece612ce7565b815260200190600190039081610ec65790505b50905060005b83811015611004576000610efa8261102e565b90506000600f60008381526020019081526020016000209050600115158160020160149054906101000a900460ff16151503610fef578060405180608001604052908160008201548152602001600182015481526020016002820160009054906101000a900473ffffffffffffffffffffffffffffffffffffffff1673ffffffffffffffffffffffffffffffffffffffff1673ffffffffffffffffffffffffffffffffffffffff1681526020016002820160149054906101000a900460ff161515151581525050848681518110610fd457610fd3613a92565b5b6020026020010181905250600185610fec9190613af0565b94505b50508080610ffc90613b24565b915050610ee7565b5080935050505090565b61102983838360405180602001604052806000815250611601565b505050565b6000611038610a7e565b8210611079576040517f08c379a000000000000000000000000000000000000000000000000000000000815260040161107090613a72565b60405180910390fd5b6012828154811061108d5761108c613a92565b5b90600052602060002001549050919050565b6110a7611e0f565b80600d90816110b69190613d18565b5050565b6000806002600084815260200190815260200160002060009054906101000a900473ffffffffffffffffffffffffffffffffffffffff169050600073ffffffffffffffffffffffffffffffffffffffff168173ffffffffffffffffffffffffffffffffffffffff1603611162576040517f08c379a000000000000000000000000000000000000000000000000000000000815260040161115990613e36565b60405180910390fd5b80915050919050565b600d8054611178906135fd565b80601f01602080910402602001604051908101604052809291908181526020018280546111a4906135fd565b80156111f15780601f106111c6576101008083540402835291602001916111f1565b820191906000526020600020905b8154815290600101906020018083116111d457829003601f168201915b505050505081565b611201612ce7565b600f600083815260200190815260200160002060405180608001604052908160008201548152602001600182015481526020016002820160009054906101000a900473ffffffffffffffffffffffffffffffffffffffff1673ffffffffffffffffffffffffffffffffffffffff1673ffffffffffffffffffffffffffffffffffffffff1681526020016002820160149054906101000a900460ff1615151515815250509050919050565b60008073ffffffffffffffffffffffffffffffffffffffff168273ffffffffffffffffffffffffffffffffffffffff160361131b576040517f08c379a000000000000000000000000000000000000000000000000000000000815260040161131290613ec8565b60405180910390fd5b600360008373ffffffffffffffffffffffffffffffffffffffff1673ffffffffffffffffffffffffffffffffffffffff168152602001908152602001600020549050919050565b6060600061136f336112ab565b905060008167ffffffffffffffff81111561138d5761138c6131ed565b5b6040519080825280602002602001820160405280156113c657816020015b6113b3612ce7565b8152602001906001900390816113ab5790505b50905060005b828110156114bd5760006113e03383610dcf565b90506000600f600083815260200190815260200160002090508060405180608001604052908160008201548152602001600182015481526020016002820160009054906101000a900473ffffffffffffffffffffffffffffffffffffffff1673ffffffffffffffffffffffffffffffffffffffff1673ffffffffffffffffffffffffffffffffffffffff1681526020016002820160149054906101000a900460ff16151515158152505084848151811061149d5761149c613a92565b5b6020026020010181905250505080806114b590613b24565b9150506113cc565b50809250505090565b6114ce611e0f565b6114d86000611e8d565b565b6114e2611e0f565b60008111611525576040517f08c379a000000000000000000000000000000000000000000000000000000000815260040161151c90613f34565b60405180910390fd5b8060088190555050565b6000600760009054906101000a900473ffffffffffffffffffffffffffffffffffffffff16905090565b606060018054611568906135fd565b80601f0160208091040260200160405190810160405280929190818152602001828054611594906135fd565b80156115e15780601f106115b6576101008083540402835291602001916115e1565b820191906000526020600020905b8154815290600101906020018083116115c457829003601f168201915b5050505050905090565b6115fd6115f66119d3565b8383611f53565b5050565b61161261160c6119d3565b83611aaa565b611651576040517f08c379a00000000000000000000000000000000000000000000000000000000081526004016116489061392e565b60405180910390fd5b61165d848484846120bf565b50505050565b600060085434146116a9576040517f08c379a00000000000000000000000000000000000000000000000000000000081526004016116a09061389c565b60405180910390fd5b6116b3600a611a94565b6116bd6009611a94565b60006116c9600a611e01565b90506116d5338261211b565b6116df8184612139565b80915050919050565b600b80546116f5906135fd565b80601f0160208091040260200160405190810160405280929190818152602001828054611721906135fd565b801561176e5780601f106117435761010080835404028352916020019161176e565b820191906000526020600020905b81548152906001019060200180831161175157829003601f168201915b505050505081565b60085481565b606061178782612289565b61179057600080fd5b600061179a6122f5565b905060008151116117ba57604051806020016040528060008152506117e8565b806117c484612387565b600b6040516020016117d893929190614013565b6040516020818303038152906040525b915050919050565b60006117fc6009611e01565b905090565b600c5481565b6000600560008473ffffffffffffffffffffffffffffffffffffffff1673ffffffffffffffffffffffffffffffffffffffff16815260200190815260200160002060008373ffffffffffffffffffffffffffffffffffffffff1673ffffffffffffffffffffffffffffffffffffffff16815260200190815260200160002060009054906101000a900460ff16905092915050565b6118a3611e0f565b600073ffffffffffffffffffffffffffffffffffffffff168173ffffffffffffffffffffffffffffffffffffffff1603611912576040517f08c379a0000000000000000000000000000000000000000000000000000000008152600401611909906140b6565b60405180910390fd5b61191b81611e8d565b50565b60007f01ffc9a7000000000000000000000000000000000000000000000000000000007bffffffffffffffffffffffffffffffffffffffffffffffffffffffff1916827bffffffffffffffffffffffffffffffffffffffffffffffffffffffff1916149050919050565b61199181612289565b6119d0576040517f08c379a00000000000000000000000000000000000000000000000000000000081526004016119c790613e36565b60405180910390fd5b50565b600033905090565b816004600083815260200190815260200160002060006101000a81548173ffffffffffffffffffffffffffffffffffffffff021916908373ffffffffffffffffffffffffffffffffffffffff160217905550808273ffffffffffffffffffffffffffffffffffffffff16611a4e836110ba565b73ffffffffffffffffffffffffffffffffffffffff167f8c5be1e5ebec7d5bd14f71427d1e84f3dd0314c0f7b2291e5b200ac8c7c3b92560405160405180910390a45050565b6001816000016000828254019250508190555050565b600080611ab6836110ba565b90508073ffffffffffffffffffffffffffffffffffffffff168473ffffffffffffffffffffffffffffffffffffffff161480611af85750611af78185611807565b5b80611b3657508373ffffffffffffffffffffffffffffffffffffffff16611b1e84610921565b73ffffffffffffffffffffffffffffffffffffffff16145b91505092915050565b8273ffffffffffffffffffffffffffffffffffffffff16611b5f826110ba565b73ffffffffffffffffffffffffffffffffffffffff1614611bb5576040517f08c379a0000000000000000000000000000000000000000000000000000000008152600401611bac90614148565b60405180910390fd5b600073ffffffffffffffffffffffffffffffffffffffff168273ffffffffffffffffffffffffffffffffffffffff1603611c24576040517f08c379a0000000000000000000000000000000000000000000000000000000008152600401611c1b906141da565b60405180910390fd5b611c2f8383836124e7565b611c3a6000826119db565b6001600360008573ffffffffffffffffffffffffffffffffffffffff1673ffffffffffffffffffffffffffffffffffffffff1681526020019081526020016000206000828254611c8a91906141fa565b925050819055506001600360008473ffffffffffffffffffffffffffffffffffffffff1673ffffffffffffffffffffffffffffffffffffffff1681526020019081526020016000206000828254611ce19190613af0565b92505081905550816002600083815260200190815260200160002060006101000a81548173ffffffffffffffffffffffffffffffffffffffff021916908373ffffffffffffffffffffffffffffffffffffffff160217905550808273ffffffffffffffffffffffffffffffffffffffff168473ffffffffffffffffffffffffffffffffffffffff167fddf252ad1be2c89b69c2b068fc378daa952ba7f163c4a11628f55a4df523b3ef60405160405180910390a4611da08383836125f9565b505050565b60008160000154905060008111611df1576040517f08c379a0000000000000000000000000000000000000000000000000000000008152600401611de89061427a565b60405180910390fd5b6001810382600001819055505050565b600081600001549050919050565b611e176119d3565b73ffffffffffffffffffffffffffffffffffffffff16611e3561152f565b73ffffffffffffffffffffffffffffffffffffffff1614611e8b576040517f08c379a0000000000000000000000000000000000000000000000000000000008152600401611e82906142e6565b60405180910390fd5b565b6000600760009054906101000a900473ffffffffffffffffffffffffffffffffffffffff16905081600760006101000a81548173ffffffffffffffffffffffffffffffffffffffff021916908373ffffffffffffffffffffffffffffffffffffffff1602179055508173ffffffffffffffffffffffffffffffffffffffff168173ffffffffffffffffffffffffffffffffffffffff167f8be0079c531659141344cd1fd0a4f28419497f9722a3daafe3b4186f6b6457e060405160405180910390a35050565b8173ffffffffffffffffffffffffffffffffffffffff168373ffffffffffffffffffffffffffffffffffffffff1603611fc1576040517f08c379a0000000000000000000000000000000000000000000000000000000008152600401611fb890614352565b60405180910390fd5b80600560008573ffffffffffffffffffffffffffffffffffffffff1673ffffffffffffffffffffffffffffffffffffffff16815260200190815260200160002060008473ffffffffffffffffffffffffffffffffffffffff1673ffffffffffffffffffffffffffffffffffffffff16815260200190815260200160002060006101000a81548160ff0219169083151502179055508173ffffffffffffffffffffffffffffffffffffffff168373ffffffffffffffffffffffffffffffffffffffff167f17307eab39ab6107e8899845ad3d59bd9653f200f220920489ca2b5937696c31836040516120b29190612ddb565b60405180910390a3505050565b6120ca848484611b3f565b6120d6848484846125fe565b612115576040517f08c379a000000000000000000000000000000000000000000000000000000000815260040161210c906143e4565b60405180910390fd5b50505050565b612135828260405180602001604052806000815250612785565b5050565b6000811161217c576040517f08c379a000000000000000000000000000000000000000000000000000000000815260040161217390613f34565b60405180910390fd5b60405180608001604052808381526020018281526020013373ffffffffffffffffffffffffffffffffffffffff16815260200160011515815250600f6000848152602001908152602001600020600082015181600001556020820151816001015560408201518160020160006101000a81548173ffffffffffffffffffffffffffffffffffffffff021916908373ffffffffffffffffffffffffffffffffffffffff16021790555060608201518160020160146101000a81548160ff0219169083151502179055509050507f470031062672bc0246e132c723a729c4676710ec663a29e86c88678032daddea828233600160405161227d9493929190614404565b60405180910390a15050565b60008073ffffffffffffffffffffffffffffffffffffffff166002600084815260200190815260200160002060009054906101000a900473ffffffffffffffffffffffffffffffffffffffff1673ffffffffffffffffffffffffffffffffffffffff1614159050919050565b6060600d8054612304906135fd565b80601f0160208091040260200160405190810160405280929190818152602001828054612330906135fd565b801561237d5780601f106123525761010080835404028352916020019161237d565b820191906000526020600020905b81548152906001019060200180831161236057829003601f168201915b5050505050905090565b6060600082036123ce576040518060400160405280600181526020017f300000000000000000000000000000000000000000000000000000000000000081525090506124e2565b600082905060005b600082146124005780806123e990613b24565b915050600a826123f99190614478565b91506123d6565b60008167ffffffffffffffff81111561241c5761241b6131ed565b5b6040519080825280601f01601f19166020018201604052801561244e5781602001600182028036833780820191505090505b5090505b600085146124db5760018261246791906141fa565b9150600a8561247691906144a9565b60306124829190613af0565b60f81b81838151811061249857612497613a92565b5b60200101907effffffffffffffffffffffffffffffffffffffffffffffffffffffffffffff1916908160001a905350600a856124d49190614478565b9450612452565b8093505050505b919050565b6124f28383836127e0565b600073ffffffffffffffffffffffffffffffffffffffff168373ffffffffffffffffffffffffffffffffffffffff16036125345761252f816127e5565b612573565b8173ffffffffffffffffffffffffffffffffffffffff168373ffffffffffffffffffffffffffffffffffffffff161461257257612571838261282e565b5b5b600073ffffffffffffffffffffffffffffffffffffffff168273ffffffffffffffffffffffffffffffffffffffff16036125b5576125b08161299b565b6125f4565b8273ffffffffffffffffffffffffffffffffffffffff168273ffffffffffffffffffffffffffffffffffffffff16146125f3576125f28282612a6c565b5b5b505050565b505050565b600061261f8473ffffffffffffffffffffffffffffffffffffffff16612aeb565b15612778578373ffffffffffffffffffffffffffffffffffffffff1663150b7a026126486119d3565b8786866040518563ffffffff1660e01b815260040161266a949392919061452f565b6020604051808303816000875af19250505080156126a657506040513d601f19601f820116820180604052508101906126a39190614590565b60015b612728573d80600081146126d6576040519150601f19603f3d011682016040523d82523d6000602084013e6126db565b606091505b506000815103612720576040517f08c379a0000000000000000000000000000000000000000000000000000000008152600401612717906143e4565b60405180910390fd5b805181602001fd5b63150b7a0260e01b7bffffffffffffffffffffffffffffffffffffffffffffffffffffffff1916817bffffffffffffffffffffffffffffffffffffffffffffffffffffffff19161491505061277d565b600190505b949350505050565b61278f8383612b0e565b61279c60008484846125fe565b6127db576040517f08c379a00000000000000000000000000000000000000000000000000000000081526004016127d2906143e4565b60405180910390fd5b505050565b505050565b6012805490506013600083815260200190815260200160002081905550601281908060018154018082558091505060019003906000526020600020016000909190919091505550565b6000600161283b846112ab565b61284591906141fa565b905060006011600084815260200190815260200160002054905081811461292a576000601060008673ffffffffffffffffffffffffffffffffffffffff1673ffffffffffffffffffffffffffffffffffffffff168152602001908152602001600020600084815260200190815260200160002054905080601060008773ffffffffffffffffffffffffffffffffffffffff1673ffffffffffffffffffffffffffffffffffffffff168152602001908152602001600020600084815260200190815260200160002081905550816011600083815260200190815260200160002081905550505b6011600084815260200190815260200160002060009055601060008573ffffffffffffffffffffffffffffffffffffffff1673ffffffffffffffffffffffffffffffffffffffff16815260200190815260200160002060008381526020019081526020016000206000905550505050565b600060016012805490506129af91906141fa565b90506000601360008481526020019081526020016000205490506000601283815481106129df576129de613a92565b5b906000526020600020015490508060128381548110612a0157612a00613a92565b5b906000526020600020018190555081601360008381526020019081526020016000208190555060136000858152602001908152602001600020600090556012805480612a5057612a4f6145bd565b5b6001900381819060005260206000200160009055905550505050565b6000612a77836112ab565b905081601060008573ffffffffffffffffffffffffffffffffffffffff1673ffffffffffffffffffffffffffffffffffffffff168152602001908152602001600020600083815260200190815260200160002081905550806011600084815260200190815260200160002081905550505050565b6000808273ffffffffffffffffffffffffffffffffffffffff163b119050919050565b600073ffffffffffffffffffffffffffffffffffffffff168273ffffffffffffffffffffffffffffffffffffffff1603612b7d576040517f08c379a0000000000000000000000000000000000000000000000000000000008152600401612b7490614638565b60405180910390fd5b612b8681612289565b15612bc6576040517f08c379a0000000000000000000000000000000000000000000000000000000008152600401612bbd906146a4565b60405180910390fd5b612bd2600083836124e7565b6001600360008473ffffffffffffffffffffffffffffffffffffffff1673ffffffffffffffffffffffffffffffffffffffff1681526020019081526020016000206000828254612c229190613af0565b92505081905550816002600083815260200190815260200160002060006101000a81548173ffffffffffffffffffffffffffffffffffffffff021916908373ffffffffffffffffffffffffffffffffffffffff160217905550808273ffffffffffffffffffffffffffffffffffffffff16600073ffffffffffffffffffffffffffffffffffffffff167fddf252ad1be2c89b69c2b068fc378daa952ba7f163c4a11628f55a4df523b3ef60405160405180910390a4612ce3600083836125f9565b5050565b60405180608001604052806000815260200160008152602001600073ffffffffffffffffffffffffffffffffffffffff1681526020016000151581525090565b6000604051905090565b600080fd5b600080fd5b60007fffffffff0000000000000000000000000000000000000000000000000000000082169050919050565b612d7081612d3b565b8114612d7b57600080fd5b50565b600081359050612d8d81612d67565b92915050565b600060208284031215612da957612da8612d31565b5b6000612db784828501612d7e565b91505092915050565b60008115159050919050565b612dd581612dc0565b82525050565b6000602082019050612df06000830184612dcc565b92915050565b600081519050919050565b600082825260208201905092915050565b60005b83811015612e30578082015181840152602081019050612e15565b60008484015250505050565b6000601f19601f8301169050919050565b6000612e5882612df6565b612e628185612e01565b9350612e72818560208601612e12565b612e7b81612e3c565b840191505092915050565b60006020820190508181036000830152612ea08184612e4d565b905092915050565b6000819050919050565b612ebb81612ea8565b8114612ec657600080fd5b50565b600081359050612ed881612eb2565b92915050565b600060208284031215612ef457612ef3612d31565b5b6000612f0284828501612ec9565b91505092915050565b600073ffffffffffffffffffffffffffffffffffffffff82169050919050565b6000612f3682612f0b565b9050919050565b612f4681612f2b565b82525050565b6000602082019050612f616000830184612f3d565b92915050565b612f7081612f2b565b8114612f7b57600080fd5b50565b600081359050612f8d81612f67565b92915050565b60008060408385031215612faa57612fa9612d31565b5b6000612fb885828601612f7e565b9250506020612fc985828601612ec9565b9150509250929050565b612fdc81612ea8565b82525050565b6000602082019050612ff76000830184612fd3565b92915050565b6000806040838503121561301457613013612d31565b5b600061302285828601612ec9565b925050602061303385828601612ec9565b9150509250929050565b60008060006060848603121561305657613055612d31565b5b600061306486828701612f7e565b935050602061307586828701612f7e565b925050604061308686828701612ec9565b9150509250925092565b600081519050919050565b600082825260208201905092915050565b6000819050602082019050919050565b6130c581612ea8565b82525050565b6130d481612f2b565b82525050565b6130e381612dc0565b82525050565b6080820160008201516130ff60008501826130bc565b50602082015161311260208501826130bc565b50604082015161312560408501826130cb565b50606082015161313860608501826130da565b50505050565b600061314a83836130e9565b60808301905092915050565b6000602082019050919050565b600061316e82613090565b613178818561309b565b9350613183836130ac565b8060005b838110156131b457815161319b888261313e565b97506131a683613156565b925050600181019050613187565b5085935050505092915050565b600060208201905081810360008301526131db8184613163565b905092915050565b600080fd5b600080fd5b7f4e487b7100000000000000000000000000000000000000000000000000000000600052604160045260246000fd5b61322582612e3c565b810181811067ffffffffffffffff82111715613244576132436131ed565b5b80604052505050565b6000613257612d27565b9050613263828261321c565b919050565b600067ffffffffffffffff821115613283576132826131ed565b5b61328c82612e3c565b9050602081019050919050565b82818337600083830152505050565b60006132bb6132b684613268565b61324d565b9050828152602081018484840111156132d7576132d66131e8565b5b6132e2848285613299565b509392505050565b600082601f8301126132ff576132fe6131e3565b5b813561330f8482602086016132a8565b91505092915050565b60006020828403121561332e5761332d612d31565b5b600082013567ffffffffffffffff81111561334c5761334b612d36565b5b613358848285016132ea565b91505092915050565b60808201600082015161337760008501826130bc565b50602082015161338a60208501826130bc565b50604082015161339d60408501826130cb565b5060608201516133b060608501826130da565b50505050565b60006080820190506133cb6000830184613361565b92915050565b6000602082840312156133e7576133e6612d31565b5b60006133f584828501612f7e565b91505092915050565b61340781612dc0565b811461341257600080fd5b50565b600081359050613424816133fe565b92915050565b6000806040838503121561344157613440612d31565b5b600061344f85828601612f7e565b925050602061346085828601613415565b9150509250929050565b600067ffffffffffffffff821115613485576134846131ed565b5b61348e82612e3c565b9050602081019050919050565b60006134ae6134a98461346a565b61324d565b9050828152602081018484840111156134ca576134c96131e8565b5b6134d5848285613299565b509392505050565b600082601f8301126134f2576134f16131e3565b5b813561350284826020860161349b565b91505092915050565b6000806000806080858703121561352557613524612d31565b5b600061353387828801612f7e565b945050602061354487828801612f7e565b935050604061355587828801612ec9565b925050606085013567ffffffffffffffff81111561357657613575612d36565b5b613582878288016134dd565b91505092959194509250565b600080604083850312156135a5576135a4612d31565b5b60006135b385828601612f7e565b92505060206135c485828601612f7e565b9150509250929050565b7f4e487b7100000000000000000000000000000000000000000000000000000000600052602260045260246000fd5b6000600282049050600182168061361557607f821691505b602082108103613628576136276135ce565b5b50919050565b7f4552433732313a20617070726f76616c20746f2063757272656e74206f776e6560008201527f7200000000000000000000000000000000000000000000000000000000000000602082015250565b600061368a602183612e01565b91506136958261362e565b604082019050919050565b600060208201905081810360008301526136b98161367d565b9050919050565b7f4552433732313a20617070726f76652063616c6c6572206973206e6f7420746f60008201527f6b656e206f776e6572206e6f7220617070726f76656420666f7220616c6c0000602082015250565b600061371c603e83612e01565b9150613727826136c0565b604082019050919050565b6000602082019050818103600083015261374b8161370f565b9050919050565b7f596f7520617265206e6f74206f776e6572206f662074686973206e6674000000600082015250565b6000613788601d83612e01565b915061379382613752565b602082019050919050565b600060208201905081810360008301526137b78161377b565b9050919050565b7f4974656d20697320616c7265616479206f6e2073616c65000000000000000000600082015250565b60006137f4601783612e01565b91506137ff826137be565b602082019050919050565b60006020820190508181036000830152613823816137e7565b9050919050565b7f5072696365206d75737420626520657175616c20746f206c697374696e67207060008201527f7269636500000000000000000000000000000000000000000000000000000000602082015250565b6000613886602483612e01565b91506138918261382a565b604082019050919050565b600060208201905081810360008301526138b581613879565b9050919050565b7f4552433732313a2063616c6c6572206973206e6f7420746f6b656e206f776e6560008201527f72206e6f7220617070726f766564000000000000000000000000000000000000602082015250565b6000613918602e83612e01565b9150613923826138bc565b604082019050919050565b600060208201905081810360008301526139478161390b565b9050919050565b7f596f7520616c7265616479206f776e2074686973204e46540000000000000000600082015250565b6000613984601883612e01565b915061398f8261394e565b602082019050919050565b600060208201905081810360008301526139b381613977565b9050919050565b7f506c65617365207375626d6974207468652061736b696e672070726963650000600082015250565b60006139f0601e83612e01565b91506139fb826139ba565b602082019050919050565b60006020820190508181036000830152613a1f816139e3565b9050919050565b7f496e646578206f7574206f6620626f756e647300000000000000000000000000600082015250565b6000613a5c601383612e01565b9150613a6782613a26565b602082019050919050565b60006020820190508181036000830152613a8b81613a4f565b9050919050565b7f4e487b7100000000000000000000000000000000000000000000000000000000600052603260045260246000fd5b7f4e487b7100000000000000000000000000000000000000000000000000000000600052601160045260246000fd5b6000613afb82612ea8565b9150613b0683612ea8565b9250828201905080821115613b1e57613b1d613ac1565b5b92915050565b6000613b2f82612ea8565b91507fffffffffffffffffffffffffffffffffffffffffffffffffffffffffffffffff8203613b6157613b60613ac1565b5b600182019050919050565b60008190508160005260206000209050919050565b60006020601f8301049050919050565b600082821b905092915050565b600060088302613bce7fffffffffffffffffffffffffffffffffffffffffffffffffffffffffffffffff82613b91565b613bd88683613b91565b95508019841693508086168417925050509392505050565b6000819050919050565b6000613c15613c10613c0b84612ea8565b613bf0565b612ea8565b9050919050565b6000819050919050565b613c2f83613bfa565b613c43613c3b82613c1c565b848454613b9e565b825550505050565b600090565b613c58613c4b565b613c63818484613c26565b505050565b5b81811015613c8757613c7c600082613c50565b600181019050613c69565b5050565b601f821115613ccc57613c9d81613b6c565b613ca684613b81565b81016020851015613cb5578190505b613cc9613cc185613b81565b830182613c68565b50505b505050565b600082821c905092915050565b6000613cef60001984600802613cd1565b1980831691505092915050565b6000613d088383613cde565b9150826002028217905092915050565b613d2182612df6565b67ffffffffffffffff811115613d3a57613d396131ed565b5b613d4482546135fd565b613d4f828285613c8b565b600060209050601f831160018114613d825760008415613d70578287015190505b613d7a8582613cfc565b865550613de2565b601f198416613d9086613b6c565b60005b82811015613db857848901518255600182019150602085019450602081019050613d93565b86831015613dd55784890151613dd1601f891682613cde565b8355505b6001600288020188555050505b505050505050565b7f4552433732313a20696e76616c696420746f6b656e2049440000000000000000600082015250565b6000613e20601883612e01565b9150613e2b82613dea565b602082019050919050565b60006020820190508181036000830152613e4f81613e13565b9050919050565b7f4552433732313a2061646472657373207a65726f206973206e6f74206120766160008201527f6c6964206f776e65720000000000000000000000000000000000000000000000602082015250565b6000613eb2602983612e01565b9150613ebd82613e56565b604082019050919050565b60006020820190508181036000830152613ee181613ea5565b9050919050565b7f5072696365206d757374206265206174206c6561737420312077656900000000600082015250565b6000613f1e601c83612e01565b9150613f2982613ee8565b602082019050919050565b60006020820190508181036000830152613f4d81613f11565b9050919050565b600081905092915050565b6000613f6a82612df6565b613f748185613f54565b9350613f84818560208601612e12565b80840191505092915050565b60008154613f9d816135fd565b613fa78186613f54565b94506001821660008114613fc25760018114613fd75761400a565b60ff198316865281151582028601935061400a565b613fe085613b6c565b60005b8381101561400257815481890152600182019150602081019050613fe3565b838801955050505b50505092915050565b600061401f8286613f5f565b915061402b8285613f5f565b91506140378284613f90565b9150819050949350505050565b7f4f776e61626c653a206e6577206f776e657220697320746865207a65726f206160008201527f6464726573730000000000000000000000000000000000000000000000000000602082015250565b60006140a0602683612e01565b91506140ab82614044565b604082019050919050565b600060208201905081810360008301526140cf81614093565b9050919050565b7f4552433732313a207472616e736665722066726f6d20696e636f72726563742060008201527f6f776e6572000000000000000000000000000000000000000000000000000000602082015250565b6000614132602583612e01565b915061413d826140d6565b604082019050919050565b6000602082019050818103600083015261416181614125565b9050919050565b7f4552433732313a207472616e7366657220746f20746865207a65726f2061646460008201527f7265737300000000000000000000000000000000000000000000000000000000602082015250565b60006141c4602483612e01565b91506141cf82614168565b604082019050919050565b600060208201905081810360008301526141f3816141b7565b9050919050565b600061420582612ea8565b915061421083612ea8565b925082820390508181111561422857614227613ac1565b5b92915050565b7f436f756e7465723a2064656372656d656e74206f766572666c6f770000000000600082015250565b6000614264601b83612e01565b915061426f8261422e565b602082019050919050565b6000602082019050818103600083015261429381614257565b9050919050565b7f4f776e61626c653a2063616c6c6572206973206e6f7420746865206f776e6572600082015250565b60006142d0602083612e01565b91506142db8261429a565b602082019050919050565b600060208201905081810360008301526142ff816142c3565b9050919050565b7f4552433732313a20617070726f766520746f2063616c6c657200000000000000600082015250565b600061433c601983612e01565b915061434782614306565b602082019050919050565b6000602082019050818103600083015261436b8161432f565b9050919050565b7f4552433732313a207472616e7366657220746f206e6f6e20455243373231526560008201527f63656976657220696d706c656d656e7465720000000000000000000000000000602082015250565b60006143ce603283612e01565b91506143d982614372565b604082019050919050565b600060208201905081810360008301526143fd816143c1565b9050919050565b60006080820190506144196000830187612fd3565b6144266020830186612fd3565b6144336040830185612f3d565b6144406060830184612dcc565b95945050505050565b7f4e487b7100000000000000000000000000000000000000000000000000000000600052601260045260246000fd5b600061448382612ea8565b915061448e83612ea8565b92508261449e5761449d614449565b5b828204905092915050565b60006144b482612ea8565b91506144bf83612ea8565b9250826144cf576144ce614449565b5b828206905092915050565b600081519050919050565b600082825260208201905092915050565b6000614501826144da565b61450b81856144e5565b935061451b818560208601612e12565b61452481612e3c565b840191505092915050565b60006080820190506145446000830187612f3d565b6145516020830186612f3d565b61455e6040830185612fd3565b818103606083015261457081846144f6565b905095945050505050565b60008151905061458a81612d67565b92915050565b6000602082840312156145a6576145a5612d31565b5b60006145b48482850161457b565b91505092915050565b7f4e487b7100000000000000000000000000000000000000000000000000000000600052603160045260246000fd5b7f4552433732313a206d696e7420746f20746865207a65726f2061646472657373600082015250565b6000614622602083612e01565b915061462d826145ec565b602082019050919050565b6000602082019050818103600083015261465181614615565b9050919050565b7f4552433732313a20746f6b656e20616c7265616479206d696e74656400000000600082015250565b600061468e601c83612e01565b915061469982614658565b602082019050919050565b600060208201905081810360008301526146bd81614681565b905091905056fea26469706673582212204c8b4d8597866acf2107cfb02fd619c65e46d1dcda710aa18c1e08d8052d8df364736f6c63430008100033",
  "immutableReferences": {},
  "source": "// SPDX-License-Identifier: MIT\r\npragma solidity >=0.4.22 <0.9.0;\r\n\r\nimport \"@openzeppelin/contracts/token/ERC721/extensions/ERC721URIStorage.sol\";\r\nimport \"@openzeppelin/contracts/utils/Counters.sol\";\r\nimport \"@openzeppelin/contracts/access/Ownable.sol\";\r\n\r\ncontract NftMarket is ERC721URIStorage, Ownable {\r\n    using Counters for Counters.Counter;\r\n    using Strings for uint256;\r\n\r\n    struct NftItem {\r\n        uint256 tokenId;\r\n        uint256 price;\r\n        address creator;\r\n        bool isListed;\r\n    }\r\n\r\n    uint256 public listingPrice = 0.025 ether;\r\n\r\n    Counters.Counter private _listedItems;\r\n    Counters.Counter private _tokenIds;\r\n\r\n\r\n    string public baseExtension = \".json\";\r\n    uint256 public maxSupply;\r\n    string public baseURI;\r\n\r\n    mapping(string => bool) private _usedTokenURIs;\r\n    mapping(uint256 => NftItem) private _idToNftItem;\r\n\r\n    mapping(address => mapping(uint256 => uint256)) private _ownedTokens;\r\n    mapping(uint256 => uint256) private _idToOwnedIndex;\r\n\r\n    uint256[] private _allNfts;\r\n\r\n    mapping(uint256 => uint256) private _idToNftIndex;\r\n\r\n    event NftItemCreated(\r\n        uint256 tokenId,\r\n        uint256 price,\r\n        address creator,\r\n        bool isListed\r\n    );\r\n\r\n    constructor() ERC721(\"ElfNFT\", \"ENFT\") {\r\n       \r\n    }\r\n\r\n     function setListingPrice(uint newPrice) external onlyOwner {\r\n    require(newPrice > 0, \"Price must be at least 1 wei\");\r\n    listingPrice = newPrice;\r\n  }\r\n\r\n    function getNftItem(uint256 tokenId) public view returns (NftItem memory) {\r\n        return _idToNftItem[tokenId];\r\n    }\r\n\r\n    function listedItemsCount() public view returns (uint256) {\r\n        return _listedItems.current();\r\n    }\r\n\r\n //   function tokenURIExists(string memory tokenURI) public view returns (bool) {\r\n //       return _usedTokenURIs[tokenURI] == true;\r\n //   }\r\n\r\n    function totalSupply() public view returns (uint256) {\r\n        return _allNfts.length;\r\n    }\r\n\r\n    function setBaseURI(string memory _newBaseURI) public onlyOwner {\r\n        baseURI = _newBaseURI;\r\n     }\r\n\r\n     function _baseURI() internal view virtual override returns (string memory) {\r\n        return baseURI;\r\n    }\r\n\r\n    function tokenByIndex(uint256 index) public view returns (uint256) {\r\n        require(index < totalSupply(), \"Index out of bounds\");\r\n        return _allNfts[index];\r\n    }\r\n\r\n    function tokenOfOwnerByIndex(address owner, uint256 index)\r\n        public\r\n        view\r\n        returns (uint256)\r\n    {\r\n        require(index < ERC721.balanceOf(owner), \"Index out of bounds\");\r\n        return _ownedTokens[owner][index];\r\n    }\r\n\r\n    function getAllNftsOnSale() public view returns (NftItem[] memory) {\r\n        uint256 allItemsCounts = totalSupply();\r\n        uint256 currentIndex = 0;\r\n        NftItem[] memory items = new NftItem[](_listedItems.current());\r\n\r\n        for (uint256 i = 0; i < allItemsCounts; i++) {\r\n            uint256 tokenId = tokenByIndex(i);\r\n            NftItem storage item = _idToNftItem[tokenId];\r\n\r\n            if (item.isListed == true) {\r\n                items[currentIndex] = item;\r\n                currentIndex += 1;\r\n            }\r\n        }\r\n\r\n        return items;\r\n    }\r\n\r\n    function getOwnedNfts() public view returns (NftItem[] memory) {\r\n        uint256 ownedItemsCount = ERC721.balanceOf(msg.sender);\r\n        NftItem[] memory items = new NftItem[](ownedItemsCount);\r\n\r\n        for (uint256 i = 0; i < ownedItemsCount; i++) {\r\n            uint256 tokenId = tokenOfOwnerByIndex(msg.sender, i);\r\n            NftItem storage item = _idToNftItem[tokenId];\r\n            items[i] = item;\r\n        }\r\n\r\n        return items;\r\n    }\r\n\r\n     \r\n\r\n    function mintToken( uint256 price)\r\n        public\r\n        payable\r\n        returns (uint256)\r\n    {\r\n        //require(!tokenURIExists(tokenURI), \"Token URI already exists\");\r\n        require(\r\n            msg.value == listingPrice,\r\n            \"Price must be equal to listing price\"\r\n        );\r\n\r\n        _tokenIds.increment();\r\n        _listedItems.increment();\r\n\r\n        uint256 newTokenId = _tokenIds.current();\r\n\r\n        _safeMint(msg.sender, newTokenId);\r\n       // _setTokenURI(newTokenId, tokenURI);\r\n        _createNftItem(newTokenId, price);\r\n      //  _usedTokenURIs[tokenURI] = true;\r\n\r\n        return newTokenId;\r\n    }\r\n\r\n    function tokenURI(uint256 tokenId)\r\n        public\r\n        view\r\n        override\r\n        returns (string memory)\r\n    {\r\n        require(\r\n            _exists(tokenId)\r\n            );\r\n\r\n           string memory currentBaseURI = _baseURI();\r\n         return\r\n            bytes(currentBaseURI).length > 0\r\n                ? string(\r\n                    abi.encodePacked(\r\n                        currentBaseURI, \r\n                        tokenId.toString(), \r\n                        baseExtension \r\n                    ) \r\n                )\r\n                : \"\";\r\n\r\n    }\r\n\r\n    function buyNft(uint256 tokenId) public payable {\r\n        uint256 price = _idToNftItem[tokenId].price;\r\n        address owner = ERC721.ownerOf(tokenId);\r\n\r\n        require(msg.sender != owner, \"You already own this NFT\");\r\n        require(msg.value == price, \"Please submit the asking price\");\r\n\r\n        _idToNftItem[tokenId].isListed = false;\r\n        _listedItems.decrement();\r\n\r\n        _transfer(owner, msg.sender, tokenId);\r\n        payable(owner).transfer(msg.value);\r\n    }\r\n\r\n    function placeNftOnSale(uint tokenId, uint newPrice) public payable {\r\n    require(ERC721.ownerOf(tokenId) == msg.sender, \"You are not owner of this nft\");\r\n    require(_idToNftItem[tokenId].isListed == false, \"Item is already on sale\");\r\n    require(msg.value == listingPrice, \"Price must be equal to listing price\");\r\n\r\n    _idToNftItem[tokenId].isListed = true;\r\n    _idToNftItem[tokenId].price = newPrice;\r\n    _listedItems.increment();\r\n  }\r\n\r\n    function _createNftItem(uint256 tokenId, uint256 price) private {\r\n        require(price > 0, \"Price must be at least 1 wei\");\r\n\r\n        _idToNftItem[tokenId] = NftItem(tokenId, price, msg.sender, true);\r\n\r\n        emit NftItemCreated(tokenId, price, msg.sender, true);\r\n    }\r\n\r\n    function _beforeTokenTransfer(\r\n        address from,\r\n        address to,\r\n        uint256 tokenId\r\n    ) internal virtual override {\r\n        super._beforeTokenTransfer(from, to, tokenId);\r\n\r\n        // minting token\r\n        if (from == address(0)) {\r\n            _addTokenToAllTokensEnumeration(tokenId);\r\n        } else if (from != to) {\r\n            _removeTokenFromOwnerEnumeration(from, tokenId);\r\n        }\r\n        if (to == address(0)) {\r\n            _removeTokenFromAllTokensEnumeration(tokenId);\r\n        } else if (to != from) {\r\n            _addTokenToOwnerEnumaretion(to, tokenId);\r\n        }\r\n    }\r\n\r\n    function _addTokenToAllTokensEnumeration(uint256 tokenId) private {\r\n        _idToNftIndex[tokenId] = _allNfts.length;\r\n        _allNfts.push(tokenId);\r\n    }\r\n\r\n    function _addTokenToOwnerEnumaretion(address to, uint256 tokenId) private {\r\n        uint256 length = ERC721.balanceOf(to);\r\n        _ownedTokens[to][length] = tokenId;\r\n        _idToOwnedIndex[tokenId] = length;\r\n    }\r\n\r\n    function _removeTokenFromOwnerEnumeration(address from, uint256 tokenId)\r\n        private\r\n    {\r\n        uint256 lastTokenIndex = ERC721.balanceOf(from) - 1;\r\n        uint256 tokenIndex = _idToOwnedIndex[tokenId];\r\n\r\n        if (tokenIndex != lastTokenIndex) {\r\n            uint256 lastTokenId = _ownedTokens[from][lastTokenIndex];\r\n\r\n            _ownedTokens[from][tokenIndex] = lastTokenId;\r\n            _idToOwnedIndex[lastTokenId] = tokenIndex;\r\n        }\r\n\r\n        delete _idToOwnedIndex[tokenId];\r\n        delete _ownedTokens[from][lastTokenIndex];\r\n    }\r\n\r\n    function _removeTokenFromAllTokensEnumeration(uint tokenId) private {\r\n    uint lastTokenIndex = _allNfts.length - 1;\r\n    uint tokenIndex = _idToNftIndex[tokenId];\r\n    uint lastTokenId = _allNfts[lastTokenIndex];\r\n\r\n    _allNfts[tokenIndex] = lastTokenId;\r\n    _idToNftIndex[lastTokenId] = tokenIndex;\r\n\r\n    delete _idToNftIndex[tokenId];\r\n    _allNfts.pop();\r\n  }\r\n\r\n}\r\n",
  "sourcePath": "C:\\Users\\nahue\\OneDrive\\Escritorio\\marketplace\\nft-marketplace\\contracts\\NftMarket.sol",
  "compiler": {
    "name": "solc",
    "version": "0.8.16+commit.07a7930e.Emscripten.clang"
  },
  "schemaVersion": "3.4.9",
  "updatedAt": "2022-09-06T03:15:39.275Z",
  "devdoc": {
    "kind": "dev",
    "methods": {
      "approve(address,uint256)": {
        "details": "See {IERC721-approve}."
      },
      "balanceOf(address)": {
        "details": "See {IERC721-balanceOf}."
      },
      "getApproved(uint256)": {
        "details": "See {IERC721-getApproved}."
      },
      "isApprovedForAll(address,address)": {
        "details": "See {IERC721-isApprovedForAll}."
      },
      "name()": {
        "details": "See {IERC721Metadata-name}."
      },
      "owner()": {
        "details": "Returns the address of the current owner."
      },
      "ownerOf(uint256)": {
        "details": "See {IERC721-ownerOf}."
      },
      "renounceOwnership()": {
        "details": "Leaves the contract without owner. It will not be possible to call `onlyOwner` functions anymore. Can only be called by the current owner. NOTE: Renouncing ownership will leave the contract without an owner, thereby removing any functionality that is only available to the owner."
      },
      "safeTransferFrom(address,address,uint256)": {
        "details": "See {IERC721-safeTransferFrom}."
      },
      "safeTransferFrom(address,address,uint256,bytes)": {
        "details": "See {IERC721-safeTransferFrom}."
      },
      "setApprovalForAll(address,bool)": {
        "details": "See {IERC721-setApprovalForAll}."
      },
      "supportsInterface(bytes4)": {
        "details": "See {IERC165-supportsInterface}."
      },
      "symbol()": {
        "details": "See {IERC721Metadata-symbol}."
      },
      "tokenURI(uint256)": {
        "details": "See {IERC721Metadata-tokenURI}."
      },
      "transferFrom(address,address,uint256)": {
        "details": "See {IERC721-transferFrom}."
      },
      "transferOwnership(address)": {
        "details": "Transfers ownership of the contract to a new account (`newOwner`). Can only be called by the current owner."
      }
    },
    "version": 1
  },
  "userdoc": {
    "kind": "user",
    "methods": {},
    "version": 1
  }
}