{
  "contractName": "NftMarketAquans",
  "abi": [
    {
      "inputs": [],
      "stateMutability": "nonpayable",
      "type": "constructor"
    },
    {
      "anonymous": false,
      "inputs": [
        {
          "indexed": true,
          "internalType": "address",
          "name": "owner",
          "type": "address"
        },
        {
          "indexed": true,
          "internalType": "address",
          "name": "approved",
          "type": "address"
        },
        {
          "indexed": true,
          "internalType": "uint256",
          "name": "tokenId",
          "type": "uint256"
        }
      ],
      "name": "Approval",
      "type": "event"
    },
    {
      "anonymous": false,
      "inputs": [
        {
          "indexed": true,
          "internalType": "address",
          "name": "owner",
          "type": "address"
        },
        {
          "indexed": true,
          "internalType": "address",
          "name": "operator",
          "type": "address"
        },
        {
          "indexed": false,
          "internalType": "bool",
          "name": "approved",
          "type": "bool"
        }
      ],
      "name": "ApprovalForAll",
      "type": "event"
    },
    {
      "anonymous": false,
      "inputs": [
        {
          "indexed": false,
          "internalType": "uint256",
          "name": "tokenId",
          "type": "uint256"
        },
        {
          "indexed": false,
          "internalType": "uint256",
          "name": "price",
          "type": "uint256"
        },
        {
          "indexed": false,
          "internalType": "address",
          "name": "creator",
          "type": "address"
        },
        {
          "indexed": false,
          "internalType": "bool",
          "name": "isListed",
          "type": "bool"
        }
      ],
      "name": "NftItemCreated",
      "type": "event"
    },
    {
      "anonymous": false,
      "inputs": [
        {
          "indexed": true,
          "internalType": "address",
          "name": "previousOwner",
          "type": "address"
        },
        {
          "indexed": true,
          "internalType": "address",
          "name": "newOwner",
          "type": "address"
        }
      ],
      "name": "OwnershipTransferred",
      "type": "event"
    },
    {
      "anonymous": false,
      "inputs": [
        {
          "indexed": true,
          "internalType": "address",
          "name": "from",
          "type": "address"
        },
        {
          "indexed": true,
          "internalType": "address",
          "name": "to",
          "type": "address"
        },
        {
          "indexed": true,
          "internalType": "uint256",
          "name": "tokenId",
          "type": "uint256"
        }
      ],
      "name": "Transfer",
      "type": "event"
    },
    {
      "inputs": [
        {
          "internalType": "uint256",
          "name": "",
          "type": "uint256"
        }
      ],
      "name": "AllTokens",
      "outputs": [
        {
          "internalType": "uint64",
          "name": "listingPrice",
          "type": "uint64"
        },
        {
          "internalType": "uint16",
          "name": "startTokenId",
          "type": "uint16"
        },
        {
          "internalType": "uint16",
          "name": "endTokenId",
          "type": "uint16"
        }
      ],
      "stateMutability": "view",
      "type": "function",
      "constant": true
    },
    {
      "inputs": [
        {
          "internalType": "uint256",
          "name": "",
          "type": "uint256"
        }
      ],
      "name": "_idToNftItem",
      "outputs": [
        {
          "internalType": "uint256",
          "name": "tokenId",
          "type": "uint256"
        },
        {
          "internalType": "uint256",
          "name": "price",
          "type": "uint256"
        },
        {
          "internalType": "address",
          "name": "creator",
          "type": "address"
        },
        {
          "internalType": "bool",
          "name": "isListed",
          "type": "bool"
        }
      ],
      "stateMutability": "view",
      "type": "function",
      "constant": true
    },
    {
      "inputs": [
        {
          "internalType": "address",
          "name": "to",
          "type": "address"
        },
        {
          "internalType": "uint256",
          "name": "tokenId",
          "type": "uint256"
        }
      ],
      "name": "approve",
      "outputs": [],
      "stateMutability": "nonpayable",
      "type": "function"
    },
    {
      "inputs": [
        {
          "internalType": "address",
          "name": "owner",
          "type": "address"
        }
      ],
      "name": "balanceOf",
      "outputs": [
        {
          "internalType": "uint256",
          "name": "",
          "type": "uint256"
        }
      ],
      "stateMutability": "view",
      "type": "function",
      "constant": true
    },
    {
      "inputs": [],
      "name": "baseURI",
      "outputs": [
        {
          "internalType": "string",
          "name": "",
          "type": "string"
        }
      ],
      "stateMutability": "view",
      "type": "function",
      "constant": true
    },
    {
      "inputs": [
        {
          "internalType": "uint256",
          "name": "tokenId",
          "type": "uint256"
        }
      ],
      "name": "getApproved",
      "outputs": [
        {
          "internalType": "address",
          "name": "",
          "type": "address"
        }
      ],
      "stateMutability": "view",
      "type": "function",
      "constant": true
    },
    {
      "inputs": [
        {
          "internalType": "address",
          "name": "owner",
          "type": "address"
        },
        {
          "internalType": "address",
          "name": "operator",
          "type": "address"
        }
      ],
      "name": "isApprovedForAll",
      "outputs": [
        {
          "internalType": "bool",
          "name": "",
          "type": "bool"
        }
      ],
      "stateMutability": "view",
      "type": "function",
      "constant": true
    },
    {
      "inputs": [],
      "name": "name",
      "outputs": [
        {
          "internalType": "string",
          "name": "",
          "type": "string"
        }
      ],
      "stateMutability": "view",
      "type": "function",
      "constant": true
    },
    {
      "inputs": [],
      "name": "owner",
      "outputs": [
        {
          "internalType": "address",
          "name": "",
          "type": "address"
        }
      ],
      "stateMutability": "view",
      "type": "function",
      "constant": true
    },
    {
      "inputs": [
        {
          "internalType": "uint256",
          "name": "tokenId",
          "type": "uint256"
        }
      ],
      "name": "ownerOf",
      "outputs": [
        {
          "internalType": "address",
          "name": "",
          "type": "address"
        }
      ],
      "stateMutability": "view",
      "type": "function",
      "constant": true
    },
    {
      "inputs": [],
      "name": "renounceOwnership",
      "outputs": [],
      "stateMutability": "nonpayable",
      "type": "function"
    },
    {
      "inputs": [
        {
          "internalType": "address",
          "name": "from",
          "type": "address"
        },
        {
          "internalType": "address",
          "name": "to",
          "type": "address"
        },
        {
          "internalType": "uint256",
          "name": "tokenId",
          "type": "uint256"
        }
      ],
      "name": "safeTransferFrom",
      "outputs": [],
      "stateMutability": "nonpayable",
      "type": "function"
    },
    {
      "inputs": [
        {
          "internalType": "address",
          "name": "from",
          "type": "address"
        },
        {
          "internalType": "address",
          "name": "to",
          "type": "address"
        },
        {
          "internalType": "uint256",
          "name": "tokenId",
          "type": "uint256"
        },
        {
          "internalType": "bytes",
          "name": "data",
          "type": "bytes"
        }
      ],
      "name": "safeTransferFrom",
      "outputs": [],
      "stateMutability": "nonpayable",
      "type": "function"
    },
    {
      "inputs": [
        {
          "internalType": "address",
          "name": "operator",
          "type": "address"
        },
        {
          "internalType": "bool",
          "name": "approved",
          "type": "bool"
        }
      ],
      "name": "setApprovalForAll",
      "outputs": [],
      "stateMutability": "nonpayable",
      "type": "function"
    },
    {
      "inputs": [
        {
          "internalType": "bytes4",
          "name": "interfaceId",
          "type": "bytes4"
        }
      ],
      "name": "supportsInterface",
      "outputs": [
        {
          "internalType": "bool",
          "name": "",
          "type": "bool"
        }
      ],
      "stateMutability": "view",
      "type": "function",
      "constant": true
    },
    {
      "inputs": [],
      "name": "symbol",
      "outputs": [
        {
          "internalType": "string",
          "name": "",
          "type": "string"
        }
      ],
      "stateMutability": "view",
      "type": "function",
      "constant": true
    },
    {
      "inputs": [
        {
          "internalType": "address",
          "name": "from",
          "type": "address"
        },
        {
          "internalType": "address",
          "name": "to",
          "type": "address"
        },
        {
          "internalType": "uint256",
          "name": "tokenId",
          "type": "uint256"
        }
      ],
      "name": "transferFrom",
      "outputs": [],
      "stateMutability": "nonpayable",
      "type": "function"
    },
    {
      "inputs": [
        {
          "internalType": "address",
          "name": "newOwner",
          "type": "address"
        }
      ],
      "name": "transferOwnership",
      "outputs": [],
      "stateMutability": "nonpayable",
      "type": "function"
    },
    {
      "inputs": [
        {
          "internalType": "uint16",
          "name": "newMaxEndTokenId",
          "type": "uint16"
        },
        {
          "internalType": "uint256",
          "name": "tokenType",
          "type": "uint256"
        }
      ],
      "name": "setMaxNfts",
      "outputs": [],
      "stateMutability": "nonpayable",
      "type": "function"
    },
    {
      "inputs": [],
      "name": "withdraw",
      "outputs": [],
      "stateMutability": "nonpayable",
      "type": "function"
    },
    {
      "inputs": [],
      "name": "listedItemsCount",
      "outputs": [
        {
          "internalType": "uint256",
          "name": "",
          "type": "uint256"
        }
      ],
      "stateMutability": "view",
      "type": "function",
      "constant": true
    },
    {
      "inputs": [],
      "name": "totalSupply",
      "outputs": [
        {
          "internalType": "uint256",
          "name": "",
          "type": "uint256"
        }
      ],
      "stateMutability": "view",
      "type": "function",
      "constant": true
    },
    {
      "inputs": [
        {
          "internalType": "string",
          "name": "_newBaseURI",
          "type": "string"
        }
      ],
      "name": "setBaseURI",
      "outputs": [],
      "stateMutability": "nonpayable",
      "type": "function"
    },
    {
      "inputs": [
        {
          "internalType": "uint256",
          "name": "index",
          "type": "uint256"
        }
      ],
      "name": "tokenByIndex",
      "outputs": [
        {
          "internalType": "uint256",
          "name": "",
          "type": "uint256"
        }
      ],
      "stateMutability": "view",
      "type": "function",
      "constant": true
    },
    {
      "inputs": [
        {
          "internalType": "address",
          "name": "owner",
          "type": "address"
        },
        {
          "internalType": "uint256",
          "name": "index",
          "type": "uint256"
        }
      ],
      "name": "tokenOfOwnerByIndex",
      "outputs": [
        {
          "internalType": "uint256",
          "name": "",
          "type": "uint256"
        }
      ],
      "stateMutability": "view",
      "type": "function",
      "constant": true
    },
    {
      "inputs": [],
      "name": "getAllNftsOnSale",
      "outputs": [
        {
          "components": [
            {
              "internalType": "uint256",
              "name": "tokenId",
              "type": "uint256"
            },
            {
              "internalType": "uint256",
              "name": "price",
              "type": "uint256"
            },
            {
              "internalType": "address",
              "name": "creator",
              "type": "address"
            },
            {
              "internalType": "bool",
              "name": "isListed",
              "type": "bool"
            }
          ],
          "internalType": "struct NftMarketAquans.NftItem[]",
          "name": "",
          "type": "tuple[]"
        }
      ],
      "stateMutability": "view",
      "type": "function",
      "constant": true
    },
    {
      "inputs": [],
      "name": "getOwnedNfts",
      "outputs": [
        {
          "components": [
            {
              "internalType": "uint256",
              "name": "tokenId",
              "type": "uint256"
            },
            {
              "internalType": "uint256",
              "name": "price",
              "type": "uint256"
            },
            {
              "internalType": "address",
              "name": "creator",
              "type": "address"
            },
            {
              "internalType": "bool",
              "name": "isListed",
              "type": "bool"
            }
          ],
          "internalType": "struct NftMarketAquans.NftItem[]",
          "name": "",
          "type": "tuple[]"
        }
      ],
      "stateMutability": "view",
      "type": "function",
      "constant": true
    },
    {
      "inputs": [
        {
          "internalType": "uint256",
          "name": "tokenType",
          "type": "uint256"
        },
        {
          "internalType": "uint8",
          "name": "amount",
          "type": "uint8"
        }
      ],
      "name": "buyNfts",
      "outputs": [
        {
          "internalType": "uint256",
          "name": "",
          "type": "uint256"
        }
      ],
      "stateMutability": "payable",
      "type": "function",
      "payable": true
    },
    {
      "inputs": [
        {
          "internalType": "uint256",
          "name": "tokenId",
          "type": "uint256"
        }
      ],
      "name": "tokenURI",
      "outputs": [
        {
          "internalType": "string",
          "name": "",
          "type": "string"
        }
      ],
      "stateMutability": "view",
      "type": "function",
      "constant": true
    },
    {
      "inputs": [
        {
          "internalType": "uint256",
          "name": "tokenId",
          "type": "uint256"
        }
      ],
      "name": "buyNft",
      "outputs": [],
      "stateMutability": "payable",
      "type": "function",
      "payable": true
    },
    {
      "inputs": [
        {
          "internalType": "uint256",
          "name": "tokenId",
          "type": "uint256"
        }
      ],
      "name": "cancellSellNft",
      "outputs": [],
      "stateMutability": "nonpayable",
      "type": "function"
    },
    {
      "inputs": [
        {
          "internalType": "uint256",
          "name": "tokenId",
          "type": "uint256"
        },
        {
          "internalType": "uint256",
          "name": "newPrice",
          "type": "uint256"
        }
      ],
      "name": "placeNftOnSale",
      "outputs": [],
      "stateMutability": "payable",
      "type": "function",
      "payable": true
    }
  ],
  "bytecode": "0x60c06040526005608090815264173539b7b760d91b60a052600b9062000026908262003848565b503480156200003457600080fd5b506040518060400160405280600681526020016514d0d0d3919560d21b8152506040518060400160405280600581526020016414d398d19560da1b815250816000908162000083919062003848565b50600162000092828262003848565b505050620000af620000a96200374d60201b60201c565b62003751565b600860405180606001604052806608e1bc9bf040006001600160401b03168152602001600061ffff168152602001600861ffff168152509080600181540180825580915050600190039060005260206000200160009091909190915060008201518160000160006101000a8154816001600160401b0302191690836001600160401b0316021790555060208201518160000160086101000a81548161ffff021916908361ffff160217905550604082015181600001600a6101000a81548161ffff021916908361ffff160217905550505060086040518060600160405280660c6f3b40b6c0006001600160401b03168152602001601061ffff168152602001602061ffff168152509080600181540180825580915050600190039060005260206000200160009091909190915060008201518160000160006101000a8154816001600160401b0302191690836001600160401b0316021790555060208201518160000160086101000a81548161ffff021916908361ffff160217905550604082015181600001600a6101000a81548161ffff021916908361ffff16021790555050506008604051806060016040528067063eb89da4ed00006001600160401b03168152602001603061ffff168152602001604861ffff168152509080600181540180825580915050600190039060005260206000200160009091909190915060008201518160000160006101000a8154816001600160401b0302191690836001600160401b0316021790555060208201518160000160086101000a81548161ffff021916908361ffff160217905550604082015181600001600a6101000a81548161ffff021916908361ffff160217905550505060086040518060600160405280670905438e600100006001600160401b03168152602001605a61ffff168152602001606c61ffff168152509080600181540180825580915050600190039060005260206000200160009091909190915060008201518160000160006101000a8154816001600160401b0302191690836001600160401b0316021790555060208201518160000160086101000a81548161ffff021916908361ffff160217905550604082015181600001600a6101000a81548161ffff021916908361ffff160217905550505060086040518060600160405280670bcbce7f1b1500006001600160401b03168152602001607a61ffff168152602001609461ffff168152509080600181540180825580915050600190039060005260206000200160009091909190915060008201518160000160006101000a8154816001600160401b0302191690836001600160401b0316021790555060208201518160000160086101000a81548161ffff021916908361ffff160217905550604082015181600001600a6101000a81548161ffff021916908361ffff160217905550505060086040518060600160405280670de0b6b3a76400006001600160401b0316815260200160ac61ffff16815260200160c861ffff168152509080600181540180825580915050600190039060005260206000200160009091909190915060008201518160000160006101000a8154816001600160401b0302191690836001600160401b0316021790555060208201518160000160086101000a81548161ffff021916908361ffff160217905550604082015181600001600a6101000a81548161ffff021916908361ffff1602179055505050600860405180606001604052806703782dace9d900006001600160401b0316815260200160dc61ffff16815260200160f061ffff168152509080600181540180825580915050600190039060005260206000200160009091909190915060008201518160000160006101000a8154816001600160401b0302191690836001600160401b0316021790555060208201518160000160086101000a81548161ffff021916908361ffff160217905550604082015181600001600a6101000a81548161ffff021916908361ffff1602179055505050600860405180606001604052806704db7325476300006001600160401b0316815260200161011861ffff16815260200161014061ffff168152509080600181540180825580915050600190039060005260206000200160009091909190915060008201518160000160006101000a8154816001600160401b0302191690836001600160401b0316021790555060208201518160000160086101000a81548161ffff021916908361ffff160217905550604082015181600001600a6101000a81548161ffff021916908361ffff16021790555050506008604051806060016040528067063eb89da4ed00006001600160401b0316815260200161016861ffff16815260200161019061ffff168152509080600181540180825580915050600190039060005260206000200160009091909190915060008201518160000160006101000a8154816001600160401b0302191690836001600160401b0316021790555060208201518160000160086101000a81548161ffff021916908361ffff160217905550604082015181600001600a6101000a81548161ffff021916908361ffff160217905550505060086040518060600160405280670905438e600100006001600160401b031681526020016101b861ffff1681526020016101e061ffff168152509080600181540180825580915050600190039060005260206000200160009091909190915060008201518160000160006101000a8154816001600160401b0302191690836001600160401b0316021790555060208201518160000160086101000a81548161ffff021916908361ffff160217905550604082015181600001600a6101000a81548161ffff021916908361ffff160217905550505060086040518060600160405280670bcbce7f1b1500006001600160401b0316815260200161020861ffff16815260200161024461ffff168152509080600181540180825580915050600190039060005260206000200160009091909190915060008201518160000160006101000a8154816001600160401b0302191690836001600160401b0316021790555060208201518160000160086101000a81548161ffff021916908361ffff160217905550604082015181600001600a6101000a81548161ffff021916908361ffff160217905550505060086040518060600160405280670de0b6b3a76400006001600160401b0316815260200161028061ffff1681526020016102d061ffff168152509080600181540180825580915050600190039060005260206000200160009091909190915060008201518160000160006101000a8154816001600160401b0302191690836001600160401b0316021790555060208201518160000160086101000a81548161ffff021916908361ffff160217905550604082015181600001600a6101000a81548161ffff021916908361ffff1602179055505050600860405180606001604052806703782dace9d900006001600160401b0316815260200161030c61ffff16815260200161034861ffff168152509080600181540180825580915050600190039060005260206000200160009091909190915060008201518160000160006101000a8154816001600160401b0302191690836001600160401b0316021790555060208201518160000160086101000a81548161ffff021916908361ffff160217905550604082015181600001600a6101000a81548161ffff021916908361ffff1602179055505050600860405180606001604052806704db7325476300006001600160401b0316815260200161037a61ffff1681526020016103a461ffff168152509080600181540180825580915050600190039060005260206000200160009091909190915060008201518160000160006101000a8154816001600160401b0302191690836001600160401b0316021790555060208201518160000160086101000a81548161ffff021916908361ffff160217905550604082015181600001600a6101000a81548161ffff021916908361ffff16021790555050506008604051806060016040528067063eb89da4ed00006001600160401b031681526020016103ca61ffff1681526020016103e861ffff168152509080600181540180825580915050600190039060005260206000200160009091909190915060008201518160000160006101000a8154816001600160401b0302191690836001600160401b0316021790555060208201518160000160086101000a81548161ffff021916908361ffff160217905550604082015181600001600a6101000a81548161ffff021916908361ffff160217905550505060086040518060600160405280670905438e600100006001600160401b0316815260200161040661ffff16815260200161043861ffff168152509080600181540180825580915050600190039060005260206000200160009091909190915060008201518160000160006101000a8154816001600160401b0302191690836001600160401b0316021790555060208201518160000160086101000a81548161ffff021916908361ffff160217905550604082015181600001600a6101000a81548161ffff021916908361ffff160217905550505060086040518060600160405280670bcbce7f1b1500006001600160401b0316815260200161046061ffff16815260200161049c61ffff168152509080600181540180825580915050600190039060005260206000200160009091909190915060008201518160000160006101000a8154816001600160401b0302191690836001600160401b0316021790555060208201518160000160086101000a81548161ffff021916908361ffff160217905550604082015181600001600a6101000a81548161ffff021916908361ffff160217905550505060086040518060600160405280670de0b6b3a76400006001600160401b031681526020016104e261ffff16815260200161051461ffff168152509080600181540180825580915050600190039060005260206000200160009091909190915060008201518160000160006101000a8154816001600160401b0302191690836001600160401b0316021790555060208201518160000160086101000a81548161ffff021916908361ffff160217905550604082015181600001600a6101000a81548161ffff021916908361ffff1602179055505050600860405180606001604052806703782dace9d900006001600160401b0316815260200161054661ffff16815260200161057861ffff168152509080600181540180825580915050600190039060005260206000200160009091909190915060008201518160000160006101000a8154816001600160401b0302191690836001600160401b0316021790555060208201518160000160086101000a81548161ffff021916908361ffff160217905550604082015181600001600a6101000a81548161ffff021916908361ffff1602179055505050600860405180606001604052806704db7325476300006001600160401b031681526020016105aa61ffff1681526020016105dc61ffff168152509080600181540180825580915050600190039060005260206000200160009091909190915060008201518160000160006101000a8154816001600160401b0302191690836001600160401b0316021790555060208201518160000160086101000a81548161ffff021916908361ffff160217905550604082015181600001600a6101000a81548161ffff021916908361ffff16021790555050506008604051806060016040528067063eb89da4ed00006001600160401b0316815260200161061861ffff16815260200161065461ffff168152509080600181540180825580915050600190039060005260206000200160009091909190915060008201518160000160006101000a8154816001600160401b0302191690836001600160401b0316021790555060208201518160000160086101000a81548161ffff021916908361ffff160217905550604082015181600001600a6101000a81548161ffff021916908361ffff160217905550505060086040518060600160405280670905438e600100006001600160401b0316815260200161069561ffff1681526020016106bd61ffff168152509080600181540180825580915050600190039060005260206000200160009091909190915060008201518160000160006101000a8154816001600160401b0302191690836001600160401b0316021790555060208201518160000160086101000a81548161ffff021916908361ffff160217905550604082015181600001600a6101000a81548161ffff021916908361ffff160217905550505060086040518060600160405280670bcbce7f1b1500006001600160401b031681526020016106e061ffff1681526020016106fe61ffff168152509080600181540180825580915050600190039060005260206000200160009091909190915060008201518160000160006101000a8154816001600160401b0302191690836001600160401b0316021790555060208201518160000160086101000a81548161ffff021916908361ffff160217905550604082015181600001600a6101000a81548161ffff021916908361ffff160217905550505060086040518060600160405280670de0b6b3a76400006001600160401b0316815260200161073a61ffff16815260200161078061ffff168152509080600181540180825580915050600190039060005260206000200160009091909190915060008201518160000160006101000a8154816001600160401b0302191690836001600160401b0316021790555060208201518160000160086101000a81548161ffff021916908361ffff160217905550604082015181600001600a6101000a81548161ffff021916908361ffff1602179055505050600860405180606001604052806703782dace9d900006001600160401b0316815260200161079e61ffff1681526020016107d061ffff168152509080600181540180825580915050600190039060005260206000200160009091909190915060008201518160000160006101000a8154816001600160401b0302191690836001600160401b0316021790555060208201518160000160086101000a81548161ffff021916908361ffff160217905550604082015181600001600a6101000a81548161ffff021916908361ffff1602179055505050600860405180606001604052806704db7325476300006001600160401b031681526020016107e961ffff16815260200161081661ffff168152509080600181540180825580915050600190039060005260206000200160009091909190915060008201518160000160006101000a8154816001600160401b0302191690836001600160401b0316021790555060208201518160000160086101000a81548161ffff021916908361ffff160217905550604082015181600001600a6101000a81548161ffff021916908361ffff16021790555050506008604051806060016040528067063eb89da4ed00006001600160401b0316815260200161083e61ffff16815260200161087a61ffff168152509080600181540180825580915050600190039060005260206000200160009091909190915060008201518160000160006101000a8154816001600160401b0302191690836001600160401b0316021790555060208201518160000160086101000a81548161ffff021916908361ffff160217905550604082015181600001600a6101000a81548161ffff021916908361ffff160217905550505060086040518060600160405280670905438e600100006001600160401b031681526020016108ca61ffff1681526020016108f261ffff168152509080600181540180825580915050600190039060005260206000200160009091909190915060008201518160000160006101000a8154816001600160401b0302191690836001600160401b0316021790555060208201518160000160086101000a81548161ffff021916908361ffff160217905550604082015181600001600a6101000a81548161ffff021916908361ffff160217905550505060086040518060600160405280670bcbce7f1b1500006001600160401b0316815260200161092461ffff16815260200161096061ffff168152509080600181540180825580915050600190039060005260206000200160009091909190915060008201518160000160006101000a8154816001600160401b0302191690836001600160401b0316021790555060208201518160000160086101000a81548161ffff021916908361ffff160217905550604082015181600001600a6101000a81548161ffff021916908361ffff160217905550505060086040518060600160405280670de0b6b3a76400006001600160401b031681526020016109b061ffff1681526020016109d861ffff168152509080600181540180825580915050600190039060005260206000200160009091909190915060008201518160000160006101000a8154816001600160401b0302191690836001600160401b0316021790555060208201518160000160086101000a81548161ffff021916908361ffff160217905550604082015181600001600a6101000a81548161ffff021916908361ffff1602179055505050600860405180606001604052806703782dace9d900006001600160401b03168152602001610a1461ffff168152602001610a5a61ffff168152509080600181540180825580915050600190039060005260206000200160009091909190915060008201518160000160006101000a8154816001600160401b0302191690836001600160401b0316021790555060208201518160000160086101000a81548161ffff021916908361ffff160217905550604082015181600001600a6101000a81548161ffff021916908361ffff1602179055505050600860405180606001604052806704db7325476300006001600160401b03168152602001610a8c61ffff168152602001610adc61ffff168152509080600181540180825580915050600190039060005260206000200160009091909190915060008201518160000160006101000a8154816001600160401b0302191690836001600160401b0316021790555060208201518160000160086101000a81548161ffff021916908361ffff160217905550604082015181600001600a6101000a81548161ffff021916908361ffff16021790555050506008604051806060016040528067063eb89da4ed00006001600160401b03168152602001610b2261ffff168152602001610b5461ffff168152509080600181540180825580915050600190039060005260206000200160009091909190915060008201518160000160006101000a8154816001600160401b0302191690836001600160401b0316021790555060208201518160000160086101000a81548161ffff021916908361ffff160217905550604082015181600001600a6101000a81548161ffff021916908361ffff160217905550505060086040518060600160405280670905438e600100006001600160401b03168152602001610bb861ffff168152602001610c1c61ffff168152509080600181540180825580915050600190039060005260206000200160009091909190915060008201518160000160006101000a8154816001600160401b0302191690836001600160401b0316021790555060208201518160000160086101000a81548161ffff021916908361ffff160217905550604082015181600001600a6101000a81548161ffff021916908361ffff160217905550505060086040518060600160405280670bcbce7f1b1500006001600160401b03168152602001610c8061ffff168152602001610ce461ffff168152509080600181540180825580915050600190039060005260206000200160009091909190915060008201518160000160006101000a8154816001600160401b0302191690836001600160401b0316021790555060208201518160000160086101000a81548161ffff021916908361ffff160217905550604082015181600001600a6101000a81548161ffff021916908361ffff160217905550505060086040518060600160405280670de0b6b3a76400006001600160401b03168152602001610d4861ffff168152602001610dac61ffff168152509080600181540180825580915050600190039060005260206000200160009091909190915060008201518160000160006101000a8154816001600160401b0302191690836001600160401b0316021790555060208201518160000160086101000a81548161ffff021916908361ffff160217905550604082015181600001600a6101000a81548161ffff021916908361ffff1602179055505050600860405180606001604052806703782dace9d900006001600160401b03168152602001610e1061ffff168152602001610ed861ffff168152509080600181540180825580915050600190039060005260206000200160009091909190915060008201518160000160006101000a8154816001600160401b0302191690836001600160401b0316021790555060208201518160000160086101000a81548161ffff021916908361ffff160217905550604082015181600001600a6101000a81548161ffff021916908361ffff1602179055505050600860405180606001604052806704db7325476300006001600160401b03168152602001610f3c61ffff16815260200161106861ffff168152509080600181540180825580915050600190039060005260206000200160009091909190915060008201518160000160006101000a8154816001600160401b0302191690836001600160401b0316021790555060208201518160000160086101000a81548161ffff021916908361ffff160217905550604082015181600001600a6101000a81548161ffff021916908361ffff16021790555050506008604051806060016040528067063eb89da4ed00006001600160401b031681526020016110cc61ffff1681526020016110fe61ffff168152509080600181540180825580915050600190039060005260206000200160009091909190915060008201518160000160006101000a8154816001600160401b0302191690836001600160401b0316021790555060208201518160000160086101000a81548161ffff021916908361ffff160217905550604082015181600001600a6101000a81548161ffff021916908361ffff160217905550505060086040518060600160405280670905438e600100006001600160401b0316815260200161111c61ffff16815260200161114461ffff168152509080600181540180825580915050600190039060005260206000200160009091909190915060008201518160000160006101000a8154816001600160401b0302191690836001600160401b0316021790555060208201518160000160086101000a81548161ffff021916908361ffff160217905550604082015181600001600a6101000a81548161ffff021916908361ffff160217905550505060086040518060600160405280670bcbce7f1b1500006001600160401b0316815260200161118a61ffff1681526020016111b261ffff168152509080600181540180825580915050600190039060005260206000200160009091909190915060008201518160000160006101000a8154816001600160401b0302191690836001600160401b0316021790555060208201518160000160086101000a81548161ffff021916908361ffff160217905550604082015181600001600a6101000a81548161ffff021916908361ffff160217905550505060086040518060600160405280670de0b6b3a76400006001600160401b0316815260200161125c61ffff16815260200161132461ffff168152509080600181540180825580915050600190039060005260206000200160009091909190915060008201518160000160006101000a8154816001600160401b0302191690836001600160401b0316021790555060208201518160000160086101000a81548161ffff021916908361ffff160217905550604082015181600001600a6101000a81548161ffff021916908361ffff1602179055505050600860405180606001604052806703782dace9d900006001600160401b0316815260200161138861ffff1681526020016113ec61ffff168152509080600181540180825580915050600190039060005260206000200160009091909190915060008201518160000160006101000a8154816001600160401b0302191690836001600160401b0316021790555060208201518160000160086101000a81548161ffff021916908361ffff160217905550604082015181600001600a6101000a81548161ffff021916908361ffff1602179055505050600860405180606001604052806704db7325476300006001600160401b031681526020016114b461ffff1681526020016114cd61ffff168152509080600181540180825580915050600190039060005260206000200160009091909190915060008201518160000160006101000a8154816001600160401b0302191690836001600160401b0316021790555060208201518160000160086101000a81548161ffff021916908361ffff160217905550604082015181600001600a6101000a81548161ffff021916908361ffff16021790555050506008604051806060016040528067063eb89da4ed00006001600160401b0316815260200161151861ffff16815260200161164461ffff168152509080600181540180825580915050600190039060005260206000200160009091909190915060008201518160000160006101000a8154816001600160401b0302191690836001600160401b0316021790555060208201518160000160086101000a81548161ffff021916908361ffff160217905550604082015181600001600a6101000a81548161ffff021916908361ffff160217905550505060086040518060600160405280670905438e600100006001600160401b0316815260200161170c61ffff1681526020016117d461ffff168152509080600181540180825580915050600190039060005260206000200160009091909190915060008201518160000160006101000a8154816001600160401b0302191690836001600160401b0316021790555060208201518160000160086101000a81548161ffff021916908361ffff160217905550604082015181600001600a6101000a81548161ffff021916908361ffff160217905550505060086040518060600160405280670bcbce7f1b1500006001600160401b0316815260200161190061ffff168152602001611a2c61ffff168152509080600181540180825580915050600190039060005260206000200160009091909190915060008201518160000160006101000a8154816001600160401b0302191690836001600160401b0316021790555060208201518160000160086101000a81548161ffff021916908361ffff160217905550604082015181600001600a6101000a81548161ffff021916908361ffff160217905550505060086040518060600160405280670de0b6b3a76400006001600160401b03168152602001611af461ffff168152602001611b5861ffff168152509080600181540180825580915050600190039060005260206000200160009091909190915060008201518160000160006101000a8154816001600160401b0302191690836001600160401b0316021790555060208201518160000160086101000a81548161ffff021916908361ffff160217905550604082015181600001600a6101000a81548161ffff021916908361ffff1602179055505050600860405180606001604052806703782dace9d900006001600160401b03168152602001611c2061ffff168152602001611c8461ffff168152509080600181540180825580915050600190039060005260206000200160009091909190915060008201518160000160006101000a8154816001600160401b0302191690836001600160401b0316021790555060208201518160000160086101000a81548161ffff021916908361ffff160217905550604082015181600001600a6101000a81548161ffff021916908361ffff1602179055505050600860405180606001604052806704db7325476300006001600160401b03168152602001611ce861ffff168152602001611d4c61ffff168152509080600181540180825580915050600190039060005260206000200160009091909190915060008201518160000160006101000a8154816001600160401b0302191690836001600160401b0316021790555060208201518160000160086101000a81548161ffff021916908361ffff160217905550604082015181600001600a6101000a81548161ffff021916908361ffff16021790555050506008604051806060016040528067063eb89da4ed00006001600160401b03168152602001611db061ffff168152602001611e1461ffff168152509080600181540180825580915050600190039060005260206000200160009091909190915060008201518160000160006101000a8154816001600160401b0302191690836001600160401b0316021790555060208201518160000160086101000a81548161ffff021916908361ffff160217905550604082015181600001600a6101000a81548161ffff021916908361ffff160217905550505060086040518060600160405280670905438e600100006001600160401b03168152602001611e7861ffff168152602001611edc61ffff168152509080600181540180825580915050600190039060005260206000200160009091909190915060008201518160000160006101000a8154816001600160401b0302191690836001600160401b0316021790555060208201518160000160086101000a81548161ffff021916908361ffff160217905550604082015181600001600a6101000a81548161ffff021916908361ffff160217905550505060086040518060600160405280670bcbce7f1b1500006001600160401b0316815260200161200861ffff1681526020016120d061ffff168152509080600181540180825580915050600190039060005260206000200160009091909190915060008201518160000160006101000a8154816001600160401b0302191690836001600160401b0316021790555060208201518160000160086101000a81548161ffff021916908361ffff160217905550604082015181600001600a6101000a81548161ffff021916908361ffff160217905550505060086040518060600160405280670de0b6b3a76400006001600160401b0316815260200161219861ffff16815260200161226061ffff168152509080600181540180825580915050600190039060005260206000200160009091909190915060008201518160000160006101000a8154816001600160401b0302191690836001600160401b0316021790555060208201518160000160086101000a81548161ffff021916908361ffff160217905550604082015181600001600a6101000a81548161ffff021916908361ffff1602179055505050600860405180606001604052806703782dace9d900006001600160401b0316815260200161232861ffff1681526020016123f061ffff168152509080600181540180825580915050600190039060005260206000200160009091909190915060008201518160000160006101000a8154816001600160401b0302191690836001600160401b0316021790555060208201518160000160086101000a81548161ffff021916908361ffff160217905550604082015181600001600a6101000a81548161ffff021916908361ffff1602179055505050600860405180606001604052806704db7325476300006001600160401b031681526020016124b861ffff16815260200161259e61ffff168152509080600181540180825580915050600190039060005260206000200160009091909190915060008201518160000160006101000a8154816001600160401b0302191690836001600160401b0316021790555060208201518160000160086101000a81548161ffff021916908361ffff160217905550604082015181600001600a6101000a81548161ffff021916908361ffff16021790555050506008604051806060016040528067063eb89da4ed00006001600160401b0316815260200161264861ffff1681526020016126ac61ffff168152509080600181540180825580915050600190039060005260206000200160009091909190915060008201518160000160006101000a8154816001600160401b0302191690836001600160401b0316021790555060208201518160000160086101000a81548161ffff021916908361ffff160217905550604082015181600001600a6101000a81548161ffff021916908361ffff160217905550505060086040518060600160405280670905438e600100006001600160401b031681526020016127d861ffff168152602001612af861ffff168152509080600181540180825580915050600190039060005260206000200160009091909190915060008201518160000160006101000a8154816001600160401b0302191690836001600160401b0316021790555060208201518160000160086101000a81548161ffff021916908361ffff160217905550604082015181600001600a6101000a81548161ffff021916908361ffff160217905550505060086040518060600160405280670bcbce7f1b1500006001600160401b03168152602001612bf261ffff168152602001612cec61ffff168152509080600181540180825580915050600190039060005260206000200160009091909190915060008201518160000160006101000a8154816001600160401b0302191690836001600160401b0316021790555060208201518160000160086101000a81548161ffff021916908361ffff160217905550604082015181600001600a6101000a81548161ffff021916908361ffff160217905550505060086040518060600160405280670de0b6b3a76400006001600160401b03168152602001612ee061ffff1681526020016132c861ffff168152509080600181540180825580915050600190039060005260206000200160009091909190915060008201518160000160006101000a8154816001600160401b0302191690836001600160401b0316021790555060208201518160000160086101000a81548161ffff021916908361ffff160217905550604082015181600001600a6101000a81548161ffff021916908361ffff1602179055505050600860405180606001604052806703782dace9d900006001600160401b031681526020016136b061ffff1681526020016138a461ffff168152509080600181540180825580915050600190039060005260206000200160009091909190915060008201518160000160006101000a8154816001600160401b0302191690836001600160401b0316021790555060208201518160000160086101000a81548161ffff021916908361ffff160217905550604082015181600001600a6101000a81548161ffff021916908361ffff1602179055505050600860405180606001604052806704db7325476300006001600160401b0316815260200161396c61ffff168152602001613a9861ffff168152509080600181540180825580915050600190039060005260206000200160009091909190915060008201518160000160006101000a8154816001600160401b0302191690836001600160401b0316021790555060208201518160000160086101000a81548161ffff021916908361ffff160217905550604082015181600001600a6101000a81548161ffff021916908361ffff16021790555050506008604051806060016040528067063eb89da4ed00006001600160401b03168152602001613c8c61ffff168152602001613e8061ffff168152509080600181540180825580915050600190039060005260206000200160009091909190915060008201518160000160006101000a8154816001600160401b0302191690836001600160401b0316021790555060208201518160000160086101000a81548161ffff021916908361ffff160217905550604082015181600001600a6101000a81548161ffff021916908361ffff160217905550505060086040518060600160405280670905438e600100006001600160401b0316815260200161407461ffff16815260200161426861ffff168152509080600181540180825580915050600190039060005260206000200160009091909190915060008201518160000160006101000a8154816001600160401b0302191690836001600160401b0316021790555060208201518160000160086101000a81548161ffff021916908361ffff160217905550604082015181600001600a6101000a81548161ffff021916908361ffff160217905550505060086040518060600160405280670bcbce7f1b1500006001600160401b0316815260200161445c61ffff16815260200161465061ffff168152509080600181540180825580915050600190039060005260206000200160009091909190915060008201518160000160006101000a8154816001600160401b0302191690836001600160401b0316021790555060208201518160000160086101000a81548161ffff021916908361ffff160217905550604082015181600001600a6101000a81548161ffff021916908361ffff160217905550505060086040518060600160405280670de0b6b3a76400006001600160401b03168152602001614e2061ffff1681526020016157e461ffff168152509080600181540180825580915050600190039060005260206000200160009091909190915060008201518160000160006101000a8154816001600160401b0302191690836001600160401b0316021790555060208201518160000160086101000a81548161ffff021916908361ffff160217905550604082015181600001600a6101000a81548161ffff021916908361ffff160217905550505062003914565b3390565b600780546001600160a01b038381166001600160a01b0319831681179093556040519116919082907f8be0079c531659141344cd1fd0a4f28419497f9722a3daafe3b4186f6b6457e090600090a35050565b634e487b7160e01b600052604160045260246000fd5b600181811c90821680620037ce57607f821691505b602082108103620037ef57634e487b7160e01b600052602260045260246000fd5b50919050565b601f8211156200384357600081815260208120601f850160051c810160208610156200381e5750805b601f850160051c820191505b818110156200383f578281556001016200382a565b5050505b505050565b81516001600160401b03811115620038645762003864620037a3565b6200387c81620038758454620037b9565b84620037f5565b602080601f831160018114620038b457600084156200389b5750858301515b600019600386901b1c1916600185901b1785556200383f565b600085815260208120601f198616915b82811015620038e557888601518255948401946001909101908401620038c4565b5085821015620039045787850151600019600388901b60f8161c191681555b5050505050600190811b01905550565b612d0d80620039246000396000f3fe6080604052600436106101e35760003560e01c80636c0360eb1161010257806395d89b4111610095578063ccb4918d11610064578063ccb4918d146105c7578063e7fdc7b3146105dc578063e985e9c5146105fc578063f2fde38b1461064557600080fd5b806395d89b4114610552578063a22cb46514610567578063b88d4fde14610587578063c87b56dd146105a757600080fd5b806375e05b88116100d157806375e05b881461047f5780638bf2bacc146105015780638da5cb5b146105145780639061d0071461053257600080fd5b80636c0360eb1461042057806370a082311461043557806370cbcb4314610455578063715018a61461046a57600080fd5b8063243adbdd1161017a57806342842e0e1161014957806342842e0e146103a05780634f6ccce7146103c057806355f804b3146103e05780636352211e1461040057600080fd5b8063243adbdd146103365780632f745c591461034957806336b536be146103695780633ccfd60b1461038b57600080fd5b806318160ddd116101b657806318160ddd146102995780631c910e65146102b857806321f422e51461030357806323b872dd1461031657600080fd5b806301ffc9a7146101e857806306fdde031461021d578063081812fc1461023f578063095ea7b314610277575b600080fd5b3480156101f457600080fd5b506102086102033660046125b5565b610665565b60405190151581526020015b60405180910390f35b34801561022957600080fd5b50610232610702565b6040516102149190612622565b34801561024b57600080fd5b5061025f61025a366004612635565b610794565b6040516001600160a01b039091168152602001610214565b34801561028357600080fd5b5061029761029236600461266a565b6107bb565b005b3480156102a557600080fd5b506011545b604051908152602001610214565b3480156102c457600080fd5b506102d86102d3366004612635565b6108f1565b6040805167ffffffffffffffff909416845261ffff9283166020850152911690820152606001610214565b610297610311366004612694565b61093e565b34801561032257600080fd5b506102976103313660046126b6565b610a42565b610297610344366004612635565b610ac9565b34801561035557600080fd5b506102aa61036436600461266a565b610bc9565b34801561037557600080fd5b5061037e610c4b565b60405161021491906126f2565b34801561039757600080fd5b50610297610d9d565b3480156103ac57600080fd5b506102976103bb3660046126b6565b610e12565b3480156103cc57600080fd5b506102aa6103db366004612635565b610e2d565b3480156103ec57600080fd5b506102976103fb3660046127ed565b610eab565b34801561040c57600080fd5b5061025f61041b366004612635565b610ebf565b34801561042c57600080fd5b50610232610f24565b34801561044157600080fd5b506102aa610450366004612836565b610fb2565b34801561046157600080fd5b5061037e61104c565b34801561047657600080fd5b50610297611174565b34801561048b57600080fd5b506104d061049a366004612635565b600e602052600090815260409020805460018201546002909201549091906001600160a01b03811690600160a01b900460ff1684565b604051610214949392919093845260208401929092526001600160a01b031660408301521515606082015260800190565b6102aa61050f366004612851565b611188565b34801561052057600080fd5b506007546001600160a01b031661025f565b34801561053e57600080fd5b5061029761054d366004612635565b6113b4565b34801561055e57600080fd5b5061023261143d565b34801561057357600080fd5b50610297610582366004612887565b61144c565b34801561059357600080fd5b506102976105a23660046128b8565b611457565b3480156105b357600080fd5b506102326105c2366004612635565b6114e5565b3480156105d357600080fd5b506102aa611568565b3480156105e857600080fd5b506102976105f7366004612934565b611578565b34801561060857600080fd5b50610208610617366004612959565b6001600160a01b03918216600090815260056020908152604080832093909416825291909152205460ff1690565b34801561065157600080fd5b50610297610660366004612836565b61165f565b60006001600160e01b031982167f80ac58cd0000000000000000000000000000000000000000000000000000000014806106c857506001600160e01b031982167f5b5e139f00000000000000000000000000000000000000000000000000000000145b806106fc57507f01ffc9a7000000000000000000000000000000000000000000000000000000006001600160e01b03198316145b92915050565b6060600080546107119061298c565b80601f016020809104026020016040519081016040528092919081815260200182805461073d9061298c565b801561078a5780601f1061075f5761010080835404028352916020019161078a565b820191906000526020600020905b81548152906001019060200180831161076d57829003601f168201915b5050505050905090565b600061079f826116ec565b506000908152600460205260409020546001600160a01b031690565b60006107c682610ebf565b9050806001600160a01b0316836001600160a01b0316036108545760405162461bcd60e51b815260206004820152602160248201527f4552433732313a20617070726f76616c20746f2063757272656e74206f776e6560448201527f720000000000000000000000000000000000000000000000000000000000000060648201526084015b60405180910390fd5b336001600160a01b038216148061087057506108708133610617565b6108e25760405162461bcd60e51b815260206004820152603e60248201527f4552433732313a20617070726f76652063616c6c6572206973206e6f7420746f60448201527f6b656e206f776e6572206e6f7220617070726f76656420666f7220616c6c0000606482015260840161084b565b6108ec8383611750565b505050565b6008818154811061090157600080fd5b60009182526020909120015467ffffffffffffffff8116915061ffff6801000000000000000082048116916a010000000000000000000090041683565b3361094883610ebf565b6001600160a01b03161461099e5760405162461bcd60e51b815260206004820152601d60248201527f596f7520617265206e6f74206f776e6572206f662074686973206e6674000000604482015260640161084b565b6000828152600e6020526040902060020154600160a01b900460ff1615610a075760405162461bcd60e51b815260206004820152601760248201527f4974656d20697320616c7265616479206f6e2073616c65000000000000000000604482015260640161084b565b6000828152600e6020526040902060028101805460ff60a01b1916600160a01b179055600101819055610a3e600980546001019055565b5050565b610a4c33826117cb565b610abe5760405162461bcd60e51b815260206004820152602e60248201527f4552433732313a2063616c6c6572206973206e6f7420746f6b656e206f776e6560448201527f72206e6f7220617070726f766564000000000000000000000000000000000000606482015260840161084b565b6108ec83838361184a565b6000818152600e602052604081206001015490610ae583610ebf565b90506001600160a01b0381163303610b3f5760405162461bcd60e51b815260206004820152601860248201527f596f7520616c7265616479206f776e2074686973204e46540000000000000000604482015260640161084b565b813414610b8e5760405162461bcd60e51b815260206004820152601e60248201527f506c65617365207375626d6974207468652061736b696e672070726963650000604482015260640161084b565b6000838152600e60205260409020600201805460ff60a01b19169055610bb46009611a2f565b610bbf81338561184a565b6108ec8134611a86565b6000610bd483610fb2565b8210610c225760405162461bcd60e51b815260206004820152601360248201527f496e646578206f7574206f6620626f756e647300000000000000000000000000604482015260640161084b565b506001600160a01b03919091166000908152600f60209081526040808320938352929052205490565b60606000610c5860115490565b9050600080610c6660095490565b67ffffffffffffffff811115610c7e57610c7e612761565b604051908082528060200260200182016040528015610cd057816020015b604080516080810182526000808252602080830182905292820181905260608201528252600019909201910181610c9c5790505b50905060005b83811015610d95576000610ce982610e2d565b6000818152600e60205260409020600281015491925090600160a01b900460ff161515600103610d805760408051608081018252825481526001830154602082015260028301546001600160a01b03811692820192909252600160a01b90910460ff16151560608201528451859087908110610d6757610d676129c6565b6020908102919091010152610d7d6001866129f2565b94505b50508080610d8d90612a05565b915050610cd6565b509392505050565b610da5611b9f565b4780610df35760405162461bcd60e51b815260206004820152601260248201527f4e6f2066756e647320617661696c61626c650000000000000000000000000000604482015260640161084b565b731e8dd1acb4d121d1a30b7b9bb709f2fdaf041cc2610a3e8183611a86565b6108ec83838360405180602001604052806000815250611457565b6000610e3860115490565b8210610e865760405162461bcd60e51b815260206004820152601360248201527f496e646578206f7574206f6620626f756e647300000000000000000000000000604482015260640161084b565b60118281548110610e9957610e996129c6565b90600052602060002001549050919050565b610eb3611b9f565b600c610a3e8282612a6c565b6000818152600260205260408120546001600160a01b0316806106fc5760405162461bcd60e51b815260206004820152601860248201527f4552433732313a20696e76616c696420746f6b656e2049440000000000000000604482015260640161084b565b600c8054610f319061298c565b80601f0160208091040260200160405190810160405280929190818152602001828054610f5d9061298c565b8015610faa5780601f10610f7f57610100808354040283529160200191610faa565b820191906000526020600020905b815481529060010190602001808311610f8d57829003601f168201915b505050505081565b60006001600160a01b0382166110305760405162461bcd60e51b815260206004820152602960248201527f4552433732313a2061646472657373207a65726f206973206e6f74206120766160448201527f6c6964206f776e65720000000000000000000000000000000000000000000000606482015260840161084b565b506001600160a01b031660009081526003602052604090205490565b6060600061105933610fb2565b905060008167ffffffffffffffff81111561107657611076612761565b6040519080825280602002602001820160405280156110c857816020015b6040805160808101825260008082526020808301829052928201819052606082015282526000199092019101816110945790505b50905060005b8281101561116d5760006110e23383610bc9565b6000818152600e602090815260409182902082516080810184528154815260018201549281019290925260028101546001600160a01b03811693830193909352600160a01b90920460ff16151560608201528551929350909185908590811061114d5761114d6129c6565b60200260200101819052505050808061116590612a05565b9150506110ce565b5092915050565b61117c611b9f565b6111866000611bf9565b565b6000806008848154811061119e5761119e6129c6565b600091825260209091200180549091506111c69060ff85169067ffffffffffffffff16612b2c565b67ffffffffffffffff1634146112435760405162461bcd60e51b8152602060048201526024808201527f5072696365206d75737420626520657175616c20746f206c697374696e67207060448201527f7269636500000000000000000000000000000000000000000000000000000000606482015260840161084b565b805461ffff6a010000000000000000000082048116916112749160ff87169168010000000000000000900416612b5c565b61ffff1611156112c65760405162461bcd60e51b815260206004820152601160248201527f4e6674206d696e746564206973206d6178000000000000000000000000000000604482015260640161084b565b60008360ff16116113195760405162461bcd60e51b815260206004820152600e60248201527f496e76616c696420616d6f756e74000000000000000000000000000000000000604482015260640161084b565b805468010000000000000000900461ffff1660ff841682600861133c8385612b5c565b92506101000a81548161ffff021916908361ffff16021790555060005b8460ff1681101561139a576113773361137283856129f2565b611c58565b61138a61138482846129f2565b87611c72565b61139381612a05565b9050611359565b50505468010000000000000000900461ffff169392505050565b336113be82610ebf565b6001600160a01b0316146114145760405162461bcd60e51b815260206004820152601d60248201527f596f7520617265206e6f74206f776e6572206f662074686973206e6674000000604482015260640161084b565b6000818152600e60205260409020600201805460ff60a01b1916905561143a6009611a2f565b50565b6060600180546107119061298c565b610a3e338383611da2565b61146133836117cb565b6114d35760405162461bcd60e51b815260206004820152602e60248201527f4552433732313a2063616c6c6572206973206e6f7420746f6b656e206f776e6560448201527f72206e6f7220617070726f766564000000000000000000000000000000000000606482015260840161084b565b6114df84848484611e70565b50505050565b6000818152600260205260409020546060906001600160a01b031661150957600080fd5b6000611513611eee565b905060008151116115335760405180602001604052806000815250611561565b8061153d84611efd565b600b60405160200161155193929190612b77565b6040516020818303038152906040525b9392505050565b600061157360095490565b905090565b611580611b9f565b600060088281548110611595576115956129c6565b6000918252602090912001805490915061ffff6a010000000000000000000090910481169084161161162f5760405162461bcd60e51b815260206004820152603760248201527f74686520616d6f756e74206f66206e6674206d7573742062652067726561746560448201527f72207468616e20746865206578697374696e67206f6e65000000000000000000606482015260840161084b565b805461ffff9093166a0100000000000000000000026bffff00000000000000000000199093169290921790915550565b611667611b9f565b6001600160a01b0381166116e35760405162461bcd60e51b815260206004820152602660248201527f4f776e61626c653a206e6577206f776e657220697320746865207a65726f206160448201527f6464726573730000000000000000000000000000000000000000000000000000606482015260840161084b565b61143a81611bf9565b6000818152600260205260409020546001600160a01b031661143a5760405162461bcd60e51b815260206004820152601860248201527f4552433732313a20696e76616c696420746f6b656e2049440000000000000000604482015260640161084b565b6000818152600460205260409020805473ffffffffffffffffffffffffffffffffffffffff19166001600160a01b038416908117909155819061179282610ebf565b6001600160a01b03167f8c5be1e5ebec7d5bd14f71427d1e84f3dd0314c0f7b2291e5b200ac8c7c3b92560405160405180910390a45050565b6000806117d783610ebf565b9050806001600160a01b0316846001600160a01b0316148061181e57506001600160a01b0380821660009081526005602090815260408083209388168352929052205460ff165b806118425750836001600160a01b031661183784610794565b6001600160a01b0316145b949350505050565b826001600160a01b031661185d82610ebf565b6001600160a01b0316146118d95760405162461bcd60e51b815260206004820152602560248201527f4552433732313a207472616e736665722066726f6d20696e636f72726563742060448201527f6f776e6572000000000000000000000000000000000000000000000000000000606482015260840161084b565b6001600160a01b0382166119545760405162461bcd60e51b8152602060048201526024808201527f4552433732313a207472616e7366657220746f20746865207a65726f2061646460448201527f7265737300000000000000000000000000000000000000000000000000000000606482015260840161084b565b61195f838383612032565b61196a600082611750565b6001600160a01b0383166000908152600360205260408120805460019290611993908490612c17565b90915550506001600160a01b03821660009081526003602052604081208054600192906119c19084906129f2565b9091555050600081815260026020526040808220805473ffffffffffffffffffffffffffffffffffffffff19166001600160a01b0386811691821790925591518493918716917fddf252ad1be2c89b69c2b068fc378daa952ba7f163c4a11628f55a4df523b3ef91a4505050565b805480611a7e5760405162461bcd60e51b815260206004820152601b60248201527f436f756e7465723a2064656372656d656e74206f766572666c6f770000000000604482015260640161084b565b600019019055565b80471015611ad65760405162461bcd60e51b815260206004820152601d60248201527f416464726573733a20696e73756666696369656e742062616c616e6365000000604482015260640161084b565b6000826001600160a01b03168260405160006040518083038185875af1925050503d8060008114611b23576040519150601f19603f3d011682016040523d82523d6000602084013e611b28565b606091505b50509050806108ec5760405162461bcd60e51b815260206004820152603a60248201527f416464726573733a20756e61626c6520746f2073656e642076616c75652c207260448201527f6563697069656e74206d61792068617665207265766572746564000000000000606482015260840161084b565b6007546001600160a01b031633146111865760405162461bcd60e51b815260206004820181905260248201527f4f776e61626c653a2063616c6c6572206973206e6f7420746865206f776e6572604482015260640161084b565b600780546001600160a01b0383811673ffffffffffffffffffffffffffffffffffffffff19831681179093556040519116919082907f8be0079c531659141344cd1fd0a4f28419497f9722a3daafe3b4186f6b6457e090600090a35050565b610a3e8282604051806020016040528060008152506120ea565b604051806080016040528083815260200160088381548110611c9657611c966129c6565b600091825260208083209091015467ffffffffffffffff16835233838201526040928301829052858252600e8152908290208351815590830151600182015590820151600290910180546060909301511515600160a01b027fffffffffffffffffffffff0000000000000000000000000000000000000000009093166001600160a01b039290921691909117919091179055600880547f470031062672bc0246e132c723a729c4676710ec663a29e86c88678032daddea91849184908110611d6057611d606129c6565b6000918252602080832091909101546040805194855267ffffffffffffffff909116918401919091523390830152606082015260800160405180910390a15050565b816001600160a01b0316836001600160a01b031603611e035760405162461bcd60e51b815260206004820152601960248201527f4552433732313a20617070726f766520746f2063616c6c657200000000000000604482015260640161084b565b6001600160a01b03838116600081815260056020908152604080832094871680845294825291829020805460ff191686151590811790915591519182527f17307eab39ab6107e8899845ad3d59bd9653f200f220920489ca2b5937696c31910160405180910390a3505050565b611e7b84848461184a565b611e8784848484612168565b6114df5760405162461bcd60e51b815260206004820152603260248201527f4552433732313a207472616e7366657220746f206e6f6e20455243373231526560448201527131b2b4bb32b91034b6b83632b6b2b73a32b960711b606482015260840161084b565b6060600c80546107119061298c565b606081600003611f4057505060408051808201909152600181527f3000000000000000000000000000000000000000000000000000000000000000602082015290565b8160005b8115611f6a5780611f5481612a05565b9150611f639050600a83612c40565b9150611f44565b60008167ffffffffffffffff811115611f8557611f85612761565b6040519080825280601f01601f191660200182016040528015611faf576020820181803683370190505b5090505b841561184257611fc4600183612c17565b9150611fd1600a86612c54565b611fdc9060306129f2565b60f81b818381518110611ff157611ff16129c6565b60200101907effffffffffffffffffffffffffffffffffffffffffffffffffffffffffffff1916908160001a90535061202b600a86612c40565b9450611fb3565b6001600160a01b03831661208d5761208881601180546000838152601260205260408120829055600182018355919091527f31ecc21a745e3968a04e9570e4425bc18fa8019c68028196b546d1669c200c680155565b6120b0565b816001600160a01b0316836001600160a01b0316146120b0576120b083826122b4565b6001600160a01b0382166120c7576108ec81612351565b826001600160a01b0316826001600160a01b0316146108ec576108ec8282612400565b6120f48383612444565b6121016000848484612168565b6108ec5760405162461bcd60e51b815260206004820152603260248201527f4552433732313a207472616e7366657220746f206e6f6e20455243373231526560448201527131b2b4bb32b91034b6b83632b6b2b73a32b960711b606482015260840161084b565b60006001600160a01b0384163b156122a957604051630a85bd0160e11b81526001600160a01b0385169063150b7a02906121ac903390899088908890600401612c68565b6020604051808303816000875af19250505080156121e7575060408051601f3d908101601f191682019092526121e491810190612ca4565b60015b61228f573d808015612215576040519150601f19603f3d011682016040523d82523d6000602084013e61221a565b606091505b5080516000036122875760405162461bcd60e51b815260206004820152603260248201527f4552433732313a207472616e7366657220746f206e6f6e20455243373231526560448201527131b2b4bb32b91034b6b83632b6b2b73a32b960711b606482015260840161084b565b805181602001fd5b6001600160e01b031916630a85bd0160e11b149050611842565b506001949350505050565b600060016122c184610fb2565b6122cb9190612c17565b60008381526010602052604090205490915080821461231e576001600160a01b0384166000908152600f602090815260408083208584528252808320548484528184208190558352601090915290208190555b5060009182526010602090815260408084208490556001600160a01b039094168352600f81528383209183525290812055565b60115460009061236390600190612c17565b6000838152601260205260408120546011805493945090928490811061238b5761238b6129c6565b9060005260206000200154905080601183815481106123ac576123ac6129c6565b60009182526020808320909101929092558281526012909152604080822084905585825281205560118054806123e4576123e4612cc1565b6001900381819060005260206000200160009055905550505050565b600061240b83610fb2565b6001600160a01b039093166000908152600f60209081526040808320868452825280832085905593825260109052919091209190915550565b6001600160a01b03821661249a5760405162461bcd60e51b815260206004820181905260248201527f4552433732313a206d696e7420746f20746865207a65726f2061646472657373604482015260640161084b565b6000818152600260205260409020546001600160a01b0316156124ff5760405162461bcd60e51b815260206004820152601c60248201527f4552433732313a20746f6b656e20616c7265616479206d696e74656400000000604482015260640161084b565b61250b60008383612032565b6001600160a01b03821660009081526003602052604081208054600192906125349084906129f2565b9091555050600081815260026020526040808220805473ffffffffffffffffffffffffffffffffffffffff19166001600160a01b03861690811790915590518392907fddf252ad1be2c89b69c2b068fc378daa952ba7f163c4a11628f55a4df523b3ef908290a45050565b6001600160e01b03198116811461143a57600080fd5b6000602082840312156125c757600080fd5b81356115618161259f565b60005b838110156125ed5781810151838201526020016125d5565b50506000910152565b6000815180845261260e8160208601602086016125d2565b601f01601f19169290920160200192915050565b60208152600061156160208301846125f6565b60006020828403121561264757600080fd5b5035919050565b80356001600160a01b038116811461266557600080fd5b919050565b6000806040838503121561267d57600080fd5b6126868361264e565b946020939093013593505050565b600080604083850312156126a757600080fd5b50508035926020909101359150565b6000806000606084860312156126cb57600080fd5b6126d48461264e565b92506126e26020850161264e565b9150604084013590509250925092565b602080825282518282018190526000919060409081850190868401855b82811015612754578151805185528681015187860152858101516001600160a01b0316868601526060908101511515908501526080909301929085019060010161270f565b5091979650505050505050565b634e487b7160e01b600052604160045260246000fd5b600067ffffffffffffffff8084111561279257612792612761565b604051601f8501601f19908116603f011681019082821181831017156127ba576127ba612761565b816040528093508581528686860111156127d357600080fd5b858560208301376000602087830101525050509392505050565b6000602082840312156127ff57600080fd5b813567ffffffffffffffff81111561281657600080fd5b8201601f8101841361282757600080fd5b61184284823560208401612777565b60006020828403121561284857600080fd5b6115618261264e565b6000806040838503121561286457600080fd5b82359150602083013560ff8116811461287c57600080fd5b809150509250929050565b6000806040838503121561289a57600080fd5b6128a38361264e565b91506020830135801515811461287c57600080fd5b600080600080608085870312156128ce57600080fd5b6128d78561264e565b93506128e56020860161264e565b925060408501359150606085013567ffffffffffffffff81111561290857600080fd5b8501601f8101871361291957600080fd5b61292887823560208401612777565b91505092959194509250565b6000806040838503121561294757600080fd5b823561ffff8116811461268657600080fd5b6000806040838503121561296c57600080fd5b6129758361264e565b91506129836020840161264e565b90509250929050565b600181811c908216806129a057607f821691505b6020821081036129c057634e487b7160e01b600052602260045260246000fd5b50919050565b634e487b7160e01b600052603260045260246000fd5b634e487b7160e01b600052601160045260246000fd5b808201808211156106fc576106fc6129dc565b600060018201612a1757612a176129dc565b5060010190565b601f8211156108ec57600081815260208120601f850160051c81016020861015612a455750805b601f850160051c820191505b81811015612a6457828155600101612a51565b505050505050565b815167ffffffffffffffff811115612a8657612a86612761565b612a9a81612a94845461298c565b84612a1e565b602080601f831160018114612acf5760008415612ab75750858301515b600019600386901b1c1916600185901b178555612a64565b600085815260208120601f198616915b82811015612afe57888601518255948401946001909101908401612adf565b5085821015612b1c5787850151600019600388901b60f8161c191681555b5050505050600190811b01905550565b600067ffffffffffffffff80831681851681830481118215151615612b5357612b536129dc565b02949350505050565b61ffff81811683821601908082111561116d5761116d6129dc565b600084516020612b8a8285838a016125d2565b855191840191612b9d8184848a016125d2565b8554920191600090612bae8161298c565b60018281168015612bc65760018114612bdb57612c07565b60ff1984168752821515830287019450612c07565b896000528560002060005b84811015612bff57815489820152908301908701612be6565b505082870194505b50929a9950505050505050505050565b818103818111156106fc576106fc6129dc565b634e487b7160e01b600052601260045260246000fd5b600082612c4f57612c4f612c2a565b500490565b600082612c6357612c63612c2a565b500690565b60006001600160a01b03808716835280861660208401525083604083015260806060830152612c9a60808301846125f6565b9695505050505050565b600060208284031215612cb657600080fd5b81516115618161259f565b634e487b7160e01b600052603160045260246000fdfea2646970667358221220bcc08781be4367f938286585f00c2f4a98f78ae7d80b76a699ad9c8993786f1464736f6c63430008100033",
  "immutableReferences": {},
  "source": "// SPDX-License-Identifier: MIT\r\npragma solidity >=0.4.22 <0.9.0;\r\n\r\nimport \"@openzeppelin/contracts/token/ERC721/extensions/ERC721URIStorage.sol\";\r\nimport \"@openzeppelin/contracts/utils/Counters.sol\";\r\nimport \"@openzeppelin/contracts/utils/Address.sol\";\r\nimport \"@openzeppelin/contracts/access/Ownable.sol\";\r\n\r\ncontract NftMarketAquans is ERC721URIStorage, Ownable {\r\n    using Counters for Counters.Counter;\r\n    using Strings for uint256;\r\n    using Address for address;\r\n\r\n    struct NftItem {\r\n        uint256 tokenId;\r\n        uint256 price;\r\n        address creator;\r\n        bool isListed;\r\n    }\r\n\r\n    struct GroupNft {\r\n        uint64 listingPrice;\r\n        uint16 startTokenId;\r\n        uint16 endTokenId;\r\n    }\r\n\r\n    GroupNft[] public AllTokens;\r\n\r\n    Counters.Counter private _listedItems;\r\n    Counters.Counter private _tokenIds;\r\n\r\n    string private baseExtension = \".json\";\r\n    string public baseURI;\r\n\r\n    mapping(string => bool) private _usedTokenURIs;\r\n    mapping(uint256 => NftItem) public _idToNftItem;\r\n\r\n    mapping(address => mapping(uint256 => uint256)) private _ownedTokens;\r\n    mapping(uint256 => uint256) private _idToOwnedIndex;\r\n\r\n    uint256[] private _allNfts;\r\n\r\n    mapping(uint256 => uint256) private _idToNftIndex;\r\n\r\n    event NftItemCreated(\r\n        uint256 tokenId,\r\n        uint256 price,\r\n        address creator,\r\n        bool isListed\r\n    );\r\n\r\n    constructor() ERC721(\"SCCNFT\", \"SNcFT\") {\r\n \r\n        //FOXYS DEJAR ESPACIO DE 10K DE NFTS POR EJEMPLO 0, 10000  .    20000, 40000\r\n        AllTokens.push(GroupNft(0.0025 ether, 0, 8));   //MYSTIC\r\n\r\n        AllTokens.push(GroupNft(0.0035 ether, 16, 32)); //MAGIC\r\n\r\n        AllTokens.push(GroupNft(0.45 ether, 48, 72));  //GLORIOUS\r\n\r\n        AllTokens.push(GroupNft(0.65 ether, 90, 108));  //LEGENDARY\r\n\r\n        AllTokens.push(GroupNft(0.85 ether, 122, 148));  //EPIC\r\n\r\n        AllTokens.push(GroupNft(1 ether, 172, 200));  //IMMORTAL\r\n\r\n        //FOXYS WOMAN\r\n        \r\n        AllTokens.push(GroupNft(0.25 ether, 220, 240));   //MYSTIC\r\n\r\n        AllTokens.push(GroupNft(0.35 ether, 280, 320)); //MAGIC\r\n\r\n        AllTokens.push(GroupNft(0.45 ether, 360, 400));  //GLORIOUS\r\n\r\n        AllTokens.push(GroupNft(0.65 ether, 440, 480));  //LEGENDARY\r\n\r\n        AllTokens.push(GroupNft(0.85 ether, 520, 580));  //EPIC\r\n\r\n        AllTokens.push(GroupNft(1 ether, 640, 720));  //IMMORTAL\r\n\r\n        //ALUFI\r\n        AllTokens.push(GroupNft(0.25 ether, 780, 840));   //MYSTIC\r\n\r\n        AllTokens.push(GroupNft(0.35 ether, 890, 932)); //MAGIC\r\n\r\n        AllTokens.push(GroupNft(0.45 ether, 970, 1000));  //GLORIOUS\r\n\r\n        AllTokens.push(GroupNft(0.65 ether, 1030, 1080));  //LEGENDARY\r\n\r\n        AllTokens.push(GroupNft(0.85 ether, 1120, 1180));  //EPIC\r\n\r\n        AllTokens.push(GroupNft(1 ether, 1250, 1300));  //IMMORTAL\r\n\r\n        //ALUFI WOMAN\r\n       AllTokens.push(GroupNft(0.25 ether, 1350, 1400));   //MYSTIC\r\n\r\n        AllTokens.push(GroupNft(0.35 ether, 1450, 1500)); //MAGIC\r\n\r\n        AllTokens.push(GroupNft(0.45 ether, 1560, 1620));  //GLORIOUS\r\n\r\n        AllTokens.push(GroupNft(0.65 ether, 1685, 1725));  //LEGENDARY\r\n\r\n        AllTokens.push(GroupNft(0.85 ether, 1760, 1790));  //EPIC\r\n\r\n        AllTokens.push(GroupNft(1 ether, 1850, 1920));  //IMMORTAL\r\n\r\n        //FLUFFLY\r\n\r\n        AllTokens.push(GroupNft(0.25 ether, 1950, 2000));   //MYSTIC\r\n\r\n        AllTokens.push(GroupNft(0.35 ether, 2025, 2070)); //MAGIC\r\n\r\n        AllTokens.push(GroupNft(0.45 ether, 2110, 2170));  //GLORIOUS\r\n\r\n        AllTokens.push(GroupNft(0.65 ether, 2250, 2290));  //LEGENDARY\r\n\r\n        AllTokens.push(GroupNft(0.85 ether, 2340, 2400));  //EPIC\r\n\r\n        AllTokens.push(GroupNft(1 ether, 2480, 2520));  //IMMORTAL\r\n\r\n        //FLUFFLY WOMAN\r\n        AllTokens.push(GroupNft(0.25 ether, 2580, 2650));   //MYSTIC\r\n\r\n        AllTokens.push(GroupNft(0.35 ether, 2700, 2780)); //MAGIC\r\n\r\n        AllTokens.push(GroupNft(0.45 ether, 2850, 2900));  //GLORIOUS\r\n\r\n        AllTokens.push(GroupNft(0.65 ether, 3000, 3100));  //LEGENDARY\r\n\r\n        AllTokens.push(GroupNft(0.85 ether, 3200, 3300));  //EPIC\r\n\r\n        AllTokens.push(GroupNft(1 ether, 3400, 3500));  //IMMORTAL\r\n\r\n\r\n        //ELFS \r\n        \r\n        AllTokens.push(GroupNft(0.25 ether, 3600, 3800));   //MYSTIC\r\n\r\n        AllTokens.push(GroupNft(0.35 ether, 3900, 4200)); //MAGIC\r\n\r\n        AllTokens.push(GroupNft(0.45 ether, 4300, 4350));  //GLORIOUS\r\n\r\n        AllTokens.push(GroupNft(0.65 ether, 4380, 4420));  //LEGENDARY\r\n\r\n        AllTokens.push(GroupNft(0.85 ether, 4490, 4530));  //EPIC\r\n\r\n        AllTokens.push(GroupNft(1 ether, 4700, 4900));  //IMMORTAL\r\n\r\n        //ELFS WOMAN\r\n        AllTokens.push(GroupNft(0.25 ether, 5000, 5100));   //MYSTIC\r\n\r\n        AllTokens.push(GroupNft(0.35 ether, 5300, 5325)); //MAGIC\r\n\r\n        AllTokens.push(GroupNft(0.45 ether, 5400, 5700));  //GLORIOUS\r\n\r\n        AllTokens.push(GroupNft(0.65 ether, 5900, 6100));  //LEGENDARY\r\n\r\n        AllTokens.push(GroupNft(0.85 ether, 6400, 6700));  //EPIC\r\n\r\n        AllTokens.push(GroupNft(1 ether, 6900, 7000));  //IMMORTAL\r\n\r\n        //GOLEMS \r\n        AllTokens.push(GroupNft(0.25 ether, 7200, 7300));   //MYSTIC\r\n\r\n        AllTokens.push(GroupNft(0.35 ether, 7400, 7500)); //MAGIC\r\n\r\n        AllTokens.push(GroupNft(0.45 ether, 7600, 7700));  //GLORIOUS\r\n\r\n        AllTokens.push(GroupNft(0.65 ether, 7800, 7900));  //LEGENDARY\r\n\r\n        AllTokens.push(GroupNft(0.85 ether, 8200, 8400));  //EPIC\r\n\r\n        AllTokens.push(GroupNft(1 ether, 8600, 8800));  //IMMORTAL\r\n\r\n        //GOLEMS WOMAN\r\n\r\n        AllTokens.push(GroupNft(0.25 ether, 9000, 9200));   //MYSTIC\r\n\r\n        AllTokens.push(GroupNft(0.35 ether, 9400, 9630)); //MAGIC\r\n\r\n        AllTokens.push(GroupNft(0.45 ether, 9800, 9900));  //GLORIOUS\r\n\r\n        AllTokens.push(GroupNft(0.65 ether, 10200, 11000));  //LEGENDARY\r\n\r\n        AllTokens.push(GroupNft(0.85 ether, 11250, 11500));  //EPIC\r\n\r\n        AllTokens.push(GroupNft(1 ether, 12000, 13000));  //IMMORTAL\r\n\r\n        //AQUANS WOMAN\r\n        AllTokens.push(GroupNft(0.25 ether, 14000, 14500));   //MYSTIC\r\n\r\n        AllTokens.push(GroupNft(0.35 ether, 14700, 15000)); //MAGIC\r\n\r\n        AllTokens.push(GroupNft(0.45 ether, 15500, 16000));  //GLORIOUS\r\n\r\n        AllTokens.push(GroupNft(0.65 ether, 16500, 17000));  //LEGENDARY\r\n\r\n        AllTokens.push(GroupNft(0.85 ether, 17500, 18000));  //EPIC\r\n\r\n        AllTokens.push(GroupNft(1 ether, 20000, 22500));  //IMMORTAL\r\n\r\n        \r\n    }\r\n\r\n    function setMaxNfts(uint16 newMaxEndTokenId, uint256 tokenType) external onlyOwner {\r\n        GroupNft storage group = AllTokens[tokenType];\r\n        require(\r\n            newMaxEndTokenId > group.endTokenId,\r\n            \"the amount of nft must be greater than the existing one\"\r\n        );\r\n\r\n        group.endTokenId = newMaxEndTokenId;\r\n        \r\n    }\r\n\r\n    function withdraw() external onlyOwner {\r\n        uint256 amount = address(this).balance;\r\n        require(amount > 0, \"No funds available\");\r\n        address principal = (0x1e8dd1acB4D121d1a30B7B9bb709F2FDaf041Cc2);\r\n        Address.sendValue(payable(principal), amount);\r\n    }\r\n\r\n    function listedItemsCount() public view returns (uint256) {\r\n        return _listedItems.current();\r\n    }\r\n\r\n    function totalSupply() public view returns (uint256) {\r\n        return _allNfts.length;\r\n    }\r\n\r\n    function setBaseURI(string memory _newBaseURI) public onlyOwner {\r\n        baseURI = _newBaseURI;\r\n    }\r\n\r\n    function _baseURI() internal view virtual override returns (string memory) {\r\n        return baseURI;\r\n    }\r\n\r\n    function tokenByIndex(uint256 index) public view returns (uint256) {\r\n        require(index < totalSupply(), \"Index out of bounds\");\r\n        return _allNfts[index];\r\n    }\r\n\r\n    function tokenOfOwnerByIndex(address owner, uint256 index)\r\n        public\r\n        view\r\n        returns (uint256)\r\n    {\r\n        require(index < ERC721.balanceOf(owner), \"Index out of bounds\");\r\n        return _ownedTokens[owner][index];\r\n    }\r\n\r\n    function getAllNftsOnSale() public view returns (NftItem[] memory) {\r\n        uint256 allItemsCounts = totalSupply();\r\n        uint256 currentIndex = 0;\r\n        NftItem[] memory items = new NftItem[](_listedItems.current());\r\n\r\n        for (uint256 i = 0; i < allItemsCounts; i++) {\r\n            uint256 tokenId = tokenByIndex(i);\r\n            NftItem storage item = _idToNftItem[tokenId];\r\n\r\n            if (item.isListed == true) {\r\n                items[currentIndex] = item;\r\n                currentIndex += 1;\r\n            }\r\n        }\r\n\r\n        return items;\r\n    }\r\n\r\n    function getOwnedNfts() public view returns (NftItem[] memory) {\r\n        uint256 ownedItemsCount = ERC721.balanceOf(msg.sender);\r\n        NftItem[] memory items = new NftItem[](ownedItemsCount);\r\n\r\n        for (uint256 i = 0; i < ownedItemsCount; i++) {\r\n            uint256 tokenId = tokenOfOwnerByIndex(msg.sender, i);\r\n            NftItem storage item = _idToNftItem[tokenId];\r\n            items[i] = item;\r\n        }\r\n\r\n        return items;\r\n    }\r\n\r\n     function buyNfts(uint256 tokenType, uint8 amount)\r\n        public\r\n        payable\r\n        returns (uint256)\r\n    {\r\n        GroupNft storage group = AllTokens[tokenType];\r\n\r\n        require(\r\n            msg.value == group.listingPrice * amount,\r\n            \"Price must be equal to listing price\"\r\n        );\r\n \r\n        require(\r\n            group.startTokenId + amount <= group.endTokenId,\r\n            \"Nft minted is max\"\r\n            );\r\n\r\n        require(amount > 0, \"Invalid amount\");\r\n\r\n        uint256 startTokenId = group.startTokenId; //temps variable     hat contains the start value\r\n        group.startTokenId += amount; //Update the state - this won't change startTokenId temps variable\r\n\r\n        for (uint256 i = 0; i < amount; ++i) {\r\n        _safeMint(msg.sender, startTokenId + i);\r\n        _createNftItem(startTokenId + i, tokenType);           \r\n        }\r\n\r\n        return group.startTokenId;\r\n    }\r\n\r\n    function tokenURI(uint256 tokenId)\r\n        public\r\n        view\r\n        override\r\n        returns (string memory)\r\n    {\r\n        require(_exists(tokenId));\r\n\r\n        string memory currentBaseURI = _baseURI();\r\n        return\r\n            bytes(currentBaseURI).length > 0\r\n                ? string(\r\n                    abi.encodePacked(\r\n                        currentBaseURI,\r\n                        tokenId.toString(),\r\n                        baseExtension\r\n                    )\r\n                )\r\n                : \"\";\r\n    }\r\n\r\n    function buyNft(uint256 tokenId) public payable {\r\n        uint256 price = _idToNftItem[tokenId].price;\r\n        address owner = ERC721.ownerOf(tokenId);\r\n\r\n        require(msg.sender != owner, \"You already own this NFT\");\r\n        require(msg.value == price, \"Please submit the asking price\");\r\n\r\n        _idToNftItem[tokenId].isListed = false;\r\n        _listedItems.decrement();\r\n\r\n        _transfer(owner, msg.sender, tokenId);\r\n        Address.sendValue(payable(owner), msg.value);\r\n    }\r\n\r\n    function cancellSellNft(uint256 tokenId) public {\r\n        require(\r\n            ERC721.ownerOf(tokenId) == msg.sender,\r\n            \"You are not owner of this nft\"\r\n        );\r\n\r\n        _idToNftItem[tokenId].isListed = false;\r\n        _listedItems.decrement();\r\n    }\r\n\r\n    function placeNftOnSale(uint256 tokenId, uint256 newPrice) public payable {\r\n        require(\r\n            ERC721.ownerOf(tokenId) == msg.sender,\r\n            \"You are not owner of this nft\"\r\n        );\r\n        require(\r\n            _idToNftItem[tokenId].isListed == false,\r\n            \"Item is already on sale\"\r\n        );\r\n\r\n        _idToNftItem[tokenId].isListed = true;\r\n        _idToNftItem[tokenId].price = newPrice;\r\n        _listedItems.increment();\r\n    }\r\n\r\n    function _createNftItem(uint256 tokenId, uint256 tokenType) private {\r\n        _idToNftItem[tokenId] = NftItem(\r\n            tokenId,\r\n            AllTokens[tokenType].listingPrice,\r\n            msg.sender,\r\n            false\r\n        );\r\n\r\n        emit NftItemCreated(\r\n            tokenId,\r\n            AllTokens[tokenType].listingPrice,\r\n            msg.sender,\r\n            false\r\n        );\r\n    }\r\n\r\n    function _beforeTokenTransfer(\r\n        address from,\r\n        address to,\r\n        uint256 tokenId\r\n    ) internal virtual override {\r\n        super._beforeTokenTransfer(from, to, tokenId);\r\n\r\n        // minting token\r\n        if (from == address(0)) {\r\n            _addTokenToAllTokensEnumeration(tokenId);\r\n        } else if (from != to) {\r\n            _removeTokenFromOwnerEnumeration(from, tokenId);\r\n        }\r\n        if (to == address(0)) {\r\n            _removeTokenFromAllTokensEnumeration(tokenId);\r\n        } else if (to != from) {\r\n            _addTokenToOwnerEnumaretion(to, tokenId);\r\n        }\r\n    }\r\n\r\n    function _addTokenToAllTokensEnumeration(uint256 tokenId) private {\r\n        _idToNftIndex[tokenId] = _allNfts.length;\r\n        _allNfts.push(tokenId);\r\n    }\r\n\r\n    function _addTokenToOwnerEnumaretion(address to, uint256 tokenId) private {\r\n        uint256 length = ERC721.balanceOf(to);\r\n        _ownedTokens[to][length] = tokenId;\r\n        _idToOwnedIndex[tokenId] = length;\r\n    }\r\n\r\n    function _removeTokenFromOwnerEnumeration(address from, uint256 tokenId)\r\n        private\r\n    {\r\n        uint256 lastTokenIndex = ERC721.balanceOf(from) - 1;\r\n        uint256 tokenIndex = _idToOwnedIndex[tokenId];\r\n\r\n        if (tokenIndex != lastTokenIndex) {\r\n            uint256 lastTokenId = _ownedTokens[from][lastTokenIndex];\r\n\r\n            _ownedTokens[from][tokenIndex] = lastTokenId;\r\n            _idToOwnedIndex[lastTokenId] = tokenIndex;\r\n        }\r\n\r\n        delete _idToOwnedIndex[tokenId];\r\n        delete _ownedTokens[from][lastTokenIndex];\r\n    }\r\n\r\n    function _removeTokenFromAllTokensEnumeration(uint256 tokenId) private {\r\n        uint256 lastTokenIndex = _allNfts.length - 1;\r\n        uint256 tokenIndex = _idToNftIndex[tokenId];\r\n        uint256 lastTokenId = _allNfts[lastTokenIndex];\r\n\r\n        _allNfts[tokenIndex] = lastTokenId;\r\n        _idToNftIndex[lastTokenId] = tokenIndex;\r\n\r\n        delete _idToNftIndex[tokenId];\r\n        _allNfts.pop();\r\n    }\r\n}\r\n",
  "sourcePath": "C:\\Users\\nahue\\OneDrive\\Escritorio\\marketplace\\nft-marketplace\\contracts\\NftMarketAquans.sol",
  "compiler": {
    "name": "solc",
    "version": "0.8.16+commit.07a7930e.Emscripten.clang"
  },
  "schemaVersion": "3.4.9",
  "updatedAt": "2022-10-10T22:43:04.174Z",
  "networkType": "ethereum",
  "devdoc": {
    "kind": "dev",
    "methods": {
      "approve(address,uint256)": {
        "details": "See {IERC721-approve}."
      },
      "balanceOf(address)": {
        "details": "See {IERC721-balanceOf}."
      },
      "getApproved(uint256)": {
        "details": "See {IERC721-getApproved}."
      },
      "isApprovedForAll(address,address)": {
        "details": "See {IERC721-isApprovedForAll}."
      },
      "name()": {
        "details": "See {IERC721Metadata-name}."
      },
      "owner()": {
        "details": "Returns the address of the current owner."
      },
      "ownerOf(uint256)": {
        "details": "See {IERC721-ownerOf}."
      },
      "renounceOwnership()": {
        "details": "Leaves the contract without owner. It will not be possible to call `onlyOwner` functions anymore. Can only be called by the current owner. NOTE: Renouncing ownership will leave the contract without an owner, thereby removing any functionality that is only available to the owner."
      },
      "safeTransferFrom(address,address,uint256)": {
        "details": "See {IERC721-safeTransferFrom}."
      },
      "safeTransferFrom(address,address,uint256,bytes)": {
        "details": "See {IERC721-safeTransferFrom}."
      },
      "setApprovalForAll(address,bool)": {
        "details": "See {IERC721-setApprovalForAll}."
      },
      "supportsInterface(bytes4)": {
        "details": "See {IERC165-supportsInterface}."
      },
      "symbol()": {
        "details": "See {IERC721Metadata-symbol}."
      },
      "tokenURI(uint256)": {
        "details": "See {IERC721Metadata-tokenURI}."
      },
      "transferFrom(address,address,uint256)": {
        "details": "See {IERC721-transferFrom}."
      },
      "transferOwnership(address)": {
        "details": "Transfers ownership of the contract to a new account (`newOwner`). Can only be called by the current owner."
      }
    },
    "version": 1
  },
  "userdoc": {
    "kind": "user",
    "methods": {},
    "version": 1
  }
}