{
  "contractName": "NftMarket",
  "abi": [
    {
      "inputs": [],
      "stateMutability": "nonpayable",
      "type": "constructor"
    },
    {
      "anonymous": false,
      "inputs": [
        {
          "indexed": true,
          "internalType": "address",
          "name": "owner",
          "type": "address"
        },
        {
          "indexed": true,
          "internalType": "address",
          "name": "approved",
          "type": "address"
        },
        {
          "indexed": true,
          "internalType": "uint256",
          "name": "tokenId",
          "type": "uint256"
        }
      ],
      "name": "Approval",
      "type": "event"
    },
    {
      "anonymous": false,
      "inputs": [
        {
          "indexed": true,
          "internalType": "address",
          "name": "owner",
          "type": "address"
        },
        {
          "indexed": true,
          "internalType": "address",
          "name": "operator",
          "type": "address"
        },
        {
          "indexed": false,
          "internalType": "bool",
          "name": "approved",
          "type": "bool"
        }
      ],
      "name": "ApprovalForAll",
      "type": "event"
    },
    {
      "anonymous": false,
      "inputs": [
        {
          "indexed": false,
          "internalType": "uint256",
          "name": "tokenId",
          "type": "uint256"
        },
        {
          "indexed": false,
          "internalType": "uint256",
          "name": "price",
          "type": "uint256"
        },
        {
          "indexed": false,
          "internalType": "address",
          "name": "creator",
          "type": "address"
        },
        {
          "indexed": false,
          "internalType": "bool",
          "name": "isListed",
          "type": "bool"
        }
      ],
      "name": "NftItemCreated",
      "type": "event"
    },
    {
      "anonymous": false,
      "inputs": [
        {
          "indexed": true,
          "internalType": "address",
          "name": "previousOwner",
          "type": "address"
        },
        {
          "indexed": true,
          "internalType": "address",
          "name": "newOwner",
          "type": "address"
        }
      ],
      "name": "OwnershipTransferred",
      "type": "event"
    },
    {
      "anonymous": false,
      "inputs": [
        {
          "indexed": true,
          "internalType": "address",
          "name": "from",
          "type": "address"
        },
        {
          "indexed": true,
          "internalType": "address",
          "name": "to",
          "type": "address"
        },
        {
          "indexed": true,
          "internalType": "uint256",
          "name": "tokenId",
          "type": "uint256"
        }
      ],
      "name": "Transfer",
      "type": "event"
    },
    {
      "inputs": [
        {
          "internalType": "uint256",
          "name": "",
          "type": "uint256"
        }
      ],
      "name": "_idToNftItem",
      "outputs": [
        {
          "internalType": "uint256",
          "name": "tokenId",
          "type": "uint256"
        },
        {
          "internalType": "uint256",
          "name": "price",
          "type": "uint256"
        },
        {
          "internalType": "address",
          "name": "creator",
          "type": "address"
        },
        {
          "internalType": "bool",
          "name": "isListed",
          "type": "bool"
        }
      ],
      "stateMutability": "view",
      "type": "function",
      "constant": true
    },
    {
      "inputs": [
        {
          "internalType": "address",
          "name": "to",
          "type": "address"
        },
        {
          "internalType": "uint256",
          "name": "tokenId",
          "type": "uint256"
        }
      ],
      "name": "approve",
      "outputs": [],
      "stateMutability": "nonpayable",
      "type": "function"
    },
    {
      "inputs": [
        {
          "internalType": "address",
          "name": "owner",
          "type": "address"
        }
      ],
      "name": "balanceOf",
      "outputs": [
        {
          "internalType": "uint256",
          "name": "",
          "type": "uint256"
        }
      ],
      "stateMutability": "view",
      "type": "function",
      "constant": true
    },
    {
      "inputs": [
        {
          "internalType": "uint256",
          "name": "tokenId",
          "type": "uint256"
        }
      ],
      "name": "getApproved",
      "outputs": [
        {
          "internalType": "address",
          "name": "",
          "type": "address"
        }
      ],
      "stateMutability": "view",
      "type": "function",
      "constant": true
    },
    {
      "inputs": [
        {
          "internalType": "address",
          "name": "owner",
          "type": "address"
        },
        {
          "internalType": "address",
          "name": "operator",
          "type": "address"
        }
      ],
      "name": "isApprovedForAll",
      "outputs": [
        {
          "internalType": "bool",
          "name": "",
          "type": "bool"
        }
      ],
      "stateMutability": "view",
      "type": "function",
      "constant": true
    },
    {
      "inputs": [],
      "name": "name",
      "outputs": [
        {
          "internalType": "string",
          "name": "",
          "type": "string"
        }
      ],
      "stateMutability": "view",
      "type": "function",
      "constant": true
    },
    {
      "inputs": [],
      "name": "owner",
      "outputs": [
        {
          "internalType": "address",
          "name": "",
          "type": "address"
        }
      ],
      "stateMutability": "view",
      "type": "function",
      "constant": true
    },
    {
      "inputs": [
        {
          "internalType": "uint256",
          "name": "tokenId",
          "type": "uint256"
        }
      ],
      "name": "ownerOf",
      "outputs": [
        {
          "internalType": "address",
          "name": "",
          "type": "address"
        }
      ],
      "stateMutability": "view",
      "type": "function",
      "constant": true
    },
    {
      "inputs": [],
      "name": "renounceOwnership",
      "outputs": [],
      "stateMutability": "nonpayable",
      "type": "function"
    },
    {
      "inputs": [
        {
          "internalType": "address",
          "name": "from",
          "type": "address"
        },
        {
          "internalType": "address",
          "name": "to",
          "type": "address"
        },
        {
          "internalType": "uint256",
          "name": "tokenId",
          "type": "uint256"
        }
      ],
      "name": "safeTransferFrom",
      "outputs": [],
      "stateMutability": "nonpayable",
      "type": "function"
    },
    {
      "inputs": [
        {
          "internalType": "address",
          "name": "from",
          "type": "address"
        },
        {
          "internalType": "address",
          "name": "to",
          "type": "address"
        },
        {
          "internalType": "uint256",
          "name": "tokenId",
          "type": "uint256"
        },
        {
          "internalType": "bytes",
          "name": "data",
          "type": "bytes"
        }
      ],
      "name": "safeTransferFrom",
      "outputs": [],
      "stateMutability": "nonpayable",
      "type": "function"
    },
    {
      "inputs": [
        {
          "internalType": "address",
          "name": "operator",
          "type": "address"
        },
        {
          "internalType": "bool",
          "name": "approved",
          "type": "bool"
        }
      ],
      "name": "setApprovalForAll",
      "outputs": [],
      "stateMutability": "nonpayable",
      "type": "function"
    },
    {
      "inputs": [
        {
          "internalType": "bytes4",
          "name": "interfaceId",
          "type": "bytes4"
        }
      ],
      "name": "supportsInterface",
      "outputs": [
        {
          "internalType": "bool",
          "name": "",
          "type": "bool"
        }
      ],
      "stateMutability": "view",
      "type": "function",
      "constant": true
    },
    {
      "inputs": [],
      "name": "symbol",
      "outputs": [
        {
          "internalType": "string",
          "name": "",
          "type": "string"
        }
      ],
      "stateMutability": "view",
      "type": "function",
      "constant": true
    },
    {
      "inputs": [
        {
          "internalType": "address",
          "name": "from",
          "type": "address"
        },
        {
          "internalType": "address",
          "name": "to",
          "type": "address"
        },
        {
          "internalType": "uint256",
          "name": "tokenId",
          "type": "uint256"
        }
      ],
      "name": "transferFrom",
      "outputs": [],
      "stateMutability": "nonpayable",
      "type": "function"
    },
    {
      "inputs": [
        {
          "internalType": "address",
          "name": "newOwner",
          "type": "address"
        }
      ],
      "name": "transferOwnership",
      "outputs": [],
      "stateMutability": "nonpayable",
      "type": "function"
    },
    {
      "inputs": [
        {
          "internalType": "uint256",
          "name": "newMaxFoxy",
          "type": "uint256"
        }
      ],
      "name": "setMaxFoxysMistico",
      "outputs": [],
      "stateMutability": "nonpayable",
      "type": "function"
    },
    {
      "inputs": [
        {
          "internalType": "uint256",
          "name": "newMaxFoxy",
          "type": "uint256"
        }
      ],
      "name": "setMaxFoxysMagico",
      "outputs": [],
      "stateMutability": "nonpayable",
      "type": "function"
    },
    {
      "inputs": [
        {
          "internalType": "uint256",
          "name": "newMaxFoxy",
          "type": "uint256"
        }
      ],
      "name": "setMaxFoxysGlorioso",
      "outputs": [],
      "stateMutability": "nonpayable",
      "type": "function"
    },
    {
      "inputs": [
        {
          "internalType": "uint256",
          "name": "newMaxFoxy",
          "type": "uint256"
        }
      ],
      "name": "setMaxFoxysLegendario",
      "outputs": [],
      "stateMutability": "nonpayable",
      "type": "function"
    },
    {
      "inputs": [
        {
          "internalType": "uint256",
          "name": "newMaxFoxy",
          "type": "uint256"
        }
      ],
      "name": "setMaxFoxysEpico",
      "outputs": [],
      "stateMutability": "nonpayable",
      "type": "function"
    },
    {
      "inputs": [
        {
          "internalType": "uint256",
          "name": "newMaxFoxy",
          "type": "uint256"
        }
      ],
      "name": "setMaxFoxysInmortal",
      "outputs": [],
      "stateMutability": "nonpayable",
      "type": "function"
    },
    {
      "inputs": [
        {
          "internalType": "uint256",
          "name": "newMaxFoxy",
          "type": "uint256"
        }
      ],
      "name": "setMaxFoxysMisticoWoman",
      "outputs": [],
      "stateMutability": "nonpayable",
      "type": "function"
    },
    {
      "inputs": [
        {
          "internalType": "uint256",
          "name": "newMaxFoxy",
          "type": "uint256"
        }
      ],
      "name": "setMaxFoxysMagicoWoman",
      "outputs": [],
      "stateMutability": "nonpayable",
      "type": "function"
    },
    {
      "inputs": [
        {
          "internalType": "uint256",
          "name": "newMaxFoxy",
          "type": "uint256"
        }
      ],
      "name": "setMaxFoxysGloriosoWoman",
      "outputs": [],
      "stateMutability": "nonpayable",
      "type": "function"
    },
    {
      "inputs": [
        {
          "internalType": "uint256",
          "name": "newMaxFoxy",
          "type": "uint256"
        }
      ],
      "name": "setMaxFoxysLegendarioWoman",
      "outputs": [],
      "stateMutability": "nonpayable",
      "type": "function"
    },
    {
      "inputs": [
        {
          "internalType": "uint256",
          "name": "newMaxFoxy",
          "type": "uint256"
        }
      ],
      "name": "setMaxFoxysEpicoWoman",
      "outputs": [],
      "stateMutability": "nonpayable",
      "type": "function"
    },
    {
      "inputs": [
        {
          "internalType": "uint256",
          "name": "newMaxFoxy",
          "type": "uint256"
        }
      ],
      "name": "setMaxFoxysInmortalWoman",
      "outputs": [],
      "stateMutability": "nonpayable",
      "type": "function"
    },
    {
      "inputs": [],
      "name": "withdraw",
      "outputs": [],
      "stateMutability": "nonpayable",
      "type": "function"
    },
    {
      "inputs": [],
      "name": "listedItemsCount",
      "outputs": [
        {
          "internalType": "uint256",
          "name": "",
          "type": "uint256"
        }
      ],
      "stateMutability": "view",
      "type": "function",
      "constant": true
    },
    {
      "inputs": [],
      "name": "totalSupply",
      "outputs": [
        {
          "internalType": "uint256",
          "name": "",
          "type": "uint256"
        }
      ],
      "stateMutability": "view",
      "type": "function",
      "constant": true
    },
    {
      "inputs": [
        {
          "internalType": "string",
          "name": "_newBaseURI",
          "type": "string"
        }
      ],
      "name": "setBaseURI",
      "outputs": [],
      "stateMutability": "nonpayable",
      "type": "function"
    },
    {
      "inputs": [
        {
          "internalType": "uint256",
          "name": "index",
          "type": "uint256"
        }
      ],
      "name": "tokenByIndex",
      "outputs": [
        {
          "internalType": "uint256",
          "name": "",
          "type": "uint256"
        }
      ],
      "stateMutability": "view",
      "type": "function",
      "constant": true
    },
    {
      "inputs": [
        {
          "internalType": "address",
          "name": "owner",
          "type": "address"
        },
        {
          "internalType": "uint256",
          "name": "index",
          "type": "uint256"
        }
      ],
      "name": "tokenOfOwnerByIndex",
      "outputs": [
        {
          "internalType": "uint256",
          "name": "",
          "type": "uint256"
        }
      ],
      "stateMutability": "view",
      "type": "function",
      "constant": true
    },
    {
      "inputs": [],
      "name": "getAllNftsOnSale",
      "outputs": [
        {
          "components": [
            {
              "internalType": "uint256",
              "name": "tokenId",
              "type": "uint256"
            },
            {
              "internalType": "uint256",
              "name": "price",
              "type": "uint256"
            },
            {
              "internalType": "address",
              "name": "creator",
              "type": "address"
            },
            {
              "internalType": "bool",
              "name": "isListed",
              "type": "bool"
            }
          ],
          "internalType": "struct NftMarket.NftItem[]",
          "name": "",
          "type": "tuple[]"
        }
      ],
      "stateMutability": "view",
      "type": "function",
      "constant": true
    },
    {
      "inputs": [],
      "name": "getOwnedNfts",
      "outputs": [
        {
          "components": [
            {
              "internalType": "uint256",
              "name": "tokenId",
              "type": "uint256"
            },
            {
              "internalType": "uint256",
              "name": "price",
              "type": "uint256"
            },
            {
              "internalType": "address",
              "name": "creator",
              "type": "address"
            },
            {
              "internalType": "bool",
              "name": "isListed",
              "type": "bool"
            }
          ],
          "internalType": "struct NftMarket.NftItem[]",
          "name": "",
          "type": "tuple[]"
        }
      ],
      "stateMutability": "view",
      "type": "function",
      "constant": true
    },
    {
      "inputs": [
        {
          "internalType": "uint256",
          "name": "amount",
          "type": "uint256"
        }
      ],
      "name": "foxyBuyMistico",
      "outputs": [
        {
          "internalType": "uint256",
          "name": "",
          "type": "uint256"
        }
      ],
      "stateMutability": "payable",
      "type": "function",
      "payable": true
    },
    {
      "inputs": [
        {
          "internalType": "uint256",
          "name": "amount",
          "type": "uint256"
        }
      ],
      "name": "foxyBuyMagico",
      "outputs": [
        {
          "internalType": "uint256",
          "name": "",
          "type": "uint256"
        }
      ],
      "stateMutability": "payable",
      "type": "function",
      "payable": true
    },
    {
      "inputs": [
        {
          "internalType": "uint256",
          "name": "amount",
          "type": "uint256"
        }
      ],
      "name": "foxyBuyGlorioso",
      "outputs": [
        {
          "internalType": "uint256",
          "name": "",
          "type": "uint256"
        }
      ],
      "stateMutability": "payable",
      "type": "function",
      "payable": true
    },
    {
      "inputs": [
        {
          "internalType": "uint256",
          "name": "amount",
          "type": "uint256"
        }
      ],
      "name": "foxyBuyLegendario",
      "outputs": [
        {
          "internalType": "uint256",
          "name": "",
          "type": "uint256"
        }
      ],
      "stateMutability": "payable",
      "type": "function",
      "payable": true
    },
    {
      "inputs": [
        {
          "internalType": "uint256",
          "name": "amount",
          "type": "uint256"
        }
      ],
      "name": "foxyBuyEpico",
      "outputs": [
        {
          "internalType": "uint256",
          "name": "",
          "type": "uint256"
        }
      ],
      "stateMutability": "payable",
      "type": "function",
      "payable": true
    },
    {
      "inputs": [
        {
          "internalType": "uint256",
          "name": "amount",
          "type": "uint256"
        }
      ],
      "name": "FoxyBuyInmortal",
      "outputs": [
        {
          "internalType": "uint256",
          "name": "",
          "type": "uint256"
        }
      ],
      "stateMutability": "payable",
      "type": "function",
      "payable": true
    },
    {
      "inputs": [
        {
          "internalType": "uint256",
          "name": "amount",
          "type": "uint256"
        }
      ],
      "name": "foxyBuyMisticoWoman",
      "outputs": [
        {
          "internalType": "uint256",
          "name": "",
          "type": "uint256"
        }
      ],
      "stateMutability": "payable",
      "type": "function",
      "payable": true
    },
    {
      "inputs": [
        {
          "internalType": "uint256",
          "name": "amount",
          "type": "uint256"
        }
      ],
      "name": "foxyBuyMagicoWoman",
      "outputs": [
        {
          "internalType": "uint256",
          "name": "",
          "type": "uint256"
        }
      ],
      "stateMutability": "payable",
      "type": "function",
      "payable": true
    },
    {
      "inputs": [
        {
          "internalType": "uint256",
          "name": "amount",
          "type": "uint256"
        }
      ],
      "name": "foxyBuyGloriosoWoman",
      "outputs": [
        {
          "internalType": "uint256",
          "name": "",
          "type": "uint256"
        }
      ],
      "stateMutability": "payable",
      "type": "function",
      "payable": true
    },
    {
      "inputs": [
        {
          "internalType": "uint256",
          "name": "amount",
          "type": "uint256"
        }
      ],
      "name": "foxyBuyLegendarioWoman",
      "outputs": [
        {
          "internalType": "uint256",
          "name": "",
          "type": "uint256"
        }
      ],
      "stateMutability": "payable",
      "type": "function",
      "payable": true
    },
    {
      "inputs": [
        {
          "internalType": "uint256",
          "name": "amount",
          "type": "uint256"
        }
      ],
      "name": "foxyBuyEpicoWoman",
      "outputs": [
        {
          "internalType": "uint256",
          "name": "",
          "type": "uint256"
        }
      ],
      "stateMutability": "payable",
      "type": "function",
      "payable": true
    },
    {
      "inputs": [
        {
          "internalType": "uint256",
          "name": "amount",
          "type": "uint256"
        }
      ],
      "name": "FoxyBuyInmortalWoman",
      "outputs": [
        {
          "internalType": "uint256",
          "name": "",
          "type": "uint256"
        }
      ],
      "stateMutability": "payable",
      "type": "function",
      "payable": true
    },
    {
      "inputs": [
        {
          "internalType": "uint256",
          "name": "tokenId",
          "type": "uint256"
        }
      ],
      "name": "tokenURI",
      "outputs": [
        {
          "internalType": "string",
          "name": "",
          "type": "string"
        }
      ],
      "stateMutability": "view",
      "type": "function",
      "constant": true
    },
    {
      "inputs": [
        {
          "internalType": "uint256",
          "name": "tokenId",
          "type": "uint256"
        }
      ],
      "name": "buyNft",
      "outputs": [],
      "stateMutability": "payable",
      "type": "function",
      "payable": true
    },
    {
      "inputs": [
        {
          "internalType": "uint256",
          "name": "tokenId",
          "type": "uint256"
        }
      ],
      "name": "cancellSellNft",
      "outputs": [],
      "stateMutability": "nonpayable",
      "type": "function"
    },
    {
      "inputs": [
        {
          "internalType": "uint256",
          "name": "tokenId",
          "type": "uint256"
        },
        {
          "internalType": "uint256",
          "name": "newPrice",
          "type": "uint256"
        }
      ],
      "name": "placeNftOnSale",
      "outputs": [],
      "stateMutability": "payable",
      "type": "function",
      "payable": true
    }
  ],
  "bytecode": "0x6703782dace9d9000060089081556704db7325476300006009556707a1fe1602770000600a55670a688906bd8b0000600b55670de0b6b3a7640000600c55671158e460913d0000600d556000600e55600f908155611f40601055612ee0601155613e8060125562030d40601355615dc0601455616d60601555617d00601655618ca0601755619c4060185561abe06019556007601a55601b55612710601c556136b0601d55614650601e556155f0601f556165906020556175306021556184d06022556205cc6060235561a41060245561b3b060255560c06040526005608090815264173539b7b760d91b60a052602890620000fc908262000285565b503480156200010a57600080fd5b5060405180604001604052806006815260200165115b1993919560d21b815250604051806040016040528060048152602001631153919560e21b815250816000908162000158919062000285565b50600162000167828262000285565b505050620001846200017e6200018a60201b60201c565b6200018e565b62000351565b3390565b600780546001600160a01b038381166001600160a01b0319831681179093556040519116919082907f8be0079c531659141344cd1fd0a4f28419497f9722a3daafe3b4186f6b6457e090600090a35050565b634e487b7160e01b600052604160045260246000fd5b600181811c908216806200020b57607f821691505b6020821081036200022c57634e487b7160e01b600052602260045260246000fd5b50919050565b601f8211156200028057600081815260208120601f850160051c810160208610156200025b5750805b601f850160051c820191505b818110156200027c5782815560010162000267565b5050505b505050565b81516001600160401b03811115620002a157620002a1620001e0565b620002b981620002b28454620001f6565b8462000232565b602080601f831160018114620002f15760008415620002d85750858301515b600019600386901b1c1916600185901b1785556200027c565b600085815260208120601f198616915b82811015620003225788860151825594840194600190910190840162000301565b5085821015620003415787850151600019600388901b60f8161c191681555b5050505050600190811b01905550565b613d2580620003616000396000f3fe60806040526004361061033f5760003560e01c806370cbcb43116101b0578063a5c16d24116100ec578063c87b56dd11610095578063e41ce73d1161006f578063e41ce73d14610907578063e985e9c51461091a578063f1472ef114610963578063f2fde38b1461097657600080fd5b8063c87b56dd146108bf578063ccb4918d146108df578063d3b21b99146108f457600080fd5b8063b679be45116100c6578063b679be451461085f578063b88d4fde1461087f578063c13ef93e1461089f57600080fd5b8063a5c16d241461080c578063a7b133801461082c578063af9063871461083f57600080fd5b8063901820a51161015957806395d89b411161013357806395d89b41146107a45780639db804b8146107b9578063a0dbb834146107d9578063a22cb465146107ec57600080fd5b8063901820a5146107445780639061d007146107645780639183e94b1461078457600080fd5b8063813c21f91161018a578063813c21f9146106f35780638b3d25d5146107065780638da5cb5b1461072657600080fd5b806370cbcb4314610647578063715018a61461065c57806375e05b881461067157600080fd5b8063355d78031161027f578063495ddf8b116102285780636352211e116102025780636352211e146105d457806366ca1a16146105f45780636df472181461061457806370a082311461062757600080fd5b8063495ddf8b146105815780634f6ccce71461059457806355f804b3146105b457600080fd5b8063413a265f11610259578063413a265f1461052e57806342842e0e1461054e578063449d22b21461056e57600080fd5b8063355d7803146104d757806336b536be146104f75780633ccfd60b1461051957600080fd5b806318160ddd116102ec578063243adbdd116102c6578063243adbdd1461047e5780632f745c59146104915780633401750b146104b1578063353dc7e1146104c457600080fd5b806318160ddd1461043657806321f422e51461044b57806323b872dd1461045e57600080fd5b8063081812fc1161031d578063081812fc146103bd578063095ea7b3146103f557806316f8fb2a1461041557600080fd5b806301ffc9a71461034457806305e2b3ac1461037957806306fdde031461039b575b600080fd5b34801561035057600080fd5b5061036461035f366004613648565b610996565b60405190151581526020015b60405180910390f35b34801561038557600080fd5b50610399610394366004613665565b610a33565b005b3480156103a757600080fd5b506103b0610abc565b60405161037091906136ce565b3480156103c957600080fd5b506103dd6103d8366004613665565b610b4e565b6040516001600160a01b039091168152602001610370565b34801561040157600080fd5b506103996104103660046136fd565b610b75565b610428610423366004613665565b610ca6565b604051908152602001610370565b34801561044257600080fd5b50602e54610428565b610399610459366004613727565b610d9b565b34801561046a57600080fd5b50610399610479366004613749565b610e9f565b61039961048c366004613665565b610f26565b34801561049d57600080fd5b506104286104ac3660046136fd565b611026565b6104286104bf366004613665565b6110a8565b6104286104d2366004613665565b61119d565b3480156104e357600080fd5b506103996104f2366004613665565b611292565b34801561050357600080fd5b5061050c611316565b6040516103709190613785565b34801561052557600080fd5b50610399611468565b34801561053a57600080fd5b50610399610549366004613665565b6114dd565b34801561055a57600080fd5b50610399610569366004613749565b611561565b61042861057c366004613665565b61157c565b61042861058f366004613665565b611671565b3480156105a057600080fd5b506104286105af366004613665565b611766565b3480156105c057600080fd5b506103996105cf366004613880565b6117e4565b3480156105e057600080fd5b506103dd6105ef366004613665565b6117f8565b34801561060057600080fd5b5061039961060f366004613665565b61185d565b610428610622366004613665565b6118e1565b34801561063357600080fd5b506104286106423660046138c9565b6119d6565b34801561065357600080fd5b5061050c611a70565b34801561066857600080fd5b50610399611b98565b34801561067d57600080fd5b506106c261068c366004613665565b602b602052600090815260409020805460018201546002909201549091906001600160a01b03811690600160a01b900460ff1684565b604051610370949392919093845260208401929092526001600160a01b031660408301521515606082015260800190565b610428610701366004613665565b611bac565b34801561071257600080fd5b50610399610721366004613665565b611ca1565b34801561073257600080fd5b506007546001600160a01b03166103dd565b34801561075057600080fd5b5061039961075f366004613665565b611d25565b34801561077057600080fd5b5061039961077f366004613665565b611da9565b34801561079057600080fd5b5061039961079f366004613665565b611e32565b3480156107b057600080fd5b506103b0611eb6565b3480156107c557600080fd5b506103996107d4366004613665565b611ec5565b6104286107e7366004613665565b611f49565b3480156107f857600080fd5b506103996108073660046138e4565b61203e565b34801561081857600080fd5b50610399610827366004613665565b612049565b61042861083a366004613665565b6120cd565b34801561084b57600080fd5b5061039961085a366004613665565b6121c2565b34801561086b57600080fd5b5061039961087a366004613665565b612246565b34801561088b57600080fd5b5061039961089a366004613920565b6122ca565b3480156108ab57600080fd5b506103996108ba366004613665565b612358565b3480156108cb57600080fd5b506103b06108da366004613665565b6123dc565b3480156108eb57600080fd5b5061042861245f565b610428610902366004613665565b61246f565b610428610915366004613665565b612564565b34801561092657600080fd5b5061036461093536600461399c565b6001600160a01b03918216600090815260056020908152604080832093909416825291909152205460ff1690565b610428610971366004613665565b612659565b34801561098257600080fd5b506103996109913660046138c9565b61274e565b60006001600160e01b031982167f80ac58cd0000000000000000000000000000000000000000000000000000000014806109f957506001600160e01b031982167f5b5e139f00000000000000000000000000000000000000000000000000000000145b80610a2d57507f01ffc9a7000000000000000000000000000000000000000000000000000000006001600160e01b03198316145b92915050565b610a3b6127db565b6022548111610ab75760405162461bcd60e51b815260206004820152603e60248201527f74686520616d6f756e74206f6620666f787973576f6d616e206d75737420626560448201527f2067726561746572207468616e20746865206578697374696e67206f6e65000060648201526084015b60405180910390fd5b602255565b606060008054610acb906139cf565b80601f0160208091040260200160405190810160405280929190818152602001828054610af7906139cf565b8015610b445780601f10610b1957610100808354040283529160200191610b44565b820191906000526020600020905b815481529060010190602001808311610b2757829003601f168201915b5050505050905090565b6000610b5982612835565b506000908152600460205260409020546001600160a01b031690565b6000610b80826117f8565b9050806001600160a01b0316836001600160a01b031603610c095760405162461bcd60e51b815260206004820152602160248201527f4552433732313a20617070726f76616c20746f2063757272656e74206f776e6560448201527f72000000000000000000000000000000000000000000000000000000000000006064820152608401610aae565b336001600160a01b0382161480610c255750610c258133610935565b610c975760405162461bcd60e51b815260206004820152603e60248201527f4552433732313a20617070726f76652063616c6c6572206973206e6f7420746f60448201527f6b656e206f776e6572206e6f7220617070726f76656420666f7220616c6c00006064820152608401610aae565b610ca18383612899565b505050565b6000600d543414610cf35760405162461bcd60e51b815260206004820152602480820152600080516020613cd08339815191526044820152637269636560e01b6064820152608401610aae565b60255460195410610d465760405162461bcd60e51b815260206004820152601c60248201527f4d617820466f7879496e6d6f7274616c204e667473204d696e746564000000006044820152606401610aae565b60005b82811015610d9157610d5d33601954612914565b610d6860195461292e565b600160196000828254610d7b9190613a1f565b90915550610d8a905081613a32565b9050610d49565b5050601954919050565b33610da5836117f8565b6001600160a01b031614610dfb5760405162461bcd60e51b815260206004820152601d60248201527f596f7520617265206e6f74206f776e6572206f662074686973206e66740000006044820152606401610aae565b6000828152602b6020526040902060020154600160a01b900460ff1615610e645760405162461bcd60e51b815260206004820152601760248201527f4974656d20697320616c7265616479206f6e2073616c650000000000000000006044820152606401610aae565b6000828152602b6020526040902060028101805460ff60a01b1916600160a01b179055600101819055610e9b602680546001019055565b5050565b610ea93382612a02565b610f1b5760405162461bcd60e51b815260206004820152602e60248201527f4552433732313a2063616c6c6572206973206e6f7420746f6b656e206f776e6560448201527f72206e6f7220617070726f7665640000000000000000000000000000000000006064820152608401610aae565b610ca1838383612a81565b6000818152602b602052604081206001015490610f42836117f8565b90506001600160a01b0381163303610f9c5760405162461bcd60e51b815260206004820152601860248201527f596f7520616c7265616479206f776e2074686973204e465400000000000000006044820152606401610aae565b813414610feb5760405162461bcd60e51b815260206004820152601e60248201527f506c65617365207375626d6974207468652061736b696e6720707269636500006044820152606401610aae565b6000838152602b60205260409020600201805460ff60a01b191690556110116026612c66565b61101c813385612a81565b610ca18134612cbd565b6000611031836119d6565b821061107f5760405162461bcd60e51b815260206004820152601360248201527f496e646578206f7574206f6620626f756e6473000000000000000000000000006044820152606401610aae565b506001600160a01b03919091166000908152602c60209081526040808320938352929052205490565b600060095434146110f55760405162461bcd60e51b815260206004820152602480820152600080516020613cd08339815191526044820152637269636560e01b6064820152608401610aae565b601b54600f54106111485760405162461bcd60e51b815260206004820152601a60248201527f4d617820466f78794d616769636f204e667473204d696e7465640000000000006044820152606401610aae565b60005b828110156111935761115f33600f54612914565b61116a600f5461292e565b6001600f600082825461117d9190613a1f565b9091555061118c905081613a32565b905061114b565b5050600f54919050565b6000600c5434146111ea5760405162461bcd60e51b815260206004820152602480820152600080516020613cd08339815191526044820152637269636560e01b6064820152608401610aae565b601e546012541061123d5760405162461bcd60e51b815260206004820152601960248201527f4d617820466f7879457069636f204e667473204d696e746564000000000000006044820152606401610aae565b60005b828110156112885761125433601254612914565b61125f60125461292e565b6001601160008282546112729190613a1f565b90915550611281905081613a32565b9050611240565b5050601254919050565b61129a6127db565b60255481116113115760405162461bcd60e51b815260206004820152603e60248201527f74686520616d6f756e74206f6620666f787973576f6d616e206d75737420626560448201527f2067726561746572207468616e20746865206578697374696e67206f6e6500006064820152608401610aae565b602555565b60606000611323602e5490565b905060008061133160265490565b67ffffffffffffffff811115611349576113496137f4565b60405190808252806020026020018201604052801561139b57816020015b6040805160808101825260008082526020808301829052928201819052606082015282526000199092019101816113675790505b50905060005b838110156114605760006113b482611766565b6000818152602b60205260409020600281015491925090600160a01b900460ff16151560010361144b5760408051608081018252825481526001830154602082015260028301546001600160a01b03811692820192909252600160a01b90910460ff1615156060820152845185908790811061143257611432613a4b565b6020908102919091010152611448600186613a1f565b94505b5050808061145890613a32565b9150506113a1565b509392505050565b6114706127db565b47806114be5760405162461bcd60e51b815260206004820152601260248201527f4e6f2066756e647320617661696c61626c6500000000000000000000000000006044820152606401610aae565b731e8dd1acb4d121d1a30b7b9bb709f2fdaf041cc2610e9b8183612cbd565b6114e56127db565b601a54811161155c5760405162461bcd60e51b815260206004820152603960248201527f74686520616d6f756e74206f6620666f787973206d757374206265206772656160448201527f746572207468616e20746865206578697374696e67206f6e65000000000000006064820152608401610aae565b601a55565b610ca1838383604051806020016040528060008152506122ca565b6000600b5434146115c95760405162461bcd60e51b815260206004820152602480820152600080516020613cd08339815191526044820152637269636560e01b6064820152608401610aae565b6023546017541061161c5760405162461bcd60e51b815260206004820152601e60248201527f4d617820466f78794c6567656e646172696f204e667473204d696e74656400006044820152606401610aae565b60005b828110156116675761163333601754612914565b61163e60175461292e565b6001601760008282546116519190613a1f565b90915550611660905081613a32565b905061161f565b5050601754919050565b600060085434146116be5760405162461bcd60e51b815260206004820152602480820152600080516020613cd08339815191526044820152637269636560e01b6064820152608401610aae565b601a54600e54106117115760405162461bcd60e51b815260206004820152601b60248201527f4d617820466f78794d69737469636f204e667473204d696e74656400000000006044820152606401610aae565b60005b8281101561175c5761172833600e54612914565b611733600e5461292e565b6001600e60008282546117469190613a1f565b90915550611755905081613a32565b9050611714565b5050600e54919050565b6000611771602e5490565b82106117bf5760405162461bcd60e51b815260206004820152601360248201527f496e646578206f7574206f6620626f756e6473000000000000000000000000006044820152606401610aae565b602e82815481106117d2576117d2613a4b565b90600052602060002001549050919050565b6117ec6127db565b6029610e9b8282613aaf565b6000818152600260205260408120546001600160a01b031680610a2d5760405162461bcd60e51b815260206004820152601860248201527f4552433732313a20696e76616c696420746f6b656e20494400000000000000006044820152606401610aae565b6118656127db565b601b5481116118dc5760405162461bcd60e51b815260206004820152603960248201527f74686520616d6f756e74206f6620666f787973206d757374206265206772656160448201527f746572207468616e20746865206578697374696e67206f6e65000000000000006064820152608401610aae565b601b55565b6000600854341461192e5760405162461bcd60e51b815260206004820152602480820152600080516020613cd08339815191526044820152637269636560e01b6064820152608401610aae565b602054601454106119815760405162461bcd60e51b815260206004820152601b60248201527f4d617820466f78794d69737469636f204e667473204d696e74656400000000006044820152606401610aae565b60005b828110156119cc5761199833601454612914565b6119a360145461292e565b6001601460008282546119b69190613a1f565b909155506119c5905081613a32565b9050611984565b5050601454919050565b60006001600160a01b038216611a545760405162461bcd60e51b815260206004820152602960248201527f4552433732313a2061646472657373207a65726f206973206e6f74206120766160448201527f6c6964206f776e657200000000000000000000000000000000000000000000006064820152608401610aae565b506001600160a01b031660009081526003602052604090205490565b60606000611a7d336119d6565b905060008167ffffffffffffffff811115611a9a57611a9a6137f4565b604051908082528060200260200182016040528015611aec57816020015b604080516080810182526000808252602080830182905292820181905260608201528252600019909201910181611ab85790505b50905060005b82811015611b91576000611b063383611026565b6000818152602b602090815260409182902082516080810184528154815260018201549281019290925260028101546001600160a01b03811693830193909352600160a01b90920460ff161515606082015285519293509091859085908110611b7157611b71613a4b565b602002602001018190525050508080611b8990613a32565b915050611af2565b5092915050565b611ba06127db565b611baa6000612dd6565b565b60006009543414611bf95760405162461bcd60e51b815260206004820152602480820152600080516020613cd08339815191526044820152637269636560e01b6064820152608401610aae565b60215460155410611c4c5760405162461bcd60e51b815260206004820152601a60248201527f4d617820466f78794d616769636f204e667473204d696e7465640000000000006044820152606401610aae565b60005b82811015611c9757611c6333601554612914565b611c6e60155461292e565b600160156000828254611c819190613a1f565b90915550611c90905081613a32565b9050611c4f565b5050601554919050565b611ca96127db565b601e548111611d205760405162461bcd60e51b815260206004820152603960248201527f74686520616d6f756e74206f6620666f787973206d757374206265206772656160448201527f746572207468616e20746865206578697374696e67206f6e65000000000000006064820152608401610aae565b601e55565b611d2d6127db565b6023548111611da45760405162461bcd60e51b815260206004820152603e60248201527f74686520616d6f756e74206f6620666f787973576f6d616e206d75737420626560448201527f2067726561746572207468616e20746865206578697374696e67206f6e6500006064820152608401610aae565b602355565b33611db3826117f8565b6001600160a01b031614611e095760405162461bcd60e51b815260206004820152601d60248201527f596f7520617265206e6f74206f776e6572206f662074686973206e66740000006044820152606401610aae565b6000818152602b60205260409020600201805460ff60a01b19169055611e2f6026612c66565b50565b611e3a6127db565b601f548111611eb15760405162461bcd60e51b815260206004820152603960248201527f74686520616d6f756e74206f6620666f787973206d757374206265206772656160448201527f746572207468616e20746865206578697374696e67206f6e65000000000000006064820152608401610aae565b601f55565b606060018054610acb906139cf565b611ecd6127db565b6021548111611f445760405162461bcd60e51b815260206004820152603e60248201527f74686520616d6f756e74206f6620666f787973576f6d616e206d75737420626560448201527f2067726561746572207468616e20746865206578697374696e67206f6e6500006064820152608401610aae565b602155565b6000600c543414611f965760405162461bcd60e51b815260206004820152602480820152600080516020613cd08339815191526044820152637269636560e01b6064820152608401610aae565b60245460185410611fe95760405162461bcd60e51b815260206004820152601960248201527f4d617820466f7879457069636f204e667473204d696e746564000000000000006044820152606401610aae565b60005b828110156120345761200033601854612914565b61200b60185461292e565b60016017600082825461201e9190613a1f565b9091555061202d905081613a32565b9050611fec565b5050601854919050565b610e9b338383612e35565b6120516127db565b60245481116120c85760405162461bcd60e51b815260206004820152603e60248201527f74686520616d6f756e74206f6620666f787973576f6d616e206d75737420626560448201527f2067726561746572207468616e20746865206578697374696e67206f6e6500006064820152608401610aae565b602455565b6000600d54341461211a5760405162461bcd60e51b815260206004820152602480820152600080516020613cd08339815191526044820152637269636560e01b6064820152608401610aae565b601f546013541061216d5760405162461bcd60e51b815260206004820152601c60248201527f4d617820466f7879496e6d6f7274616c204e667473204d696e746564000000006044820152606401610aae565b60005b828110156121b85761218433601354612914565b61218f60135461292e565b6001601360008282546121a29190613a1f565b909155506121b1905081613a32565b9050612170565b5050601354919050565b6121ca6127db565b601d5481116122415760405162461bcd60e51b815260206004820152603960248201527f74686520616d6f756e74206f6620666f787973206d757374206265206772656160448201527f746572207468616e20746865206578697374696e67206f6e65000000000000006064820152608401610aae565b601d55565b61224e6127db565b60205481116122c55760405162461bcd60e51b815260206004820152603e60248201527f74686520616d6f756e74206f6620666f787973576f6d616e206d75737420626560448201527f2067726561746572207468616e20746865206578697374696e67206f6e6500006064820152608401610aae565b602055565b6122d43383612a02565b6123465760405162461bcd60e51b815260206004820152602e60248201527f4552433732313a2063616c6c6572206973206e6f7420746f6b656e206f776e6560448201527f72206e6f7220617070726f7665640000000000000000000000000000000000006064820152608401610aae565b61235284848484612f03565b50505050565b6123606127db565b601c5481116123d75760405162461bcd60e51b815260206004820152603960248201527f74686520616d6f756e74206f6620666f787973206d757374206265206772656160448201527f746572207468616e20746865206578697374696e67206f6e65000000000000006064820152608401610aae565b601c55565b6000818152600260205260409020546060906001600160a01b031661240057600080fd5b600061240a612f81565b9050600081511161242a5760405180602001604052806000815250612458565b8061243484612f90565b602860405160200161244893929190613b6f565b6040516020818303038152906040525b9392505050565b600061246a60265490565b905090565b6000600a5434146124bc5760405162461bcd60e51b815260206004820152602480820152600080516020613cd08339815191526044820152637269636560e01b6064820152608401610aae565b6022546016541061250f5760405162461bcd60e51b815260206004820152601c60248201527f4d617820466f7879476c6f72696f736f204e667473204d696e746564000000006044820152606401610aae565b60005b8281101561255a5761252633601654612914565b61253160165461292e565b6001601660008282546125449190613a1f565b90915550612553905081613a32565b9050612512565b5050601654919050565b6000600a5434146125b15760405162461bcd60e51b815260206004820152602480820152600080516020613cd08339815191526044820152637269636560e01b6064820152608401610aae565b601c54601054106126045760405162461bcd60e51b815260206004820152601c60248201527f4d617820466f7879476c6f72696f736f204e667473204d696e746564000000006044820152606401610aae565b60005b8281101561264f5761261b33601054612914565b61262660105461292e565b6001601060008282546126399190613a1f565b90915550612648905081613a32565b9050612607565b5050601054919050565b6000600b5434146126a65760405162461bcd60e51b815260206004820152602480820152600080516020613cd08339815191526044820152637269636560e01b6064820152608401610aae565b601d54601154106126f95760405162461bcd60e51b815260206004820152601e60248201527f4d617820466f78794c6567656e646172696f204e667473204d696e74656400006044820152606401610aae565b60005b828110156127445761271033601154612914565b61271b60115461292e565b60016011600082825461272e9190613a1f565b9091555061273d905081613a32565b90506126fc565b5050601154919050565b6127566127db565b6001600160a01b0381166127d25760405162461bcd60e51b815260206004820152602660248201527f4f776e61626c653a206e6577206f776e657220697320746865207a65726f206160448201527f64647265737300000000000000000000000000000000000000000000000000006064820152608401610aae565b611e2f81612dd6565b6007546001600160a01b03163314611baa5760405162461bcd60e51b815260206004820181905260248201527f4f776e61626c653a2063616c6c6572206973206e6f7420746865206f776e65726044820152606401610aae565b6000818152600260205260409020546001600160a01b0316611e2f5760405162461bcd60e51b815260206004820152601860248201527f4552433732313a20696e76616c696420746f6b656e20494400000000000000006044820152606401610aae565b6000818152600460205260409020805473ffffffffffffffffffffffffffffffffffffffff19166001600160a01b03841690811790915581906128db826117f8565b6001600160a01b03167f8c5be1e5ebec7d5bd14f71427d1e84f3dd0314c0f7b2291e5b200ac8c7c3b92560405160405180910390a45050565b610e9b8282604051806020016040528060008152506130c5565b604080516080808201835283825260088054602080850191825233858701818152600060608089018281528b8352602b86528a832099518a55955160018a015591516002909801805495511515600160a01b027fffffffffffffffffffffff0000000000000000000000000000000000000000009096166001600160a01b039099169890981794909417909655925486518881529182015294850191909152918301919091527f470031062672bc0246e132c723a729c4676710ec663a29e86c88678032daddea910160405180910390a150565b600080612a0e836117f8565b9050806001600160a01b0316846001600160a01b03161480612a5557506001600160a01b0380821660009081526005602090815260408083209388168352929052205460ff165b80612a795750836001600160a01b0316612a6e84610b4e565b6001600160a01b0316145b949350505050565b826001600160a01b0316612a94826117f8565b6001600160a01b031614612b105760405162461bcd60e51b815260206004820152602560248201527f4552433732313a207472616e736665722066726f6d20696e636f72726563742060448201527f6f776e65720000000000000000000000000000000000000000000000000000006064820152608401610aae565b6001600160a01b038216612b8b5760405162461bcd60e51b8152602060048201526024808201527f4552433732313a207472616e7366657220746f20746865207a65726f2061646460448201527f72657373000000000000000000000000000000000000000000000000000000006064820152608401610aae565b612b96838383613143565b612ba1600082612899565b6001600160a01b0383166000908152600360205260408120805460019290612bca908490613c0f565b90915550506001600160a01b0382166000908152600360205260408120805460019290612bf8908490613a1f565b9091555050600081815260026020526040808220805473ffffffffffffffffffffffffffffffffffffffff19166001600160a01b0386811691821790925591518493918716917fddf252ad1be2c89b69c2b068fc378daa952ba7f163c4a11628f55a4df523b3ef91a4505050565b805480612cb55760405162461bcd60e51b815260206004820152601b60248201527f436f756e7465723a2064656372656d656e74206f766572666c6f7700000000006044820152606401610aae565b600019019055565b80471015612d0d5760405162461bcd60e51b815260206004820152601d60248201527f416464726573733a20696e73756666696369656e742062616c616e63650000006044820152606401610aae565b6000826001600160a01b03168260405160006040518083038185875af1925050503d8060008114612d5a576040519150601f19603f3d011682016040523d82523d6000602084013e612d5f565b606091505b5050905080610ca15760405162461bcd60e51b815260206004820152603a60248201527f416464726573733a20756e61626c6520746f2073656e642076616c75652c207260448201527f6563697069656e74206d617920686176652072657665727465640000000000006064820152608401610aae565b600780546001600160a01b0383811673ffffffffffffffffffffffffffffffffffffffff19831681179093556040519116919082907f8be0079c531659141344cd1fd0a4f28419497f9722a3daafe3b4186f6b6457e090600090a35050565b816001600160a01b0316836001600160a01b031603612e965760405162461bcd60e51b815260206004820152601960248201527f4552433732313a20617070726f766520746f2063616c6c6572000000000000006044820152606401610aae565b6001600160a01b03838116600081815260056020908152604080832094871680845294825291829020805460ff191686151590811790915591519182527f17307eab39ab6107e8899845ad3d59bd9653f200f220920489ca2b5937696c31910160405180910390a3505050565b612f0e848484612a81565b612f1a848484846131fb565b6123525760405162461bcd60e51b815260206004820152603260248201527f4552433732313a207472616e7366657220746f206e6f6e20455243373231526560448201527131b2b4bb32b91034b6b83632b6b2b73a32b960711b6064820152608401610aae565b606060298054610acb906139cf565b606081600003612fd357505060408051808201909152600181527f3000000000000000000000000000000000000000000000000000000000000000602082015290565b8160005b8115612ffd5780612fe781613a32565b9150612ff69050600a83613c38565b9150612fd7565b60008167ffffffffffffffff811115613018576130186137f4565b6040519080825280601f01601f191660200182016040528015613042576020820181803683370190505b5090505b8415612a7957613057600183613c0f565b9150613064600a86613c4c565b61306f906030613a1f565b60f81b81838151811061308457613084613a4b565b60200101907effffffffffffffffffffffffffffffffffffffffffffffffffffffffffffff1916908160001a9053506130be600a86613c38565b9450613046565b6130cf8383613347565b6130dc60008484846131fb565b610ca15760405162461bcd60e51b815260206004820152603260248201527f4552433732313a207472616e7366657220746f206e6f6e20455243373231526560448201527131b2b4bb32b91034b6b83632b6b2b73a32b960711b6064820152608401610aae565b6001600160a01b03831661319e5761319981602e80546000838152602f60205260408120829055600182018355919091527f37fa166cbdbfbb1561ccd9ea985ec0218b5e68502e230525f544285b2bdf3d7e0155565b6131c1565b816001600160a01b0316836001600160a01b0316146131c1576131c183826134a2565b6001600160a01b0382166131d857610ca18161353f565b826001600160a01b0316826001600160a01b031614610ca157610ca182826135ee565b60006001600160a01b0384163b1561333c57604051630a85bd0160e11b81526001600160a01b0385169063150b7a029061323f903390899088908890600401613c60565b6020604051808303816000875af192505050801561327a575060408051601f3d908101601f1916820190925261327791810190613c9c565b60015b613322573d8080156132a8576040519150601f19603f3d011682016040523d82523d6000602084013e6132ad565b606091505b50805160000361331a5760405162461bcd60e51b815260206004820152603260248201527f4552433732313a207472616e7366657220746f206e6f6e20455243373231526560448201527131b2b4bb32b91034b6b83632b6b2b73a32b960711b6064820152608401610aae565b805181602001fd5b6001600160e01b031916630a85bd0160e11b149050612a79565b506001949350505050565b6001600160a01b03821661339d5760405162461bcd60e51b815260206004820181905260248201527f4552433732313a206d696e7420746f20746865207a65726f20616464726573736044820152606401610aae565b6000818152600260205260409020546001600160a01b0316156134025760405162461bcd60e51b815260206004820152601c60248201527f4552433732313a20746f6b656e20616c7265616479206d696e746564000000006044820152606401610aae565b61340e60008383613143565b6001600160a01b0382166000908152600360205260408120805460019290613437908490613a1f565b9091555050600081815260026020526040808220805473ffffffffffffffffffffffffffffffffffffffff19166001600160a01b03861690811790915590518392907fddf252ad1be2c89b69c2b068fc378daa952ba7f163c4a11628f55a4df523b3ef908290a45050565b600060016134af846119d6565b6134b99190613c0f565b6000838152602d602052604090205490915080821461350c576001600160a01b0384166000908152602c602090815260408083208584528252808320548484528184208190558352602d90915290208190555b506000918252602d602090815260408084208490556001600160a01b039094168352602c81528383209183525290812055565b602e5460009061355190600190613c0f565b6000838152602f6020526040812054602e805493945090928490811061357957613579613a4b565b9060005260206000200154905080602e838154811061359a5761359a613a4b565b6000918252602080832090910192909255828152602f9091526040808220849055858252812055602e8054806135d2576135d2613cb9565b6001900381819060005260206000200160009055905550505050565b60006135f9836119d6565b6001600160a01b039093166000908152602c602090815260408083208684528252808320859055938252602d9052919091209190915550565b6001600160e01b031981168114611e2f57600080fd5b60006020828403121561365a57600080fd5b813561245881613632565b60006020828403121561367757600080fd5b5035919050565b60005b83811015613699578181015183820152602001613681565b50506000910152565b600081518084526136ba81602086016020860161367e565b601f01601f19169290920160200192915050565b60208152600061245860208301846136a2565b80356001600160a01b03811681146136f857600080fd5b919050565b6000806040838503121561371057600080fd5b613719836136e1565b946020939093013593505050565b6000806040838503121561373a57600080fd5b50508035926020909101359150565b60008060006060848603121561375e57600080fd5b613767846136e1565b9250613775602085016136e1565b9150604084013590509250925092565b602080825282518282018190526000919060409081850190868401855b828110156137e7578151805185528681015187860152858101516001600160a01b031686860152606090810151151590850152608090930192908501906001016137a2565b5091979650505050505050565b634e487b7160e01b600052604160045260246000fd5b600067ffffffffffffffff80841115613825576138256137f4565b604051601f8501601f19908116603f0116810190828211818310171561384d5761384d6137f4565b8160405280935085815286868601111561386657600080fd5b858560208301376000602087830101525050509392505050565b60006020828403121561389257600080fd5b813567ffffffffffffffff8111156138a957600080fd5b8201601f810184136138ba57600080fd5b612a798482356020840161380a565b6000602082840312156138db57600080fd5b612458826136e1565b600080604083850312156138f757600080fd5b613900836136e1565b91506020830135801515811461391557600080fd5b809150509250929050565b6000806000806080858703121561393657600080fd5b61393f856136e1565b935061394d602086016136e1565b925060408501359150606085013567ffffffffffffffff81111561397057600080fd5b8501601f8101871361398157600080fd5b6139908782356020840161380a565b91505092959194509250565b600080604083850312156139af57600080fd5b6139b8836136e1565b91506139c6602084016136e1565b90509250929050565b600181811c908216806139e357607f821691505b602082108103613a0357634e487b7160e01b600052602260045260246000fd5b50919050565b634e487b7160e01b600052601160045260246000fd5b80820180821115610a2d57610a2d613a09565b600060018201613a4457613a44613a09565b5060010190565b634e487b7160e01b600052603260045260246000fd5b601f821115610ca157600081815260208120601f850160051c81016020861015613a885750805b601f850160051c820191505b81811015613aa757828155600101613a94565b505050505050565b815167ffffffffffffffff811115613ac957613ac96137f4565b613add81613ad784546139cf565b84613a61565b602080601f831160018114613b125760008415613afa5750858301515b600019600386901b1c1916600185901b178555613aa7565b600085815260208120601f198616915b82811015613b4157888601518255948401946001909101908401613b22565b5085821015613b5f5787850151600019600388901b60f8161c191681555b5050505050600190811b01905550565b600084516020613b828285838a0161367e565b855191840191613b958184848a0161367e565b8554920191600090613ba6816139cf565b60018281168015613bbe5760018114613bd357613bff565b60ff1984168752821515830287019450613bff565b896000528560002060005b84811015613bf757815489820152908301908701613bde565b505082870194505b50929a9950505050505050505050565b81810381811115610a2d57610a2d613a09565b634e487b7160e01b600052601260045260246000fd5b600082613c4757613c47613c22565b500490565b600082613c5b57613c5b613c22565b500690565b60006001600160a01b03808716835280861660208401525083604083015260806060830152613c9260808301846136a2565b9695505050505050565b600060208284031215613cae57600080fd5b815161245881613632565b634e487b7160e01b600052603160045260246000fdfe5072696365206d75737420626520657175616c20746f206c697374696e672070a26469706673582212203a7bf4366e37ae34408f8abd259fc4ba0f8baee4d6652098d8c4b5afcabba8c464736f6c63430008100033",
  "immutableReferences": {},
  "source": "// SPDX-License-Identifier: MIT\r\npragma solidity >=0.4.22 <0.9.0;\r\n\r\nimport \"@openzeppelin/contracts/token/ERC721/extensions/ERC721URIStorage.sol\";\r\nimport \"@openzeppelin/contracts/utils/Counters.sol\";\r\nimport \"@openzeppelin/contracts/utils/Address.sol\";\r\nimport \"@openzeppelin/contracts/access/Ownable.sol\";\r\n\r\ncontract NftMarket is ERC721URIStorage, Ownable {\r\n    using Counters for Counters.Counter;\r\n    using Strings for uint256;\r\n    using Address for address;\r\n\r\n    struct NftItem {\r\n        uint256 tokenId;\r\n        uint256 price;\r\n        address creator;\r\n        bool isListed;\r\n    }\r\n\r\n    uint256 private listingPriceMistico = 0.25 ether;\r\n    uint256 private listingPriceMagico = 0.35 ether;\r\n    uint256 private listingPriceGlorioso = 0.55 ether;\r\n    uint256 private listingPriceLegendario = 0.75 ether;\r\n    uint256 private listingPriceEpico = 1.00 ether;\r\n    uint256 private listingPriceInmortal = 1.25 ether;\r\n    //hombres\r\n    uint256 private TokenIdFoxyMistico = 0;\r\n    uint256 private TokenIdFoxyMagico = 8;  //4000\r\n    uint256 private TokenIdFoxyGlorioso = 8000;\r\n    uint256 private TokenIdFoxyLegendario = 12000;\r\n    uint256 private TokenIdFoxyEpico = 16000;\r\n    uint256 private TokenIdFoxyInmortal = 200000;\r\n    //mujeres\r\n    uint256 private TokenIdFoxyMisticoWoman = 24000;\r\n    uint256 private TokenIdFoxyMagicoWoman = 28000;\r\n    uint256 private TokenIdFoxyGloriosoWoman = 32000;\r\n    uint256 private TokenIdFoxyLegendarioWoman = 36000;\r\n    uint256 private TokenIdFoxyEpicoWoman = 40000;  \r\n    uint256 private TokenIdFoxyInmortalWoman = 44000;\r\n\r\n    uint256 private maxFoxyMistico = 7; //2000\r\n    uint256 private maxFoxyMagico = 15; //6000\r\n    uint256 private maxFoxyGlorioso= 10000;\r\n    uint256 private maxFoxyLegendario= 14000;\r\n    uint256 private maxFoxyEpico= 18000;\r\n    uint256 private maxFoxyInmortal= 22000;\r\n    uint256 private maxFoxyMisticoWoman = 26000;\r\n    uint256 private maxFoxyMagicoWoman= 30000;\r\n    uint256 private maxFoxyGloriosoWoman= 34000;\r\n    uint256 private maxFoxyLegendarioWoman= 380000;\r\n    uint256 private maxFoxyEpicoWoman= 42000;\r\n    uint256 private maxFoxyInmortalWoman= 46000;\r\n\r\n    Counters.Counter private _listedItems;\r\n    Counters.Counter private _tokenIds;\r\n\r\n\r\n    string private baseExtension = \".json\";\r\n    string private baseURI;\r\n\r\n    mapping(string => bool) private _usedTokenURIs;\r\n    mapping(uint256 => NftItem) public _idToNftItem;\r\n\r\n    mapping(address => mapping(uint256 => uint256)) private _ownedTokens;\r\n    mapping(uint256 => uint256) private _idToOwnedIndex;\r\n\r\n    uint256[] private _allNfts;\r\n\r\n    mapping(uint256 => uint256) private _idToNftIndex;\r\n\r\n    event NftItemCreated(\r\n        uint256 tokenId,\r\n        uint256 price,\r\n        address creator,\r\n        bool isListed\r\n    );\r\n\r\n    constructor() ERC721(\"ElfNFT\", \"ENFT\") {\r\n       \r\n    }\r\n\r\n     function setMaxFoxysMistico(uint newMaxFoxy) external onlyOwner {\r\n     require(newMaxFoxy > maxFoxyMistico, \"the amount of foxys must be greater than the existing one\");\r\n     maxFoxyMistico = newMaxFoxy;\r\n    }\r\n\r\n    function setMaxFoxysMagico(uint newMaxFoxy) external onlyOwner {\r\n     require(newMaxFoxy > maxFoxyMagico, \"the amount of foxys must be greater than the existing one\");\r\n     maxFoxyMagico = newMaxFoxy;\r\n\r\n    }\r\n\r\n    function setMaxFoxysGlorioso(uint newMaxFoxy) external onlyOwner {\r\n     require(newMaxFoxy > maxFoxyGlorioso, \"the amount of foxys must be greater than the existing one\");\r\n     maxFoxyGlorioso = newMaxFoxy;\r\n    }\r\n\r\n    function setMaxFoxysLegendario(uint newMaxFoxy) external onlyOwner {\r\n     require(newMaxFoxy > maxFoxyLegendario, \"the amount of foxys must be greater than the existing one\");\r\n     maxFoxyLegendario = newMaxFoxy;\r\n    }\r\n\r\n    function setMaxFoxysEpico(uint newMaxFoxy) external onlyOwner {\r\n     require(newMaxFoxy > maxFoxyEpico, \"the amount of foxys must be greater than the existing one\");\r\n     maxFoxyEpico = newMaxFoxy;\r\n    }\r\n\r\n    function setMaxFoxysInmortal(uint newMaxFoxy) external onlyOwner {\r\n     require(newMaxFoxy > maxFoxyInmortal, \"the amount of foxys must be greater than the existing one\");\r\n     maxFoxyInmortal = newMaxFoxy;\r\n    }\r\n\r\n    function setMaxFoxysMisticoWoman(uint newMaxFoxy) external onlyOwner {\r\n     require(newMaxFoxy > maxFoxyMisticoWoman, \"the amount of foxysWoman must be greater than the existing one\");\r\n     maxFoxyMisticoWoman = newMaxFoxy;\r\n    }\r\n\r\n    function setMaxFoxysMagicoWoman(uint newMaxFoxy) external onlyOwner {\r\n     require(newMaxFoxy > maxFoxyMagicoWoman, \"the amount of foxysWoman must be greater than the existing one\");\r\n     maxFoxyMagicoWoman = newMaxFoxy;\r\n    }\r\n\r\n    function setMaxFoxysGloriosoWoman(uint newMaxFoxy) external onlyOwner {\r\n     require(newMaxFoxy > maxFoxyGloriosoWoman, \"the amount of foxysWoman must be greater than the existing one\");\r\n     maxFoxyGloriosoWoman = newMaxFoxy;\r\n    }\r\n\r\n    function setMaxFoxysLegendarioWoman(uint newMaxFoxy) external onlyOwner {\r\n     require(newMaxFoxy > maxFoxyLegendarioWoman, \"the amount of foxysWoman must be greater than the existing one\");\r\n     maxFoxyLegendarioWoman = newMaxFoxy;\r\n    }\r\n\r\n    function setMaxFoxysEpicoWoman(uint newMaxFoxy) external onlyOwner {\r\n     require(newMaxFoxy > maxFoxyEpicoWoman, \"the amount of foxysWoman must be greater than the existing one\");\r\n     maxFoxyEpicoWoman = newMaxFoxy;\r\n    }\r\n\r\n    function setMaxFoxysInmortalWoman(uint newMaxFoxy) external onlyOwner {\r\n     require(newMaxFoxy > maxFoxyInmortalWoman, \"the amount of foxysWoman must be greater than the existing one\");\r\n     maxFoxyInmortalWoman = newMaxFoxy;\r\n    }\r\n\r\n    function withdraw() external onlyOwner{\r\n     uint256 amount = address(this).balance;\r\n     require(amount > 0, \"No funds available\");\r\n     address principal = (0x1e8dd1acB4D121d1a30B7B9bb709F2FDaf041Cc2);\r\n     Address.sendValue(payable(principal), amount);\r\n     \r\n    }\r\n\r\n\r\n    function listedItemsCount() public view returns (uint256) {\r\n        return _listedItems.current();\r\n    }\r\n\r\n    function totalSupply() public view returns (uint256) {\r\n        return _allNfts.length;\r\n    }\r\n    \r\n\r\n    function setBaseURI(string memory _newBaseURI) public onlyOwner {\r\n        baseURI = _newBaseURI;\r\n     }\r\n\r\n     function _baseURI() internal view virtual override returns (string memory) {\r\n        return baseURI;\r\n    }\r\n\r\n    function tokenByIndex(uint256 index) public view returns (uint256) {\r\n        require(index < totalSupply(), \"Index out of bounds\");\r\n        return _allNfts[index];\r\n    }\r\n\r\n    function tokenOfOwnerByIndex(address owner, uint256 index)\r\n        public\r\n        view\r\n        returns (uint256)\r\n    {\r\n        require(index < ERC721.balanceOf(owner), \"Index out of bounds\");\r\n        return _ownedTokens[owner][index];\r\n    }\r\n\r\n    function getAllNftsOnSale() public view returns (NftItem[] memory) {\r\n        uint256 allItemsCounts = totalSupply();\r\n        uint256 currentIndex = 0;\r\n        NftItem[] memory items = new NftItem[](_listedItems.current());\r\n\r\n        for (uint256 i = 0; i < allItemsCounts; i++) {\r\n            uint256 tokenId = tokenByIndex(i);\r\n            NftItem storage item = _idToNftItem[tokenId];\r\n\r\n            if (item.isListed == true) {\r\n                items[currentIndex] = item;\r\n                currentIndex += 1;\r\n            }\r\n        }\r\n\r\n        return items;\r\n    }\r\n\r\n    function getOwnedNfts() public view returns (NftItem[] memory) {\r\n        uint256 ownedItemsCount = ERC721.balanceOf(msg.sender);\r\n        NftItem[] memory items = new NftItem[](ownedItemsCount);\r\n\r\n        for (uint256 i = 0; i < ownedItemsCount; i++) {\r\n            uint256 tokenId = tokenOfOwnerByIndex(msg.sender, i);\r\n            NftItem storage item = _idToNftItem[tokenId];\r\n            items[i] = item;\r\n        }\r\n\r\n        return items;\r\n    }\r\n  \r\n\r\n    function foxyBuyMistico(uint amount)\r\n        public\r\n        payable\r\n        returns (uint256)\r\n    {\r\n        \r\n        require(\r\n            msg.value == listingPriceMistico,\r\n            \"Price must be equal to listing price\"\r\n        );\r\n\r\n        require(TokenIdFoxyMistico < maxFoxyMistico, \"Max FoxyMistico Nfts Minted\");     \r\n         for( uint i = 0; i < amount; ++i ){\r\n        _safeMint(msg.sender, TokenIdFoxyMistico);\r\n        _createNftItem(TokenIdFoxyMistico);\r\n         TokenIdFoxyMistico += 1;\r\n     }      \r\n           \r\n        return TokenIdFoxyMistico;\r\n    }\r\n\r\n    function foxyBuyMagico(uint amount)\r\n        public\r\n        payable\r\n        returns (uint256)\r\n    {\r\n        \r\n        require(\r\n            msg.value == listingPriceMagico,\r\n            \"Price must be equal to listing price\"\r\n        );       \r\n\r\n        require(TokenIdFoxyMagico < maxFoxyMagico, \"Max FoxyMagico Nfts Minted\");     \r\n         for( uint i = 0; i < amount; ++i ){\r\n        _safeMint(msg.sender, TokenIdFoxyMagico);\r\n        _createNftItem(TokenIdFoxyMagico);\r\n        TokenIdFoxyMagico += 1;\r\n     }      \r\n           \r\n        return TokenIdFoxyMagico;\r\n    }\r\n\r\n    function foxyBuyGlorioso(uint amount)\r\n        public\r\n        payable\r\n        returns (uint256)\r\n    {\r\n        \r\n        require(\r\n            msg.value == listingPriceGlorioso,\r\n            \"Price must be equal to listing price\"\r\n        );       \r\n\r\n        require(TokenIdFoxyGlorioso < maxFoxyGlorioso, \"Max FoxyGlorioso Nfts Minted\");     \r\n         for( uint i = 0; i < amount; ++i ){\r\n        _safeMint(msg.sender, TokenIdFoxyGlorioso);\r\n        _createNftItem(TokenIdFoxyGlorioso);\r\n        TokenIdFoxyGlorioso += 1;\r\n     }      \r\n           \r\n        return TokenIdFoxyGlorioso;\r\n    }\r\n\r\n    function foxyBuyLegendario (uint amount)\r\n        public\r\n        payable\r\n        returns (uint256)\r\n    {\r\n        \r\n        require(\r\n            msg.value == listingPriceLegendario,\r\n            \"Price must be equal to listing price\"\r\n        );       \r\n\r\n        require(TokenIdFoxyLegendario < maxFoxyLegendario, \"Max FoxyLegendario Nfts Minted\");     \r\n         for( uint i = 0; i < amount; ++i ){\r\n        _safeMint(msg.sender, TokenIdFoxyLegendario);\r\n        _createNftItem(TokenIdFoxyLegendario);\r\n        TokenIdFoxyLegendario += 1;\r\n     }      \r\n           \r\n        return TokenIdFoxyLegendario;\r\n    }\r\n\r\n        function foxyBuyEpico(uint amount)\r\n            public\r\n            payable\r\n            returns (uint256)\r\n        {\r\n            \r\n            require(\r\n                msg.value == listingPriceEpico,\r\n                \"Price must be equal to listing price\"\r\n            );          \r\n\r\n        \r\n\r\n        require(TokenIdFoxyEpico < maxFoxyEpico, \"Max FoxyEpico Nfts Minted\");     \r\n         for( uint i = 0; i < amount; ++i ){\r\n        _safeMint(msg.sender, TokenIdFoxyEpico);\r\n        _createNftItem(TokenIdFoxyEpico);\r\n        TokenIdFoxyLegendario += 1;\r\n        }      \r\n            \r\n            return TokenIdFoxyEpico;\r\n        }\r\n\r\n        function FoxyBuyInmortal(uint amount)\r\n            public\r\n            payable\r\n            returns (uint256)\r\n        {\r\n            \r\n            require(\r\n                msg.value == listingPriceInmortal,\r\n                \"Price must be equal to listing price\"\r\n            );\r\n                     \r\n        require(TokenIdFoxyInmortal < maxFoxyInmortal, \"Max FoxyInmortal Nfts Minted\");     \r\n         for( uint i = 0; i < amount; ++i ){\r\n        _safeMint(msg.sender, TokenIdFoxyInmortal);\r\n        _createNftItem(TokenIdFoxyInmortal);\r\n        TokenIdFoxyInmortal += 1;\r\n        }      \r\n            \r\n            return TokenIdFoxyInmortal;\r\n        }\r\n\r\n\r\nfunction foxyBuyMisticoWoman(uint amount)\r\n        public\r\n        payable\r\n        returns (uint256)\r\n    {\r\n        \r\n        require(\r\n            msg.value == listingPriceMistico,\r\n            \"Price must be equal to listing price\"\r\n        );\r\n\r\n        require(TokenIdFoxyMisticoWoman < maxFoxyMisticoWoman, \"Max FoxyMistico Nfts Minted\");     \r\n         for( uint i = 0; i < amount; ++i ){\r\n        _safeMint(msg.sender, TokenIdFoxyMisticoWoman);\r\n        _createNftItem(TokenIdFoxyMisticoWoman);\r\n         TokenIdFoxyMisticoWoman += 1;\r\n     }      \r\n           \r\n        return TokenIdFoxyMisticoWoman;\r\n    }\r\n\r\n    function foxyBuyMagicoWoman(uint amount)\r\n        public\r\n        payable\r\n        returns (uint256)\r\n    {\r\n        \r\n        require(\r\n            msg.value == listingPriceMagico,\r\n            \"Price must be equal to listing price\"\r\n        );       \r\n\r\n        require(TokenIdFoxyMagicoWoman < maxFoxyMagicoWoman, \"Max FoxyMagico Nfts Minted\");     \r\n         for( uint i = 0; i < amount; ++i ){\r\n        _safeMint(msg.sender, TokenIdFoxyMagicoWoman);\r\n        _createNftItem(TokenIdFoxyMagicoWoman);\r\n        TokenIdFoxyMagicoWoman += 1;\r\n     }      \r\n           \r\n        return TokenIdFoxyMagicoWoman;\r\n    }\r\n\r\n    function foxyBuyGloriosoWoman(uint amount)\r\n        public\r\n        payable\r\n        returns (uint256)\r\n    {\r\n        \r\n        require(\r\n            msg.value == listingPriceGlorioso,\r\n            \"Price must be equal to listing price\"\r\n        );       \r\n\r\n        require(TokenIdFoxyGloriosoWoman < maxFoxyGloriosoWoman, \"Max FoxyGlorioso Nfts Minted\");     \r\n         for( uint i = 0; i < amount; ++i ){\r\n        _safeMint(msg.sender, TokenIdFoxyGloriosoWoman);\r\n        _createNftItem(TokenIdFoxyGloriosoWoman);\r\n        TokenIdFoxyGloriosoWoman += 1;\r\n     }      \r\n           \r\n        return TokenIdFoxyGloriosoWoman;\r\n    }\r\n\r\n       function foxyBuyLegendarioWoman (uint amount)\r\n        public\r\n        payable\r\n        returns (uint256)\r\n    {\r\n        \r\n        require(\r\n            msg.value == listingPriceLegendario,\r\n            \"Price must be equal to listing price\"\r\n        );       \r\n\r\n        require(TokenIdFoxyLegendarioWoman < maxFoxyLegendarioWoman, \"Max FoxyLegendario Nfts Minted\");     \r\n         for( uint i = 0; i < amount; ++i ){\r\n        _safeMint(msg.sender, TokenIdFoxyLegendarioWoman);\r\n        _createNftItem(TokenIdFoxyLegendarioWoman);\r\n        TokenIdFoxyLegendarioWoman += 1;\r\n     }      \r\n           \r\n        return TokenIdFoxyLegendarioWoman;\r\n    }\r\n\r\n        function foxyBuyEpicoWoman(uint amount)\r\n            public\r\n            payable\r\n            returns (uint256)\r\n        {\r\n            \r\n            require(\r\n                msg.value == listingPriceEpico,\r\n                \"Price must be equal to listing price\"\r\n            );          \r\n\r\n        \r\n\r\n        require(TokenIdFoxyEpicoWoman < maxFoxyEpicoWoman, \"Max FoxyEpico Nfts Minted\");     \r\n         for( uint i = 0; i < amount; ++i ){\r\n        _safeMint(msg.sender, TokenIdFoxyEpicoWoman);\r\n        _createNftItem(TokenIdFoxyEpicoWoman);\r\n        TokenIdFoxyLegendarioWoman += 1;\r\n        }      \r\n            \r\n            return TokenIdFoxyEpicoWoman;\r\n        }\r\n\r\n        function FoxyBuyInmortalWoman(uint amount)\r\n            public\r\n            payable\r\n            returns (uint256)\r\n        {\r\n            \r\n            require(\r\n                msg.value == listingPriceInmortal,\r\n                \"Price must be equal to listing price\"\r\n            );\r\n                     \r\n        require(TokenIdFoxyInmortalWoman < maxFoxyInmortalWoman, \"Max FoxyInmortal Nfts Minted\");     \r\n         for( uint i = 0; i < amount; ++i ){\r\n        _safeMint(msg.sender, TokenIdFoxyInmortalWoman);\r\n        _createNftItem(TokenIdFoxyInmortalWoman);\r\n        TokenIdFoxyInmortalWoman += 1;\r\n        }      \r\n            \r\n         return TokenIdFoxyInmortalWoman;\r\n        }\r\n\r\n    function tokenURI(uint256 tokenId)\r\n        public\r\n        view\r\n        override\r\n        returns (string memory)\r\n    {\r\n        require(\r\n            _exists(tokenId)\r\n            );\r\n\r\n           string memory currentBaseURI = _baseURI();\r\n         return\r\n            bytes(currentBaseURI).length > 0\r\n                ? string(\r\n                    abi.encodePacked(\r\n                        currentBaseURI, \r\n                        tokenId.toString(), \r\n                        baseExtension \r\n                    ) \r\n                )\r\n                : \"\";\r\n\r\n    }\r\n\r\n    function buyNft(uint256 tokenId) public payable {\r\n        uint256 price = _idToNftItem[tokenId].price;\r\n        address owner = ERC721.ownerOf(tokenId);\r\n\r\n        require(msg.sender != owner, \"You already own this NFT\");\r\n        require(msg.value == price, \"Please submit the asking price\");\r\n\r\n        _idToNftItem[tokenId].isListed = false;\r\n        _listedItems.decrement();\r\n\r\n        _transfer(owner, msg.sender, tokenId);\r\n        Address.sendValue(payable(owner), msg.value);\r\n        \r\n    }\r\n\r\n     function cancellSellNft(uint256 tokenId) public  {\r\n        \r\n    require(ERC721.ownerOf(tokenId) == msg.sender, \"You are not owner of this nft\");\r\n        \r\n    _idToNftItem[tokenId].isListed = false;\r\n    _listedItems.decrement();\r\n     \r\n    }\r\n\r\n    function placeNftOnSale(uint tokenId, uint newPrice) public payable {\r\n    require(ERC721.ownerOf(tokenId) == msg.sender, \"You are not owner of this nft\");\r\n    require(_idToNftItem[tokenId].isListed == false, \"Item is already on sale\");\r\n    \r\n\r\n    _idToNftItem[tokenId].isListed = true;\r\n    _idToNftItem[tokenId].price = newPrice;\r\n    _listedItems.increment();\r\n  }\r\n\r\n    function _createNftItem(uint256 tokenId) private {\r\n\r\n        _idToNftItem[tokenId] = NftItem(tokenId, listingPriceMistico, msg.sender, false);\r\n\r\n        emit NftItemCreated(tokenId, listingPriceMistico, msg.sender, false);\r\n    }\r\n\r\n    function _beforeTokenTransfer(\r\n        address from,\r\n        address to,\r\n        uint256 tokenId\r\n    ) internal virtual override {\r\n        super._beforeTokenTransfer(from, to, tokenId);\r\n\r\n        // minting token\r\n        if (from == address(0)) {\r\n            _addTokenToAllTokensEnumeration(tokenId);\r\n        } else if (from != to) {\r\n            _removeTokenFromOwnerEnumeration(from, tokenId);\r\n        }\r\n        if (to == address(0)) {\r\n            _removeTokenFromAllTokensEnumeration(tokenId);\r\n        } else if (to != from) {\r\n            _addTokenToOwnerEnumaretion(to, tokenId);\r\n        }\r\n    }\r\n\r\n    function _addTokenToAllTokensEnumeration(uint256 tokenId) private {\r\n        _idToNftIndex[tokenId] = _allNfts.length;\r\n        _allNfts.push(tokenId);\r\n    }\r\n\r\n    function _addTokenToOwnerEnumaretion(address to, uint256 tokenId) private {\r\n        uint256 length = ERC721.balanceOf(to);\r\n        _ownedTokens[to][length] = tokenId;\r\n        _idToOwnedIndex[tokenId] = length;\r\n    }\r\n\r\n    function _removeTokenFromOwnerEnumeration(address from, uint256 tokenId)\r\n        private\r\n    {\r\n        uint256 lastTokenIndex = ERC721.balanceOf(from) - 1;\r\n        uint256 tokenIndex = _idToOwnedIndex[tokenId];\r\n\r\n        if (tokenIndex != lastTokenIndex) {\r\n            uint256 lastTokenId = _ownedTokens[from][lastTokenIndex];\r\n\r\n            _ownedTokens[from][tokenIndex] = lastTokenId;\r\n            _idToOwnedIndex[lastTokenId] = tokenIndex;\r\n        }\r\n\r\n        delete _idToOwnedIndex[tokenId];\r\n        delete _ownedTokens[from][lastTokenIndex];\r\n    }\r\n\r\n    function _removeTokenFromAllTokensEnumeration(uint tokenId) private {\r\n    uint lastTokenIndex = _allNfts.length - 1;\r\n    uint tokenIndex = _idToNftIndex[tokenId];\r\n    uint lastTokenId = _allNfts[lastTokenIndex];\r\n\r\n    _allNfts[tokenIndex] = lastTokenId;\r\n    _idToNftIndex[lastTokenId] = tokenIndex;\r\n\r\n    delete _idToNftIndex[tokenId];\r\n    _allNfts.pop();\r\n  }\r\n\r\n}\r\n",
  "sourcePath": "C:\\Users\\nahue\\OneDrive\\Escritorio\\marketplace\\nft-marketplace\\contracts\\NftMarket.sol",
  "compiler": {
    "name": "solc",
    "version": "0.8.16+commit.07a7930e.Emscripten.clang"
  },
  "schemaVersion": "3.4.9",
  "updatedAt": "2022-09-20T02:39:15.175Z",
  "networkType": "ethereum",
  "devdoc": {
    "kind": "dev",
    "methods": {
      "approve(address,uint256)": {
        "details": "See {IERC721-approve}."
      },
      "balanceOf(address)": {
        "details": "See {IERC721-balanceOf}."
      },
      "getApproved(uint256)": {
        "details": "See {IERC721-getApproved}."
      },
      "isApprovedForAll(address,address)": {
        "details": "See {IERC721-isApprovedForAll}."
      },
      "name()": {
        "details": "See {IERC721Metadata-name}."
      },
      "owner()": {
        "details": "Returns the address of the current owner."
      },
      "ownerOf(uint256)": {
        "details": "See {IERC721-ownerOf}."
      },
      "renounceOwnership()": {
        "details": "Leaves the contract without owner. It will not be possible to call `onlyOwner` functions anymore. Can only be called by the current owner. NOTE: Renouncing ownership will leave the contract without an owner, thereby removing any functionality that is only available to the owner."
      },
      "safeTransferFrom(address,address,uint256)": {
        "details": "See {IERC721-safeTransferFrom}."
      },
      "safeTransferFrom(address,address,uint256,bytes)": {
        "details": "See {IERC721-safeTransferFrom}."
      },
      "setApprovalForAll(address,bool)": {
        "details": "See {IERC721-setApprovalForAll}."
      },
      "supportsInterface(bytes4)": {
        "details": "See {IERC165-supportsInterface}."
      },
      "symbol()": {
        "details": "See {IERC721Metadata-symbol}."
      },
      "tokenURI(uint256)": {
        "details": "See {IERC721Metadata-tokenURI}."
      },
      "transferFrom(address,address,uint256)": {
        "details": "See {IERC721-transferFrom}."
      },
      "transferOwnership(address)": {
        "details": "Transfers ownership of the contract to a new account (`newOwner`). Can only be called by the current owner."
      }
    },
    "version": 1
  },
  "userdoc": {
    "kind": "user",
    "methods": {},
    "version": 1
  }
}